{
  "contractName": "Covens",
  "abi": [
    {
      "inputs": [
        {
          "internalType": "string",
          "name": "name",
          "type": "string"
        },
        {
          "internalType": "string",
          "name": "symbol",
          "type": "string"
        },
        {
          "internalType": "string",
          "name": "baseTokenURI",
          "type": "string"
        }
      ],
      "stateMutability": "nonpayable",
      "type": "constructor"
    },
    {
      "anonymous": false,
      "inputs": [
        {
          "indexed": true,
          "internalType": "address",
          "name": "owner",
          "type": "address"
        },
        {
          "indexed": true,
          "internalType": "address",
          "name": "approved",
          "type": "address"
        },
        {
          "indexed": true,
          "internalType": "uint256",
          "name": "tokenId",
          "type": "uint256"
        }
      ],
      "name": "Approval",
      "type": "event"
    },
    {
      "anonymous": false,
      "inputs": [
        {
          "indexed": true,
          "internalType": "address",
          "name": "owner",
          "type": "address"
        },
        {
          "indexed": true,
          "internalType": "address",
          "name": "operator",
          "type": "address"
        },
        {
          "indexed": false,
          "internalType": "bool",
          "name": "approved",
          "type": "bool"
        }
      ],
      "name": "ApprovalForAll",
      "type": "event"
    },
    {
      "anonymous": false,
      "inputs": [
        {
          "indexed": false,
          "internalType": "address",
          "name": "account",
          "type": "address"
        }
      ],
      "name": "Paused",
      "type": "event"
    },
    {
      "anonymous": false,
      "inputs": [
        {
          "indexed": true,
          "internalType": "bytes32",
          "name": "role",
          "type": "bytes32"
        },
        {
          "indexed": true,
          "internalType": "bytes32",
          "name": "previousAdminRole",
          "type": "bytes32"
        },
        {
          "indexed": true,
          "internalType": "bytes32",
          "name": "newAdminRole",
          "type": "bytes32"
        }
      ],
      "name": "RoleAdminChanged",
      "type": "event"
    },
    {
      "anonymous": false,
      "inputs": [
        {
          "indexed": true,
          "internalType": "bytes32",
          "name": "role",
          "type": "bytes32"
        },
        {
          "indexed": true,
          "internalType": "address",
          "name": "account",
          "type": "address"
        },
        {
          "indexed": true,
          "internalType": "address",
          "name": "sender",
          "type": "address"
        }
      ],
      "name": "RoleGranted",
      "type": "event"
    },
    {
      "anonymous": false,
      "inputs": [
        {
          "indexed": true,
          "internalType": "bytes32",
          "name": "role",
          "type": "bytes32"
        },
        {
          "indexed": true,
          "internalType": "address",
          "name": "account",
          "type": "address"
        },
        {
          "indexed": true,
          "internalType": "address",
          "name": "sender",
          "type": "address"
        }
      ],
      "name": "RoleRevoked",
      "type": "event"
    },
    {
      "anonymous": false,
      "inputs": [
        {
          "indexed": true,
          "internalType": "address",
          "name": "from",
          "type": "address"
        },
        {
          "indexed": true,
          "internalType": "address",
          "name": "to",
          "type": "address"
        },
        {
          "indexed": true,
          "internalType": "uint256",
          "name": "tokenId",
          "type": "uint256"
        }
      ],
      "name": "Transfer",
      "type": "event"
    },
    {
      "anonymous": false,
      "inputs": [
        {
          "indexed": false,
          "internalType": "address",
          "name": "account",
          "type": "address"
        }
      ],
      "name": "Unpaused",
      "type": "event"
    },
    {
      "inputs": [],
      "name": "DEFAULT_ADMIN_ROLE",
      "outputs": [
        {
          "internalType": "bytes32",
          "name": "",
          "type": "bytes32"
        }
      ],
      "stateMutability": "view",
      "type": "function",
      "constant": true
    },
    {
      "inputs": [],
      "name": "MINTER_ROLE",
      "outputs": [
        {
          "internalType": "bytes32",
          "name": "",
          "type": "bytes32"
        }
      ],
      "stateMutability": "view",
      "type": "function",
      "constant": true
    },
    {
      "inputs": [],
      "name": "PAUSER_ROLE",
      "outputs": [
        {
          "internalType": "bytes32",
          "name": "",
          "type": "bytes32"
        }
      ],
      "stateMutability": "view",
      "type": "function",
      "constant": true
    },
    {
      "inputs": [
        {
          "internalType": "address",
          "name": "to",
          "type": "address"
        },
        {
          "internalType": "uint256",
          "name": "tokenId",
          "type": "uint256"
        }
      ],
      "name": "approve",
      "outputs": [],
      "stateMutability": "nonpayable",
      "type": "function"
    },
    {
      "inputs": [
        {
          "internalType": "address",
          "name": "owner",
          "type": "address"
        }
      ],
      "name": "balanceOf",
      "outputs": [
        {
          "internalType": "uint256",
          "name": "",
          "type": "uint256"
        }
      ],
      "stateMutability": "view",
      "type": "function",
      "constant": true
    },
    {
      "inputs": [
        {
          "internalType": "uint256",
          "name": "tokenId",
          "type": "uint256"
        }
      ],
      "name": "burn",
      "outputs": [],
      "stateMutability": "nonpayable",
      "type": "function"
    },
    {
      "inputs": [
        {
          "internalType": "uint256",
          "name": "tokenId",
          "type": "uint256"
        }
      ],
      "name": "getApproved",
      "outputs": [
        {
          "internalType": "address",
          "name": "",
          "type": "address"
        }
      ],
      "stateMutability": "view",
      "type": "function",
      "constant": true
    },
    {
      "inputs": [
        {
          "internalType": "bytes32",
          "name": "role",
          "type": "bytes32"
        }
      ],
      "name": "getRoleAdmin",
      "outputs": [
        {
          "internalType": "bytes32",
          "name": "",
          "type": "bytes32"
        }
      ],
      "stateMutability": "view",
      "type": "function",
      "constant": true
    },
    {
      "inputs": [
        {
          "internalType": "bytes32",
          "name": "role",
          "type": "bytes32"
        },
        {
          "internalType": "uint256",
          "name": "index",
          "type": "uint256"
        }
      ],
      "name": "getRoleMember",
      "outputs": [
        {
          "internalType": "address",
          "name": "",
          "type": "address"
        }
      ],
      "stateMutability": "view",
      "type": "function",
      "constant": true
    },
    {
      "inputs": [
        {
          "internalType": "bytes32",
          "name": "role",
          "type": "bytes32"
        }
      ],
      "name": "getRoleMemberCount",
      "outputs": [
        {
          "internalType": "uint256",
          "name": "",
          "type": "uint256"
        }
      ],
      "stateMutability": "view",
      "type": "function",
      "constant": true
    },
    {
      "inputs": [
        {
          "internalType": "bytes32",
          "name": "role",
          "type": "bytes32"
        },
        {
          "internalType": "address",
          "name": "account",
          "type": "address"
        }
      ],
      "name": "grantRole",
      "outputs": [],
      "stateMutability": "nonpayable",
      "type": "function"
    },
    {
      "inputs": [
        {
          "internalType": "bytes32",
          "name": "role",
          "type": "bytes32"
        },
        {
          "internalType": "address",
          "name": "account",
          "type": "address"
        }
      ],
      "name": "hasRole",
      "outputs": [
        {
          "internalType": "bool",
          "name": "",
          "type": "bool"
        }
      ],
      "stateMutability": "view",
      "type": "function",
      "constant": true
    },
    {
      "inputs": [
        {
          "internalType": "address",
          "name": "owner",
          "type": "address"
        },
        {
          "internalType": "address",
          "name": "operator",
          "type": "address"
        }
      ],
      "name": "isApprovedForAll",
      "outputs": [
        {
          "internalType": "bool",
          "name": "",
          "type": "bool"
        }
      ],
      "stateMutability": "view",
      "type": "function",
      "constant": true
    },
    {
      "inputs": [],
      "name": "name",
      "outputs": [
        {
          "internalType": "string",
          "name": "",
          "type": "string"
        }
      ],
      "stateMutability": "view",
      "type": "function",
      "constant": true
    },
    {
      "inputs": [
        {
          "internalType": "uint256",
          "name": "tokenId",
          "type": "uint256"
        }
      ],
      "name": "ownerOf",
      "outputs": [
        {
          "internalType": "address",
          "name": "",
          "type": "address"
        }
      ],
      "stateMutability": "view",
      "type": "function",
      "constant": true
    },
    {
      "inputs": [],
      "name": "paused",
      "outputs": [
        {
          "internalType": "bool",
          "name": "",
          "type": "bool"
        }
      ],
      "stateMutability": "view",
      "type": "function",
      "constant": true
    },
    {
      "inputs": [
        {
          "internalType": "bytes32",
          "name": "role",
          "type": "bytes32"
        },
        {
          "internalType": "address",
          "name": "account",
          "type": "address"
        }
      ],
      "name": "renounceRole",
      "outputs": [],
      "stateMutability": "nonpayable",
      "type": "function"
    },
    {
      "inputs": [
        {
          "internalType": "bytes32",
          "name": "role",
          "type": "bytes32"
        },
        {
          "internalType": "address",
          "name": "account",
          "type": "address"
        }
      ],
      "name": "revokeRole",
      "outputs": [],
      "stateMutability": "nonpayable",
      "type": "function"
    },
    {
      "inputs": [
        {
          "internalType": "address",
          "name": "from",
          "type": "address"
        },
        {
          "internalType": "address",
          "name": "to",
          "type": "address"
        },
        {
          "internalType": "uint256",
          "name": "tokenId",
          "type": "uint256"
        }
      ],
      "name": "safeTransferFrom",
      "outputs": [],
      "stateMutability": "nonpayable",
      "type": "function"
    },
    {
      "inputs": [
        {
          "internalType": "address",
          "name": "from",
          "type": "address"
        },
        {
          "internalType": "address",
          "name": "to",
          "type": "address"
        },
        {
          "internalType": "uint256",
          "name": "tokenId",
          "type": "uint256"
        },
        {
          "internalType": "bytes",
          "name": "_data",
          "type": "bytes"
        }
      ],
      "name": "safeTransferFrom",
      "outputs": [],
      "stateMutability": "nonpayable",
      "type": "function"
    },
    {
      "inputs": [
        {
          "internalType": "address",
          "name": "operator",
          "type": "address"
        },
        {
          "internalType": "bool",
          "name": "approved",
          "type": "bool"
        }
      ],
      "name": "setApprovalForAll",
      "outputs": [],
      "stateMutability": "nonpayable",
      "type": "function"
    },
    {
      "inputs": [],
      "name": "symbol",
      "outputs": [
        {
          "internalType": "string",
          "name": "",
          "type": "string"
        }
      ],
      "stateMutability": "view",
      "type": "function",
      "constant": true
    },
    {
      "inputs": [
        {
          "internalType": "uint256",
          "name": "index",
          "type": "uint256"
        }
      ],
      "name": "tokenByIndex",
      "outputs": [
        {
          "internalType": "uint256",
          "name": "",
          "type": "uint256"
        }
      ],
      "stateMutability": "view",
      "type": "function",
      "constant": true
    },
    {
      "inputs": [
        {
          "internalType": "address",
          "name": "owner",
          "type": "address"
        },
        {
          "internalType": "uint256",
          "name": "index",
          "type": "uint256"
        }
      ],
      "name": "tokenOfOwnerByIndex",
      "outputs": [
        {
          "internalType": "uint256",
          "name": "",
          "type": "uint256"
        }
      ],
      "stateMutability": "view",
      "type": "function",
      "constant": true
    },
    {
      "inputs": [],
      "name": "totalSupply",
      "outputs": [
        {
          "internalType": "uint256",
          "name": "",
          "type": "uint256"
        }
      ],
      "stateMutability": "view",
      "type": "function",
      "constant": true
    },
    {
      "inputs": [
        {
          "internalType": "address",
          "name": "from",
          "type": "address"
        },
        {
          "internalType": "address",
          "name": "to",
          "type": "address"
        },
        {
          "internalType": "uint256",
          "name": "tokenId",
          "type": "uint256"
        }
      ],
      "name": "transferFrom",
      "outputs": [],
      "stateMutability": "nonpayable",
      "type": "function"
    },
    {
      "inputs": [
        {
          "internalType": "uint256",
          "name": "tokenId",
          "type": "uint256"
        }
      ],
      "name": "tokenURI",
      "outputs": [
        {
          "internalType": "string",
          "name": "",
          "type": "string"
        }
      ],
      "stateMutability": "view",
      "type": "function",
      "constant": true
    },
    {
      "inputs": [
        {
          "internalType": "address",
          "name": "to",
          "type": "address"
        },
        {
          "internalType": "uint256",
          "name": "totalResearchCapacity",
          "type": "uint256"
        },
        {
          "internalType": "uint256",
          "name": "maxScepters",
          "type": "uint256"
        },
        {
          "internalType": "uint256[]",
          "name": "scepters",
          "type": "uint256[]"
        },
        {
          "internalType": "uint256[]",
          "name": "wizards",
          "type": "uint256[]"
        }
      ],
      "name": "mint",
      "outputs": [],
      "stateMutability": "nonpayable",
      "type": "function"
    },
    {
      "inputs": [
        {
          "internalType": "uint256",
          "name": "id",
          "type": "uint256"
        },
        {
          "internalType": "uint256",
          "name": "idScepter",
          "type": "uint256"
        },
        {
          "internalType": "uint256",
          "name": "amountResearchCapacity",
          "type": "uint256"
        }
      ],
      "name": "removeScepter",
      "outputs": [],
      "stateMutability": "nonpayable",
      "type": "function"
    },
    {
      "inputs": [
        {
          "internalType": "uint256",
          "name": "id",
          "type": "uint256"
        },
        {
          "internalType": "uint256",
          "name": "idWizard",
          "type": "uint256"
        },
        {
          "internalType": "uint256",
          "name": "amountSlots",
          "type": "uint256"
        }
      ],
      "name": "removeWizard",
      "outputs": [],
      "stateMutability": "nonpayable",
      "type": "function"
    },
    {
      "inputs": [
        {
          "internalType": "contract Wizards",
          "name": "wizard",
          "type": "address"
        },
        {
          "internalType": "address",
          "name": "operator",
          "type": "address"
        },
        {
          "internalType": "bool",
          "name": "approved",
          "type": "bool"
        }
      ],
      "name": "setWizardsApproveTo",
      "outputs": [],
      "stateMutability": "nonpayable",
      "type": "function"
    },
    {
      "inputs": [
        {
          "internalType": "contract Scepters",
          "name": "scepter",
          "type": "address"
        },
        {
          "internalType": "address",
          "name": "operator",
          "type": "address"
        },
        {
          "internalType": "bool",
          "name": "approved",
          "type": "bool"
        }
      ],
      "name": "setSceptersApproveTo",
      "outputs": [],
      "stateMutability": "nonpayable",
      "type": "function"
    },
    {
      "inputs": [
        {
          "internalType": "uint256",
          "name": "id",
          "type": "uint256"
        },
        {
          "internalType": "uint256",
          "name": "idScepter",
          "type": "uint256"
        },
        {
          "internalType": "uint256",
          "name": "amountResearchCapacity",
          "type": "uint256"
        }
      ],
      "name": "insertScepter",
      "outputs": [],
      "stateMutability": "nonpayable",
      "type": "function"
    },
    {
      "inputs": [
        {
          "internalType": "uint256",
          "name": "id",
          "type": "uint256"
        },
        {
          "internalType": "uint256",
          "name": "idWizard",
          "type": "uint256"
        },
        {
          "internalType": "uint256",
          "name": "amountSlots",
          "type": "uint256"
        }
      ],
      "name": "insertWizard",
      "outputs": [],
      "stateMutability": "nonpayable",
      "type": "function"
    },
    {
      "inputs": [
        {
          "internalType": "uint256",
          "name": "id",
          "type": "uint256"
        },
        {
          "internalType": "uint256",
          "name": "timestamp",
          "type": "uint256"
        }
      ],
      "name": "setLastInvestigation",
      "outputs": [],
      "stateMutability": "nonpayable",
      "type": "function"
    },
    {
      "inputs": [
        {
          "internalType": "uint256",
          "name": "id",
          "type": "uint256"
        },
        {
          "internalType": "uint256",
          "name": "amount",
          "type": "uint256"
        }
      ],
      "name": "setPowerCrystals",
      "outputs": [],
      "stateMutability": "nonpayable",
      "type": "function"
    },
    {
      "inputs": [
        {
          "internalType": "uint256",
          "name": "id",
          "type": "uint256"
        }
      ],
      "name": "getPowerCrystalsOf",
      "outputs": [
        {
          "internalType": "uint256",
          "name": "",
          "type": "uint256"
        }
      ],
      "stateMutability": "view",
      "type": "function",
      "constant": true
    },
    {
      "inputs": [
        {
          "internalType": "uint256",
          "name": "id",
          "type": "uint256"
        }
      ],
      "name": "getToken",
      "outputs": [
        {
          "components": [
            {
              "internalType": "uint256",
              "name": "id",
              "type": "uint256"
            },
            {
              "internalType": "uint256",
              "name": "creationTime",
              "type": "uint256"
            },
            {
              "internalType": "uint256",
              "name": "totalResearchCapacity",
              "type": "uint256"
            },
            {
              "internalType": "uint256",
              "name": "maxScepters",
              "type": "uint256"
            },
            {
              "internalType": "uint256",
              "name": "latestPotionTime",
              "type": "uint256"
            },
            {
              "internalType": "uint256[]",
              "name": "wizards",
              "type": "uint256[]"
            },
            {
              "internalType": "uint256[]",
              "name": "scepters",
              "type": "uint256[]"
            },
            {
              "internalType": "uint256",
              "name": "powerCrystals",
              "type": "uint256"
            }
          ],
          "internalType": "struct Covens.Coven",
          "name": "scepter",
          "type": "tuple"
        }
      ],
      "stateMutability": "view",
      "type": "function",
      "constant": true
    },
    {
      "inputs": [],
      "name": "pause",
      "outputs": [],
      "stateMutability": "nonpayable",
      "type": "function"
    },
    {
      "inputs": [],
      "name": "unpause",
      "outputs": [],
      "stateMutability": "nonpayable",
      "type": "function"
    },
    {
      "inputs": [
        {
          "internalType": "bytes4",
          "name": "interfaceId",
          "type": "bytes4"
        }
      ],
      "name": "supportsInterface",
      "outputs": [
        {
          "internalType": "bool",
          "name": "",
          "type": "bool"
        }
      ],
      "stateMutability": "view",
      "type": "function",
      "constant": true
    }
  ],
  "bytecode": "0x60806040523480156200001157600080fd5b50604051620061d3380380620061d3833981810160405281019062000037919062000633565b8282816002908051906020019062000051929190620003e6565b5080600390805190602001906200006a929190620003e6565b5050506000600c60006101000a81548160ff02191690831515021790555080600e9080519060200190620000a0929190620003e6565b50620000c56000801b620000b96200015060201b60201c565b6200015860201b60201c565b620001067f9f2df0fed2c77648de5860a4cc508cd0818c85b8b8a1ab4ceeef8d981c8956a6620000fa6200015060201b60201c565b6200015860201b60201c565b620001477f65d7a28e3265b37a6474929f336521b332c1681b933f6cb9f3376673440d862a6200013b6200015060201b60201c565b6200015860201b60201c565b50505062000751565b600033905090565b6200016f8282620001a060201b62001f441760201c565b6200019b8160016000858152602001908152602001600020620001b660201b62001f521790919060201c565b505050565b620001b28282620001ee60201b60201c565b5050565b6000620001e6836000018373ffffffffffffffffffffffffffffffffffffffff1660001b620002df60201b60201c565b905092915050565b6200020082826200035960201b60201c565b620002db57600160008084815260200190815260200160002060000160008373ffffffffffffffffffffffffffffffffffffffff1673ffffffffffffffffffffffffffffffffffffffff16815260200190815260200160002060006101000a81548160ff021916908315150217905550620002806200015060201b60201c565b73ffffffffffffffffffffffffffffffffffffffff168173ffffffffffffffffffffffffffffffffffffffff16837f2f8788117e7eff1d82e926ec794901d17c78024a50270940304540a733656f0d60405160405180910390a45b5050565b6000620002f38383620003c360201b60201c565b6200034e57826000018290806001815401808255809150506001900390600052602060002001600090919091909150558260000180549050836001016000848152602001908152602001600020819055506001905062000353565b600090505b92915050565b600080600084815260200190815260200160002060000160008373ffffffffffffffffffffffffffffffffffffffff1673ffffffffffffffffffffffffffffffffffffffff16815260200190815260200160002060009054906101000a900460ff16905092915050565b600080836001016000848152602001908152602001600020541415905092915050565b828054620003f4906200071b565b90600052602060002090601f01602090048101928262000418576000855562000464565b82601f106200043357805160ff191683800117855562000464565b8280016001018555821562000464579182015b828111156200046357825182559160200191906001019062000446565b5b50905062000473919062000477565b5090565b5b808211156200049257600081600090555060010162000478565b5090565b6000604051905090565b600080fd5b600080fd5b600080fd5b600080fd5b6000601f19601f8301169050919050565b7f4e487b7100000000000000000000000000000000000000000000000000000000600052604160045260246000fd5b620004ff82620004b4565b810181811067ffffffffffffffff82111715620005215762000520620004c5565b5b80604052505050565b60006200053662000496565b9050620005448282620004f4565b919050565b600067ffffffffffffffff821115620005675762000566620004c5565b5b6200057282620004b4565b9050602081019050919050565b60005b838110156200059f57808201518184015260208101905062000582565b83811115620005af576000848401525b50505050565b6000620005cc620005c68462000549565b6200052a565b905082815260208101848484011115620005eb57620005ea620004af565b5b620005f88482856200057f565b509392505050565b600082601f830112620006185762000617620004aa565b5b81516200062a848260208601620005b5565b91505092915050565b6000806000606084860312156200064f576200064e620004a0565b5b600084015167ffffffffffffffff81111562000670576200066f620004a5565b5b6200067e8682870162000600565b935050602084015167ffffffffffffffff811115620006a257620006a1620004a5565b5b620006b08682870162000600565b925050604084015167ffffffffffffffff811115620006d457620006d3620004a5565b5b620006e28682870162000600565b9150509250925092565b7f4e487b7100000000000000000000000000000000000000000000000000000000600052602260045260246000fd5b600060028204905060018216806200073457607f821691505b602082108114156200074b576200074a620006ec565b5b50919050565b615a7280620007616000396000f3fe608060405234801561001057600080fd5b50600436106102535760003560e01c806374fdec6811610146578063b742250e116100c3578063d547741f11610087578063d547741f146106f0578063e4b50cb81461070c578063e63ab1e91461073c578063e985e9c51461075a578063ead8b6eb1461078a578063f4bc8ae8146107ba57610253565b8063b742250e1461063a578063b88d4fde14610656578063c87b56dd14610672578063ca15c873146106a2578063d5391393146106d257610253565b806395d89b411161010a57806395d89b41146105aa578063a217fddf146105c8578063a22cb465146105e6578063b14a217114610602578063b54ee11c1461061e57610253565b806374fdec68146105085780637cb5990e146105245780638456cb59146105405780639010d07c1461054a57806391d148541461057a57610253565b806336568abe116101d45780634f6ccce7116101985780634f6ccce71461043e578063537f96191461046e5780635c975abb1461048a5780636352211e146104a857806370a08231146104d857610253565b806336568abe146103c45780633d7f35c5146103e05780633f4ba83a146103fc57806342842e0e1461040657806342966c681461042257610253565b806318160ddd1161021b57806318160ddd1461030e57806323b872dd1461032c578063248a9ca3146103485780632f2ff15d146103785780632f745c591461039457610253565b806301c7e8231461025857806301ffc9a71461027457806306fdde03146102a4578063081812fc146102c2578063095ea7b3146102f2575b600080fd5b610272600480360381019061026d9190613c7d565b6107d6565b005b61028e60048036038101906102899190613d28565b6109cf565b60405161029b9190613d70565b60405180910390f35b6102ac6109e1565b6040516102b99190613e24565b60405180910390f35b6102dc60048036038101906102d79190613e46565b610a73565b6040516102e99190613eb4565b60405180910390f35b61030c60048036038101906103079190613efb565b610af8565b005b610316610c10565b6040516103239190613f4a565b60405180910390f35b61034660048036038101906103419190613f65565b610c1d565b005b610362600480360381019061035d9190613fee565b610c7d565b60405161036f919061402a565b60405180910390f35b610392600480360381019061038d9190614045565b610c9c565b005b6103ae60048036038101906103a99190613efb565b610cd0565b6040516103bb9190613f4a565b60405180910390f35b6103de60048036038101906103d99190614045565b610d75565b005b6103fa60048036038101906103f59190613c7d565b610da9565b005b610404610e88565b005b610420600480360381019061041b9190613f65565b610f02565b005b61043c60048036038101906104379190613e46565b610f22565b005b61045860048036038101906104539190613e46565b610f7e565b6040516104659190613f4a565b60405180910390f35b61048860048036038101906104839190613c7d565b610fef565b005b6104926110ce565b60405161049f9190613d70565b60405180910390f35b6104c260048036038101906104bd9190613e46565b6110e5565b6040516104cf9190613eb4565b60405180910390f35b6104f260048036038101906104ed9190614085565b611197565b6040516104ff9190613f4a565b60405180910390f35b610522600480360381019061051d919061411c565b61124f565b005b61053e600480360381019061053991906142b7565b611331565b005b61054861149f565b005b610564600480360381019061055f919061436a565b611519565b6040516105719190613eb4565b60405180910390f35b610594600480360381019061058f9190614045565b611548565b6040516105a19190613d70565b60405180910390f35b6105b26115b2565b6040516105bf9190613e24565b60405180910390f35b6105d0611644565b6040516105dd919061402a565b60405180910390f35b61060060048036038101906105fb91906143aa565b61164b565b005b61061c60048036038101906106179190613c7d565b6117cc565b005b610638600480360381019061063391906143ea565b6119c5565b005b610654600480360381019061064f91906143ea565b611a54565b005b610670600480360381019061066b91906144df565b611ae3565b005b61068c60048036038101906106879190613e46565b611b45565b6040516106999190613e24565b60405180910390f35b6106bc60048036038101906106b79190613fee565b611bf4565b6040516106c99190613f4a565b60405180910390f35b6106da611c18565b6040516106e7919061402a565b60405180910390f35b61070a60048036038101906107059190614045565b611c3c565b005b61072660048036038101906107219190613e46565b611c70565b60405161073391906146d7565b60405180910390f35b610744611d8a565b604051610751919061402a565b60405180910390f35b610774600480360381019061076f91906146f9565b611dae565b6040516107819190613d70565b60405180910390f35b6107a4600480360381019061079f9190613e46565b611e42565b6040516107b19190613f4a565b60405180910390f35b6107d460048036038101906107cf9190614777565b611e62565b005b6108077f9f2df0fed2c77648de5860a4cc508cd0818c85b8b8a1ab4ceeef8d981c8956a6610802611f82565b611548565b610846576040517f08c379a000000000000000000000000000000000000000000000000000000000815260040161083d9061483c565b60405180910390fd5b6000805b600f60008681526020019081526020016000206006018054905081108015610870575081155b156109915783600f6000878152602001908152602001600020600601828154811061089e5761089d61485c565b5b9060005260206000200154141561097e57600f60008681526020019081526020016000206006016001600f6000888152602001908152602001600020600601805490506108eb91906148ba565b815481106108fc576108fb61485c565b5b9060005260206000200154600f6000878152602001908152602001600020600601828154811061092f5761092e61485c565b5b9060005260206000200181905550600f6000868152602001908152602001600020600601805480610963576109626148ee565b5b60019003818190600052602060002001600090559055600191505b80806109899061491d565b91505061084a565b508061099c57600080fd5b81600f600086815260200190815260200160002060020160008282546109c291906148ba565b9250508190555050505050565b60006109da82611f8a565b9050919050565b6060600280546109f090614995565b80601f0160208091040260200160405190810160405280929190818152602001828054610a1c90614995565b8015610a695780601f10610a3e57610100808354040283529160200191610a69565b820191906000526020600020905b815481529060010190602001808311610a4c57829003601f168201915b5050505050905090565b6000610a7e82612004565b610abd576040517f08c379a0000000000000000000000000000000000000000000000000000000008152600401610ab490614a39565b60405180910390fd5b6006600083815260200190815260200160002060009054906101000a900473ffffffffffffffffffffffffffffffffffffffff169050919050565b6000610b03826110e5565b90508073ffffffffffffffffffffffffffffffffffffffff168373ffffffffffffffffffffffffffffffffffffffff161415610b74576040517f08c379a0000000000000000000000000000000000000000000000000000000008152600401610b6b90614acb565b60405180910390fd5b8073ffffffffffffffffffffffffffffffffffffffff16610b93611f82565b73ffffffffffffffffffffffffffffffffffffffff161480610bc25750610bc181610bbc611f82565b611dae565b5b610c01576040517f08c379a0000000000000000000000000000000000000000000000000000000008152600401610bf890614b5d565b60405180910390fd5b610c0b8383612070565b505050565b6000600a80549050905090565b610c2e610c28611f82565b82612129565b610c6d576040517f08c379a0000000000000000000000000000000000000000000000000000000008152600401610c6490614bef565b60405180910390fd5b610c78838383612207565b505050565b6000806000838152602001908152602001600020600101549050919050565b610ca68282612463565b610ccb8160016000858152602001908152602001600020611f5290919063ffffffff16565b505050565b6000610cdb83611197565b8210610d1c576040517f08c379a0000000000000000000000000000000000000000000000000000000008152600401610d1390614c81565b60405180910390fd5b600860008473ffffffffffffffffffffffffffffffffffffffff1673ffffffffffffffffffffffffffffffffffffffff168152602001908152602001600020600083815260200190815260200160002054905092915050565b610d7f828261248c565b610da4816001600085815260200190815260200160002061250f90919063ffffffff16565b505050565b610dda7f9f2df0fed2c77648de5860a4cc508cd0818c85b8b8a1ab4ceeef8d981c8956a6610dd5611f82565b611548565b610e19576040517f08c379a0000000000000000000000000000000000000000000000000000000008152600401610e109061483c565b60405180910390fd5b600f600084815260200190815260200160002060050182908060018154018082558091505060019003906000526020600020016000909190919091505580600f60008581526020019081526020016000206003016000828254610e7c9190614ca1565b92505081905550505050565b610eb97f65d7a28e3265b37a6474929f336521b332c1681b933f6cb9f3376673440d862a610eb4611f82565b611548565b610ef8576040517f08c379a0000000000000000000000000000000000000000000000000000000008152600401610eef90614d69565b60405180910390fd5b610f0061253f565b565b610f1d83838360405180602001604052806000815250611ae3565b505050565b610f33610f2d611f82565b82612129565b610f72576040517f08c379a0000000000000000000000000000000000000000000000000000000008152600401610f6990614dfb565b60405180910390fd5b610f7b816125e1565b50565b6000610f88610c10565b8210610fc9576040517f08c379a0000000000000000000000000000000000000000000000000000000008152600401610fc090614e8d565b60405180910390fd5b600a8281548110610fdd57610fdc61485c565b5b90600052602060002001549050919050565b6110207f9f2df0fed2c77648de5860a4cc508cd0818c85b8b8a1ab4ceeef8d981c8956a661101b611f82565b611548565b61105f576040517f08c379a00000000000000000000000000000000000000000000000000000000081526004016110569061483c565b60405180910390fd5b600f600084815260200190815260200160002060060182908060018154018082558091505060019003906000526020600020016000909190919091505580600f600085815260200190815260200160002060020160008282546110c29190614ca1565b92505081905550505050565b6000600c60009054906101000a900460ff16905090565b6000806004600084815260200190815260200160002060009054906101000a900473ffffffffffffffffffffffffffffffffffffffff169050600073ffffffffffffffffffffffffffffffffffffffff168173ffffffffffffffffffffffffffffffffffffffff16141561118e576040517f08c379a000000000000000000000000000000000000000000000000000000000815260040161118590614f1f565b60405180910390fd5b80915050919050565b60008073ffffffffffffffffffffffffffffffffffffffff168273ffffffffffffffffffffffffffffffffffffffff161415611208576040517f08c379a00000000000000000000000000000000000000000000000000000000081526004016111ff90614fb1565b60405180910390fd5b600560008373ffffffffffffffffffffffffffffffffffffffff1673ffffffffffffffffffffffffffffffffffffffff168152602001908152602001600020549050919050565b6112807f9f2df0fed2c77648de5860a4cc508cd0818c85b8b8a1ab4ceeef8d981c8956a661127b611f82565b611548565b6112bf576040517f08c379a00000000000000000000000000000000000000000000000000000000081526004016112b69061483c565b60405180910390fd5b8273ffffffffffffffffffffffffffffffffffffffff1663a22cb46583836040518363ffffffff1660e01b81526004016112fa929190614fd1565b600060405180830381600087803b15801561131457600080fd5b505af1158015611328573d6000803e3d6000fd5b50505050505050565b6113627f9f2df0fed2c77648de5860a4cc508cd0818c85b8b8a1ab4ceeef8d981c8956a661135d611f82565b611548565b6113a1576040517f08c379a00000000000000000000000000000000000000000000000000000000081526004016113989061483c565b60405180910390fd5b6113b4856113af600d6126f2565b612700565b6040518061010001604052806113ca600d6126f2565b8152602001428152602001858152602001848152602001600081526020018281526020018381526020016000815250600f6000611407600d6126f2565b8152602001908152602001600020600082015181600001556020820151816001015560408201518160020155606082015181600301556080820151816004015560a0820151816005019080519060200190611463929190613b84565b5060c0820151816006019080519060200190611480929190613b84565b5060e08201518160070155905050611498600d6128ce565b5050505050565b6114d07f65d7a28e3265b37a6474929f336521b332c1681b933f6cb9f3376673440d862a6114cb611f82565b611548565b61150f576040517f08c379a00000000000000000000000000000000000000000000000000000000081526004016115069061506c565b60405180910390fd5b6115176128e4565b565b6000611540826001600086815260200190815260200160002061298790919063ffffffff16565b905092915050565b600080600084815260200190815260200160002060000160008373ffffffffffffffffffffffffffffffffffffffff1673ffffffffffffffffffffffffffffffffffffffff16815260200190815260200160002060009054906101000a900460ff16905092915050565b6060600380546115c190614995565b80601f01602080910402602001604051908101604052809291908181526020018280546115ed90614995565b801561163a5780601f1061160f5761010080835404028352916020019161163a565b820191906000526020600020905b81548152906001019060200180831161161d57829003601f168201915b5050505050905090565b6000801b81565b611653611f82565b73ffffffffffffffffffffffffffffffffffffffff168273ffffffffffffffffffffffffffffffffffffffff1614156116c1576040517f08c379a00000000000000000000000000000000000000000000000000000000081526004016116b8906150d8565b60405180910390fd5b80600760006116ce611f82565b73ffffffffffffffffffffffffffffffffffffffff1673ffffffffffffffffffffffffffffffffffffffff16815260200190815260200160002060008473ffffffffffffffffffffffffffffffffffffffff1673ffffffffffffffffffffffffffffffffffffffff16815260200190815260200160002060006101000a81548160ff0219169083151502179055508173ffffffffffffffffffffffffffffffffffffffff1661177b611f82565b73ffffffffffffffffffffffffffffffffffffffff167f17307eab39ab6107e8899845ad3d59bd9653f200f220920489ca2b5937696c31836040516117c09190613d70565b60405180910390a35050565b6117fd7f9f2df0fed2c77648de5860a4cc508cd0818c85b8b8a1ab4ceeef8d981c8956a66117f8611f82565b611548565b61183c576040517f08c379a00000000000000000000000000000000000000000000000000000000081526004016118339061483c565b60405180910390fd5b6000805b600f60008681526020019081526020016000206005018054905081108015611866575081155b156119875783600f600087815260200190815260200160002060050182815481106118945761189361485c565b5b9060005260206000200154141561197457600f60008681526020019081526020016000206005016001600f6000888152602001908152602001600020600501805490506118e191906148ba565b815481106118f2576118f161485c565b5b9060005260206000200154600f600087815260200190815260200160002060050182815481106119255761192461485c565b5b9060005260206000200181905550600f6000868152602001908152602001600020600501805480611959576119586148ee565b5b60019003818190600052602060002001600090559055600191505b808061197f9061491d565b915050611840565b508061199257600080fd5b81600f600086815260200190815260200160002060030160008282546119b891906148ba565b9250508190555050505050565b6119f67f9f2df0fed2c77648de5860a4cc508cd0818c85b8b8a1ab4ceeef8d981c8956a66119f1611f82565b611548565b611a35576040517f08c379a0000000000000000000000000000000000000000000000000000000008152600401611a2c9061483c565b60405180910390fd5b80600f6000848152602001908152602001600020600701819055505050565b611a857f9f2df0fed2c77648de5860a4cc508cd0818c85b8b8a1ab4ceeef8d981c8956a6611a80611f82565b611548565b611ac4576040517f08c379a0000000000000000000000000000000000000000000000000000000008152600401611abb9061483c565b60405180910390fd5b80600f6000848152602001908152602001600020600401819055505050565b611af4611aee611f82565b83612129565b611b33576040517f08c379a0000000000000000000000000000000000000000000000000000000008152600401611b2a90614bef565b60405180910390fd5b611b3f848484846129a1565b50505050565b6060611b5082612004565b611b8f576040517f08c379a0000000000000000000000000000000000000000000000000000000008152600401611b869061516a565b60405180910390fd5b6000611b996129fd565b90506000815111611bb95760405180602001604052806000815250611bec565b80611bcb611bc685612a8f565b612b06565b604051602001611bdc9291906151c6565b6040516020818303038152906040525b915050919050565b6000611c1160016000848152602001908152602001600020612c67565b9050919050565b7f9f2df0fed2c77648de5860a4cc508cd0818c85b8b8a1ab4ceeef8d981c8956a681565b611c468282612c7c565b611c6b816001600085815260200190815260200160002061250f90919063ffffffff16565b505050565b611c78613bd1565b600f600083815260200190815260200160002060405180610100016040529081600082015481526020016001820154815260200160028201548152602001600382015481526020016004820154815260200160058201805480602002602001604051908101604052809291908181526020018280548015611d1857602002820191906000526020600020905b815481526020019060010190808311611d04575b5050505050815260200160068201805480602002602001604051908101604052809291908181526020018280548015611d7057602002820191906000526020600020905b815481526020019060010190808311611d5c575b505050505081526020016007820154815250509050919050565b7f65d7a28e3265b37a6474929f336521b332c1681b933f6cb9f3376673440d862a81565b6000600760008473ffffffffffffffffffffffffffffffffffffffff1673ffffffffffffffffffffffffffffffffffffffff16815260200190815260200160002060008373ffffffffffffffffffffffffffffffffffffffff1673ffffffffffffffffffffffffffffffffffffffff16815260200190815260200160002060009054906101000a900460ff16905092915050565b6000600f6000838152602001908152602001600020600701549050919050565b611e937f9f2df0fed2c77648de5860a4cc508cd0818c85b8b8a1ab4ceeef8d981c8956a6611e8e611f82565b611548565b611ed2576040517f08c379a0000000000000000000000000000000000000000000000000000000008152600401611ec99061483c565b60405180910390fd5b8273ffffffffffffffffffffffffffffffffffffffff1663a22cb46583836040518363ffffffff1660e01b8152600401611f0d929190614fd1565b600060405180830381600087803b158015611f2757600080fd5b505af1158015611f3b573d6000803e3d6000fd5b50505050505050565b611f4e8282612ca5565b5050565b6000611f7a836000018373ffffffffffffffffffffffffffffffffffffffff1660001b612d85565b905092915050565b600033905090565b60007f780e9d63000000000000000000000000000000000000000000000000000000007bffffffffffffffffffffffffffffffffffffffffffffffffffffffff1916827bffffffffffffffffffffffffffffffffffffffffffffffffffffffff19161480611ffd5750611ffc82612df5565b5b9050919050565b60008073ffffffffffffffffffffffffffffffffffffffff166004600084815260200190815260200160002060009054906101000a900473ffffffffffffffffffffffffffffffffffffffff1673ffffffffffffffffffffffffffffffffffffffff1614159050919050565b816006600083815260200190815260200160002060006101000a81548173ffffffffffffffffffffffffffffffffffffffff021916908373ffffffffffffffffffffffffffffffffffffffff160217905550808273ffffffffffffffffffffffffffffffffffffffff166120e3836110e5565b73ffffffffffffffffffffffffffffffffffffffff167f8c5be1e5ebec7d5bd14f71427d1e84f3dd0314c0f7b2291e5b200ac8c7c3b92560405160405180910390a45050565b600061213482612004565b612173576040517f08c379a000000000000000000000000000000000000000000000000000000000815260040161216a9061525c565b60405180910390fd5b600061217e836110e5565b90508073ffffffffffffffffffffffffffffffffffffffff168473ffffffffffffffffffffffffffffffffffffffff1614806121ed57508373ffffffffffffffffffffffffffffffffffffffff166121d584610a73565b73ffffffffffffffffffffffffffffffffffffffff16145b806121fe57506121fd8185611dae565b5b91505092915050565b8273ffffffffffffffffffffffffffffffffffffffff16612227826110e5565b73ffffffffffffffffffffffffffffffffffffffff161461227d576040517f08c379a0000000000000000000000000000000000000000000000000000000008152600401612274906152ee565b60405180910390fd5b600073ffffffffffffffffffffffffffffffffffffffff168273ffffffffffffffffffffffffffffffffffffffff1614156122ed576040517f08c379a00000000000000000000000000000000000000000000000000000000081526004016122e490615380565b60405180910390fd5b6122f8838383612ed7565b612303600082612070565b6001600560008573ffffffffffffffffffffffffffffffffffffffff1673ffffffffffffffffffffffffffffffffffffffff168152602001908152602001600020600082825461235391906148ba565b925050819055506001600560008473ffffffffffffffffffffffffffffffffffffffff1673ffffffffffffffffffffffffffffffffffffffff16815260200190815260200160002060008282546123aa9190614ca1565b92505081905550816004600083815260200190815260200160002060006101000a81548173ffffffffffffffffffffffffffffffffffffffff021916908373ffffffffffffffffffffffffffffffffffffffff160217905550808273ffffffffffffffffffffffffffffffffffffffff168473ffffffffffffffffffffffffffffffffffffffff167fddf252ad1be2c89b69c2b068fc378daa952ba7f163c4a11628f55a4df523b3ef60405160405180910390a4505050565b61246c82610c7d565b61247d81612478611f82565b612ee7565b6124878383612ca5565b505050565b612494611f82565b73ffffffffffffffffffffffffffffffffffffffff168173ffffffffffffffffffffffffffffffffffffffff1614612501576040517f08c379a00000000000000000000000000000000000000000000000000000000081526004016124f890615412565b60405180910390fd5b61250b8282612f84565b5050565b6000612537836000018373ffffffffffffffffffffffffffffffffffffffff1660001b613065565b905092915050565b6125476110ce565b612586576040517f08c379a000000000000000000000000000000000000000000000000000000000815260040161257d9061547e565b60405180910390fd5b6000600c60006101000a81548160ff0219169083151502179055507f5db9ee0a495bf2e6ff9c91a7834c1ba4fdd244a5e8aa4e537bd38aeae4b073aa6125ca611f82565b6040516125d79190613eb4565b60405180910390a1565b60006125ec826110e5565b90506125fa81600084612ed7565b612605600083612070565b6001600560008373ffffffffffffffffffffffffffffffffffffffff1673ffffffffffffffffffffffffffffffffffffffff168152602001908152602001600020600082825461265591906148ba565b925050819055506004600083815260200190815260200160002060006101000a81549073ffffffffffffffffffffffffffffffffffffffff021916905581600073ffffffffffffffffffffffffffffffffffffffff168273ffffffffffffffffffffffffffffffffffffffff167fddf252ad1be2c89b69c2b068fc378daa952ba7f163c4a11628f55a4df523b3ef60405160405180910390a45050565b600081600001549050919050565b600073ffffffffffffffffffffffffffffffffffffffff168273ffffffffffffffffffffffffffffffffffffffff161415612770576040517f08c379a0000000000000000000000000000000000000000000000000000000008152600401612767906154ea565b60405180910390fd5b61277981612004565b156127b9576040517f08c379a00000000000000000000000000000000000000000000000000000000081526004016127b090615556565b60405180910390fd5b6127c560008383612ed7565b6001600560008473ffffffffffffffffffffffffffffffffffffffff1673ffffffffffffffffffffffffffffffffffffffff16815260200190815260200160002060008282546128159190614ca1565b92505081905550816004600083815260200190815260200160002060006101000a81548173ffffffffffffffffffffffffffffffffffffffff021916908373ffffffffffffffffffffffffffffffffffffffff160217905550808273ffffffffffffffffffffffffffffffffffffffff16600073ffffffffffffffffffffffffffffffffffffffff167fddf252ad1be2c89b69c2b068fc378daa952ba7f163c4a11628f55a4df523b3ef60405160405180910390a45050565b6001816000016000828254019250508190555050565b6128ec6110ce565b1561292c576040517f08c379a0000000000000000000000000000000000000000000000000000000008152600401612923906155c2565b60405180910390fd5b6001600c60006101000a81548160ff0219169083151502179055507f62e78cea01bee320cd4e420270b5ea74000d11b0c9f74754ebdbfc544b05a258612970611f82565b60405161297d9190613eb4565b60405180910390a1565b60006129968360000183613179565b60001c905092915050565b6129ac848484612207565b6129b8848484846131a4565b6129f7576040517f08c379a00000000000000000000000000000000000000000000000000000000081526004016129ee90615654565b60405180910390fd5b50505050565b6060600e8054612a0c90614995565b80601f0160208091040260200160405190810160405280929190818152602001828054612a3890614995565b8015612a855780601f10612a5a57610100808354040283529160200191612a85565b820191906000526020600020905b815481529060010190602001808311612a6857829003601f168201915b5050505050905090565b600080600f60008481526020019081526020016000206002015490506103e8811015612abf576000915050612b01565b6107d0811015612ad3576001915050612b01565b610bb8811015612ae7576002915050612b01565b610fa0811015612afb576003915050612b01565b60049150505b919050565b60606000821415612b4e576040518060400160405280600181526020017f30000000000000000000000000000000000000000000000000000000000000008152509050612c62565b600082905060005b60008214612b80578080612b699061491d565b915050600a82612b7991906156a3565b9150612b56565b60008167ffffffffffffffff811115612b9c57612b9b614174565b5b6040519080825280601f01601f191660200182016040528015612bce5781602001600182028036833780820191505090505b5090505b60008514612c5b57600182612be791906148ba565b9150600a85612bf691906156d4565b6030612c029190614ca1565b60f81b818381518110612c1857612c1761485c565b5b60200101907effffffffffffffffffffffffffffffffffffffffffffffffffffffffffffff1916908160001a905350600a85612c5491906156a3565b9450612bd2565b8093505050505b919050565b6000612c758260000161332c565b9050919050565b612c8582610c7d565b612c9681612c91611f82565b612ee7565b612ca08383612f84565b505050565b612caf8282611548565b612d8157600160008084815260200190815260200160002060000160008373ffffffffffffffffffffffffffffffffffffffff1673ffffffffffffffffffffffffffffffffffffffff16815260200190815260200160002060006101000a81548160ff021916908315150217905550612d26611f82565b73ffffffffffffffffffffffffffffffffffffffff168173ffffffffffffffffffffffffffffffffffffffff16837f2f8788117e7eff1d82e926ec794901d17c78024a50270940304540a733656f0d60405160405180910390a45b5050565b6000612d91838361333d565b612dea578260000182908060018154018082558091505060019003906000526020600020016000909190919091505582600001805490508360010160008481526020019081526020016000208190555060019050612def565b600090505b92915050565b60007f80ac58cd000000000000000000000000000000000000000000000000000000007bffffffffffffffffffffffffffffffffffffffffffffffffffffffff1916827bffffffffffffffffffffffffffffffffffffffffffffffffffffffff19161480612ec057507f5b5e139f000000000000000000000000000000000000000000000000000000007bffffffffffffffffffffffffffffffffffffffffffffffffffffffff1916827bffffffffffffffffffffffffffffffffffffffffffffffffffffffff1916145b80612ed05750612ecf82613360565b5b9050919050565b612ee28383836133da565b505050565b612ef18282611548565b612f8057612f168173ffffffffffffffffffffffffffffffffffffffff166014613432565b612f248360001c6020613432565b604051602001612f3592919061579d565b6040516020818303038152906040526040517f08c379a0000000000000000000000000000000000000000000000000000000008152600401612f779190613e24565b60405180910390fd5b5050565b612f8e8282611548565b1561306157600080600084815260200190815260200160002060000160008373ffffffffffffffffffffffffffffffffffffffff1673ffffffffffffffffffffffffffffffffffffffff16815260200190815260200160002060006101000a81548160ff021916908315150217905550613006611f82565b73ffffffffffffffffffffffffffffffffffffffff168173ffffffffffffffffffffffffffffffffffffffff16837ff6391f5c32d9c69d2a47ea670b442974b53935d1edc7fd64eb21e047a839171b60405160405180910390a45b5050565b6000808360010160008481526020019081526020016000205490506000811461316d57600060018261309791906148ba565b90506000600186600001805490506130af91906148ba565b905081811461311e5760008660000182815481106130d0576130cf61485c565b5b90600052602060002001549050808760000184815481106130f4576130f361485c565b5b90600052602060002001819055508387600101600083815260200190815260200160002081905550505b85600001805480613132576131316148ee565b5b600190038181906000526020600020016000905590558560010160008681526020019081526020016000206000905560019350505050613173565b60009150505b92915050565b60008260000182815481106131915761319061485c565b5b9060005260206000200154905092915050565b60006131c58473ffffffffffffffffffffffffffffffffffffffff1661366e565b1561331f578373ffffffffffffffffffffffffffffffffffffffff1663150b7a026131ee611f82565b8786866040518563ffffffff1660e01b8152600401613210949392919061582c565b6020604051808303816000875af192505050801561324c57506040513d601f19601f82011682018060405250810190613249919061588d565b60015b6132cf573d806000811461327c576040519150601f19603f3d011682016040523d82523d6000602084013e613281565b606091505b506000815114156132c7576040517f08c379a00000000000000000000000000000000000000000000000000000000081526004016132be90615654565b60405180910390fd5b805181602001fd5b63150b7a0260e01b7bffffffffffffffffffffffffffffffffffffffffffffffffffffffff1916817bffffffffffffffffffffffffffffffffffffffffffffffffffffffff191614915050613324565b600190505b949350505050565b600081600001805490509050919050565b600080836001016000848152602001908152602001600020541415905092915050565b60007f5a05180f000000000000000000000000000000000000000000000000000000007bffffffffffffffffffffffffffffffffffffffffffffffffffffffff1916827bffffffffffffffffffffffffffffffffffffffffffffffffffffffff191614806133d357506133d282613681565b5b9050919050565b6133e58383836136fb565b6133ed6110ce565b1561342d576040517f08c379a00000000000000000000000000000000000000000000000000000000081526004016134249061592c565b60405180910390fd5b505050565b606060006002836002613445919061594c565b61344f9190614ca1565b67ffffffffffffffff81111561346857613467614174565b5b6040519080825280601f01601f19166020018201604052801561349a5781602001600182028036833780820191505090505b5090507f3000000000000000000000000000000000000000000000000000000000000000816000815181106134d2576134d161485c565b5b60200101907effffffffffffffffffffffffffffffffffffffffffffffffffffffffffffff1916908160001a9053507f7800000000000000000000000000000000000000000000000000000000000000816001815181106135365761353561485c565b5b60200101907effffffffffffffffffffffffffffffffffffffffffffffffffffffffffffff1916908160001a90535060006001846002613576919061594c565b6135809190614ca1565b90505b6001811115613620577f3031323334353637383961626364656600000000000000000000000000000000600f8616601081106135c2576135c161485c565b5b1a60f81b8282815181106135d9576135d861485c565b5b60200101907effffffffffffffffffffffffffffffffffffffffffffffffffffffffffffff1916908160001a905350600485901c945080613619906159a6565b9050613583565b5060008414613664576040517f08c379a000000000000000000000000000000000000000000000000000000000815260040161365b90615a1c565b60405180910390fd5b8091505092915050565b600080823b905060008111915050919050565b60007f7965db0b000000000000000000000000000000000000000000000000000000007bffffffffffffffffffffffffffffffffffffffffffffffffffffffff1916827bffffffffffffffffffffffffffffffffffffffffffffffffffffffff191614806136f457506136f38261380f565b5b9050919050565b613706838383613879565b600073ffffffffffffffffffffffffffffffffffffffff168373ffffffffffffffffffffffffffffffffffffffff161415613749576137448161387e565b613788565b8173ffffffffffffffffffffffffffffffffffffffff168373ffffffffffffffffffffffffffffffffffffffff16146137875761378683826138c7565b5b5b600073ffffffffffffffffffffffffffffffffffffffff168273ffffffffffffffffffffffffffffffffffffffff1614156137cb576137c681613a34565b61380a565b8273ffffffffffffffffffffffffffffffffffffffff168273ffffffffffffffffffffffffffffffffffffffff1614613809576138088282613b05565b5b5b505050565b60007f01ffc9a7000000000000000000000000000000000000000000000000000000007bffffffffffffffffffffffffffffffffffffffffffffffffffffffff1916827bffffffffffffffffffffffffffffffffffffffffffffffffffffffff1916149050919050565b505050565b600a80549050600b600083815260200190815260200160002081905550600a81908060018154018082558091505060019003906000526020600020016000909190919091505550565b600060016138d484611197565b6138de91906148ba565b90506000600960008481526020019081526020016000205490508181146139c3576000600860008673ffffffffffffffffffffffffffffffffffffffff1673ffffffffffffffffffffffffffffffffffffffff168152602001908152602001600020600084815260200190815260200160002054905080600860008773ffffffffffffffffffffffffffffffffffffffff1673ffffffffffffffffffffffffffffffffffffffff168152602001908152602001600020600084815260200190815260200160002081905550816009600083815260200190815260200160002081905550505b6009600084815260200190815260200160002060009055600860008573ffffffffffffffffffffffffffffffffffffffff1673ffffffffffffffffffffffffffffffffffffffff16815260200190815260200160002060008381526020019081526020016000206000905550505050565b60006001600a80549050613a4891906148ba565b90506000600b60008481526020019081526020016000205490506000600a8381548110613a7857613a7761485c565b5b9060005260206000200154905080600a8381548110613a9a57613a9961485c565b5b906000526020600020018190555081600b600083815260200190815260200160002081905550600b600085815260200190815260200160002060009055600a805480613ae957613ae86148ee565b5b6001900381819060005260206000200160009055905550505050565b6000613b1083611197565b905081600860008573ffffffffffffffffffffffffffffffffffffffff1673ffffffffffffffffffffffffffffffffffffffff168152602001908152602001600020600083815260200190815260200160002081905550806009600084815260200190815260200160002081905550505050565b828054828255906000526020600020908101928215613bc0579160200282015b82811115613bbf578251825591602001919060010190613ba4565b5b509050613bcd9190613c16565b5090565b60405180610100016040528060008152602001600081526020016000815260200160008152602001600081526020016060815260200160608152602001600081525090565b5b80821115613c2f576000816000905550600101613c17565b5090565b6000604051905090565b600080fd5b600080fd5b6000819050919050565b613c5a81613c47565b8114613c6557600080fd5b50565b600081359050613c7781613c51565b92915050565b600080600060608486031215613c9657613c95613c3d565b5b6000613ca486828701613c68565b9350506020613cb586828701613c68565b9250506040613cc686828701613c68565b9150509250925092565b60007fffffffff0000000000000000000000000000000000000000000000000000000082169050919050565b613d0581613cd0565b8114613d1057600080fd5b50565b600081359050613d2281613cfc565b92915050565b600060208284031215613d3e57613d3d613c3d565b5b6000613d4c84828501613d13565b91505092915050565b60008115159050919050565b613d6a81613d55565b82525050565b6000602082019050613d856000830184613d61565b92915050565b600081519050919050565b600082825260208201905092915050565b60005b83811015613dc5578082015181840152602081019050613daa565b83811115613dd4576000848401525b50505050565b6000601f19601f8301169050919050565b6000613df682613d8b565b613e008185613d96565b9350613e10818560208601613da7565b613e1981613dda565b840191505092915050565b60006020820190508181036000830152613e3e8184613deb565b905092915050565b600060208284031215613e5c57613e5b613c3d565b5b6000613e6a84828501613c68565b91505092915050565b600073ffffffffffffffffffffffffffffffffffffffff82169050919050565b6000613e9e82613e73565b9050919050565b613eae81613e93565b82525050565b6000602082019050613ec96000830184613ea5565b92915050565b613ed881613e93565b8114613ee357600080fd5b50565b600081359050613ef581613ecf565b92915050565b60008060408385031215613f1257613f11613c3d565b5b6000613f2085828601613ee6565b9250506020613f3185828601613c68565b9150509250929050565b613f4481613c47565b82525050565b6000602082019050613f5f6000830184613f3b565b92915050565b600080600060608486031215613f7e57613f7d613c3d565b5b6000613f8c86828701613ee6565b9350506020613f9d86828701613ee6565b9250506040613fae86828701613c68565b9150509250925092565b6000819050919050565b613fcb81613fb8565b8114613fd657600080fd5b50565b600081359050613fe881613fc2565b92915050565b60006020828403121561400457614003613c3d565b5b600061401284828501613fd9565b91505092915050565b61402481613fb8565b82525050565b600060208201905061403f600083018461401b565b92915050565b6000806040838503121561405c5761405b613c3d565b5b600061406a85828601613fd9565b925050602061407b85828601613ee6565b9150509250929050565b60006020828403121561409b5761409a613c3d565b5b60006140a984828501613ee6565b91505092915050565b60006140bd82613e93565b9050919050565b6140cd816140b2565b81146140d857600080fd5b50565b6000813590506140ea816140c4565b92915050565b6140f981613d55565b811461410457600080fd5b50565b600081359050614116816140f0565b92915050565b60008060006060848603121561413557614134613c3d565b5b6000614143868287016140db565b935050602061415486828701613ee6565b925050604061416586828701614107565b9150509250925092565b600080fd5b7f4e487b7100000000000000000000000000000000000000000000000000000000600052604160045260246000fd5b6141ac82613dda565b810181811067ffffffffffffffff821117156141cb576141ca614174565b5b80604052505050565b60006141de613c33565b90506141ea82826141a3565b919050565b600067ffffffffffffffff82111561420a57614209614174565b5b602082029050602081019050919050565b600080fd5b600061423361422e846141ef565b6141d4565b905080838252602082019050602084028301858111156142565761425561421b565b5b835b8181101561427f578061426b8882613c68565b845260208401935050602081019050614258565b5050509392505050565b600082601f83011261429e5761429d61416f565b5b81356142ae848260208601614220565b91505092915050565b600080600080600060a086880312156142d3576142d2613c3d565b5b60006142e188828901613ee6565b95505060206142f288828901613c68565b945050604061430388828901613c68565b935050606086013567ffffffffffffffff81111561432457614323613c42565b5b61433088828901614289565b925050608086013567ffffffffffffffff81111561435157614350613c42565b5b61435d88828901614289565b9150509295509295909350565b6000806040838503121561438157614380613c3d565b5b600061438f85828601613fd9565b92505060206143a085828601613c68565b9150509250929050565b600080604083850312156143c1576143c0613c3d565b5b60006143cf85828601613ee6565b92505060206143e085828601614107565b9150509250929050565b6000806040838503121561440157614400613c3d565b5b600061440f85828601613c68565b925050602061442085828601613c68565b9150509250929050565b600080fd5b600067ffffffffffffffff82111561444a57614449614174565b5b61445382613dda565b9050602081019050919050565b82818337600083830152505050565b600061448261447d8461442f565b6141d4565b90508281526020810184848401111561449e5761449d61442a565b5b6144a9848285614460565b509392505050565b600082601f8301126144c6576144c561416f565b5b81356144d684826020860161446f565b91505092915050565b600080600080608085870312156144f9576144f8613c3d565b5b600061450787828801613ee6565b945050602061451887828801613ee6565b935050604061452987828801613c68565b925050606085013567ffffffffffffffff81111561454a57614549613c42565b5b614556878288016144b1565b91505092959194509250565b61456b81613c47565b82525050565b600081519050919050565b600082825260208201905092915050565b6000819050602082019050919050565b60006145a98383614562565b60208301905092915050565b6000602082019050919050565b60006145cd82614571565b6145d7818561457c565b93506145e28361458d565b8060005b838110156146135781516145fa888261459d565b9750614605836145b5565b9250506001810190506145e6565b5085935050505092915050565b6000610100830160008301516146396000860182614562565b50602083015161464c6020860182614562565b50604083015161465f6040860182614562565b5060608301516146726060860182614562565b5060808301516146856080860182614562565b5060a083015184820360a086015261469d82826145c2565b91505060c083015184820360c08601526146b782826145c2565b91505060e08301516146cc60e0860182614562565b508091505092915050565b600060208201905081810360008301526146f18184614620565b905092915050565b600080604083850312156147105761470f613c3d565b5b600061471e85828601613ee6565b925050602061472f85828601613ee6565b9150509250929050565b600061474482613e93565b9050919050565b61475481614739565b811461475f57600080fd5b50565b6000813590506147718161474b565b92915050565b6000806000606084860312156147905761478f613c3d565b5b600061479e86828701614762565b93505060206147af86828701613ee6565b92505060406147c086828701614107565b9150509250925092565b7f4552433732315072657365744d696e7465725061757365724175746f49643a2060008201527f6d7573742068617665206d696e74657220726f6c6520746f206d696e74000000602082015250565b6000614826603d83613d96565b9150614831826147ca565b604082019050919050565b6000602082019050818103600083015261485581614819565b9050919050565b7f4e487b7100000000000000000000000000000000000000000000000000000000600052603260045260246000fd5b7f4e487b7100000000000000000000000000000000000000000000000000000000600052601160045260246000fd5b60006148c582613c47565b91506148d083613c47565b9250828210156148e3576148e261488b565b5b828203905092915050565b7f4e487b7100000000000000000000000000000000000000000000000000000000600052603160045260246000fd5b600061492882613c47565b91507fffffffffffffffffffffffffffffffffffffffffffffffffffffffffffffffff82141561495b5761495a61488b565b5b600182019050919050565b7f4e487b7100000000000000000000000000000000000000000000000000000000600052602260045260246000fd5b600060028204905060018216806149ad57607f821691505b602082108114156149c1576149c0614966565b5b50919050565b7f4552433732313a20617070726f76656420717565727920666f72206e6f6e657860008201527f697374656e7420746f6b656e0000000000000000000000000000000000000000602082015250565b6000614a23602c83613d96565b9150614a2e826149c7565b604082019050919050565b60006020820190508181036000830152614a5281614a16565b9050919050565b7f4552433732313a20617070726f76616c20746f2063757272656e74206f776e6560008201527f7200000000000000000000000000000000000000000000000000000000000000602082015250565b6000614ab5602183613d96565b9150614ac082614a59565b604082019050919050565b60006020820190508181036000830152614ae481614aa8565b9050919050565b7f4552433732313a20617070726f76652063616c6c6572206973206e6f74206f7760008201527f6e6572206e6f7220617070726f76656420666f7220616c6c0000000000000000602082015250565b6000614b47603883613d96565b9150614b5282614aeb565b604082019050919050565b60006020820190508181036000830152614b7681614b3a565b9050919050565b7f4552433732313a207472616e736665722063616c6c6572206973206e6f74206f60008201527f776e6572206e6f7220617070726f766564000000000000000000000000000000602082015250565b6000614bd9603183613d96565b9150614be482614b7d565b604082019050919050565b60006020820190508181036000830152614c0881614bcc565b9050919050565b7f455243373231456e756d657261626c653a206f776e657220696e646578206f7560008201527f74206f6620626f756e6473000000000000000000000000000000000000000000602082015250565b6000614c6b602b83613d96565b9150614c7682614c0f565b604082019050919050565b60006020820190508181036000830152614c9a81614c5e565b9050919050565b6000614cac82613c47565b9150614cb783613c47565b9250827fffffffffffffffffffffffffffffffffffffffffffffffffffffffffffffffff03821115614cec57614ceb61488b565b5b828201905092915050565b7f4552433732315072657365744d696e7465725061757365724175746f49643a2060008201527f6d75737420686176652070617573657220726f6c6520746f20756e7061757365602082015250565b6000614d53604083613d96565b9150614d5e82614cf7565b604082019050919050565b60006020820190508181036000830152614d8281614d46565b9050919050565b7f4552433732314275726e61626c653a2063616c6c6572206973206e6f74206f7760008201527f6e6572206e6f7220617070726f76656400000000000000000000000000000000602082015250565b6000614de5603083613d96565b9150614df082614d89565b604082019050919050565b60006020820190508181036000830152614e1481614dd8565b9050919050565b7f455243373231456e756d657261626c653a20676c6f62616c20696e646578206f60008201527f7574206f6620626f756e64730000000000000000000000000000000000000000602082015250565b6000614e77602c83613d96565b9150614e8282614e1b565b604082019050919050565b60006020820190508181036000830152614ea681614e6a565b9050919050565b7f4552433732313a206f776e657220717565727920666f72206e6f6e657869737460008201527f656e7420746f6b656e0000000000000000000000000000000000000000000000602082015250565b6000614f09602983613d96565b9150614f1482614ead565b604082019050919050565b60006020820190508181036000830152614f3881614efc565b9050919050565b7f4552433732313a2062616c616e636520717565727920666f7220746865207a6560008201527f726f206164647265737300000000000000000000000000000000000000000000602082015250565b6000614f9b602a83613d96565b9150614fa682614f3f565b604082019050919050565b60006020820190508181036000830152614fca81614f8e565b9050919050565b6000604082019050614fe66000830185613ea5565b614ff36020830184613d61565b9392505050565b7f4552433732315072657365744d696e7465725061757365724175746f49643a2060008201527f6d75737420686176652070617573657220726f6c6520746f2070617573650000602082015250565b6000615056603e83613d96565b915061506182614ffa565b604082019050919050565b6000602082019050818103600083015261508581615049565b9050919050565b7f4552433732313a20617070726f766520746f2063616c6c657200000000000000600082015250565b60006150c2601983613d96565b91506150cd8261508c565b602082019050919050565b600060208201905081810360008301526150f1816150b5565b9050919050565b7f4552433732314d657461646174613a2055524920717565727920666f72206e6f60008201527f6e6578697374656e7420746f6b656e0000000000000000000000000000000000602082015250565b6000615154602f83613d96565b915061515f826150f8565b604082019050919050565b6000602082019050818103600083015261518381615147565b9050919050565b600081905092915050565b60006151a082613d8b565b6151aa818561518a565b93506151ba818560208601613da7565b80840191505092915050565b60006151d28285615195565b91506151de8284615195565b91508190509392505050565b7f4552433732313a206f70657261746f7220717565727920666f72206e6f6e657860008201527f697374656e7420746f6b656e0000000000000000000000000000000000000000602082015250565b6000615246602c83613d96565b9150615251826151ea565b604082019050919050565b6000602082019050818103600083015261527581615239565b9050919050565b7f4552433732313a207472616e73666572206f6620746f6b656e2074686174206960008201527f73206e6f74206f776e0000000000000000000000000000000000000000000000602082015250565b60006152d8602983613d96565b91506152e38261527c565b604082019050919050565b60006020820190508181036000830152615307816152cb565b9050919050565b7f4552433732313a207472616e7366657220746f20746865207a65726f2061646460008201527f7265737300000000000000000000000000000000000000000000000000000000602082015250565b600061536a602483613d96565b91506153758261530e565b604082019050919050565b600060208201905081810360008301526153998161535d565b9050919050565b7f416363657373436f6e74726f6c3a2063616e206f6e6c792072656e6f756e636560008201527f20726f6c657320666f722073656c660000000000000000000000000000000000602082015250565b60006153fc602f83613d96565b9150615407826153a0565b604082019050919050565b6000602082019050818103600083015261542b816153ef565b9050919050565b7f5061757361626c653a206e6f7420706175736564000000000000000000000000600082015250565b6000615468601483613d96565b915061547382615432565b602082019050919050565b600060208201905081810360008301526154978161545b565b9050919050565b7f4552433732313a206d696e7420746f20746865207a65726f2061646472657373600082015250565b60006154d4602083613d96565b91506154df8261549e565b602082019050919050565b60006020820190508181036000830152615503816154c7565b9050919050565b7f4552433732313a20746f6b656e20616c7265616479206d696e74656400000000600082015250565b6000615540601c83613d96565b915061554b8261550a565b602082019050919050565b6000602082019050818103600083015261556f81615533565b9050919050565b7f5061757361626c653a2070617573656400000000000000000000000000000000600082015250565b60006155ac601083613d96565b91506155b782615576565b602082019050919050565b600060208201905081810360008301526155db8161559f565b9050919050565b7f4552433732313a207472616e7366657220746f206e6f6e20455243373231526560008201527f63656976657220696d706c656d656e7465720000000000000000000000000000602082015250565b600061563e603283613d96565b9150615649826155e2565b604082019050919050565b6000602082019050818103600083015261566d81615631565b9050919050565b7f4e487b7100000000000000000000000000000000000000000000000000000000600052601260045260246000fd5b60006156ae82613c47565b91506156b983613c47565b9250826156c9576156c8615674565b5b828204905092915050565b60006156df82613c47565b91506156ea83613c47565b9250826156fa576156f9615674565b5b828206905092915050565b7f416363657373436f6e74726f6c3a206163636f756e7420000000000000000000600082015250565b600061573b60178361518a565b915061574682615705565b601782019050919050565b7f206973206d697373696e6720726f6c6520000000000000000000000000000000600082015250565b600061578760118361518a565b915061579282615751565b601182019050919050565b60006157a88261572e565b91506157b48285615195565b91506157bf8261577a565b91506157cb8284615195565b91508190509392505050565b600081519050919050565b600082825260208201905092915050565b60006157fe826157d7565b61580881856157e2565b9350615818818560208601613da7565b61582181613dda565b840191505092915050565b60006080820190506158416000830187613ea5565b61584e6020830186613ea5565b61585b6040830185613f3b565b818103606083015261586d81846157f3565b905095945050505050565b60008151905061588781613cfc565b92915050565b6000602082840312156158a3576158a2613c3d565b5b60006158b184828501615878565b91505092915050565b7f4552433732315061757361626c653a20746f6b656e207472616e73666572207760008201527f68696c6520706175736564000000000000000000000000000000000000000000602082015250565b6000615916602b83613d96565b9150615921826158ba565b604082019050919050565b6000602082019050818103600083015261594581615909565b9050919050565b600061595782613c47565b915061596283613c47565b9250817fffffffffffffffffffffffffffffffffffffffffffffffffffffffffffffffff048311821515161561599b5761599a61488b565b5b828202905092915050565b60006159b182613c47565b915060008214156159c5576159c461488b565b5b600182039050919050565b7f537472696e67733a20686578206c656e67746820696e73756666696369656e74600082015250565b6000615a06602083613d96565b9150615a11826159d0565b602082019050919050565b60006020820190508181036000830152615a35816159f9565b905091905056fea2646970667358221220f28cbb775e2d8ee39819556549ab6e2c418cf673c5f228fc404c15b1f418117d64736f6c634300080a0033",
  "immutableReferences": {},
  "source": "// SPDX-License-Identifier: MIT\npragma solidity ^0.8.0;\n\nimport \"@openzeppelin/contracts/utils/Strings.sol\";\nimport \"@openzeppelin/contracts/utils/Counters.sol\";\nimport \"@openzeppelin/contracts/utils/structs/EnumerableSet.sol\";\nimport \"@openzeppelin/contracts/access/AccessControlEnumerable.sol\";\nimport \"@openzeppelin/contracts/token/ERC721/extensions/IERC721Metadata.sol\";\nimport \"@openzeppelin/contracts/token/ERC721/extensions/ERC721Enumerable.sol\";\nimport \"@openzeppelin/contracts/token/ERC721/extensions/ERC721Burnable.sol\";\nimport \"@openzeppelin/contracts/token/ERC721/extensions/ERC721Pausable.sol\";\nimport \"./Wizards.sol\";\nimport \"./Scepters.sol\";\n\n/**\n * @dev {ERC721} token, including:\n *\n *  - ability for holders to burn (destroy) their tokens\n *  - a minter role that allows for token minting (creation)\n *  - a pauser role that allows to stop all token transfers\n *  - token ID and URI autogeneration\n *\n * This contract uses {AccessControl} to lock permissioned functions using the\n * different roles - head to its documentation for details.\n *\n * The account that deploys the contract will be granted the minter and pauser\n * roles, as well as the default admin role, which will let it grant both minter\n * and pauser roles to other accounts.\n */\ncontract Covens is\n    Context,\n    AccessControlEnumerable,\n    ERC721Enumerable,\n    ERC721Burnable,\n    ERC721Pausable\n{\n    using Strings for uint256;\n    using Counters for Counters.Counter;\n    using EnumerableSet for EnumerableSet.UintSet;\n\n    bytes32 public constant MINTER_ROLE = keccak256(\"MINTER_ROLE\");\n    bytes32 public constant PAUSER_ROLE = keccak256(\"PAUSER_ROLE\");\n\n    Counters.Counter private _tokenIdTracker;\n\n    string private _baseTokenURI;\n\n    struct Coven {\n        uint256 id;\n        uint256 creationTime;\n        uint256 totalResearchCapacity;\n        uint256 maxScepters;\n        uint256 latestPotionTime;\n        uint256[] wizards;\n        uint256[] scepters;\n        uint256 powerCrystals;\n    }\n\n    mapping(uint256 => Coven) covens;\n\n    /**\n     * @dev Grants `DEFAULT_ADMIN_ROLE`, `MINTER_ROLE` and `PAUSER_ROLE` to the\n     * account that deploys the contract.\n     *\n     * Token URIs will be autogenerated based on `baseURI` and their token IDs.\n     * See {ERC721-tokenURI}.\n     */\n    constructor(\n        string memory name,\n        string memory symbol,\n        string memory baseTokenURI\n    ) ERC721(name, symbol) {\n        _baseTokenURI = baseTokenURI;\n\n        _setupRole(DEFAULT_ADMIN_ROLE, _msgSender());\n\n        _setupRole(MINTER_ROLE, _msgSender());\n        _setupRole(PAUSER_ROLE, _msgSender());\n    }\n\n    function getType(uint256 tokenId) internal view returns (uint256) {\n        uint256 totalPower = covens[tokenId].totalResearchCapacity;\n        if (totalPower < 1000) {\n            return 0;\n        } else if (totalPower < 2000) {\n            return 1;\n        } else if (totalPower < 3000) {\n            return 2;\n        } else if (totalPower < 4000) {\n            return 3;\n        } else {\n            return 4;\n        }\n    }\n\n    function _baseURI() internal view virtual override returns (string memory) {\n        return _baseTokenURI;\n    }\n\n\n    function tokenURI(uint256 tokenId) public view virtual override returns (string memory) {\n        require(_exists(tokenId), \"ERC721Metadata: URI query for nonexistent token\");\n\n        string memory baseURI = _baseURI();\n        return bytes(baseURI).length > 0 ? string(abi.encodePacked(baseURI, getType(tokenId).toString())) : \"\";\n    }\n\n    /**\n     * @dev Creates a new token for `to`. Its token ID will be automatically\n     * assigned (and available on the emitted {IERC721-Transfer} event), and the token\n     * URI autogenerated based on the base URI passed at construction.\n     *\n     * See {ERC721-_mint}.\n     *\n     * Requirements:\n     *\n     * - the caller must have the `MINTER_ROLE`.\n     */\n    function mint(\n        address to, \n        uint256 totalResearchCapacity,\n        uint256 maxScepters,\n        uint256[] memory scepters,\n        uint256[] memory wizards\n        ) public virtual {\n        require(hasRole(MINTER_ROLE, _msgSender()), \"ERC721PresetMinterPauserAutoId: must have minter role to mint\");\n\n        // We cannot just use balanceOf to create the new tokenId because tokens\n        // can be burned (destroyed), so we need a separate counter.\n        _mint(to, _tokenIdTracker.current());\n        covens[_tokenIdTracker.current()] = Coven({\n            id: _tokenIdTracker.current(),\n            creationTime: block.timestamp,\n            totalResearchCapacity: totalResearchCapacity,\n            maxScepters: maxScepters,\n            scepters: scepters,\n            wizards: wizards,\n            latestPotionTime: 0,\n            powerCrystals: 0\n        });\n        _tokenIdTracker.increment();\n    }\n\n    function removeScepter(uint256 id, uint256 idScepter, uint256 amountResearchCapacity) public {\n        require(hasRole(MINTER_ROLE, _msgSender()), \"ERC721PresetMinterPauserAutoId: must have minter role to mint\");\n        bool found = false;\n        for (uint256 i = 0; i < covens[id].scepters.length && !found; i++) {\n            if (covens[id].scepters[i] == idScepter) {\n                covens[id].scepters[i] = covens[id].scepters[covens[id].scepters.length-1];\n                covens[id].scepters.pop();\n                found = true;\n            }\n        }\n        require(found);\n        covens[id].totalResearchCapacity -= amountResearchCapacity;\n    }\n\n    function removeWizard(uint256 id, uint256 idWizard, uint256 amountSlots) public {\n        require(hasRole(MINTER_ROLE, _msgSender()), \"ERC721PresetMinterPauserAutoId: must have minter role to mint\");\n        bool found = false;\n        for (uint256 i = 0; i < covens[id].wizards.length && !found; i++) {\n            if (covens[id].wizards[i] == idWizard) {\n                covens[id].wizards[i] = covens[id].wizards[covens[id].wizards.length-1];\n                covens[id].wizards.pop();\n                found = true;\n            }\n        }\n        require(found);\n        covens[id].maxScepters -= amountSlots;\n    }\n\n    function setWizardsApproveTo(Wizards wizard, address operator, bool approved) public {\n        require(hasRole(MINTER_ROLE, _msgSender()), \"ERC721PresetMinterPauserAutoId: must have minter role to mint\");\n        wizard.setApprovalForAll(operator, approved);\n    }\n\n    function setSceptersApproveTo(Scepters scepter, address operator, bool approved) public {\n        require(hasRole(MINTER_ROLE, _msgSender()), \"ERC721PresetMinterPauserAutoId: must have minter role to mint\");\n        scepter.setApprovalForAll(operator, approved);\n    }\n\n    function insertScepter(uint256 id, uint256 idScepter, uint256 amountResearchCapacity) public {\n        require(hasRole(MINTER_ROLE, _msgSender()), \"ERC721PresetMinterPauserAutoId: must have minter role to mint\");\n        covens[id].scepters.push(idScepter);\n        covens[id].totalResearchCapacity += amountResearchCapacity;\n    }\n\n    function insertWizard(uint256 id, uint256 idWizard, uint256 amountSlots) public {\n        require(hasRole(MINTER_ROLE, _msgSender()), \"ERC721PresetMinterPauserAutoId: must have minter role to mint\");\n        covens[id].wizards.push(idWizard);\n        covens[id].maxScepters += amountSlots;\n    }\n\n    function setLastInvestigation(uint256 id, uint256 timestamp) public {\n        require(hasRole(MINTER_ROLE, _msgSender()), \"ERC721PresetMinterPauserAutoId: must have minter role to mint\");\n        covens[id].latestPotionTime = timestamp;\n    }\n\n    function setPowerCrystals(uint256 id, uint256 amount) public {\n        require(hasRole(MINTER_ROLE, _msgSender()), \"ERC721PresetMinterPauserAutoId: must have minter role to mint\");\n        covens[id].powerCrystals = amount;\n    }\n\n    function getPowerCrystalsOf(uint256 id) public view returns(uint256) {\n        return covens[id].powerCrystals;\n    }\n\n    function getToken(uint256 id) public view virtual returns (Coven memory scepter) {\n        return covens[id];\n    }\n\n    /**\n     * @dev Pauses all token transfers.\n     *\n     * See {ERC721Pausable} and {Pausable-_pause}.\n     *\n     * Requirements:\n     *\n     * - the caller must have the `PAUSER_ROLE`.\n     */\n    function pause() public virtual {\n        require(hasRole(PAUSER_ROLE, _msgSender()), \"ERC721PresetMinterPauserAutoId: must have pauser role to pause\");\n        _pause();\n    }\n\n    /**\n     * @dev Unpauses all token transfers.\n     *\n     * See {ERC721Pausable} and {Pausable-_unpause}.\n     *\n     * Requirements:\n     *\n     * - the caller must have the `PAUSER_ROLE`.\n     */\n    function unpause() public virtual {\n        require(hasRole(PAUSER_ROLE, _msgSender()), \"ERC721PresetMinterPauserAutoId: must have pauser role to unpause\");\n        _unpause();\n    }\n\n    function _beforeTokenTransfer(\n        address from,\n        address to,\n        uint256 tokenId\n    ) internal virtual override(ERC721, ERC721Enumerable, ERC721Pausable) {\n        super._beforeTokenTransfer(from, to, tokenId);\n    }\n\n    /**\n     * @dev See {IERC165-supportsInterface}.\n     */\n    function supportsInterface(bytes4 interfaceId)\n        public\n        view\n        virtual\n        override(AccessControlEnumerable, ERC721, ERC721Enumerable)\n        returns (bool)\n    {\n        return super.supportsInterface(interfaceId);\n    }\n}\n",
  "sourcePath": "/Users/alfonsomateosvicente/Documents/Proyectos/Orakler/SmartContracts/contracts/Covens.sol",
  "compiler": {
    "name": "solc",
    "version": "0.8.10+commit.fc410830.Emscripten.clang"
  },
  "schemaVersion": "3.4.3",
  "updatedAt": "2021-12-27T16:55:45.185Z",
  "networkType": "ethereum",
  "devdoc": {
    "details": "{ERC721} token, including:  - ability for holders to burn (destroy) their tokens  - a minter role that allows for token minting (creation)  - a pauser role that allows to stop all token transfers  - token ID and URI autogeneration This contract uses {AccessControl} to lock permissioned functions using the different roles - head to its documentation for details. The account that deploys the contract will be granted the minter and pauser roles, as well as the default admin role, which will let it grant both minter and pauser roles to other accounts.",
    "kind": "dev",
    "methods": {
      "approve(address,uint256)": {
        "details": "See {IERC721-approve}."
      },
      "balanceOf(address)": {
        "details": "See {IERC721-balanceOf}."
      },
      "burn(uint256)": {
        "details": "Burns `tokenId`. See {ERC721-_burn}. Requirements: - The caller must own `tokenId` or be an approved operator."
      },
      "constructor": {
        "details": "Grants `DEFAULT_ADMIN_ROLE`, `MINTER_ROLE` and `PAUSER_ROLE` to the account that deploys the contract. Token URIs will be autogenerated based on `baseURI` and their token IDs. See {ERC721-tokenURI}."
      },
      "getApproved(uint256)": {
        "details": "See {IERC721-getApproved}."
      },
      "getRoleAdmin(bytes32)": {
        "details": "Returns the admin role that controls `role`. See {grantRole} and {revokeRole}. To change a role's admin, use {_setRoleAdmin}."
      },
      "getRoleMember(bytes32,uint256)": {
        "details": "Returns one of the accounts that have `role`. `index` must be a value between 0 and {getRoleMemberCount}, non-inclusive. Role bearers are not sorted in any particular way, and their ordering may change at any point. WARNING: When using {getRoleMember} and {getRoleMemberCount}, make sure you perform all queries on the same block. See the following https://forum.openzeppelin.com/t/iterating-over-elements-on-enumerableset-in-openzeppelin-contracts/2296[forum post] for more information."
      },
      "getRoleMemberCount(bytes32)": {
        "details": "Returns the number of accounts that have `role`. Can be used together with {getRoleMember} to enumerate all bearers of a role."
      },
      "grantRole(bytes32,address)": {
        "details": "Overload {grantRole} to track enumerable memberships"
      },
      "hasRole(bytes32,address)": {
        "details": "Returns `true` if `account` has been granted `role`."
      },
      "isApprovedForAll(address,address)": {
        "details": "See {IERC721-isApprovedForAll}."
      },
      "mint(address,uint256,uint256,uint256[],uint256[])": {
        "details": "Creates a new token for `to`. Its token ID will be automatically assigned (and available on the emitted {IERC721-Transfer} event), and the token URI autogenerated based on the base URI passed at construction. See {ERC721-_mint}. Requirements: - the caller must have the `MINTER_ROLE`."
      },
      "name()": {
        "details": "See {IERC721Metadata-name}."
      },
      "ownerOf(uint256)": {
        "details": "See {IERC721-ownerOf}."
      },
      "pause()": {
        "details": "Pauses all token transfers. See {ERC721Pausable} and {Pausable-_pause}. Requirements: - the caller must have the `PAUSER_ROLE`."
      },
      "paused()": {
        "details": "Returns true if the contract is paused, and false otherwise."
      },
      "renounceRole(bytes32,address)": {
        "details": "Overload {renounceRole} to track enumerable memberships"
      },
      "revokeRole(bytes32,address)": {
        "details": "Overload {revokeRole} to track enumerable memberships"
      },
      "safeTransferFrom(address,address,uint256)": {
        "details": "See {IERC721-safeTransferFrom}."
      },
      "safeTransferFrom(address,address,uint256,bytes)": {
        "details": "See {IERC721-safeTransferFrom}."
      },
      "setApprovalForAll(address,bool)": {
        "details": "See {IERC721-setApprovalForAll}."
      },
      "supportsInterface(bytes4)": {
        "details": "See {IERC165-supportsInterface}."
      },
      "symbol()": {
        "details": "See {IERC721Metadata-symbol}."
      },
      "tokenByIndex(uint256)": {
        "details": "See {IERC721Enumerable-tokenByIndex}."
      },
      "tokenOfOwnerByIndex(address,uint256)": {
        "details": "See {IERC721Enumerable-tokenOfOwnerByIndex}."
      },
      "tokenURI(uint256)": {
        "details": "See {IERC721Metadata-tokenURI}."
      },
      "totalSupply()": {
        "details": "See {IERC721Enumerable-totalSupply}."
      },
      "transferFrom(address,address,uint256)": {
        "details": "See {IERC721-transferFrom}."
      },
      "unpause()": {
        "details": "Unpauses all token transfers. See {ERC721Pausable} and {Pausable-_unpause}. Requirements: - the caller must have the `PAUSER_ROLE`."
      }
    },
    "version": 1
  },
  "userdoc": {
    "kind": "user",
    "methods": {},
    "version": 1
  }
}