{
  "contractName": "MarketWizards",
  "abi": [
    {
      "inputs": [
        {
          "internalType": "address",
          "name": "_nftAddr",
          "type": "address"
        },
        {
          "internalType": "address",
          "name": "_token",
          "type": "address"
        },
        {
          "internalType": "address",
          "name": "_rewardPool",
          "type": "address"
        },
        {
          "internalType": "uint256",
          "name": "_cut",
          "type": "uint256"
        }
      ],
      "stateMutability": "nonpayable",
      "type": "constructor"
    },
    {
      "anonymous": false,
      "inputs": [
        {
          "indexed": false,
          "internalType": "uint256",
          "name": "tokenId",
          "type": "uint256"
        }
      ],
      "name": "AuctionCancelled",
      "type": "event"
    },
    {
      "anonymous": false,
      "inputs": [
        {
          "indexed": false,
          "internalType": "uint256",
          "name": "tokenId",
          "type": "uint256"
        },
        {
          "indexed": false,
          "internalType": "uint256",
          "name": "startingPrice",
          "type": "uint256"
        },
        {
          "indexed": false,
          "internalType": "uint256",
          "name": "endingPrice",
          "type": "uint256"
        },
        {
          "indexed": false,
          "internalType": "uint256",
          "name": "duration",
          "type": "uint256"
        }
      ],
      "name": "AuctionCreated",
      "type": "event"
    },
    {
      "anonymous": false,
      "inputs": [
        {
          "indexed": false,
          "internalType": "uint256",
          "name": "tokenId",
          "type": "uint256"
        },
        {
          "indexed": false,
          "internalType": "uint256",
          "name": "totalPrice",
          "type": "uint256"
        },
        {
          "indexed": false,
          "internalType": "address",
          "name": "winner",
          "type": "address"
        }
      ],
      "name": "AuctionSuccessful",
      "type": "event"
    },
    {
      "anonymous": false,
      "inputs": [],
      "name": "Pause",
      "type": "event"
    },
    {
      "anonymous": false,
      "inputs": [],
      "name": "Unpause",
      "type": "event"
    },
    {
      "inputs": [],
      "name": "ORKL",
      "outputs": [
        {
          "internalType": "address",
          "name": "",
          "type": "address"
        }
      ],
      "stateMutability": "view",
      "type": "function",
      "constant": true
    },
    {
      "inputs": [
        {
          "internalType": "uint256",
          "name": "_tokenId",
          "type": "uint256"
        }
      ],
      "name": "cancelAuction",
      "outputs": [],
      "stateMutability": "nonpayable",
      "type": "function"
    },
    {
      "inputs": [
        {
          "internalType": "uint256",
          "name": "_tokenId",
          "type": "uint256"
        }
      ],
      "name": "cancelAuctionWhenPaused",
      "outputs": [],
      "stateMutability": "nonpayable",
      "type": "function"
    },
    {
      "inputs": [
        {
          "internalType": "uint256",
          "name": "_cut",
          "type": "uint256"
        }
      ],
      "name": "changeCut",
      "outputs": [],
      "stateMutability": "nonpayable",
      "type": "function"
    },
    {
      "inputs": [],
      "name": "gen0SaleCount",
      "outputs": [
        {
          "internalType": "uint256",
          "name": "",
          "type": "uint256"
        }
      ],
      "stateMutability": "view",
      "type": "function",
      "constant": true
    },
    {
      "inputs": [
        {
          "internalType": "uint256",
          "name": "_tokenId",
          "type": "uint256"
        }
      ],
      "name": "getAuction",
      "outputs": [
        {
          "internalType": "address",
          "name": "seller",
          "type": "address"
        },
        {
          "internalType": "uint256",
          "name": "startingPrice",
          "type": "uint256"
        },
        {
          "internalType": "uint256",
          "name": "endingPrice",
          "type": "uint256"
        },
        {
          "internalType": "uint256",
          "name": "duration",
          "type": "uint256"
        },
        {
          "internalType": "uint256",
          "name": "startedAt",
          "type": "uint256"
        }
      ],
      "stateMutability": "view",
      "type": "function",
      "constant": true
    },
    {
      "inputs": [],
      "name": "getBalance",
      "outputs": [
        {
          "internalType": "uint256",
          "name": "",
          "type": "uint256"
        }
      ],
      "stateMutability": "view",
      "type": "function",
      "constant": true
    },
    {
      "inputs": [
        {
          "internalType": "uint256",
          "name": "_tokenId",
          "type": "uint256"
        }
      ],
      "name": "getCurrentPrice",
      "outputs": [
        {
          "internalType": "uint256",
          "name": "",
          "type": "uint256"
        }
      ],
      "stateMutability": "view",
      "type": "function",
      "constant": true
    },
    {
      "inputs": [],
      "name": "isSaleClockAuction",
      "outputs": [
        {
          "internalType": "bool",
          "name": "",
          "type": "bool"
        }
      ],
      "stateMutability": "view",
      "type": "function",
      "constant": true
    },
    {
      "inputs": [
        {
          "internalType": "uint256",
          "name": "",
          "type": "uint256"
        }
      ],
      "name": "lastGen0SalePrices",
      "outputs": [
        {
          "internalType": "uint256",
          "name": "",
          "type": "uint256"
        }
      ],
      "stateMutability": "view",
      "type": "function",
      "constant": true
    },
    {
      "inputs": [],
      "name": "nonFungibleContract",
      "outputs": [
        {
          "internalType": "address",
          "name": "",
          "type": "address"
        }
      ],
      "stateMutability": "view",
      "type": "function",
      "constant": true
    },
    {
      "inputs": [],
      "name": "owner",
      "outputs": [
        {
          "internalType": "address",
          "name": "",
          "type": "address"
        }
      ],
      "stateMutability": "view",
      "type": "function",
      "constant": true
    },
    {
      "inputs": [],
      "name": "ownerCut",
      "outputs": [
        {
          "internalType": "uint256",
          "name": "",
          "type": "uint256"
        }
      ],
      "stateMutability": "view",
      "type": "function",
      "constant": true
    },
    {
      "inputs": [],
      "name": "pause",
      "outputs": [
        {
          "internalType": "bool",
          "name": "",
          "type": "bool"
        }
      ],
      "stateMutability": "nonpayable",
      "type": "function"
    },
    {
      "inputs": [],
      "name": "paused",
      "outputs": [
        {
          "internalType": "bool",
          "name": "",
          "type": "bool"
        }
      ],
      "stateMutability": "view",
      "type": "function",
      "constant": true
    },
    {
      "inputs": [],
      "name": "rewardPool",
      "outputs": [
        {
          "internalType": "address",
          "name": "",
          "type": "address"
        }
      ],
      "stateMutability": "view",
      "type": "function",
      "constant": true
    },
    {
      "inputs": [
        {
          "internalType": "address",
          "name": "newOwner",
          "type": "address"
        }
      ],
      "name": "transferOwnership",
      "outputs": [],
      "stateMutability": "nonpayable",
      "type": "function"
    },
    {
      "inputs": [],
      "name": "unpause",
      "outputs": [
        {
          "internalType": "bool",
          "name": "",
          "type": "bool"
        }
      ],
      "stateMutability": "nonpayable",
      "type": "function"
    },
    {
      "inputs": [],
      "name": "withdrawBalance",
      "outputs": [],
      "stateMutability": "nonpayable",
      "type": "function"
    },
    {
      "inputs": [
        {
          "internalType": "uint256",
          "name": "_tokenId",
          "type": "uint256"
        },
        {
          "internalType": "uint256",
          "name": "_startingPrice",
          "type": "uint256"
        },
        {
          "internalType": "uint256",
          "name": "_endingPrice",
          "type": "uint256"
        },
        {
          "internalType": "uint256",
          "name": "_duration",
          "type": "uint256"
        },
        {
          "internalType": "address",
          "name": "_seller",
          "type": "address"
        }
      ],
      "name": "createAuction",
      "outputs": [],
      "stateMutability": "nonpayable",
      "type": "function"
    },
    {
      "inputs": [
        {
          "internalType": "uint256",
          "name": "_tokenId",
          "type": "uint256"
        },
        {
          "internalType": "uint256",
          "name": "_amount",
          "type": "uint256"
        }
      ],
      "name": "bid",
      "outputs": [],
      "stateMutability": "nonpayable",
      "type": "function"
    },
    {
      "inputs": [],
      "name": "averageGen0SalePrice",
      "outputs": [
        {
          "internalType": "uint256",
          "name": "",
          "type": "uint256"
        }
      ],
      "stateMutability": "view",
      "type": "function",
      "constant": true
    }
  ],
  "bytecode": "0x60806040526000805460a060020a60ff02191690556006805460ff191660011790553480156200002e57600080fd5b506040516200165d3803806200165d8339810160408190526200005191620000ed565b6000805433600160a060020a03199182161790915560018054909116600160a060020a038516179055838382846127108211156200008e57600080fd5b60049190915560038054600160a060020a03928316600160a060020a0319918216179091556002805494909216931692909217909155506200013f9350505050565b8051600160a060020a0381168114620000e857600080fd5b919050565b600080600080608085870312156200010457600080fd5b6200010f85620000d0565b93506200011f60208601620000d0565b92506200012f60408601620000d0565b6060959095015193969295505050565b61150e806200014f6000396000f3fe608060405234801561001057600080fd5b50600436106101465760003560e060020a9004806385b86188116100bc578063ab892eba11610080578063ab892eba146102a5578063c2aeb16b146102b8578063c55d0f56146102cb578063dd1b7a0f146102de578063eac9d94c146102f1578063f2fde38b146102f957600080fd5b806385b8618814610256578063878eb368146102635780638a98a9cc146102765780638da5cb5b1461027f57806396b5a7551461029257600080fd5b80635c975abb1161010e5780635c975abb146101b95780635fd8c710146101cd57806366666aa9146101d557806378bd79351461020057806383b5ff8b146102455780638456cb591461024e57600080fd5b806312065fe01461014b57806327ebe40a146101665780633f4ba83a1461017b578063484eccb414610193578063598647f8146101a6575b600080fd5b61015361030c565b6040519081526020015b60405180910390f35b61017961017436600461121f565b610397565b005b610183610403565b604051901515815260200161015d565b6101536101a1366004611268565b61049b565b6101796101b4366004611281565b6104b2565b6000546101839060a060020a900460ff1681565b6101796106da565b6003546101e890600160a060020a031681565b604051600160a060020a03909116815260200161015d565b61021361020e366004611268565b6107d4565b60408051600160a060020a0390961686526020860194909452928401919091526060830152608082015260a00161015d565b61015360045481565b610183610890565b6006546101839060ff1681565b610179610271366004611268565b610926565b61015360075481565b6000546101e890600160a060020a031681565b6101796102a0366004611268565b6109cb565b6101796102b3366004611268565b610a39565b6001546101e890600160a060020a031681565b6101536102d9366004611268565b610a7a565b6002546101e890600160a060020a031681565b610153610ad2565b6101796103073660046112a3565b610b25565b6001546040517f70a08231000000000000000000000000000000000000000000000000000000008152306004820152600091600160a060020a0316906370a0823190602401602060405180830381865afa15801561036e573d6000803e3d6000fd5b505050506040513d601f19601f8201168201806040525081019061039291906112be565b905090565b6103a18186610b8e565b6040805160a081018252600160a060020a03831681526fffffffffffffffffffffffffffffffff808716602083015285169181019190915267ffffffffffffffff8084166060830152421660808201526103fb8682610c10565b505050505050565b60008054600160a060020a0316331461043a5760405160e560020a62461bcd028152600401610431906112d7565b60405180910390fd5b60005460a060020a900460ff1661045057600080fd5b6000805474ff0000000000000000000000000000000000000000191681556040517f7805862f689e2f13df9f062ff482ad3ad112aca9e0847911ed832e158c525b339190a150600190565b600881600581106104ab57600080fd5b0154905081565b6003546040517fa085da8300000000000000000000000000000000000000000000000000000000815233600482015230602482015260448101839052600160a060020a039091169063a085da8390606401600060405180830381600087803b15801561051d57600080fd5b505af1158015610531573d6000803e3d6000fd5b505050600083815260056020526040812054600160a060020a031691506105588484610d84565b90506105643385610f8f565b600254600160a060020a03838116911614156105b457806008600560075461058c919061133b565b6005811061059c5761059c61134f565b0155600780549060006105ae836113ad565b91905055505b6001546003546040517f70a08231000000000000000000000000000000000000000000000000000000008152306004820152600160a060020a039283169263a9059cbb921690600a9084906370a0823190602401602060405180830381865afa158015610625573d6000803e3d6000fd5b505050506040513d601f19601f8201168201806040525081019061064991906112be565b6106549060096113c8565b61065e91906113e7565b60405160e060020a63ffffffff8516028152600160a060020a03909216600483015260248201526044016020604051808303816000875af11580156106a7573d6000803e3d6000fd5b505050506040513d601f19601f820116820180604052508101906106cb91906113fb565b6106d457600080fd5b50505050565b600054600160a060020a031633146107075760405160e560020a62461bcd028152600401610431906112d7565b60008054604051600160a060020a0390911691303180156108fc02929091818181858888f19350505050158015610742573d6000803e3d6000fd5b50600154600054600160a060020a039182169163a9059cbb911661076461030c565b60405160e060020a63ffffffff8516028152600160a060020a03909216600483015260248201526044016020604051808303816000875af11580156107ad573d6000803e3d6000fd5b505050506040513d601f19601f820116820180604052508101906107d191906113fb565b50565b60008181526005602052604081206002810154829182918291829168010000000000000000900467ffffffffffffffff166108245760405160e560020a62461bcd0281526004016104319061141d565b80546001820154600290920154600160a060020a03909116986fffffffffffffffffffffffffffffffff8084169950700100000000000000000000000000000000909304909216965067ffffffffffffffff808216965068010000000000000000909104169350915050565b60008054600160a060020a031633146108be5760405160e560020a62461bcd028152600401610431906112d7565b60005460a060020a900460ff16156108d557600080fd5b6000805474ff0000000000000000000000000000000000000000191660a060020a1781556040517f6985a02210a168e66602d3235cb6db0e70f92b3ba4d376a33c0f3d9434bff6259190a150600190565b60005460a060020a900460ff1661093c57600080fd5b600054600160a060020a031633146109695760405160e560020a62461bcd028152600401610431906112d7565b6000818152600560205260409020600281015468010000000000000000900467ffffffffffffffff166109b15760405160e560020a62461bcd0281526004016104319061141d565b80546109c7908390600160a060020a0316610fe7565b5050565b6000818152600560205260409020600281015468010000000000000000900467ffffffffffffffff16610a135760405160e560020a62461bcd0281526004016104319061141d565b8054600160a060020a0316338114610a2a57600080fd5b610a348382610fe7565b505050565b600054600160a060020a03163314610a665760405160e560020a62461bcd028152600401610431906112d7565b612710811115610a7557600080fd5b600455565b6000818152600560205260408120600281015468010000000000000000900467ffffffffffffffff16610ac25760405160e560020a62461bcd0281526004016104319061141d565b610acb8161102a565b9392505050565b600080805b6005811015610b135760088160058110610af357610af361134f565b0154610aff9083611454565b915080610b0b816113ad565b915050610ad7565b50610b1f6005826113e7565b91505090565b600054600160a060020a03163314610b525760405160e560020a62461bcd028152600401610431906112d7565b600160a060020a038116156107d15760008054600160a060020a03831673ffffffffffffffffffffffffffffffffffffffff1990911617905550565b6003546040517f5a173bf7000000000000000000000000000000000000000000000000000000008152600160a060020a0384811660048301523060248301526044820184905290911690635a173bf7906064015b600060405180830381600087803b158015610bfc57600080fd5b505af11580156103fb573d6000803e3d6000fd5b603c816060015167ffffffffffffffff161015610c725760405160e560020a62461bcd02815260206004820152601760248201527f53686f756c64206265206d6f7265206475726174696f6e0000000000000000006044820152606401610431565b60008281526005602090815260409182902083518154600160a060020a0390911673ffffffffffffffffffffffffffffffffffffffff1990911617815590830151828401516fffffffffffffffffffffffffffffffff9081167001000000000000000000000000000000008102919092169081176001840155606085015160029093018054608087015167ffffffffffffffff90811668010000000000000000026fffffffffffffffffffffffffffffffff1992909216951694851717905592517fa9c8dfcda5664a5a124c713e386da27de87432d5b668e79458501eb296389ba793610d78938793919293845260208401929092526040830152606082015260800190565b60405180910390a15050565b6000828152600560205260408120600281015468010000000000000000900467ffffffffffffffff16610db657600080fd5b6000610dc18261102a565b905080841015610dd057600080fd5b8154600160a060020a0316610de4866110c3565b8115610ea1576000610df583611110565b90506000610e03828561146c565b6001546040517fa9059cbb000000000000000000000000000000000000000000000000000000008152600160a060020a0386811660048301526024820184905292935091169063a9059cbb906044016020604051808303816000875af1158015610e71573d6000803e3d6000fd5b505050506040513d601f19601f82011682018060405250810190610e9591906113fb565b610e9e57600080fd5b50505b6000610ead838761146c565b6001546040517fa9059cbb00000000000000000000000000000000000000000000000000000000815233600482015260248101839052919250600160a060020a03169063a9059cbb906044016020604051808303816000875af1158015610f18573d6000803e3d6000fd5b505050506040513d601f19601f82011682018060405250810190610f3c91906113fb565b610f4557600080fd5b6040805188815260208101859052338183015290517f4fcc30d90a842164dd58501ab874a101a3749c3d4747139cefe7c876f4ccebd29181900360600190a1509095945050505050565b6003546040517f5a173bf7000000000000000000000000000000000000000000000000000000008152306004820152600160a060020a0384811660248301526044820184905290911690635a173bf790606401610be2565b610ff0826110c3565b610ffa8183610f8f565b6040518281527f2809c7e17bf978fbc7194c0a694b638c4215e9140cacc6c38ca36010b45697df90602001610d78565b6002810154600090819068010000000000000000900467ffffffffffffffff164211156110795760028301546110769068010000000000000000900467ffffffffffffffff164261146c565b90505b60018301546002840154610acb916fffffffffffffffffffffffffffffffff80821692700100000000000000000000000000000000909204169067ffffffffffffffff1684611133565b6000908152600560205260408120805473ffffffffffffffffffffffffffffffffffffffff19168155600181019190915560020180546fffffffffffffffffffffffffffffffff19169055565b60006127106004548361112391906113c8565b61112d91906113e7565b92915050565b6000828210611143575082611181565b600061114f8686611189565b905060008461115e85846113c8565b61116891906113e7565b90506000611176828961146c565b935061118192505050565b949350505050565b6000610acb83836040518060400160405280601e81526020017f536166654d6174683a207375627472616374696f6e206f766572666c6f770000815250600081848411156111ed5760405160e560020a62461bcd0281526004016104319190611483565b5060006111fa848661146c565b95945050505050565b8035600160a060020a038116811461121a57600080fd5b919050565b600080600080600060a0868803121561123757600080fd5b8535945060208601359350604086013592506060860135915061125c60808701611203565b90509295509295909350565b60006020828403121561127a57600080fd5b5035919050565b6000806040838503121561129457600080fd5b50508035926020909101359150565b6000602082840312156112b557600080fd5b610acb82611203565b6000602082840312156112d057600080fd5b5051919050565b6020808252818101527f4f776e61626c653a2063616c6c6572206973206e6f7420746865206f776e6572604082015260600190565b7f4e487b7100000000000000000000000000000000000000000000000000000000600052601260045260246000fd5b60008261134a5761134a61130c565b500690565b7f4e487b7100000000000000000000000000000000000000000000000000000000600052603260045260246000fd5b7f4e487b7100000000000000000000000000000000000000000000000000000000600052601160045260246000fd5b60006000198214156113c1576113c161137e565b5060010190565b60008160001904831182151516156113e2576113e261137e565b500290565b6000826113f6576113f661130c565b500490565b60006020828403121561140d57600080fd5b81518015158114610acb57600080fd5b6020808252601c908201527f546f6b656e49442069732061206d757374206f6e2061756374696f6e00000000604082015260600190565b600082198211156114675761146761137e565b500190565b60008282101561147e5761147e61137e565b500390565b600060208083528351808285015260005b818110156114b057858101830151858201604001528201611494565b818111156114c2576000604083870101525b50601f01601f191692909201604001939250505056fea26469706673582212202b16d3585bcae44b2d9b74481cbcef854e3fa80d21c0a8fc6bc72cca44fd776464736f6c634300080a0033",
  "immutableReferences": {},
  "source": "// SPDX-License-Identifier: MIT\npragma solidity ^0.8.10;\n\n\nlibrary SafeMath {\n    /**\n     * @dev Returns the addition of two unsigned integers, reverting on\n     * overflow.\n     *\n     * Counterpart to Solidity's `+` operator.\n     *\n     * Requirements:\n     *\n     * - Addition cannot overflow.\n     */\n    function add(uint256 a, uint256 b) internal pure returns (uint256) {\n        uint256 c = a + b;\n        require(c >= a, \"SafeMath: addition overflow\");\n\n        return c;\n    }\n\n    /**\n     * @dev Returns the subtraction of two unsigned integers, reverting on\n     * overflow (when the result is negative).\n     *\n     * Counterpart to Solidity's `-` operator.\n     *\n     * Requirements:\n     *\n     * - Subtraction cannot overflow.\n     */\n    function sub(uint256 a, uint256 b) internal pure returns (uint256) {\n        return sub(a, b, \"SafeMath: subtraction overflow\");\n    }\n\n    /**\n     * @dev Returns the subtraction of two unsigned integers, reverting with custom message on\n     * overflow (when the result is negative).\n     *\n     * Counterpart to Solidity's `-` operator.\n     *\n     * Requirements:\n     *\n     * - Subtraction cannot overflow.\n     */\n    function sub(uint256 a, uint256 b, string memory errorMessage) internal pure returns (uint256) {\n        require(b <= a, errorMessage);\n        uint256 c = a - b;\n\n        return c;\n    }\n\n    /**\n     * @dev Returns the multiplication of two unsigned integers, reverting on\n     * overflow.\n     *\n     * Counterpart to Solidity's `*` operator.\n     *\n     * Requirements:\n     *\n     * - Multiplication cannot overflow.\n     */\n    function mul(uint256 a, uint256 b) internal pure returns (uint256) {\n        // Gas optimization: this is cheaper than requiring 'a' not being zero, but the\n        // benefit is lost if 'b' is also tested.\n        // See: https://github.com/OpenZeppelin/openzeppelin-contracts/pull/522\n        if (a == 0) {\n            return 0;\n        }\n\n        uint256 c = a * b;\n        require(c / a == b, \"SafeMath: multiplication overflow\");\n\n        return c;\n    }\n\n    /**\n     * @dev Returns the integer division of two unsigned integers. Reverts on\n     * division by zero. The result is rounded towards zero.\n     *\n     * Counterpart to Solidity's `/` operator. Note: this function uses a\n     * `revert` opcode (which leaves remaining gas untouched) while Solidity\n     * uses an invalid opcode to revert (consuming all remaining gas).\n     *\n     * Requirements:\n     *\n     * - The divisor cannot be zero.\n     */\n    function div(uint256 a, uint256 b) internal pure returns (uint256) {\n        return div(a, b, \"SafeMath: division by zero\");\n    }\n\n    /**\n     * @dev Returns the integer division of two unsigned integers. Reverts with custom message on\n     * division by zero. The result is rounded towards zero.\n     *\n     * Counterpart to Solidity's `/` operator. Note: this function uses a\n     * `revert` opcode (which leaves remaining gas untouched) while Solidity\n     * uses an invalid opcode to revert (consuming all remaining gas).\n     *\n     * Requirements:\n     *\n     * - The divisor cannot be zero.\n     */\n    function div(uint256 a, uint256 b, string memory errorMessage) internal pure returns (uint256) {\n        require(b > 0, errorMessage);\n        uint256 c = a / b;\n        // assert(a == b * c + a % b); // There is no case in which this doesn't hold\n\n        return c;\n    }\n\n    /**\n     * @dev Returns the remainder of dividing two unsigned integers. (unsigned integer modulo),\n     * Reverts when dividing by zero.\n     *\n     * Counterpart to Solidity's `%` operator. This function uses a `revert`\n     * opcode (which leaves remaining gas untouched) while Solidity uses an\n     * invalid opcode to revert (consuming all remaining gas).\n     *\n     * Requirements:\n     *\n     * - The divisor cannot be zero.\n     */\n    function mod(uint256 a, uint256 b) internal pure returns (uint256) {\n        return mod(a, b, \"SafeMath: modulo by zero\");\n    }\n\n    /**\n     * @dev Returns the remainder of dividing two unsigned integers. (unsigned integer modulo),\n     * Reverts with custom message when dividing by zero.\n     *\n     * Counterpart to Solidity's `%` operator. This function uses a `revert`\n     * opcode (which leaves remaining gas untouched) while Solidity uses an\n     * invalid opcode to revert (consuming all remaining gas).\n     *\n     * Requirements:\n     *\n     * - The divisor cannot be zero.\n     */\n    function mod(uint256 a, uint256 b, string memory errorMessage) internal pure returns (uint256) {\n        require(b != 0, errorMessage);\n        return a % b;\n    }\n}\n\n/**\n * @dev Interface of the ERC165 standard, as defined in the\n * https://eips.ethereum.org/EIPS/eip-165[EIP].\n *\n * Implementers can declare support of contract interfaces, which can then be\n * queried by others ({ERC165Checker}).\n *\n * For an implementation, see {ERC165}.\n */\ninterface IERC165 {\n    /**\n     * @dev Returns true if this contract implements the interface defined by\n     * `interfaceId`. See the corresponding\n     * https://eips.ethereum.org/EIPS/eip-165#how-interfaces-are-identified[EIP section]\n     * to learn more about how these ids are created.\n     *\n     * This function call must use less than 30 000 gas.\n     */\n    function supportsInterface(bytes4 interfaceId) external view returns (bool);\n}\n\n/**\n * @dev Required interface of an ERC721 compliant contract.\n */\ninterface IERC721 is IERC165 {\n    /**\n     * @dev Emitted when `tokenId` token is transferred from `from` to `to`.\n     */\n    event Transfer(address indexed from, address indexed to, uint256 indexed tokenId);\n\n    /**\n     * @dev Emitted when `owner` enables `approved` to manage the `tokenId` token.\n     */\n    event Approval(address indexed owner, address indexed approved, uint256 indexed tokenId);\n\n    /**\n     * @dev Emitted when `owner` enables or disables (`approved`) `operator` to manage all of its assets.\n     */\n    event ApprovalForAll(address indexed owner, address indexed operator, bool approved);\n\n    /**\n     * @dev Returns the number of tokens in ``owner``'s account.\n     */\n    function balanceOf(address owner) external view returns (uint256 balance);\n\n    /**\n     * @dev Returns the owner of the `tokenId` token.\n     *\n     * Requirements:\n     *\n     * - `tokenId` must exist.\n     */\n    function ownerOf(uint256 tokenId) external view returns (address owner);\n\n    /**\n     * @dev Safely transfers `tokenId` token from `from` to `to`, checking first that contract recipients\n     * are aware of the ERC721 protocol to prevent tokens from being forever locked.\n     *\n     * Requirements:\n     *\n     * - `from` cannot be the zero address.\n     * - `to` cannot be the zero address.\n     * - `tokenId` token must exist and be owned by `from`.\n     * - If the caller is not `from`, it must be have been allowed to move this token by either {approve} or {setApprovalForAll}.\n     * - If `to` refers to a smart contract, it must implement {IERC721Receiver-onERC721Received}, which is called upon a safe transfer.\n     *\n     * Emits a {Transfer} event.\n     */\n    function safeTransferFrom(address from, address to, uint256 tokenId) external;\n\n    /**\n     * @dev Transfers `tokenId` token from `from` to `to`.\n     *\n     * WARNING: Usage of this method is discouraged, use {safeTransferFrom} whenever possible.\n     *\n     * Requirements:\n     *\n     * - `from` cannot be the zero address.\n     * - `to` cannot be the zero address.\n     * - `tokenId` token must be owned by `from`.\n     * - If the caller is not `from`, it must be approved to move this token by either {approve} or {setApprovalForAll}.\n     *\n     * Emits a {Transfer} event.\n     */\n    function transferFrom(address from, address to, uint256 tokenId) external;\n\n    /**\n     * @dev Gives permission to `to` to transfer `tokenId` token to another account.\n     * The approval is cleared when the token is transferred.\n     *\n     * Only a single account can be approved at a time, so approving the zero address clears previous approvals.\n     *\n     * Requirements:\n     *\n     * - The caller must own the token or be an approved operator.\n     * - `tokenId` must exist.\n     *\n     * Emits an {Approval} event.\n     */\n    function approve(address to, uint256 tokenId) external;\n\n    /**\n     * @dev Returns the account approved for `tokenId` token.\n     *\n     * Requirements:\n     *\n     * - `tokenId` must exist.\n     */\n    function getApproved(uint256 tokenId) external view returns (address operator);\n\n    /**\n     * @dev Approve or remove `operator` as an operator for the caller.\n     * Operators can call {transferFrom} or {safeTransferFrom} for any token owned by the caller.\n     *\n     * Requirements:\n     *\n     * - The `operator` cannot be the caller.\n     *\n     * Emits an {ApprovalForAll} event.\n     */\n    function setApprovalForAll(address operator, bool _approved) external;\n\n    /**\n     * @dev Returns if the `operator` is allowed to manage all of the assets of `owner`.\n     *\n     * See {setApprovalForAll}\n     */\n    function isApprovedForAll(address owner, address operator) external view returns (bool);\n\n    /**\n      * @dev Safely transfers `tokenId` token from `from` to `to`.\n      *\n      * Requirements:\n      *\n     * - `from` cannot be the zero address.\n     * - `to` cannot be the zero address.\n      * - `tokenId` token must exist and be owned by `from`.\n      * - If the caller is not `from`, it must be approved to move this token by either {approve} or {setApprovalForAll}.\n      * - If `to` refers to a smart contract, it must implement {IERC721Receiver-onERC721Received}, which is called upon a safe transfer.\n      *\n      * Emits a {Transfer} event.\n      */\n    function safeTransferFrom(address from, address to, uint256 tokenId, bytes calldata data) external;\n}\n\ninterface IERC20 {\n    function balanceOf(address owner) external view returns (uint);\n    function allowance(address owner, address spender) external view returns (uint);\n\n    function approve(address spender, uint value) external returns (bool);\n    function transfer(address to, uint value) external returns (bool);\n    function transferFrom(address from, address to, uint value) external returns (bool);\n}\n\ninterface RewardPool {\n    function transferORKLFrom(address from, address recipient, uint256 amount) external;\n    function transferWizardFrom(address from, address recipient, uint256 wizardId) external;\n    function transferCovenFrom(address from, address recipient, uint256 covenId) external;\n    function transferScepterFrom(address from, address recipient, uint256 scepterId) external;\n}\n\n/// @title Auction Core\ncontract ClockAuctionBase {\n    using SafeMath for uint256;\n     \n    address public ORKL;\n\n    constructor(address _token) {\n        ORKL = _token;\n    }\n\n    // Represents an auction on an NFT\n    struct Auction {\n        // Current owner of NFT\n        address seller;\n        // Price at beginning of auction\n        uint128 startingPrice;\n        // Price at end of auction\n        uint128 endingPrice;\n        // Duration (in seconds) of auction\n        uint64 duration;\n        // Time when auction started\n        uint64 startedAt;\n    }\n\n    // Reference to contract tracking NFT ownership\n    address public nonFungibleContract;\n    address public rewardPool;\n\n    uint256 public ownerCut;\n    mapping (uint256 => Auction) tokenIdToAuction;\n\n    event AuctionCreated(uint256 tokenId, uint256 startingPrice, uint256 endingPrice, uint256 duration);\n    event AuctionSuccessful(uint256 tokenId, uint256 totalPrice, address winner);\n    event AuctionCancelled(uint256 tokenId);\n\n    /// @dev Returns true if the claimant owns the token.\n    /// @param _claimant - Address claiming to own the token.\n    /// @param _tokenId - ID of token whose ownership to verify.\n    function _owns(address _claimant, uint256 _tokenId) internal view returns (bool) {\n        return (IERC721(nonFungibleContract).ownerOf(_tokenId) == _claimant);\n    }\n\n    /// @dev Escrows the NFT, assigning ownership to this contract.\n    /// @param _owner - Current owner address of token to escrow.\n    /// @param _tokenId - ID of token whose approval to verify.\n    function _escrow(address _owner, uint256 _tokenId) internal {\n        // it will throw if transfer fails\n        RewardPool(rewardPool).transferWizardFrom(_owner, address(this), _tokenId);\n    }\n\n    /// @dev Transfers an NFT owned by this contract to another address.\n    /// @param _receiver - Address to transfer NFT to.\n    /// @param _tokenId - ID of token to transfer.\n    function _transfer(address _receiver, uint256 _tokenId) internal {\n        RewardPool(rewardPool).transferWizardFrom(address(this), _receiver, _tokenId);\n    }\n\n    /// @dev Adds an auction to the list of open auctions.\n    /// @param _tokenId The ID of the token to be put on auction.\n    /// @param _auction Auction to add.\n    function _addAuction(uint256 _tokenId, Auction memory _auction) internal {\n        require(_auction.duration >= 1 minutes, \"Should be more duration\");\n\n        tokenIdToAuction[_tokenId] = _auction;\n\n        emit AuctionCreated(\n            uint256(_tokenId),\n            uint256(_auction.startingPrice),\n            uint256(_auction.endingPrice),\n            uint256(_auction.duration)\n        );\n    }\n\n    /// @dev Cancels an auction unconditionally.\n    function _cancelAuction(uint256 _tokenId, address _seller) internal {\n        _removeAuction(_tokenId);\n        _transfer(_seller, _tokenId);\n        emit AuctionCancelled(_tokenId);\n    }\n\n    /// @dev Computes the price and transfers winnings.\n    function _bid(uint256 _tokenId, uint256 _bidAmount)\n        internal\n        returns (uint256)\n    {\n        // Get a reference to the auction struct\n        Auction storage auction = tokenIdToAuction[_tokenId];\n        require(_isOnAuction(auction));\n\n        // Check that the bid is greater than or equal to the current price\n        uint256 price = _currentPrice(auction);\n        require(_bidAmount >= price);\n\n        address seller = auction.seller;\n\n        // The bid is good! Remove the auction before sending the fees\n        // to the sender so we can't have a reentrancy attack.\n        _removeAuction(_tokenId);\n        \n        if (price > 0) {\n            uint256 auctioneerCut = _computeCut(price);\n            uint256 sellerProceeds = price - auctioneerCut;\n\n            require(IERC20(ORKL).transfer(seller, sellerProceeds));\n        }\n\n        uint256 bidExcess = _bidAmount - price;\n\n        require(IERC20(ORKL).transfer(msg.sender, bidExcess));\n\n        emit AuctionSuccessful(_tokenId, price, msg.sender);\n\n        return price;\n    }\n\n    /// @dev Removes an auction from the list of open auctions.\n    /// @param _tokenId - ID of NFT on auction.\n    function _removeAuction(uint256 _tokenId) internal {\n        delete tokenIdToAuction[_tokenId];\n    }\n\n    /// @dev Returns true if the NFT is on auction.\n    /// @param _auction - Auction to check.\n    function _isOnAuction(Auction storage _auction) internal view returns (bool) {\n        return (_auction.startedAt > 0);\n    }\n\n    function _currentPrice(Auction storage _auction)\n        internal\n        view\n        returns (uint256)\n    {\n        uint256 secondsPassed = 0;\n\n        if (block.timestamp > _auction.startedAt) {\n            secondsPassed = block.timestamp - _auction.startedAt;\n        }\n\n        return _computeCurrentPrice(\n            _auction.startingPrice,\n            _auction.endingPrice,\n            _auction.duration,\n            secondsPassed\n        );\n    }\n\n    /// @dev Computes the current price of an auction.\n    function _computeCurrentPrice(\n        uint256 _startingPrice,\n        uint256 _endingPrice,\n        uint256 _duration,\n        uint256 _secondsPassed\n    )\n        internal\n        pure\n        returns (uint256)\n    {\n        if (_secondsPassed >= _duration) {\n            return _endingPrice;\n        } else {\n            uint256 totalPriceChange = _startingPrice.sub(_endingPrice);\n\n            uint256 currentPriceChange = totalPriceChange * _secondsPassed / _duration;\n\n            uint256 currentPrice = _startingPrice - currentPriceChange;\n\n            return currentPrice;\n        }\n    }\n\n    /// @dev Computes owner's cut of a sale.\n    /// @param _price - Sale price of NFT.\n    function _computeCut(uint256 _price) internal view returns (uint256) {\n        return _price * ownerCut / 10000;\n    }\n}\n\n/**\n * @title Ownable\n * @dev The Ownable contract has an owner address, and provides basic authorization control\n * functions, this simplifies the implementation of \"user permissions\".\n */\ncontract Ownable {\n  address public owner;\n\n  /**\n   * @dev The Ownable constructor sets the original `owner` of the contract to the sender\n   * account.\n   */\n  constructor() {\n    owner = msg.sender;\n  }\n\n  /**\n   * @dev Throws if called by any account other than the owner.\n   */\n  modifier onlyOwner() {\n    require(msg.sender == owner, \"Ownable: caller is not the owner\");\n    _;\n  }\n\n  /**\n   * @dev Allows the current owner to transfer control of the contract to a newOwner.\n   * @param newOwner The address to transfer ownership to.\n   */\n  function transferOwnership(address newOwner) external onlyOwner {\n    if (newOwner != address(0)) {\n      owner = newOwner;\n    }\n  }\n\n}\n\n/**\n * @title Pausable\n * @dev Base contract which allows children to implement an emergency stop mechanism.\n */\ncontract Pausable is Ownable {\n  event Pause();\n  event Unpause();\n\n  bool public paused = false;\n\n\n  /**\n   * @dev modifier to allow actions only when the contract IS paused\n   */\n  modifier whenNotPaused() {\n    require(!paused);\n    _;\n  }\n\n  /**\n   * @dev modifier to allow actions only when the contract IS NOT paused\n   */\n  modifier whenPaused {\n    require(paused);\n    _;\n  }\n\n  /**\n   * @dev called by the owner to pause, triggers stopped state\n   */\n  function pause() external onlyOwner whenNotPaused returns (bool) {\n    paused = true;\n    emit Pause();\n    return true;\n  }\n\n  /**\n   * @dev called by the owner to unpause, returns to normal state\n   */\n  function unpause() external onlyOwner whenPaused returns (bool) {\n    paused = false;\n    emit Unpause();\n    return true;\n  }\n}\n\ninterface IClockAuction {\n    function createAuction(\n        uint256 _tokenId,\n        uint256 _startingPrice,\n        uint256 _endingPrice,\n        uint256 _duration,\n        address _seller) external;\n}\n\n/// @title Clock auction for non-fungible tokens.\ncontract ClockAuction is Pausable, ClockAuctionBase, IClockAuction {\n\n    bytes4 constant InterfaceSignature_ERC721 = bytes4(0x9a20483d);\n\n    /// @param _nftAddress - address of a deployed contract implementing\n    ///  the Nonfungible Interface.\n    /// @param _cut - percent cut the owner takes on each auction, must be\n    ///  between 0-10,000.\n    constructor(address _nftAddress, address _token, uint256 _cut, address _rewardPool) ClockAuctionBase(_token) {\n        require(_cut <= 10000);\n        ownerCut = _cut;\n        rewardPool = _rewardPool;\n        nonFungibleContract = _nftAddress;\n    }\n\n    function withdrawBalance() external onlyOwner {\n        payable(address(uint160(owner))).transfer(address(this).balance);\n        IERC20(ORKL).transfer(owner, getBalance());\n    }\n    \n    function changeCut(uint256 _cut) external onlyOwner {\n        require(_cut <= 10000);\n        ownerCut = _cut;\n    }\n    \n    function getBalance() view public returns(uint256) {\n        return IERC20(ORKL).balanceOf(address(this));\n    }\n\n    /// @dev Creates and begins a new auction.\n    /// @param _tokenId - ID of token to auction, sender must be owner.\n    /// @param _startingPrice - Price of item (in wei) at beginning of auction.\n    /// @param _endingPrice - Price of item (in wei) at end of auction.\n    /// @param _duration - Length of time to move between starting\n    ///  price and ending price (in seconds).\n    /// @param _seller - Seller, if not the message sender\n    function createAuction(\n        uint256 _tokenId,\n        uint256 _startingPrice,\n        uint256 _endingPrice,\n        uint256 _duration,\n        address _seller\n    )\n        virtual override external\n        whenNotPaused\n    {\n        require(_startingPrice >= _endingPrice, \"Starting price must be greater than Ending Price\");\n        require(_owns(msg.sender, _tokenId), \"Not tokenId owner\");\n        _escrow(msg.sender, _tokenId);\n        Auction memory auction = Auction(\n            _seller,\n            uint128(_startingPrice),\n            uint128(_endingPrice),\n            uint64(_duration),\n            uint64(block.timestamp)\n        );\n        _addAuction(_tokenId, auction);\n    }\n\n    /// @dev Bids on an open auction, completing the auction and transferring\n    ///  ownership of the NFT if enough KAI is supplied.\n    /// @param _tokenId - ID of token to bid on.\n    function bid(uint256 _tokenId, uint256 _amount)\n        virtual external\n        whenNotPaused\n    {\n        // require(IERC20(ORKL).transfer(address(this), _amount));\n        // _bid will throw if the bid or funds transfer fails\n        _bid(_tokenId, _amount);\n        _transfer(msg.sender, _tokenId);\n    }\n\n    /// @dev Cancels an auction that hasn't been won yet.\n    ///  Returns the NFT to original owner.\n    /// @notice This is a state-modifying function that can\n    ///  be called while the contract is paused.\n    /// @param _tokenId - ID of token on auction\n    function cancelAuction(uint256 _tokenId)\n        external\n    {\n        Auction storage auction = tokenIdToAuction[_tokenId];\n        require(_isOnAuction(auction), \"TokenID is a must on auction\");\n        address seller = auction.seller;\n        require(msg.sender == seller);\n        _cancelAuction(_tokenId, seller);\n    }\n\n    /// @dev Cancels an auction when the contract is paused.\n    ///  Only the owner may do this, and NFTs are returned to\n    ///  the seller. This should only be used in emergencies.\n    /// @param _tokenId - ID of the NFT on auction to cancel.\n    function cancelAuctionWhenPaused(uint256 _tokenId)\n        whenPaused\n        onlyOwner\n        external\n    {\n        Auction storage auction = tokenIdToAuction[_tokenId];\n        require(_isOnAuction(auction), \"TokenID is a must on auction\");\n        _cancelAuction(_tokenId, auction.seller);\n    }\n\n    /// @dev Returns auction info for an NFT on auction.\n    /// @param _tokenId - ID of NFT on auction.\n    function getAuction(uint256 _tokenId)\n        external\n        view\n        returns\n    (\n        address seller,\n        uint256 startingPrice,\n        uint256 endingPrice,\n        uint256 duration,\n        uint256 startedAt\n    ) {\n        Auction storage auction = tokenIdToAuction[_tokenId];\n        require(_isOnAuction(auction), \"TokenID is a must on auction\");\n        return (\n            auction.seller,\n            auction.startingPrice,\n            auction.endingPrice,\n            auction.duration,\n            auction.startedAt\n        );\n    }\n\n    /// @dev Returns the current price of an auction.\n    /// @param _tokenId - ID of the token price we are checking.\n    function getCurrentPrice(uint256 _tokenId)\n        external\n        view\n        returns (uint256)\n    {\n        Auction storage auction = tokenIdToAuction[_tokenId];\n        require(_isOnAuction(auction), \"TokenID is a must on auction\");\n        return _currentPrice(auction);\n    }\n\n}\n\n\ncontract MarketWizards is ClockAuction {\n\n    bool public isSaleClockAuction = true;\n\n    uint256 public gen0SaleCount;\n    uint256[5] public lastGen0SalePrices;\n\n    constructor(address _nftAddr, address _token, address _rewardPool, uint256 _cut)\n        ClockAuction(_nftAddr, _token, _cut, _rewardPool) {}\n\n    /// @dev Creates and begins a new auction.\n    /// @param _tokenId - ID of token to auction, sender must be owner.\n    /// @param _startingPrice - Price of item (in wei) at beginning of auction.\n    /// @param _endingPrice - Price of item (in wei) at end of auction.\n    /// @param _duration - Length of auction (in seconds).\n    /// @param _seller - Seller, if not the message sender\n    function createAuction(\n        uint256 _tokenId,\n        uint256 _startingPrice,\n        uint256 _endingPrice,\n        uint256 _duration,\n        address _seller\n    )\n        override external\n    {\n        _escrow(_seller, _tokenId);\n        Auction memory auction = Auction(\n            _seller,\n            uint128(_startingPrice),\n            uint128(_endingPrice),\n            uint64(_duration),\n            uint64(block.timestamp)\n        );\n        _addAuction(_tokenId, auction);\n    }\n\n    /// @dev Updates lastSalePrice if seller is the nft contract\n    /// Otherwise, works the same as default bid method.\n    function bid(uint256 _tokenId, uint256 _amount)\n        override external\n    {\n        RewardPool(rewardPool).transferORKLFrom(msg.sender, address(this), _amount);\n\n        // _bid verifies token ID size\n        address seller = tokenIdToAuction[_tokenId].seller;\n        uint256 price = _bid(_tokenId, _amount);\n        _transfer(msg.sender, _tokenId);\n\n        // If not a gen0 auction, exit\n        if (seller == address(nonFungibleContract)) {\n            // Track gen0 sale prices\n            lastGen0SalePrices[gen0SaleCount % 5] = price;\n            gen0SaleCount++;\n        }\n\n        require(IERC20(ORKL).transfer(rewardPool, IERC20(ORKL).balanceOf(address(this))*9/10));\n    }\n\n    function averageGen0SalePrice() external view returns (uint256) {\n        uint256 sum = 0;\n        for (uint256 i = 0; i < 5; i++) {\n            sum += lastGen0SalePrices[i];\n        }\n        return sum / 5;\n    }\n\n}",
  "sourcePath": "/Users/alfonsomateosvicente/Documents/Proyectos/Orakler/SmartContracts/contracts/MarketWizards.sol",
  "compiler": {
    "name": "solc",
    "version": "0.8.10+commit.fc410830.Emscripten.clang"
  },
  "schemaVersion": "3.4.3",
  "updatedAt": "2022-01-05T19:03:05.643Z",
  "networkType": "ethereum",
  "devdoc": {
    "kind": "dev",
    "methods": {
      "bid(uint256,uint256)": {
        "details": "Updates lastSalePrice if seller is the nft contract Otherwise, works the same as default bid method."
      },
      "cancelAuction(uint256)": {
        "details": "Cancels an auction that hasn't been won yet.  Returns the NFT to original owner.",
        "params": {
          "_tokenId": "- ID of token on auction"
        }
      },
      "cancelAuctionWhenPaused(uint256)": {
        "details": "Cancels an auction when the contract is paused.  Only the owner may do this, and NFTs are returned to  the seller. This should only be used in emergencies.",
        "params": {
          "_tokenId": "- ID of the NFT on auction to cancel."
        }
      },
      "createAuction(uint256,uint256,uint256,uint256,address)": {
        "details": "Creates and begins a new auction.",
        "params": {
          "_duration": "- Length of auction (in seconds).",
          "_endingPrice": "- Price of item (in wei) at end of auction.",
          "_seller": "- Seller, if not the message sender",
          "_startingPrice": "- Price of item (in wei) at beginning of auction.",
          "_tokenId": "- ID of token to auction, sender must be owner."
        }
      },
      "getAuction(uint256)": {
        "details": "Returns auction info for an NFT on auction.",
        "params": {
          "_tokenId": "- ID of NFT on auction."
        }
      },
      "getCurrentPrice(uint256)": {
        "details": "Returns the current price of an auction.",
        "params": {
          "_tokenId": "- ID of the token price we are checking."
        }
      },
      "pause()": {
        "details": "called by the owner to pause, triggers stopped state"
      },
      "transferOwnership(address)": {
        "details": "Allows the current owner to transfer control of the contract to a newOwner.",
        "params": {
          "newOwner": "The address to transfer ownership to."
        }
      },
      "unpause()": {
        "details": "called by the owner to unpause, returns to normal state"
      }
    },
    "version": 1
  },
  "userdoc": {
    "kind": "user",
    "methods": {
      "cancelAuction(uint256)": {
        "notice": "This is a state-modifying function that can  be called while the contract is paused."
      }
    },
    "version": 1
  }
}