{
  "contractName": "OraklerMainGame",
  "abi": [
    {
      "inputs": [
        {
          "internalType": "uint256",
          "name": "_priceToken",
          "type": "uint256"
        },
        {
          "internalType": "uint256",
          "name": "_priceMintWizard",
          "type": "uint256"
        },
        {
          "internalType": "uint256",
          "name": "_priceMintScepter",
          "type": "uint256"
        },
        {
          "internalType": "contract Covens",
          "name": "_covens",
          "type": "address"
        },
        {
          "internalType": "contract Wizards",
          "name": "_wizards",
          "type": "address"
        },
        {
          "internalType": "contract Scepters",
          "name": "_scepters",
          "type": "address"
        },
        {
          "internalType": "contract RewardPool",
          "name": "_rewardPool",
          "type": "address"
        }
      ],
      "stateMutability": "nonpayable",
      "type": "constructor"
    },
    {
      "anonymous": false,
      "inputs": [
        {
          "indexed": true,
          "internalType": "address",
          "name": "_from",
          "type": "address"
        },
        {
          "indexed": true,
          "internalType": "uint256",
          "name": "nonce",
          "type": "uint256"
        },
        {
          "indexed": true,
          "internalType": "uint256",
          "name": "reward",
          "type": "uint256"
        }
      ],
      "name": "Investigation",
      "type": "event"
    },
    {
      "anonymous": false,
      "inputs": [
        {
          "indexed": true,
          "internalType": "bytes32",
          "name": "role",
          "type": "bytes32"
        },
        {
          "indexed": true,
          "internalType": "bytes32",
          "name": "previousAdminRole",
          "type": "bytes32"
        },
        {
          "indexed": true,
          "internalType": "bytes32",
          "name": "newAdminRole",
          "type": "bytes32"
        }
      ],
      "name": "RoleAdminChanged",
      "type": "event"
    },
    {
      "anonymous": false,
      "inputs": [
        {
          "indexed": true,
          "internalType": "bytes32",
          "name": "role",
          "type": "bytes32"
        },
        {
          "indexed": true,
          "internalType": "address",
          "name": "account",
          "type": "address"
        },
        {
          "indexed": true,
          "internalType": "address",
          "name": "sender",
          "type": "address"
        }
      ],
      "name": "RoleGranted",
      "type": "event"
    },
    {
      "anonymous": false,
      "inputs": [
        {
          "indexed": true,
          "internalType": "bytes32",
          "name": "role",
          "type": "bytes32"
        },
        {
          "indexed": true,
          "internalType": "address",
          "name": "account",
          "type": "address"
        },
        {
          "indexed": true,
          "internalType": "address",
          "name": "sender",
          "type": "address"
        }
      ],
      "name": "RoleRevoked",
      "type": "event"
    },
    {
      "inputs": [],
      "name": "DEFAULT_ADMIN_ROLE",
      "outputs": [
        {
          "internalType": "bytes32",
          "name": "",
          "type": "bytes32"
        }
      ],
      "stateMutability": "view",
      "type": "function",
      "constant": true
    },
    {
      "inputs": [],
      "name": "DEV_ROLE",
      "outputs": [
        {
          "internalType": "bytes32",
          "name": "",
          "type": "bytes32"
        }
      ],
      "stateMutability": "view",
      "type": "function",
      "constant": true
    },
    {
      "inputs": [],
      "name": "ORACLE_ROLE",
      "outputs": [
        {
          "internalType": "bytes32",
          "name": "",
          "type": "bytes32"
        }
      ],
      "stateMutability": "view",
      "type": "function",
      "constant": true
    },
    {
      "inputs": [
        {
          "internalType": "uint256",
          "name": "scepterId",
          "type": "uint256"
        }
      ],
      "name": "burnScepter",
      "outputs": [],
      "stateMutability": "nonpayable",
      "type": "function"
    },
    {
      "inputs": [
        {
          "internalType": "uint256",
          "name": "wizardId",
          "type": "uint256"
        }
      ],
      "name": "burnWizard",
      "outputs": [],
      "stateMutability": "nonpayable",
      "type": "function"
    },
    {
      "inputs": [
        {
          "internalType": "uint256",
          "name": "covenId",
          "type": "uint256"
        },
        {
          "internalType": "uint256",
          "name": "amount",
          "type": "uint256"
        }
      ],
      "name": "buyPowerCrystals",
      "outputs": [],
      "stateMutability": "nonpayable",
      "type": "function"
    },
    {
      "inputs": [
        {
          "internalType": "uint256",
          "name": "covenId",
          "type": "uint256"
        }
      ],
      "name": "canInvestigate",
      "outputs": [
        {
          "internalType": "bool",
          "name": "",
          "type": "bool"
        }
      ],
      "stateMutability": "view",
      "type": "function",
      "constant": true
    },
    {
      "inputs": [],
      "name": "claim",
      "outputs": [],
      "stateMutability": "nonpayable",
      "type": "function"
    },
    {
      "inputs": [
        {
          "internalType": "uint256",
          "name": "covenId",
          "type": "uint256"
        },
        {
          "internalType": "uint256[]",
          "name": "scepterIds",
          "type": "uint256[]"
        },
        {
          "internalType": "uint256[]",
          "name": "wizardIds",
          "type": "uint256[]"
        }
      ],
      "name": "editCovenBulk",
      "outputs": [],
      "stateMutability": "nonpayable",
      "type": "function"
    },
    {
      "inputs": [
        {
          "internalType": "address",
          "name": "sender",
          "type": "address"
        }
      ],
      "name": "getClaimFees",
      "outputs": [
        {
          "internalType": "uint256",
          "name": "",
          "type": "uint256"
        }
      ],
      "stateMutability": "view",
      "type": "function",
      "constant": true
    },
    {
      "inputs": [],
      "name": "getDurability",
      "outputs": [
        {
          "internalType": "uint256",
          "name": "",
          "type": "uint256"
        }
      ],
      "stateMutability": "view",
      "type": "function",
      "constant": true
    },
    {
      "inputs": [
        {
          "internalType": "address",
          "name": "from",
          "type": "address"
        }
      ],
      "name": "getLatestCovenOf",
      "outputs": [
        {
          "components": [
            {
              "internalType": "uint256",
              "name": "id",
              "type": "uint256"
            },
            {
              "internalType": "uint256",
              "name": "creationTime",
              "type": "uint256"
            },
            {
              "internalType": "uint256",
              "name": "totalResearchCapacity",
              "type": "uint256"
            },
            {
              "internalType": "uint256",
              "name": "maxScepters",
              "type": "uint256"
            },
            {
              "internalType": "uint256",
              "name": "latestPotionTime",
              "type": "uint256"
            },
            {
              "internalType": "uint256[]",
              "name": "wizards",
              "type": "uint256[]"
            },
            {
              "internalType": "uint256[]",
              "name": "scepters",
              "type": "uint256[]"
            },
            {
              "internalType": "uint256",
              "name": "powerCrystals",
              "type": "uint256"
            }
          ],
          "internalType": "struct Covens.Coven",
          "name": "",
          "type": "tuple"
        }
      ],
      "stateMutability": "view",
      "type": "function",
      "constant": true
    },
    {
      "inputs": [
        {
          "internalType": "address",
          "name": "from",
          "type": "address"
        }
      ],
      "name": "getLatestScepterOf",
      "outputs": [
        {
          "components": [
            {
              "internalType": "uint256",
              "name": "id",
              "type": "uint256"
            },
            {
              "internalType": "uint256",
              "name": "creationTime",
              "type": "uint256"
            },
            {
              "internalType": "uint256",
              "name": "durability",
              "type": "uint256"
            },
            {
              "internalType": "uint256",
              "name": "researchCapacity",
              "type": "uint256"
            }
          ],
          "internalType": "struct Scepters.Scepter",
          "name": "",
          "type": "tuple"
        }
      ],
      "stateMutability": "view",
      "type": "function",
      "constant": true
    },
    {
      "inputs": [
        {
          "internalType": "address",
          "name": "from",
          "type": "address"
        }
      ],
      "name": "getLatestWizardOf",
      "outputs": [
        {
          "components": [
            {
              "internalType": "uint256",
              "name": "id",
              "type": "uint256"
            },
            {
              "internalType": "uint256",
              "name": "creationTime",
              "type": "uint256"
            },
            {
              "internalType": "uint256",
              "name": "scepters",
              "type": "uint256"
            },
            {
              "internalType": "uint256",
              "name": "durability",
              "type": "uint256"
            }
          ],
          "internalType": "struct Wizards.Wizard",
          "name": "",
          "type": "tuple"
        }
      ],
      "stateMutability": "view",
      "type": "function",
      "constant": true
    },
    {
      "inputs": [
        {
          "internalType": "uint256[]",
          "name": "wizard",
          "type": "uint256[]"
        }
      ],
      "name": "getMaxScepters",
      "outputs": [
        {
          "internalType": "uint256",
          "name": "",
          "type": "uint256"
        }
      ],
      "stateMutability": "view",
      "type": "function",
      "constant": true
    },
    {
      "inputs": [],
      "name": "getNumScepters",
      "outputs": [
        {
          "internalType": "uint256",
          "name": "",
          "type": "uint256"
        }
      ],
      "stateMutability": "view",
      "type": "function",
      "constant": true
    },
    {
      "inputs": [],
      "name": "getResearchCapacity",
      "outputs": [
        {
          "internalType": "uint256",
          "name": "",
          "type": "uint256"
        }
      ],
      "stateMutability": "view",
      "type": "function",
      "constant": true
    },
    {
      "inputs": [
        {
          "internalType": "bytes32",
          "name": "role",
          "type": "bytes32"
        }
      ],
      "name": "getRoleAdmin",
      "outputs": [
        {
          "internalType": "bytes32",
          "name": "",
          "type": "bytes32"
        }
      ],
      "stateMutability": "view",
      "type": "function",
      "constant": true
    },
    {
      "inputs": [
        {
          "internalType": "bytes32",
          "name": "role",
          "type": "bytes32"
        },
        {
          "internalType": "uint256",
          "name": "index",
          "type": "uint256"
        }
      ],
      "name": "getRoleMember",
      "outputs": [
        {
          "internalType": "address",
          "name": "",
          "type": "address"
        }
      ],
      "stateMutability": "view",
      "type": "function",
      "constant": true
    },
    {
      "inputs": [
        {
          "internalType": "bytes32",
          "name": "role",
          "type": "bytes32"
        }
      ],
      "name": "getRoleMemberCount",
      "outputs": [
        {
          "internalType": "uint256",
          "name": "",
          "type": "uint256"
        }
      ],
      "stateMutability": "view",
      "type": "function",
      "constant": true
    },
    {
      "inputs": [
        {
          "internalType": "uint256[]",
          "name": "scepter",
          "type": "uint256[]"
        }
      ],
      "name": "getTotalResearchCapacity",
      "outputs": [
        {
          "internalType": "uint256",
          "name": "",
          "type": "uint256"
        }
      ],
      "stateMutability": "view",
      "type": "function",
      "constant": true
    },
    {
      "inputs": [
        {
          "internalType": "bytes32",
          "name": "role",
          "type": "bytes32"
        },
        {
          "internalType": "address",
          "name": "account",
          "type": "address"
        }
      ],
      "name": "grantRole",
      "outputs": [],
      "stateMutability": "nonpayable",
      "type": "function"
    },
    {
      "inputs": [
        {
          "internalType": "uint256",
          "name": "covenId",
          "type": "uint256"
        }
      ],
      "name": "hasDurability",
      "outputs": [
        {
          "internalType": "bool",
          "name": "",
          "type": "bool"
        }
      ],
      "stateMutability": "view",
      "type": "function",
      "constant": true
    },
    {
      "inputs": [
        {
          "internalType": "bytes32",
          "name": "role",
          "type": "bytes32"
        },
        {
          "internalType": "address",
          "name": "account",
          "type": "address"
        }
      ],
      "name": "hasRole",
      "outputs": [
        {
          "internalType": "bool",
          "name": "",
          "type": "bool"
        }
      ],
      "stateMutability": "view",
      "type": "function",
      "constant": true
    },
    {
      "inputs": [
        {
          "internalType": "uint256",
          "name": "covenId",
          "type": "uint256"
        },
        {
          "internalType": "uint256[]",
          "name": "scepterId",
          "type": "uint256[]"
        },
        {
          "internalType": "uint256[]",
          "name": "wizardId",
          "type": "uint256[]"
        }
      ],
      "name": "insertBulk",
      "outputs": [],
      "stateMutability": "nonpayable",
      "type": "function"
    },
    {
      "inputs": [
        {
          "internalType": "uint256",
          "name": "scepterId",
          "type": "uint256"
        },
        {
          "internalType": "uint256",
          "name": "covenId",
          "type": "uint256"
        }
      ],
      "name": "insertScepter",
      "outputs": [],
      "stateMutability": "nonpayable",
      "type": "function"
    },
    {
      "inputs": [
        {
          "internalType": "uint256",
          "name": "wizardId",
          "type": "uint256"
        },
        {
          "internalType": "uint256",
          "name": "covenId",
          "type": "uint256"
        }
      ],
      "name": "insertWizard",
      "outputs": [],
      "stateMutability": "nonpayable",
      "type": "function"
    },
    {
      "inputs": [
        {
          "internalType": "uint256",
          "name": "level",
          "type": "uint256"
        },
        {
          "internalType": "uint256",
          "name": "covenId",
          "type": "uint256"
        },
        {
          "internalType": "uint256",
          "name": "percentage",
          "type": "uint256"
        }
      ],
      "name": "investigatePotion",
      "outputs": [],
      "stateMutability": "payable",
      "type": "function",
      "payable": true
    },
    {
      "inputs": [
        {
          "internalType": "address",
          "name": "to",
          "type": "address"
        },
        {
          "internalType": "uint256[]",
          "name": "scepter",
          "type": "uint256[]"
        },
        {
          "internalType": "uint256[]",
          "name": "wizard",
          "type": "uint256[]"
        }
      ],
      "name": "mintCoven",
      "outputs": [],
      "stateMutability": "nonpayable",
      "type": "function"
    },
    {
      "inputs": [],
      "name": "mintScepter",
      "outputs": [
        {
          "internalType": "bool",
          "name": "",
          "type": "bool"
        }
      ],
      "stateMutability": "payable",
      "type": "function",
      "payable": true
    },
    {
      "inputs": [],
      "name": "mintWizard",
      "outputs": [
        {
          "internalType": "bool",
          "name": "",
          "type": "bool"
        }
      ],
      "stateMutability": "payable",
      "type": "function",
      "payable": true
    },
    {
      "inputs": [
        {
          "internalType": "uint256",
          "name": "covenId",
          "type": "uint256"
        }
      ],
      "name": "nextInvestigate",
      "outputs": [
        {
          "internalType": "uint256",
          "name": "",
          "type": "uint256"
        }
      ],
      "stateMutability": "view",
      "type": "function",
      "constant": true
    },
    {
      "inputs": [
        {
          "internalType": "uint256",
          "name": "to",
          "type": "uint256"
        }
      ],
      "name": "randomTo",
      "outputs": [
        {
          "internalType": "uint256",
          "name": "",
          "type": "uint256"
        }
      ],
      "stateMutability": "view",
      "type": "function",
      "constant": true
    },
    {
      "inputs": [
        {
          "internalType": "uint256",
          "name": "covenId",
          "type": "uint256"
        },
        {
          "internalType": "uint256[]",
          "name": "scepterId",
          "type": "uint256[]"
        },
        {
          "internalType": "uint256[]",
          "name": "wizardId",
          "type": "uint256[]"
        }
      ],
      "name": "removeBulk",
      "outputs": [],
      "stateMutability": "nonpayable",
      "type": "function"
    },
    {
      "inputs": [
        {
          "internalType": "uint256",
          "name": "scepterId",
          "type": "uint256"
        },
        {
          "internalType": "uint256",
          "name": "covenId",
          "type": "uint256"
        }
      ],
      "name": "removeScepter",
      "outputs": [],
      "stateMutability": "nonpayable",
      "type": "function"
    },
    {
      "inputs": [
        {
          "internalType": "uint256",
          "name": "wizardId",
          "type": "uint256"
        },
        {
          "internalType": "uint256",
          "name": "covenId",
          "type": "uint256"
        }
      ],
      "name": "removeWizard",
      "outputs": [],
      "stateMutability": "nonpayable",
      "type": "function"
    },
    {
      "inputs": [
        {
          "internalType": "bytes32",
          "name": "role",
          "type": "bytes32"
        },
        {
          "internalType": "address",
          "name": "account",
          "type": "address"
        }
      ],
      "name": "renounceRole",
      "outputs": [],
      "stateMutability": "nonpayable",
      "type": "function"
    },
    {
      "inputs": [
        {
          "internalType": "bytes32",
          "name": "role",
          "type": "bytes32"
        },
        {
          "internalType": "address",
          "name": "account",
          "type": "address"
        }
      ],
      "name": "revokeRole",
      "outputs": [],
      "stateMutability": "nonpayable",
      "type": "function"
    },
    {
      "inputs": [
        {
          "internalType": "bytes4",
          "name": "interfaceId",
          "type": "bytes4"
        }
      ],
      "name": "supportsInterface",
      "outputs": [
        {
          "internalType": "bool",
          "name": "",
          "type": "bool"
        }
      ],
      "stateMutability": "view",
      "type": "function",
      "constant": true
    },
    {
      "inputs": [
        {
          "internalType": "uint256",
          "name": "usd",
          "type": "uint256"
        }
      ],
      "name": "usdToToken",
      "outputs": [
        {
          "internalType": "uint256",
          "name": "",
          "type": "uint256"
        }
      ],
      "stateMutability": "view",
      "type": "function",
      "constant": true
    },
    {
      "inputs": [
        {
          "internalType": "address payable[]",
          "name": "to",
          "type": "address[]"
        },
        {
          "internalType": "uint256[]",
          "name": "percentages",
          "type": "uint256[]"
        }
      ],
      "name": "sendAllBNB",
      "outputs": [],
      "stateMutability": "nonpayable",
      "type": "function"
    },
    {
      "inputs": [
        {
          "internalType": "address payable[]",
          "name": "to",
          "type": "address[]"
        },
        {
          "internalType": "uint256[]",
          "name": "percentages",
          "type": "uint256[]"
        },
        {
          "internalType": "uint256",
          "name": "newPriceToken",
          "type": "uint256"
        }
      ],
      "name": "oracleFunc",
      "outputs": [],
      "stateMutability": "payable",
      "type": "function",
      "payable": true
    },
    {
      "inputs": [
        {
          "internalType": "uint256",
          "name": "amount",
          "type": "uint256"
        }
      ],
      "name": "exchangeORKLtoELIXIR",
      "outputs": [],
      "stateMutability": "nonpayable",
      "type": "function"
    },
    {
      "inputs": [
        {
          "internalType": "uint256",
          "name": "amount",
          "type": "uint256"
        }
      ],
      "name": "exchangeELIXIRtoORKL",
      "outputs": [],
      "stateMutability": "nonpayable",
      "type": "function"
    }
  ],
  "bytecode": "0x60806040523480156200001157600080fd5b5060405162005a7e38038062005a7e833981016040819052620000349162000331565b60028790556003869055600485905560068054600160a060020a03808516600160a060020a031992831617909255600780548388169083161790556008805483871690831617905560098054928416929091169190911790558686868686868686868686868686620000c36000620000b464010000000062000156810204565b6401000000006200015a810204565b620000fb7f65d7a28e3265b37a6474929f336521b332c1681b933f6cb9f3376673440d862a620000b464010000000062000156810204565b620001337f9f2df0fed2c77648de5860a4cc508cd0818c85b8b8a1ab4ceeef8d981c8956a6620000b464010000000062000156810204565b6000600581905550505050505050505050505050505050505050505050620003b8565b3390565b62000174828264010000000062003f69620001a182021704565b60008281526001602052604090206200019c908264010000000062003f77620001ba82021704565b505050565b620001b68282640100000000620001e3810204565b5050565b6000620001da83600160a060020a0384166401000000006200027f810204565b90505b92915050565b620001f88282640100000000620002d7810204565b620001b657600082815260208181526040808320600160a060020a03851684529091529020805460ff191660011790556200023b64010000000062000156810204565b600160a060020a031681600160a060020a0316837f2f8788117e7eff1d82e926ec794901d17c78024a50270940304540a733656f0d60405160405180910390a45050565b600062000296838364010000000062000300810204565b620002ce57508154600181810184556000848152602080822090930184905584548482528286019093526040902091909155620001dd565b506000620001dd565b600091825260208281526040808420600160a060020a0393909316845291905290205460ff1690565b60009081526001919091016020526040902054151590565b600160a060020a03811681146200032e57600080fd5b50565b600080600080600080600060e0888a0312156200034d57600080fd5b87519650602088015195506040880151945060608801516200036f8162000318565b6080890151909450620003828162000318565b60a0890151909350620003958162000318565b60c0890151909250620003a88162000318565b8091505092959891949750929550565b6156b680620003c86000396000f3fe60806040526004361061026b5760003560e060020a9004806371eada3711610148578063ca15c873116100ba578063e97fb8591161007e578063e97fb85914610737578063f3ebe0f314610757578063fa7cbfd214610777578063fcf0f0d31461078a578063fd0855ff146107be578063fe250f77146107de57600080fd5b8063ca15c873146106a4578063d547741f146106c4578063dc137ef9146106e4578063dc3611f1146106f7578063e3f7b5301461071757600080fd5b806391d148541161010c57806391d14854146105fa578063a151d9971461061a578063a217fddf1461063a578063af6971e81461064f578063bf4488f81461067c578063c90a6dab1461069c57600080fd5b806371eada37146105425780638424e9e5146105625780638a8be62c146105825780638b912e18146105a25780639010d07c146105c257600080fd5b806350ac768a116101e157806361086a52116101a557806361086a52146104a55780636161e9ee146104c55780636686d35f146104cd5780636cb381e6146104e25780636d485ce114610502578063715543021461052257600080fd5b806350ac768a146103f857806350f9788c14610418578063540c982b14610438578063556498ca146104585780635e8350911461047857600080fd5b80632b5b5211116102335780632b5b52111461034c5780632f2ff15d1461036e57806336568abe1461038e57806338725f88146103ae57806349944603146103ce5780634e71d92d146103e357600080fd5b806301ffc9a71461027057806307e2cea5146102a55780631540e21c146102e75780632404410414610307578063248a9ca31461031c575b600080fd5b34801561027c57600080fd5b5061029061028b366004614c43565b6107fe565b60405190151581526020015b60405180910390f35b3480156102b157600080fd5b506102d97f9f2df0fed2c77648de5860a4cc508cd0818c85b8b8a1ab4ceeef8d981c8956a681565b60405190815260200161029c565b3480156102f357600080fd5b50610290610302366004614c6d565b610842565b34801561031357600080fd5b506102d9610a5a565b34801561032857600080fd5b506102d9610337366004614c6d565b60009081526020819052604090206001015490565b34801561035857600080fd5b5061036c610367366004614c86565b610af6565b005b34801561037a57600080fd5b5061036c610389366004614cc0565b610f06565b34801561039a57600080fd5b5061036c6103a9366004614cc0565b610f2d565b3480156103ba57600080fd5b5061036c6103c9366004614c86565b610f4f565b3480156103da57600080fd5b506102d96112da565b3480156103ef57600080fd5b5061036c611335565b34801561040457600080fd5b5061036c610413366004614c6d565b611560565b34801561042457600080fd5b5061036c610433366004614c6d565b611669565b34801561044457600080fd5b506102d9610453366004614df0565b6119e6565b34801561046457600080fd5b5061036c610473366004614c86565b611ab0565b34801561048457600080fd5b50610498610493366004614e2d565b611df2565b60405161029c9190614e85565b3480156104b157600080fd5b5061036c6104c0366004614f6b565b611fa7565b61029061209a565b3480156104d957600080fd5b506102d96122f4565b3480156104ee57600080fd5b506102d96104fd366004614c6d565b6124b8565b34801561050e57600080fd5b506102d961051d366004614c6d565b6124da565b34801561052e57600080fd5b5061036c61053d366004614fcf565b612533565b34801561054e57600080fd5b506102d961055d366004614df0565b612745565b34801561056e57600080fd5b5061036c61057d366004615045565b612808565b34801561058e57600080fd5b5061036c61059d366004614c86565b61288b565b3480156105ae57600080fd5b5061036c6105bd366004615045565b612c34565b3480156105ce57600080fd5b506105e26105dd366004614c86565b612cc9565b604051600160a060020a03909116815260200161029c565b34801561060657600080fd5b50610290610615366004614cc0565b612ce8565b34801561062657600080fd5b50610290610635366004614c6d565b612d11565b34801561064657600080fd5b506102d9600081565b34801561065b57600080fd5b5061066f61066a366004614e2d565b612d25565b60405161029c9190615079565b34801561068857600080fd5b5061036c610697366004615045565b612eba565b610290612fda565b3480156106b057600080fd5b506102d96106bf366004614c6d565b6131d3565b3480156106d057600080fd5b5061036c6106df366004614cc0565b6131ea565b61036c6106f23660046150a4565b6131f4565b34801561070357600080fd5b5061036c610712366004614c6d565b613816565b34801561072357600080fd5b5061036c610732366004614c86565b6138f7565b34801561074357600080fd5b506102d9610752366004614c6d565b613a35565b34801561076357600080fd5b5061066f610772366004614e2d565b613abb565b61036c6107853660046150d0565b613b46565b34801561079657600080fd5b506102d97f65d7a28e3265b37a6474929f336521b332c1681b933f6cb9f3376673440d862a81565b3480156107ca57600080fd5b506102d96107d9366004614e2d565b613b8a565b3480156107ea57600080fd5b5061036c6107f9366004614c6d565b613c59565b6000600160e060020a031982167f5a05180f00000000000000000000000000000000000000000000000000000000148061083c575061083c82613f8c565b92915050565b60075460405160e360020a631c96a197028152600481018390526000916001918391600160a060020a03169063e4b50cb890602401600060405180830381865afa158015610894573d6000803e3d6000fd5b505050506040513d6000823e601f3d908101601f191682016040526108bc9190810190615195565b905060005b8160a0015151811080156108d25750825b156109875760085460a08301518051600092600160a060020a03169163e4b50cb8918590811061090457610904615266565b60200260200101516040518263ffffffff1660e060020a02815260040161092d91815260200190565b608060405180830381865afa15801561094a573d6000803e3d6000fd5b505050506040513d601f19601f8201168201806040525081019061096e91906152e5565b606001511192508061097f8161531a565b9150506108c1565b5060005b8160c00151518110801561099c5750825b15610a515760065460c08301518051600092600160a060020a03169163e4b50cb891859081106109ce576109ce615266565b60200260200101516040518263ffffffff1660e060020a0281526004016109f791815260200190565b608060405180830381865afa158015610a14573d6000803e3d6000fd5b505050506040513d601f19601f82011682018060405250810190610a3891906152e5565b6040015111925080610a498161531a565b91505061098b565b50909392505050565b6009546040805160e160020a63113909790281529051600092600160a060020a03169163227212f29160048083019260209291908290030181865afa158015610aa7573d6000803e3d6000fd5b505050506040513d601f19601f82011682018060405250810190610acb9190615335565b610ad890621e848061534e565b610ae6906301c9c38061537f565b610af190600e61534e565b905090565b610aff81612d11565b610b275760405160e560020a62461bcd028152600401610b1e90615393565b60405180910390fd5b60075460405160e360020a631c96a19702815260048101839052600091600160a060020a03169063e4b50cb890602401600060405180830381865afa158015610b74573d6000803e3d6000fd5b505050506040513d6000823e601f3d908101601f19168201604052610b9c9190810190615195565b600754909150600160a060020a031663e985e9c53360075460405160e160020a6331a9108f02815260048101879052600160a060020a0390911690636352211e90602401602060405180830381865afa158015610bfd573d6000803e3d6000fd5b505050506040513d601f19601f82011682018060405250810190610c2191906153ca565b60405160e060020a63ffffffff8516028152600160a060020a03928316600482015291166024820152604401602060405180830381865afa158015610c6a573d6000803e3d6000fd5b505050506040513d601f19601f82011682018060405250810190610c8e91906153e7565b80610d1457503360075460405160e160020a6331a9108f02815260048101859052600160a060020a039283169290911690636352211e90602401602060405180830381865afa158015610ce5573d6000803e3d6000fd5b505050506040513d601f19601f82011682018060405250810190610d0991906153ca565b600160a060020a0316145b610d335760405160e560020a62461bcd028152600401610b1e90615409565b80606001518160c001515110610d8e5760405160e560020a62461bcd02815260206004820152601160248201527f546f6f206d616e792073636570746572730000000000000000000000000000006044820152606401610b1e565b600954600160a060020a031663c69c3fd13360075460405160e060020a63ffffffff8516028152610dce9291600160a060020a0316908890600401615440565b600060405180830381600087803b158015610de857600080fd5b505af1158015610dfc573d6000803e3d6000fd5b505060065460405160e360020a631c96a1970281526004810187905260009350600160a060020a03909116915063e4b50cb890602401608060405180830381865afa158015610e4f573d6000803e3d6000fd5b505050506040513d601f19601f82011682018060405250810190610e7391906152e5565b60075460608201516040517f537f961900000000000000000000000000000000000000000000000000000000815260048101879052602481018890526044810191909152919250600160a060020a03169063537f9619906064015b600060405180830381600087803b158015610ee857600080fd5b505af1158015610efc573d6000803e3d6000fd5b5050505050505050565b610f108282613ff3565b6000828152600160205260409020610f289082613f77565b505050565b610f378282614019565b6000828152600160205260409020610f2890826140a4565b610f5881612d11565b610f775760405160e560020a62461bcd028152600401610b1e90615393565b60075460405160e360020a631c96a19702815260048101839052600091600160a060020a03169063e4b50cb890602401600060405180830381865afa158015610fc4573d6000803e3d6000fd5b505050506040513d6000823e601f3d908101601f19168201604052610fec9190810190615195565b600754909150600160a060020a031663e985e9c53360075460405160e160020a6331a9108f02815260048101879052600160a060020a0390911690636352211e90602401602060405180830381865afa15801561104d573d6000803e3d6000fd5b505050506040513d601f19601f8201168201806040525081019061107191906153ca565b60405160e060020a63ffffffff8516028152600160a060020a03928316600482015291166024820152604401602060405180830381865afa1580156110ba573d6000803e3d6000fd5b505050506040513d601f19601f820116820180604052508101906110de91906153e7565b8061116457503360075460405160e160020a6331a9108f02815260048101859052600160a060020a039283169290911690636352211e90602401602060405180830381865afa158015611135573d6000803e3d6000fd5b505050506040513d601f19601f8201168201806040525081019061115991906153ca565b600160a060020a0316145b6111835760405160e560020a62461bcd028152600401610b1e90615409565b600a8160a0015151111561119657600080fd5b600954600160a060020a0316635a173bf73360075460405160e060020a63ffffffff85160281526111d69291600160a060020a0316908890600401615440565b600060405180830381600087803b1580156111f057600080fd5b505af1158015611204573d6000803e3d6000fd5b505060085460405160e360020a631c96a1970281526004810187905260009350600160a060020a03909116915063e4b50cb890602401608060405180830381865afa158015611257573d6000803e3d6000fd5b505050506040513d601f19601f8201168201806040525081019061127b91906152e5565b60075460408281015190517f3d7f35c500000000000000000000000000000000000000000000000000000000815260048101879052602481018890526044810191909152919250600160a060020a031690633d7f35c590606401610ece565b6000806112e760646124da565b9050601e8110156112fa57600191505090565b603c81101561130b57600291505090565b605081101561131c57600391505090565b605a81101561132d57600491505090565b600591505090565b6000606461134233613b8a565b61134d906064615464565b600954600160a060020a0316638f9c197b3360405160e060020a63ffffffff8416028152600160a060020a039091166004820152602401602060405180830381865afa1580156113a1573d6000803e3d6000fd5b505050506040513d601f19601f820116820180604052508101906113c59190615335565b6113d590655af3107a400061547b565b6113df919061547b565b6113e9919061537f565b6009546040517f2aba345b000000000000000000000000000000000000000000000000000000008152919250600160a060020a031690632aba345b90611435903390859060040161549a565b600060405180830381600087803b15801561144f57600080fd5b505af1158015611463573d6000803e3d6000fd5b50506009546040517fd9d57cb4000000000000000000000000000000000000000000000000000000008152600160a060020a03909116925063d9d57cb491506114b390339060009060040161549a565b6020604051808303816000875af11580156114d2573d6000803e3d6000fd5b505050506040513d601f19601f820116820180604052508101906114f691906153e7565b50600954600160a060020a031663cfe249c73360006040518363ffffffff1660e060020a02815260040161152b92919061549a565b600060405180830381600087803b15801561154557600080fd5b505af1158015611559573d6000803e3d6000fd5b5050505050565b60095460405160e060020a63a085da83028152600160a060020a039091169063a085da839061159790339084908690600401615440565b600060405180830381600087803b1580156115b157600080fd5b505af11580156115c5573d6000803e3d6000fd5b505050506000620f4240600254836115dd919061547b565b6115e7919061537f565b6009546040517f2aba345b000000000000000000000000000000000000000000000000000000008152919250600160a060020a031690632aba345b90611633903390859060040161549a565b600060405180830381600087803b15801561164d57600080fd5b505af1158015611661573d6000803e3d6000fd5b505050505050565b60065460405160e360020a631c96a19702815260048101839052600091600160a060020a03169063e4b50cb890602401608060405180830381865afa1580156116b6573d6000803e3d6000fd5b505050506040513d601f19601f820116820180604052508101906116da91906152e5565b90503360065460405160e160020a6331a9108f02815260048101859052600160a060020a039283169290911690636352211e90602401602060405180830381865afa15801561172d573d6000803e3d6000fd5b505050506040513d601f19601f8201168201806040525081019061175191906153ca565b600160a060020a0316146117aa5760405160e560020a62461bcd02815260206004820152601c60248201527f596f752063616e206e6f74206275726e206f7468657273204e465473000000006044820152606401610b1e565b6014816040015110156118025760405160e560020a62461bcd02815260206004820152601c60248201527f596f752063616e206e6f74206275726e207468697320455243373231000000006044820152606401610b1e565b6009546040805160e160020a63113909790281529051600160a060020a039092169163b19a615391600191849163227212f29160048083019260209291908290030181865afa158015611859573d6000803e3d6000fd5b505050506040513d601f19601f8201168201806040525081019061187d9190615335565b6118879190615464565b6040518263ffffffff1660e060020a0281526004016118a891815260200190565b600060405180830381600087803b1580156118c257600080fd5b505af11580156118d6573d6000803e3d6000fd5b50506009546040517f50f9788c00000000000000000000000000000000000000000000000000000000815260048101869052600160a060020a0390911692506350f9788c9150602401600060405180830381600087803b15801561193957600080fd5b505af115801561194d573d6000803e3d6000fd5b5050600954600160a060020a03169150637ae3a8e490503361198360146004546003611979919061547b565b6104fd919061537f565b6040518363ffffffff1660e060020a0281526004016119a392919061549a565b6020604051808303816000875af11580156119c2573d6000803e3d6000fd5b505050506040513d601f19601f82011682018060405250810190610f2891906153e7565b600080805b8351811015611aa9576006548451600160a060020a039091169063e4b50cb890869084908110611a1d57611a1d615266565b60200260200101516040518263ffffffff1660e060020a028152600401611a4691815260200190565b608060405180830381865afa158015611a63573d6000803e3d6000fd5b505050506040513d601f19601f82011682018060405250810190611a8791906152e5565b60600151611a95908361534e565b915080611aa18161531a565b9150506119eb565b5092915050565b611ab981612d11565b611ad85760405160e560020a62461bcd028152600401610b1e90615393565b600754600160a060020a031663e985e9c53360075460405160e160020a6331a9108f02815260048101869052600160a060020a0390911690636352211e90602401602060405180830381865afa158015611b36573d6000803e3d6000fd5b505050506040513d601f19601f82011682018060405250810190611b5a91906153ca565b60405160e060020a63ffffffff8516028152600160a060020a03928316600482015291166024820152604401602060405180830381865afa158015611ba3573d6000803e3d6000fd5b505050506040513d601f19601f82011682018060405250810190611bc791906153e7565b80611c4d57503360075460405160e160020a6331a9108f02815260048101849052600160a060020a039283169290911690636352211e90602401602060405180830381865afa158015611c1e573d6000803e3d6000fd5b505050506040513d601f19601f82011682018060405250810190611c4291906153ca565b600160a060020a0316145b611c6c5760405160e560020a62461bcd028152600401610b1e90615409565b60065460405160e360020a631c96a19702815260048101849052600091600160a060020a03169063e4b50cb890602401608060405180830381865afa158015611cb9573d6000803e3d6000fd5b505050506040513d601f19601f82011682018060405250810190611cdd91906152e5565b60075460608201516040517f01c7e82300000000000000000000000000000000000000000000000000000000815260048101869052602481018790526044810191909152919250600160a060020a0316906301c7e82390606401600060405180830381600087803b158015611d5157600080fd5b505af1158015611d65573d6000803e3d6000fd5b50506009546007546040517fc69c3fd1000000000000000000000000000000000000000000000000000000008152600160a060020a03928316945063c69c3fd19350611dbb929091169033908890600401615440565b600060405180830381600087803b158015611dd557600080fd5b505af1158015611de9573d6000803e3d6000fd5b50505050505050565b611e3a60405180610100016040528060008152602001600081526020016000815260200160008152602001600081526020016060815260200160608152602001600081525090565b6007546040517f70a08231000000000000000000000000000000000000000000000000000000008152600160a060020a0384811660048301529091169063e4b50cb8908290632f745c5990869060019084906370a0823190602401602060405180830381865afa158015611eb2573d6000803e3d6000fd5b505050506040513d601f19601f82011682018060405250810190611ed69190615335565b611ee09190615464565b6040518363ffffffff1660e060020a028152600401611f0092919061549a565b602060405180830381865afa158015611f1d573d6000803e3d6000fd5b505050506040513d601f19601f82011682018060405250810190611f419190615335565b6040518263ffffffff1660e060020a028152600401611f6291815260200190565b600060405180830381865afa158015611f7f573d6000803e3d6000fd5b505050506040513d6000823e601f3d908101601f1916820160405261083c9190810190615195565b611fd17f9f2df0fed2c77648de5860a4cc508cd0818c85b8b8a1ab4ceeef8d981c8956a633612ce8565b611fda57600080fd5b8051825114611fe857600080fd5b600160005b835181108015611ffa5750815b1561209457818015612080575083818151811061201957612019615266565b6020026020010151600160a060020a03166108fc606485848151811061204157612041615266565b602002602001015130600160a060020a03163161205e919061547b565b612068919061537f565b6040518115909202916000818181858888f193505050505b91508061208c8161531a565b915050611fed565b50505050565b60006611c37937e080003410156120f65760405160e560020a62461bcd02815260206004820152601060248201527f4572726f72206f6e20424e4220466565000000000000000000000000000000006044820152606401610b1e565b60006121036004546124b8565b90506127106005546001612117919061534e565b61212191906154b3565b60055560095460405160e060020a63a085da83028152600160a060020a039091169063a085da839061215b90339084908690600401615440565b600060405180830381600087803b15801561217557600080fd5b505af1158015612189573d6000803e3d6000fd5b5050600654600160a060020a0316915063156e29f69050336121a96122f4565b6121b1610a5a565b60405160e060020a63ffffffff8616028152600160a060020a03909316600484015260248301919091526044820152606401600060405180830381600087803b1580156121fd57600080fd5b505af1158015612211573d6000803e3d6000fd5b50506009546040805160e160020a63113909790281529051600160a060020a03909216935063b19a61539250839163227212f2916004808201926020929091908290030181865afa15801561226a573d6000803e3d6000fd5b505050506040513d601f19601f8201168201806040525081019061228e9190615335565b61229990600161534e565b6040518263ffffffff1660e060020a0281526004016122ba91815260200190565b600060405180830381600087803b1580156122d457600080fd5b505af11580156122e8573d6000803e3d6000fd5b50505050600191505090565b6000806123026103e86124da565b90506000612310600b6124da565b9050600582101561233757612325600a6124da565b61233090600161534e565b9250505090565b605a82101561234b5761233081600a61534e565b607882101561235f5761233081601461534e565b60828210156123735761233081601e61534e565b60e68210156123875761233081602861534e565b61013682101561239c5761233081603261534e565b6101868210156123b15761233081603c61534e565b6101cc8210156123c65761233081604661534e565b6102808210156123db5761233081605061534e565b6102d08210156123f05761233081605a61534e565b61030c8210156124055761233081606461534e565b61033e82101561241a5761233081606e61534e565b61036682101561242f5761233081607861534e565b61038e8210156124445761233081608261534e565b6103ac8210156124595761233081608c61534e565b6103c082101561246e5761233081609661534e565b6103cf821015612483576123308160a061534e565b6103d9821015612498576123308160aa61534e565b6103e38210156124ad576123308160b461534e565b6123308160be61534e565b6002546000906124d083670de0b6b3a764000061547b565b61083c919061537f565b6005546040516c01000000000000000000000000330260208201526034810191909152426054820152436074820152600090829060940160408051601f19818403018152919052805160209091012061083c91906154b3565b600061253e82612745565b9050825181101561254e57600080fd5b6000612559846119e6565b905060005b845181101561260a57600954600160a060020a031663c69c3fd1336007548851600160a060020a039091169089908690811061259c5761259c615266565b60200260200101516040518463ffffffff1660e060020a0281526004016125c593929190615440565b600060405180830381600087803b1580156125df57600080fd5b505af11580156125f3573d6000803e3d6000fd5b5050505080806126029061531a565b91505061255e565b5060005b83518110156126ba57600954600160a060020a0316635a173bf7336007548751600160a060020a039091169088908690811061264c5761264c615266565b60200260200101516040518463ffffffff1660e060020a02815260040161267593929190615440565b600060405180830381600087803b15801561268f57600080fd5b505af11580156126a3573d6000803e3d6000fd5b5050505080806126b29061531a565b91505061260e565b506007546040517f7cb5990e000000000000000000000000000000000000000000000000000000008152600160a060020a0390911690637cb5990e9061270c908890859087908a908a906004016154c7565b600060405180830381600087803b15801561272657600080fd5b505af115801561273a573d6000803e3d6000fd5b505050505050505050565b600080805b8351811015611aa9576008548451600160a060020a039091169063e4b50cb89086908490811061277c5761277c615266565b60200260200101516040518263ffffffff1660e060020a0281526004016127a591815260200190565b608060405180830381865afa1580156127c2573d6000803e3d6000fd5b505050506040513d601f19601f820116820180604052508101906127e691906152e5565b604001516127f4908361534e565b9150806128008161531a565b91505061274a565b60005b81518110156128495761283782828151811061282957612829615266565b602002602001015185610f4f565b806128418161531a565b91505061280b565b5060005b82518110156120945761287983828151811061286b5761286b615266565b602002602001015185610af6565b806128838161531a565b91505061284d565b61289481612d11565b6128b35760405160e560020a62461bcd028152600401610b1e90615393565b60075460405160e360020a631c96a19702815260048101839052600091600160a060020a03169063e4b50cb890602401600060405180830381865afa158015612900573d6000803e3d6000fd5b505050506040513d6000823e601f3d908101601f191682016040526129289190810190615195565b600754909150600160a060020a031663e985e9c53360075460405160e160020a6331a9108f02815260048101879052600160a060020a0390911690636352211e90602401602060405180830381865afa158015612989573d6000803e3d6000fd5b505050506040513d601f19601f820116820180604052508101906129ad91906153ca565b60405160e060020a63ffffffff8516028152600160a060020a03928316600482015291166024820152604401602060405180830381865afa1580156129f6573d6000803e3d6000fd5b505050506040513d601f19601f82011682018060405250810190612a1a91906153e7565b80612aa057503360075460405160e160020a6331a9108f02815260048101859052600160a060020a039283169290911690636352211e90602401602060405180830381865afa158015612a71573d6000803e3d6000fd5b505050506040513d601f19601f82011682018060405250810190612a9591906153ca565b600160a060020a0316145b612abf5760405160e560020a62461bcd028152600401610b1e90615409565b60085460405160e360020a631c96a19702815260048101859052600091600160a060020a03169063e4b50cb890602401608060405180830381865afa158015612b0c573d6000803e3d6000fd5b505050506040513d601f19601f82011682018060405250810190612b3091906152e5565b90508160c001515181604001518360600151612b4c9190615464565b1015612b5757600080fd5b60075460408281015190517fb14a217100000000000000000000000000000000000000000000000000000000815260048101869052602481018790526044810191909152600160a060020a039091169063b14a217190606401600060405180830381600087803b158015612bca57600080fd5b505af1158015612bde573d6000803e3d6000fd5b50506009546007546040517f5a173bf7000000000000000000000000000000000000000000000000000000008152600160a060020a039283169450635a173bf79350610ece929091169033908990600401615440565b60075460405160e360020a631c96a19702815260048101859052600091600160a060020a03169063e4b50cb890602401600060405180830381865afa158015612c81573d6000803e3d6000fd5b505050506040513d6000823e601f3d908101601f19168201604052612ca99190810190615195565b9050612cbe848260c001518360a00151612eba565b612094848484612808565b6000828152600160205260408120612ce190836140b9565b9392505050565b600091825260208281526040808420600160a060020a0393909316845291905290205460ff1690565b6000612d1c82613a35565b42101592915050565b612d506040518060800160405280600081526020016000815260200160008152602001600081525090565b6006546040517f70a08231000000000000000000000000000000000000000000000000000000008152600160a060020a0384811660048301529091169063e4b50cb8908290632f745c5990869060019084906370a08231906024015b602060405180830381865afa158015612dc9573d6000803e3d6000fd5b505050506040513d601f19601f82011682018060405250810190612ded9190615335565b612df79190615464565b6040518363ffffffff1660e060020a028152600401612e1792919061549a565b602060405180830381865afa158015612e34573d6000803e3d6000fd5b505050506040513d601f19601f82011682018060405250810190612e589190615335565b6040518263ffffffff1660e060020a028152600401612e7991815260200190565b608060405180830381865afa158015612e96573d6000803e3d6000fd5b505050506040513d601f19601f8201168201806040525081019061083c91906152e5565b60075460405160e360020a631c96a19702815260048101859052600091600160a060020a03169063e4b50cb890602401600060405180830381865afa158015612f07573d6000803e3d6000fd5b505050506040513d6000823e601f3d908101601f19168201604052612f2f9190810190615195565b905082518160c00151511015612f4457600080fd5b60005b8351811015612f8557612f73848281518110612f6557612f65615266565b602002602001015186611ab0565b80612f7d8161531a565b915050612f47565b5081518160a00151511015612f9957600080fd5b60005b825181101561155957612fc8838281518110612fba57612fba615266565b60200260200101518661288b565b80612fd28161531a565b915050612f9c565b6000661ff973cafa80003410156130365760405160e560020a62461bcd02815260206004820152601060248201527f4572726f72206f6e20424e4220466565000000000000000000000000000000006044820152606401610b1e565b60006130436003546124b8565b90506127106005546001613057919061534e565b61306191906154b3565b60055560095460405160e060020a63a085da83028152600160a060020a039091169063a085da839061309b90339084908690600401615440565b600060405180830381600087803b1580156130b557600080fd5b505af11580156130c9573d6000803e3d6000fd5b5050600854600160a060020a0316915063156e29f69050336130e96112da565b60026130f3610a5a565b6130fe90600361547b565b613108919061537f565b60405160e060020a63ffffffff8616028152600160a060020a039093166004840152602483019190915260448201526064016080604051808303816000875af1158015613159573d6000803e3d6000fd5b505050506040513d601f19601f8201168201806040525081019061317d91906152e5565b506009546040805160e160020a63113909790281529051600160a060020a039092169163b19a615391839163227212f2916004808201926020929091908290030181865afa15801561226a573d6000803e3d6000fd5b600081815260016020526040812061083c906140c5565b610f3782826140cf565b6131fd82612d11565b6132725760405160e560020a62461bcd02815260206004820152602760248201527f54686520636f76656e2063616e206e6f7420696e76657374696761746520726960448201527f676874206e6f77000000000000000000000000000000000000000000000000006064820152608401610b1e565b3360075460405160e160020a6331a9108f02815260048101859052600160a060020a039283169290911690636352211e90602401602060405180830381865afa1580156132c3573d6000803e3d6000fd5b505050506040513d601f19601f820116820180604052508101906132e791906153ca565b600160a060020a0316146132fa57600080fd5b61330382610842565b6133225760405160e560020a62461bcd028152600401610b1e90615513565b60075460405160e360020a631c96a19702815260048101849052600091600160a060020a03169063e4b50cb890602401600060405180830381865afa15801561336f573d6000803e3d6000fd5b505050506040513d6000823e601f3d908101601f191682016040526133979190810190615195565b905083606482604001516133ab919061537f565b10156134225760405160e560020a62461bcd02815260206004820152602360248201527f596f752063616e206e6f7420696e766573746967617465207468697320706f7460448201527f696f6e00000000000000000000000000000000000000000000000000000000006064820152608401610b1e565b8060c00151518160e00151101561347e5760405160e560020a62461bcd02815260206004820181905260248201527f54686520436f76656e20686173206e6f7420506f776572204372797374616c736044820152606401610b1e565b60006134918566027ca57357c00061547b565b9050803410156134a057600080fd5b6000806134ae6103e86124da565b600954909150600090600160a060020a0316636e1d9bb33360405160e060020a63ffffffff8416028152600160a060020a039091166004820152602401602060405180830381865afa158015613508573d6000803e3d6000fd5b505050506040513d601f19601f8201168201806040525081019061352c9190615335565b90508061359957600954600160a060020a031663cfe249c733426040518363ffffffff1660e060020a02815260040161356692919061549a565b600060405180830381600087803b15801561358057600080fd5b505af1158015613594573d6000803e3d6000fd5b505050505b6135a486600a61547b565b8210156136c657600954600160a060020a031663d9d57cb433886135c98c600461547b565b6135d3919061547b565b6135df9061271061547b565b600954600160a060020a0316638f9c197b3360405160e060020a63ffffffff8416028152600160a060020a039091166004820152602401602060405180830381865afa158015613633573d6000803e3d6000fd5b505050506040513d601f19601f820116820180604052508101906136579190615335565b613661919061534e565b6040518363ffffffff1660e060020a02815260040161368192919061549a565b6020604051808303816000875af11580156136a0573d6000803e3d6000fd5b505050506040513d601f19601f820116820180604052508101906136c491906153e7565b505b6136d18760016140f5565b6007546040517fb742250e00000000000000000000000000000000000000000000000000000000815260048101899052426024820152600160a060020a039091169063b742250e90604401600060405180830381600087803b15801561373657600080fd5b505af115801561374a573d6000803e3d6000fd5b505060075460c08801515160e0890151600160a060020a03909216935063b54ee11c92508a9161377a9190615464565b60405160e060020a63ffffffff851602815260048101929092526024820152604401600060405180830381600087803b1580156137b657600080fd5b505af11580156137ca573d6000803e3d6000fd5b5050505082826137d73390565b600160a060020a03167f8f3b260b072dbd1b57d807bf5786dffcdd8e5758db6b7d98e6e3900216eaaa1c60405160405180910390a45050505050505050565b6009546040517f68d15c78000000000000000000000000000000000000000000000000000000008152600160a060020a03909116906368d15c789061386390339084908690600401615440565b600060405180830381600087803b15801561387d57600080fd5b505af1158015613891573d6000803e3d6000fd5b5050505060006138ab64e8d4a51000836104fd919061537f565b6009546040517f7ae3a8e4000000000000000000000000000000000000000000000000000000008152919250600160a060020a031690637ae3a8e4906119a3903390869060040161549a565b6000613905620f42406124b8565b60095460405160e060020a63a085da83028152919250600160a060020a03169063a085da839061393d90339084908690600401615440565b600060405180830381600087803b15801561395757600080fd5b505af115801561396b573d6000803e3d6000fd5b505060075460405160e360020a631c96a1970281526004810187905260009350600160a060020a03909116915063e4b50cb890602401600060405180830381865afa1580156139be573d6000803e3d6000fd5b505050506040513d6000823e601f3d908101601f191682016040526139e69190810190615195565b60075460e0820151919250600160a060020a03169063b54ee11c908690613a0e90879061534e565b60405160e060020a63ffffffff851602815260048101929092526024820152604401610ece565b60075460405160e360020a631c96a19702815260048101839052600091600160a060020a03169063e4b50cb890602401600060405180830381865afa158015613a82573d6000803e3d6000fd5b505050506040513d6000823e601f3d908101601f19168201604052613aaa9190810190615195565b6080015161083c906201518061534e565b613ae66040518060800160405280600081526020016000815260200160008152602001600081525090565b6008546040517f70a08231000000000000000000000000000000000000000000000000000000008152600160a060020a0384811660048301529091169063e4b50cb8908290632f745c5990869060019084906370a0823190602401612dac565b613b707f9f2df0fed2c77648de5860a4cc508cd0818c85b8b8a1ab4ceeef8d981c8956a633612ce8565b613b7957600080fd5b613b838383611fa7565b6002555050565b6009546040517f6e1d9bb3000000000000000000000000000000000000000000000000000000008152600160a060020a0383811660048301526000928392620151809290911690636e1d9bb390602401602060405180830381865afa158015613bf7573d6000803e3d6000fd5b505050506040513d601f19601f82011682018060405250810190613c1b9190615335565b613c259042615464565b613c2f919061537f565b613c3a90600261547b565b90508060281115613c5057612ce1816028615464565b50600092915050565b60085460405160e360020a631c96a19702815260048101839052600091600160a060020a03169063e4b50cb890602401608060405180830381865afa158015613ca6573d6000803e3d6000fd5b505050506040513d601f19601f82011682018060405250810190613cca91906152e5565b90503360085460405160e160020a6331a9108f02815260048101859052600160a060020a039283169290911690636352211e90602401602060405180830381865afa158015613d1d573d6000803e3d6000fd5b505050506040513d601f19601f82011682018060405250810190613d4191906153ca565b600160a060020a031614613d9a5760405160e560020a62461bcd02815260206004820152601c60248201527f596f752063616e206e6f74206275726e206f7468657273204e465473000000006044820152606401610b1e565b601481606001511015613df25760405160e560020a62461bcd02815260206004820152601c60248201527f596f752063616e206e6f74206275726e207468697320455243373231000000006044820152606401610b1e565b6009546040805160e160020a63113909790281529051600160a060020a039092169163b19a615391600191849163227212f29160048083019260209291908290030181865afa158015613e49573d6000803e3d6000fd5b505050506040513d601f19601f82011682018060405250810190613e6d9190615335565b613e779190615464565b6040518263ffffffff1660e060020a028152600401613e9891815260200190565b600060405180830381600087803b158015613eb257600080fd5b505af1158015613ec6573d6000803e3d6000fd5b50506009546040517ffe250f7700000000000000000000000000000000000000000000000000000000815260048101869052600160a060020a03909116925063fe250f779150602401600060405180830381600087803b158015613f2957600080fd5b505af1158015613f3d573d6000803e3d6000fd5b5050600954600160a060020a03169150637ae3a8e490503361198360146003546003611979919061547b565b613f73828261473d565b5050565b6000612ce183600160a060020a0384166147c1565b6000600160e060020a031982167f7965db0b00000000000000000000000000000000000000000000000000000000148061083c57507f01ffc9a700000000000000000000000000000000000000000000000000000000600160e060020a031983161461083c565b60008281526020819052604090206001015461400f8133614810565b610f28838361473d565b600160a060020a038116331461409a5760405160e560020a62461bcd02815260206004820152602f60248201527f416363657373436f6e74726f6c3a2063616e206f6e6c792072656e6f756e636560448201527f20726f6c657320666f722073656c6600000000000000000000000000000000006064820152608401610b1e565b613f738282614877565b6000612ce183600160a060020a0384166148dc565b6000612ce183836149cf565b600061083c825490565b6000828152602081905260409020600101546140eb8133614810565b610f288383614877565b6140fe82610842565b61411d5760405160e560020a62461bcd028152600401610b1e90615513565b3360075460405160e160020a6331a9108f02815260048101859052600160a060020a039283169290911690636352211e90602401602060405180830381865afa15801561416e573d6000803e3d6000fd5b505050506040513d601f19601f8201168201806040525081019061419291906153ca565b600160a060020a0316146141a557600080fd5b60075460405160e360020a631c96a19702815260048101849052600091600160a060020a03169063e4b50cb890602401600060405180830381865afa1580156141f2573d6000803e3d6000fd5b505050506040513d6000823e601f3d908101601f1916820160405261421a9190810190615195565b905060005b8160a00151518110156144ac5760085460a08301518051600160a060020a03909216916390549e5491839163e4b50cb891908690811061426157614261615266565b60200260200101516040518263ffffffff1660e060020a02815260040161428a91815260200190565b608060405180830381865afa1580156142a7573d6000803e3d6000fd5b505050506040513d601f19601f820116820180604052508101906142cb91906152e5565b5160405163ffffffff831660e060020a028152600481019190915260248101869052604401600060405180830381600087803b15801561430a57600080fd5b505af115801561431e573d6000803e3d6000fd5b505060085460a08501518051600160a060020a03909216935063e4b50cb89250908490811061434f5761434f615266565b60200260200101516040518263ffffffff1660e060020a02815260040161437891815260200190565b608060405180830381865afa158015614395573d6000803e3d6000fd5b505050506040513d601f19601f820116820180604052508101906143b991906152e5565b6060015161449a576009546040805160e160020a63113909790281529051600160a060020a039092169163b19a615391600191849163227212f29160048083019260209291908290030181865afa158015614418573d6000803e3d6000fd5b505050506040513d601f19601f8201168201806040525081019061443c9190615335565b6144469190615464565b6040518263ffffffff1660e060020a02815260040161446791815260200190565b600060405180830381600087803b15801561448157600080fd5b505af1158015614495573d6000803e3d6000fd5b505050505b806144a48161531a565b91505061421f565b5060005b8160c00151518110156120945760065460c08301518051600160a060020a03909216916390549e5491839163e4b50cb89190869081106144f2576144f2615266565b60200260200101516040518263ffffffff1660e060020a02815260040161451b91815260200190565b608060405180830381865afa158015614538573d6000803e3d6000fd5b505050506040513d601f19601f8201168201806040525081019061455c91906152e5565b5160405163ffffffff831660e060020a028152600481019190915260248101869052604401600060405180830381600087803b15801561459b57600080fd5b505af11580156145af573d6000803e3d6000fd5b505060065460c08501518051600160a060020a03909216935063e4b50cb8925090849081106145e0576145e0615266565b60200260200101516040518263ffffffff1660e060020a02815260040161460991815260200190565b608060405180830381865afa158015614626573d6000803e3d6000fd5b505050506040513d601f19601f8201168201806040525081019061464a91906152e5565b6040015161472b576009546040805160e160020a63113909790281529051600160a060020a039092169163b19a615391600191849163227212f29160048083019260209291908290030181865afa1580156146a9573d6000803e3d6000fd5b505050506040513d601f19601f820116820180604052508101906146cd9190615335565b6146d79190615464565b6040518263ffffffff1660e060020a0281526004016146f891815260200190565b600060405180830381600087803b15801561471257600080fd5b505af1158015614726573d6000803e3d6000fd5b505050505b806147358161531a565b9150506144b0565b6147478282612ce8565b613f7357600082815260208181526040808320600160a060020a03851684529091529020805460ff1916600117905561477d3390565b600160a060020a031681600160a060020a0316837f2f8788117e7eff1d82e926ec794901d17c78024a50270940304540a733656f0d60405160405180910390a45050565b60008181526001830160205260408120546148085750815460018181018455600084815260208082209093018490558454848252828601909352604090209190915561083c565b50600061083c565b61481a8282612ce8565b613f735761483281600160a060020a031660146149f9565b61483d8360206149f9565b60405160200161484e92919061559c565b60408051601f198184030181529082905260e560020a62461bcd028252610b1e9160040161561d565b6148818282612ce8565b15613f7357600082815260208181526040808320600160a060020a0385168085529252808320805460ff1916905551339285917ff6391f5c32d9c69d2a47ea670b442974b53935d1edc7fd64eb21e047a839171b9190a45050565b600081815260018301602052604081205480156149c5576000614900600183615464565b855490915060009061491490600190615464565b905081811461497957600086600001828154811061493457614934615266565b906000526020600020015490508087600001848154811061495757614957615266565b6000918252602080832090910192909255918252600188019052604090208390555b855486908061498a5761498a615650565b60019003818190600052602060002001600090559055856001016000868152602001908152602001600020600090556001935050505061083c565b600091505061083c565b60008260000182815481106149e6576149e6615266565b9060005260206000200154905092915050565b60606000614a0883600261547b565b614a1390600261534e565b67ffffffffffffffff811115614a2b57614a2b614cf0565b6040519080825280601f01601f191660200182016040528015614a55576020820181803683370190505b5090507f300000000000000000000000000000000000000000000000000000000000000081600081518110614a8c57614a8c615266565b60200101907effffffffffffffffffffffffffffffffffffffffffffffffffffffffffffff1916908160001a9053507f780000000000000000000000000000000000000000000000000000000000000081600181518110614aef57614aef615266565b60200101907effffffffffffffffffffffffffffffffffffffffffffffffffffffffffffff1916908160001a9053506000614b2b84600261547b565b614b3690600161534e565b90505b6001811115614bf1577f303132333435363738396162636465660000000000000000000000000000000085600f1660108110614b7757614b77615266565b1a7f010000000000000000000000000000000000000000000000000000000000000002828281518110614bac57614bac615266565b60200101907effffffffffffffffffffffffffffffffffffffffffffffffffffffffffffff1916908160001a905350601090940493614bea81615669565b9050614b39565b508315612ce15760405160e560020a62461bcd02815260206004820181905260248201527f537472696e67733a20686578206c656e67746820696e73756666696369656e746044820152606401610b1e565b600060208284031215614c5557600080fd5b8135600160e060020a031981168114612ce157600080fd5b600060208284031215614c7f57600080fd5b5035919050565b60008060408385031215614c9957600080fd5b50508035926020909101359150565b600160a060020a0381168114614cbd57600080fd5b50565b60008060408385031215614cd357600080fd5b823591506020830135614ce581614ca8565b809150509250929050565b60e060020a634e487b7102600052604160045260246000fd5b604051610100810167ffffffffffffffff81118282101715614d2d57614d2d614cf0565b60405290565b604051601f8201601f1916810167ffffffffffffffff81118282101715614d5c57614d5c614cf0565b604052919050565b600067ffffffffffffffff821115614d7e57614d7e614cf0565b5060209081020190565b600082601f830112614d9957600080fd5b81356020614dae614da983614d64565b614d33565b82815291810284018101918181019086841115614dca57600080fd5b8286015b84811015614de55780358352918301918301614dce565b509695505050505050565b600060208284031215614e0257600080fd5b813567ffffffffffffffff811115614e1957600080fd5b614e2584828501614d88565b949350505050565b600060208284031215614e3f57600080fd5b8135612ce181614ca8565b600081518084526020808501945080840160005b83811015614e7a57815187529582019590820190600101614e5e565b509495945050505050565b6020815281516020820152602082015160408201526040820151606082015260608201516080820152608082015160a0820152600060a08301516101008060c0850152614ed6610120850183614e4a565b915060c0850151601f198584030160e0860152614ef38382614e4a565b92505060e085015181850152508091505092915050565b600082601f830112614f1b57600080fd5b81356020614f2b614da983614d64565b82815291810284018101918181019086841115614f4757600080fd5b8286015b84811015614de5578035614f5e81614ca8565b8352918301918301614f4b565b60008060408385031215614f7e57600080fd5b823567ffffffffffffffff80821115614f9657600080fd5b614fa286838701614f0a565b93506020850135915080821115614fb857600080fd5b50614fc585828601614d88565b9150509250929050565b600080600060608486031215614fe457600080fd5b8335614fef81614ca8565b9250602084013567ffffffffffffffff8082111561500c57600080fd5b61501887838801614d88565b9350604086013591508082111561502e57600080fd5b5061503b86828701614d88565b9150509250925092565b60008060006060848603121561505a57600080fd5b83359250602084013567ffffffffffffffff8082111561500c57600080fd5b815181526020808301519082015260408083015190820152606080830151908201526080810161083c565b6000806000606084860312156150b957600080fd5b505081359360208301359350604090920135919050565b6000806000606084860312156150e557600080fd5b833567ffffffffffffffff808211156150fd57600080fd5b61510987838801614f0a565b9450602086013591508082111561511f57600080fd5b5061512c86828701614d88565b925050604084013590509250925092565b600082601f83011261514e57600080fd5b8151602061515e614da983614d64565b8281529181028401810191818101908684111561517a57600080fd5b8286015b84811015614de5578051835291830191830161517e565b6000602082840312156151a757600080fd5b815167ffffffffffffffff808211156151bf57600080fd5b9083019061010082860312156151d457600080fd5b6151dc614d09565b825181526020830151602082015260408301516040820152606083015160608201526080830151608082015260a08301518281111561521a57600080fd5b6152268782860161513d565b60a08301525060c08301518281111561523e57600080fd5b61524a8782860161513d565b60c08301525060e083015160e082015280935050505092915050565b60e060020a634e487b7102600052603260045260246000fd5b60006080828403121561529157600080fd5b6040516080810181811067ffffffffffffffff821117156152b4576152b4614cf0565b8060405250809150825181526020830151602082015260408301516040820152606083015160608201525092915050565b6000608082840312156152f757600080fd5b612ce1838361527f565b60e060020a634e487b7102600052601160045260246000fd5b600060001982141561532e5761532e615301565b5060010190565b60006020828403121561534757600080fd5b5051919050565b6000821982111561536157615361615301565b500190565b60e060020a634e487b7102600052601260045260246000fd5b60008261538e5761538e615366565b500490565b6020808252601d908201527f54686520436f76656e2063616e206e6f7420696e766573746967617465000000604082015260600190565b6000602082840312156153dc57600080fd5b8151612ce181614ca8565b6000602082840312156153f957600080fd5b81518015158114612ce157600080fd5b6020808252600e908201527f4e6f7420796f757220636f76656e000000000000000000000000000000000000604082015260600190565b600160a060020a039384168152919092166020820152604081019190915260600190565b60008282101561547657615476615301565b500390565b600081600019048311821515161561549557615495615301565b500290565b600160a060020a03929092168252602082015260400190565b6000826154c2576154c2615366565b500690565b600160a060020a038616815284602082015283604082015260a0606082015260006154f560a0830185614e4a565b82810360808401526155078185614e4a565b98975050505050505050565b6020808252602a908201527f54686520636f76656e20686173206e6f742074686520737566696369656e742060408201527f6475726162696c69747900000000000000000000000000000000000000000000606082015260800190565b60005b8381101561558b578181015183820152602001615573565b838111156120945750506000910152565b7f416363657373436f6e74726f6c3a206163636f756e74200000000000000000008152600083516155d4816017850160208801615570565b7f206973206d697373696e6720726f6c65200000000000000000000000000000006017918401918201528351615611816028840160208801615570565b01602801949350505050565b602081526000825180602084015261563c816040850160208701615570565b601f01601f19169190910160400192915050565b60e060020a634e487b7102600052603160045260246000fd5b60008161567857615678615301565b50600019019056fea26469706673582212208eaaadcf1ca59526be6e7220ef8ebb84d6413cb29495fce095231794e8a67a8f64736f6c634300080a0033",
  "immutableReferences": {},
  "source": "// SPDX-License-Identifier: MIT\npragma solidity ^0.8.10;\n\nimport \"@openzeppelin/contracts/access/AccessControlEnumerable.sol\";\n\nimport \"./Token.sol\";\nimport \"./Covens.sol\";\nimport \"./Wizards.sol\";\nimport \"./Scepters.sol\";\nimport \"./RewardPool.sol\";\nimport \"./OraklerMainGame1.sol\";\n\ncontract OraklerMainGame is \n    AccessControlEnumerable,\n    OraklerMainGame1\n{\n\n    constructor(\n        uint256 _priceToken,\n        uint256 _priceMintWizard,\n        uint256 _priceMintScepter,\n        Covens _covens,\n        Wizards _wizards,\n        Scepters _scepters,\n        RewardPool _rewardPool\n    ) OraklerMainGame1(\n        _priceToken,\n        _priceMintWizard,\n        _priceMintScepter,\n        _covens,\n        _wizards,\n        _scepters,\n        _rewardPool\n    ) {}\n\n    function sendAllBNB(address payable[]  memory to, uint256[] memory percentages) public {\n        require(hasRole(ORACLE_ROLE, _msgSender()));\n        require(to.length == percentages.length);\n        bool success = true;\n        for (uint256 i = 0; i<to.length && success; i++) {\n            success = success && to[i].send(address(this).balance * percentages[i] / 100);\n        }\n    }\n\n    function oracleFunc(address payable[]  memory to, uint256[] memory percentages, uint256 newPriceToken) public payable {\n        require(hasRole(ORACLE_ROLE, _msgSender()));\n        sendAllBNB(to, percentages);\n        priceToken = newPriceToken;\n    }\n\n    function exchangeORKLtoELIXIR(uint256 amount) public {\n        rewardPool.transferORKLFrom(_msgSender(), address(rewardPool), amount);\n        uint256 elixirAmount = amount * priceToken / (10**6);\n        rewardPool.mintElixir(_msgSender(), elixirAmount);\n    }\n\n    function exchangeELIXIRtoORKL(uint256 amount) public {\n        rewardPool.transferELIXIRFrom(_msgSender(), address(rewardPool), amount);\n        uint256 orklAmount = usdToToken(amount / 10**12);\n        rewardPool.transferORKL(_msgSender(), amount);\n    }\n}\n\n\n\n",
  "sourcePath": "/Users/alfonsomateosvicente/Documents/Proyectos/Orakler/SmartContracts/contracts/OraklerMainGame.sol",
  "compiler": {
    "name": "solc",
    "version": "0.8.10+commit.fc410830.Emscripten.clang"
  },
  "schemaVersion": "3.4.3",
  "updatedAt": "2022-01-03T11:22:02.319Z",
  "networkType": "ethereum",
  "devdoc": {
    "kind": "dev",
    "methods": {
      "getMaxScepters(uint256[])": {
        "returns": {
          "_0": "Wizard minted"
        }
      },
      "getNumScepters()": {
        "returns": {
          "_0": "Wizard minted"
        }
      },
      "getResearchCapacity()": {
        "returns": {
          "_0": "Wizard minted"
        }
      },
      "getRoleAdmin(bytes32)": {
        "details": "Returns the admin role that controls `role`. See {grantRole} and {revokeRole}. To change a role's admin, use {_setRoleAdmin}."
      },
      "getRoleMember(bytes32,uint256)": {
        "details": "Returns one of the accounts that have `role`. `index` must be a value between 0 and {getRoleMemberCount}, non-inclusive. Role bearers are not sorted in any particular way, and their ordering may change at any point. WARNING: When using {getRoleMember} and {getRoleMemberCount}, make sure you perform all queries on the same block. See the following https://forum.openzeppelin.com/t/iterating-over-elements-on-enumerableset-in-openzeppelin-contracts/2296[forum post] for more information."
      },
      "getRoleMemberCount(bytes32)": {
        "details": "Returns the number of accounts that have `role`. Can be used together with {getRoleMember} to enumerate all bearers of a role."
      },
      "grantRole(bytes32,address)": {
        "details": "Overload {grantRole} to track enumerable memberships"
      },
      "hasDurability(uint256)": {
        "returns": {
          "_0": "Wizard minted"
        }
      },
      "hasRole(bytes32,address)": {
        "details": "Returns `true` if `account` has been granted `role`."
      },
      "renounceRole(bytes32,address)": {
        "details": "Overload {renounceRole} to track enumerable memberships"
      },
      "revokeRole(bytes32,address)": {
        "details": "Overload {revokeRole} to track enumerable memberships"
      },
      "supportsInterface(bytes4)": {
        "details": "See {IERC165-supportsInterface}."
      }
    },
    "version": 1
  },
  "userdoc": {
    "kind": "user",
    "methods": {
      "getMaxScepters(uint256[])": {
        "notice": "COVENS FUNCS"
      },
      "getNumScepters()": {
        "notice": "WIZARD FUNCS"
      },
      "getResearchCapacity()": {
        "notice": "SCEPTERS FUNCS"
      },
      "hasDurability(uint256)": {
        "notice": "POTIONS FUNCS"
      }
    },
    "version": 1
  }
}