{
  "contractName": "OraklerInfo",
  "abi": [
    {
      "inputs": [
        {
          "internalType": "contract BEP20",
          "name": "_token",
          "type": "address"
        },
        {
          "internalType": "contract Covens",
          "name": "_covens",
          "type": "address"
        },
        {
          "internalType": "contract Wizards",
          "name": "_wizards",
          "type": "address"
        },
        {
          "internalType": "contract Scepters",
          "name": "_scepters",
          "type": "address"
        },
        {
          "internalType": "contract RewardPool",
          "name": "_rewardPool",
          "type": "address"
        }
      ],
      "stateMutability": "nonpayable",
      "type": "constructor"
    },
    {
      "inputs": [
        {
          "internalType": "address",
          "name": "owner",
          "type": "address"
        }
      ],
      "name": "getAllCovensOf",
      "outputs": [
        {
          "components": [
            {
              "internalType": "uint256",
              "name": "id",
              "type": "uint256"
            },
            {
              "internalType": "uint256",
              "name": "creationTime",
              "type": "uint256"
            },
            {
              "internalType": "uint256",
              "name": "totalResearchCapacity",
              "type": "uint256"
            },
            {
              "internalType": "uint256",
              "name": "maxScepters",
              "type": "uint256"
            },
            {
              "internalType": "uint256",
              "name": "latestPotionTime",
              "type": "uint256"
            },
            {
              "components": [
                {
                  "internalType": "uint256",
                  "name": "id",
                  "type": "uint256"
                },
                {
                  "internalType": "uint256",
                  "name": "creationTime",
                  "type": "uint256"
                },
                {
                  "internalType": "uint256",
                  "name": "scepters",
                  "type": "uint256"
                },
                {
                  "internalType": "uint256",
                  "name": "durability",
                  "type": "uint256"
                }
              ],
              "internalType": "struct Wizards.Wizard[]",
              "name": "wizards",
              "type": "tuple[]"
            },
            {
              "components": [
                {
                  "internalType": "uint256",
                  "name": "id",
                  "type": "uint256"
                },
                {
                  "internalType": "uint256",
                  "name": "creationTime",
                  "type": "uint256"
                },
                {
                  "internalType": "uint256",
                  "name": "durability",
                  "type": "uint256"
                },
                {
                  "internalType": "uint256",
                  "name": "researchCapacity",
                  "type": "uint256"
                }
              ],
              "internalType": "struct Scepters.Scepter[]",
              "name": "scepters",
              "type": "tuple[]"
            },
            {
              "internalType": "uint256",
              "name": "powerCrystals",
              "type": "uint256"
            }
          ],
          "internalType": "struct OraklerInfo.Coven[]",
          "name": "",
          "type": "tuple[]"
        }
      ],
      "stateMutability": "view",
      "type": "function"
    },
    {
      "inputs": [
        {
          "internalType": "address",
          "name": "owner",
          "type": "address"
        }
      ],
      "name": "getAllWizardsOf",
      "outputs": [
        {
          "components": [
            {
              "internalType": "uint256",
              "name": "id",
              "type": "uint256"
            },
            {
              "internalType": "uint256",
              "name": "creationTime",
              "type": "uint256"
            },
            {
              "internalType": "uint256",
              "name": "scepters",
              "type": "uint256"
            },
            {
              "internalType": "uint256",
              "name": "durability",
              "type": "uint256"
            }
          ],
          "internalType": "struct Wizards.Wizard[]",
          "name": "",
          "type": "tuple[]"
        }
      ],
      "stateMutability": "view",
      "type": "function"
    },
    {
      "inputs": [
        {
          "internalType": "address",
          "name": "owner",
          "type": "address"
        }
      ],
      "name": "getAllSceptersOf",
      "outputs": [
        {
          "components": [
            {
              "internalType": "uint256",
              "name": "id",
              "type": "uint256"
            },
            {
              "internalType": "uint256",
              "name": "creationTime",
              "type": "uint256"
            },
            {
              "internalType": "uint256",
              "name": "durability",
              "type": "uint256"
            },
            {
              "internalType": "uint256",
              "name": "researchCapacity",
              "type": "uint256"
            }
          ],
          "internalType": "struct Scepters.Scepter[]",
          "name": "",
          "type": "tuple[]"
        }
      ],
      "stateMutability": "view",
      "type": "function"
    },
    {
      "inputs": [
        {
          "internalType": "address",
          "name": "_market",
          "type": "address"
        }
      ],
      "name": "getAllCovensOfMarket",
      "outputs": [
        {
          "components": [
            {
              "internalType": "uint256",
              "name": "id",
              "type": "uint256"
            },
            {
              "internalType": "uint256",
              "name": "creationTime",
              "type": "uint256"
            },
            {
              "internalType": "uint256",
              "name": "totalResearchCapacity",
              "type": "uint256"
            },
            {
              "internalType": "uint256",
              "name": "maxScepters",
              "type": "uint256"
            },
            {
              "internalType": "uint256",
              "name": "latestPotionTime",
              "type": "uint256"
            },
            {
              "components": [
                {
                  "internalType": "uint256",
                  "name": "id",
                  "type": "uint256"
                },
                {
                  "internalType": "uint256",
                  "name": "creationTime",
                  "type": "uint256"
                },
                {
                  "internalType": "uint256",
                  "name": "scepters",
                  "type": "uint256"
                },
                {
                  "internalType": "uint256",
                  "name": "durability",
                  "type": "uint256"
                }
              ],
              "internalType": "struct Wizards.Wizard[]",
              "name": "wizards",
              "type": "tuple[]"
            },
            {
              "components": [
                {
                  "internalType": "uint256",
                  "name": "id",
                  "type": "uint256"
                },
                {
                  "internalType": "uint256",
                  "name": "creationTime",
                  "type": "uint256"
                },
                {
                  "internalType": "uint256",
                  "name": "durability",
                  "type": "uint256"
                },
                {
                  "internalType": "uint256",
                  "name": "researchCapacity",
                  "type": "uint256"
                }
              ],
              "internalType": "struct Scepters.Scepter[]",
              "name": "scepters",
              "type": "tuple[]"
            },
            {
              "internalType": "uint256",
              "name": "powerCrystals",
              "type": "uint256"
            },
            {
              "internalType": "address",
              "name": "seller",
              "type": "address"
            },
            {
              "internalType": "uint256",
              "name": "time",
              "type": "uint256"
            },
            {
              "internalType": "uint256",
              "name": "startingPrice",
              "type": "uint256"
            },
            {
              "internalType": "uint256",
              "name": "endingPrice",
              "type": "uint256"
            },
            {
              "internalType": "uint256",
              "name": "duration",
              "type": "uint256"
            },
            {
              "internalType": "uint256",
              "name": "price",
              "type": "uint256"
            }
          ],
          "internalType": "struct OraklerInfo.CovenAuction[]",
          "name": "",
          "type": "tuple[]"
        }
      ],
      "stateMutability": "view",
      "type": "function"
    },
    {
      "inputs": [
        {
          "internalType": "address",
          "name": "_market",
          "type": "address"
        }
      ],
      "name": "getAllSceptersOfMarket",
      "outputs": [
        {
          "components": [
            {
              "internalType": "uint256",
              "name": "id",
              "type": "uint256"
            },
            {
              "internalType": "uint256",
              "name": "creationTime",
              "type": "uint256"
            },
            {
              "internalType": "uint256",
              "name": "durability",
              "type": "uint256"
            },
            {
              "internalType": "uint256",
              "name": "researchCapacity",
              "type": "uint256"
            },
            {
              "internalType": "address",
              "name": "seller",
              "type": "address"
            },
            {
              "internalType": "uint256",
              "name": "time",
              "type": "uint256"
            },
            {
              "internalType": "uint256",
              "name": "startingPrice",
              "type": "uint256"
            },
            {
              "internalType": "uint256",
              "name": "endingPrice",
              "type": "uint256"
            },
            {
              "internalType": "uint256",
              "name": "duration",
              "type": "uint256"
            },
            {
              "internalType": "uint256",
              "name": "price",
              "type": "uint256"
            }
          ],
          "internalType": "struct OraklerInfo.ScepterAuction[]",
          "name": "",
          "type": "tuple[]"
        }
      ],
      "stateMutability": "view",
      "type": "function"
    },
    {
      "inputs": [
        {
          "internalType": "address",
          "name": "_market",
          "type": "address"
        }
      ],
      "name": "getAllWizardsOfMarket",
      "outputs": [
        {
          "components": [
            {
              "internalType": "uint256",
              "name": "id",
              "type": "uint256"
            },
            {
              "internalType": "uint256",
              "name": "creationTime",
              "type": "uint256"
            },
            {
              "internalType": "uint256",
              "name": "scepters",
              "type": "uint256"
            },
            {
              "internalType": "uint256",
              "name": "durability",
              "type": "uint256"
            },
            {
              "internalType": "address",
              "name": "seller",
              "type": "address"
            },
            {
              "internalType": "uint256",
              "name": "time",
              "type": "uint256"
            },
            {
              "internalType": "uint256",
              "name": "startingPrice",
              "type": "uint256"
            },
            {
              "internalType": "uint256",
              "name": "endingPrice",
              "type": "uint256"
            },
            {
              "internalType": "uint256",
              "name": "duration",
              "type": "uint256"
            },
            {
              "internalType": "uint256",
              "name": "price",
              "type": "uint256"
            }
          ],
          "internalType": "struct OraklerInfo.WizardAuction[]",
          "name": "",
          "type": "tuple[]"
        }
      ],
      "stateMutability": "view",
      "type": "function"
    }
  ],
  "bytecode": "0x60806040523480156200001157600080fd5b5060405162001f2e38038062001f2e8339810160408190526200003491620000b0565b60008054600160a060020a0319908116600160a060020a0397881617909155600180548216938716939093179092556002805483169486169490941790935560038054821692851692909217909155600480549091169190921617905562000130565b600160a060020a0381168114620000ad57600080fd5b50565b600080600080600060a08688031215620000c957600080fd5b8551620000d68162000097565b6020870151909550620000e98162000097565b6040870151909450620000fc8162000097565b60608701519093506200010f8162000097565b6080870151909250620001228162000097565b809150509295509295909350565b611dee80620001406000396000f3fe608060405234801561001057600080fd5b50600436106100655760e060020a6000350463013173e9811461006a57806340e0d00c1461009357806351e5cf94146100b357806373208fe2146100d3578063a9ad5ce0146100f3578063bb3ea41414610113575b600080fd5b61007d6100783660046116cb565b610133565b60405161008a91906116ef565b60405180910390f35b6100a66100a13660046116cb565b610376565b60405161008a91906117c4565b6100c66100c13660046116cb565b6105b1565b60405161008a91906117d7565b6100e66100e13660046116cb565b61095b565b60405161008a91906118ef565b6101066101013660046116cb565b6110c3565b60405161008a9190611a19565b6101266101213660046116cb565b6113bb565b60405161008a9190611a5c565b6001546040517f70a08231000000000000000000000000000000000000000000000000000000008152600160a060020a0383811660048301526060926000929116906370a0823190602401602060405180830381865afa15801561019b573d6000803e3d6000fd5b505050506040513d601f19601f820116820180604052508101906101bf9190611a9f565b905060008167ffffffffffffffff8111156101dc576101dc611ab8565b60405190808252806020026020018201604052801561023857816020015b6102256040518060800160405280600081526020016000815260200160008152602001600081525090565b8152602001906001900390816101fa5790505b50905060005b8281101561036e576001546040517f2f745c59000000000000000000000000000000000000000000000000000000008152600160a060020a038781166004830152602482018490529091169063e4b50cb8908290632f745c5990604401602060405180830381865afa1580156102b8573d6000803e3d6000fd5b505050506040513d601f19601f820116820180604052508101906102dc9190611a9f565b6040518263ffffffff1660e060020a0281526004016102fd91815260200190565b608060405180830381865afa15801561031a573d6000803e3d6000fd5b505050506040513d601f19601f8201168201806040525081019061033e9190611b77565b82828151811061035057610350611b93565b6020026020010181905250808061036690611bc2565b91505061023e565b509392505050565b6003546040517f70a08231000000000000000000000000000000000000000000000000000000008152600160a060020a0383811660048301526060926000929116906370a0823190602401602060405180830381865afa1580156103de573d6000803e3d6000fd5b505050506040513d601f19601f820116820180604052508101906104029190611a9f565b905060008167ffffffffffffffff81111561041f5761041f611ab8565b60405190808252806020026020018201604052801561047b57816020015b6104686040518060800160405280600081526020016000815260200160008152602001600081525090565b81526020019060019003908161043d5790505b50905060005b8281101561036e576003546040517f2f745c59000000000000000000000000000000000000000000000000000000008152600160a060020a038781166004830152602482018490529091169063e4b50cb8908290632f745c5990604401602060405180830381865afa1580156104fb573d6000803e3d6000fd5b505050506040513d601f19601f8201168201806040525081019061051f9190611a9f565b6040518263ffffffff1660e060020a02815260040161054091815260200190565b608060405180830381865afa15801561055d573d6000803e3d6000fd5b505050506040513d601f19601f820116820180604052508101906105819190611b77565b82828151811061059357610593611b93565b602002602001018190525080806105a990611bc2565b915050610481565b606060006105be8361095b565b90506000815167ffffffffffffffff8111156105dc576105dc611ab8565b60405190808252806020026020018201604052801561068857816020015b610675604051806101c0016040528060008152602001600081526020016000815260200160008152602001600081526020016060815260200160608152602001600081526020016000600160a060020a0316815260200160008152602001600081526020016000815260200160008152602001600081525090565b8152602001906001900390816105fa5790505b5090508360005b835181101561095157600080600080600086600160a060020a03166378bd79358a88815181106106c1576106c1611b93565b6020026020010151600001516040518263ffffffff1660e060020a0281526004016106ee91815260200190565b60a060405180830381865afa15801561070b573d6000803e3d6000fd5b505050506040513d601f19601f8201168201806040525081019061072f9190611c04565b94509450945094509450600087600160a060020a031663c55d0f568b898151811061075c5761075c611b93565b6020026020010151600001516040518263ffffffff1660e060020a02815260040161078991815260200190565b602060405180830381865afa1580156107a6573d6000803e3d6000fd5b505050506040513d601f19601f820116820180604052508101906107ca9190611a9f565b9050604051806101c001604052808b89815181106107ea576107ea611b93565b60200260200101516000015181526020018b898151811061080d5761080d611b93565b60200260200101516020015181526020018b898151811061083057610830611b93565b60200260200101516040015181526020018b898151811061085357610853611b93565b60200260200101516060015181526020018b898151811061087657610876611b93565b60200260200101516080015181526020018b898151811061089957610899611b93565b602002602001015160a0015181526020018b89815181106108bc576108bc611b93565b602002602001015160c0015181526020018b89815181106108df576108df611b93565b602002602001015160e00151815260200187600160a060020a031681526020018381526020018681526020018581526020018481526020018281525089888151811061092d5761092d611b93565b6020026020010181905250505050505050808061094990611bc2565b91505061068f565b5090949350505050565b6002546040517f70a08231000000000000000000000000000000000000000000000000000000008152600160a060020a0383811660048301526060926000929116906370a0823190602401602060405180830381865afa1580156109c3573d6000803e3d6000fd5b505050506040513d601f19601f820116820180604052508101906109e79190611a9f565b905060008167ffffffffffffffff811115610a0457610a04611ab8565b604051908082528060200260200182016040528015610a7d57816020015b610a6a60405180610100016040528060008152602001600081526020016000815260200160008152602001600081526020016060815260200160608152602001600081525090565b815260200190600190039081610a225790505b50905060005b82811015610bb7576002546040517f2f745c59000000000000000000000000000000000000000000000000000000008152600160a060020a038781166004830152602482018490529091169063e4b50cb8908290632f745c5990604401602060405180830381865afa158015610afd573d6000803e3d6000fd5b505050506040513d601f19601f82011682018060405250810190610b219190611a9f565b6040518263ffffffff1660e060020a028152600401610b4291815260200190565b600060405180830381865afa158015610b5f573d6000803e3d6000fd5b505050506040513d6000823e601f3d908101601f19168201604052610b879190810190611ce7565b828281518110610b9957610b99611b93565b60200260200101819052508080610baf90611bc2565b915050610a83565b506000815167ffffffffffffffff811115610bd457610bd4611ab8565b604051908082528060200260200182016040528015610c4d57816020015b610c3a60405180610100016040528060008152602001600081526020016000815260200160008152602001600081526020016060815260200160608152602001600081525090565b815260200190600190039081610bf25790505b50905060005b82518110156110ba576000838281518110610c7057610c70611b93565b602002602001015160a001515167ffffffffffffffff811115610c9557610c95611ab8565b604051908082528060200260200182016040528015610cf157816020015b610cde6040518060800160405280600081526020016000815260200160008152602001600081525090565b815260200190600190039081610cb35790505b50905060005b848381518110610d0957610d09611b93565b602002602001015160a0015151811015610dfd576003548551600160a060020a039091169063e4b50cb890879086908110610d4657610d46611b93565b602002602001015160a001518381518110610d6357610d63611b93565b60200260200101516040518263ffffffff1660e060020a028152600401610d8c91815260200190565b608060405180830381865afa158015610da9573d6000803e3d6000fd5b505050506040513d601f19601f82011682018060405250810190610dcd9190611b77565b828281518110610ddf57610ddf611b93565b60200260200101819052508080610df590611bc2565b915050610cf7565b506000848381518110610e1257610e12611b93565b602002602001015160c001515167ffffffffffffffff811115610e3757610e37611ab8565b604051908082528060200260200182016040528015610e9357816020015b610e806040518060800160405280600081526020016000815260200160008152602001600081525090565b815260200190600190039081610e555790505b50905060005b858481518110610eab57610eab611b93565b602002602001015160c0015151811015610f9f576001548651600160a060020a039091169063e4b50cb890889087908110610ee857610ee8611b93565b602002602001015160c001518381518110610f0557610f05611b93565b60200260200101516040518263ffffffff1660e060020a028152600401610f2e91815260200190565b608060405180830381865afa158015610f4b573d6000803e3d6000fd5b505050506040513d601f19601f82011682018060405250810190610f6f9190611b77565b828281518110610f8157610f81611b93565b60200260200101819052508080610f9790611bc2565b915050610e99565b50604051806101000160405280868581518110610fbe57610fbe611b93565b6020026020010151600001518152602001868581518110610fe157610fe1611b93565b602002602001015160200151815260200186858151811061100457611004611b93565b602002602001015160400151815260200186858151811061102757611027611b93565b602002602001015160600151815260200186858151811061104a5761104a611b93565b602002602001015160800151815260200183815260200182815260200186858151811061107957611079611b93565b602002602001015160e0015181525084848151811061109a5761109a611b93565b6020026020010181905250505080806110b290611bc2565b915050610c53565b50949350505050565b606060006110d083610133565b90506000815167ffffffffffffffff8111156110ee576110ee611ab8565b60405190808252806020026020018201604052801561117e57816020015b61116b604051806101400160405280600081526020016000815260200160008152602001600081526020016000600160a060020a0316815260200160008152602001600081526020016000815260200160008152602001600081525090565b81526020019060019003908161110c5790505b5090508360005b835181101561095157600080600080600086600160a060020a03166378bd79358a88815181106111b7576111b7611b93565b6020026020010151600001516040518263ffffffff1660e060020a0281526004016111e491815260200190565b60a060405180830381865afa158015611201573d6000803e3d6000fd5b505050506040513d601f19601f820116820180604052508101906112259190611c04565b94509450945094509450600087600160a060020a031663c55d0f568b898151811061125257611252611b93565b6020026020010151600001516040518263ffffffff1660e060020a02815260040161127f91815260200190565b602060405180830381865afa15801561129c573d6000803e3d6000fd5b505050506040513d601f19601f820116820180604052508101906112c09190611a9f565b90506040518061014001604052808b89815181106112e0576112e0611b93565b60200260200101516000015181526020018b898151811061130357611303611b93565b60200260200101516020015181526020018b898151811061132657611326611b93565b60200260200101516040015181526020018b898151811061134957611349611b93565b602002602001015160600151815260200187600160a060020a031681526020018381526020018681526020018581526020018481526020018281525089888151811061139757611397611b93565b602002602001018190525050505050505080806113b390611bc2565b915050611185565b606060006113c883610376565b90506000815167ffffffffffffffff8111156113e6576113e6611ab8565b60405190808252806020026020018201604052801561147657816020015b611463604051806101400160405280600081526020016000815260200160008152602001600081526020016000600160a060020a0316815260200160008152602001600081526020016000815260200160008152602001600081525090565b8152602001906001900390816114045790505b5090508360005b835181101561095157600080600080600086600160a060020a03166378bd79358a88815181106114af576114af611b93565b6020026020010151600001516040518263ffffffff1660e060020a0281526004016114dc91815260200190565b60a060405180830381865afa1580156114f9573d6000803e3d6000fd5b505050506040513d601f19601f8201168201806040525081019061151d9190611c04565b94509450945094509450600087600160a060020a031663c55d0f568b898151811061154a5761154a611b93565b6020026020010151600001516040518263ffffffff1660e060020a02815260040161157791815260200190565b602060405180830381865afa158015611594573d6000803e3d6000fd5b505050506040513d601f19601f820116820180604052508101906115b89190611a9f565b90506040518061014001604052808b89815181106115d8576115d8611b93565b60200260200101516000015181526020018b89815181106115fb576115fb611b93565b60200260200101516020015181526020018b898151811061161e5761161e611b93565b60200260200101516040015181526020018b898151811061164157611641611b93565b602002602001015160600151815260200187600160a060020a031681526020018381526020018681526020018581526020018481526020018281525089888151811061168f5761168f611b93565b602002602001018190525050505050505080806116ab90611bc2565b91505061147d565b600160a060020a03811681146116c857600080fd5b50565b6000602082840312156116dd57600080fd5b81356116e8816116b3565b9392505050565b6020808252825182820181905260009190848201906040850190845b818110156117525761173f838551805182526020810151602083015260408101516040830152606081015160608301525050565b928401926080929092019160010161170b565b50909695505050505050565b600081518084526020808501945080840160005b838110156117b9576117a6878351805182526020810151602083015260408101516040830152606081015160608301525050565b6080969096019590820190600101611772565b509495945050505050565b6020815260006116e8602083018461175e565b60208082528251828201819052600091906040908185019080840286018301878501865b838110156118e157603f1989840301855281516101c081518552888201518986015287820151888601526060808301518187015250608080830151818701525060a08083015182828801526118528388018261175e565b9250505060c0808301518683038288015261186d838261175e565b9250505060e08083015181870152506101008083015161189782880182600160a060020a03169052565b505061012082810151908601526101408083015190860152610160808301519086015261018080830151908601526101a091820151919094015293860193908601906001016117fb565b509098975050505050505050565b60208082528251828201819052600091906040908185019080840286018301878501865b838110156118e157603f19898403018552815161010081518552888201518986015287820151888601526060808301518187015250608080830151818701525060a080830151828288015261196a8388018261175e565b9250505060c08083015186830382880152611985838261175e565b60e0948501519790940196909652505094870194925090860190600101611913565b8051825260208101516020830152604081015160408301526060810151606083015260808101516119e36080840182600160a060020a03169052565b5060a0818101519083015260c0808201519083015260e08082015190830152610100808201519083015261012090810151910152565b6020808252825182820181905260009190848201906040850190845b8181101561175257611a488385516119a7565b928401926101409290920191600101611a35565b6020808252825182820181905260009190848201906040850190845b8181101561175257611a8b8385516119a7565b928401926101409290920191600101611a78565b600060208284031215611ab157600080fd5b5051919050565b7f4e487b7100000000000000000000000000000000000000000000000000000000600052604160045260246000fd5b604051610100810167ffffffffffffffff81118282101715611b0b57611b0b611ab8565b60405290565b600060808284031215611b2357600080fd5b6040516080810181811067ffffffffffffffff82111715611b4657611b46611ab8565b8060405250809150825181526020830151602082015260408301516040820152606083015160608201525092915050565b600060808284031215611b8957600080fd5b6116e88383611b11565b7f4e487b7100000000000000000000000000000000000000000000000000000000600052603260045260246000fd5b6000600019821415611bfd577f4e487b7100000000000000000000000000000000000000000000000000000000600052601160045260246000fd5b5060010190565b600080600080600060a08688031215611c1c57600080fd5b8551611c27816116b3565b602087015160408801516060890151608090990151929a91995097965090945092505050565b600082601f830112611c5e57600080fd5b8151602067ffffffffffffffff80831115611c7b57611c7b611ab8565b818302604051601f19603f83011681018181108482111715611c9f57611c9f611ab8565b604052938452858101830193838101925087851115611cbd57600080fd5b83870191505b84821015611cdc57815183529183019190830190611cc3565b979650505050505050565b600060208284031215611cf957600080fd5b815167ffffffffffffffff80821115611d1157600080fd5b908301906101008286031215611d2657600080fd5b611d2e611ae7565b825181526020830151602082015260408301516040820152606083015160608201526080830151608082015260a083015182811115611d6c57600080fd5b611d7887828601611c4d565b60a08301525060c083015182811115611d9057600080fd5b611d9c87828601611c4d565b60c08301525060e083015160e08201528093505050509291505056fea2646970667358221220ac88eea3a3f1709e9458c94a71a80cb72ecc289b65fb901aeb364b17f92c5df564736f6c634300080a0033",
  "immutableReferences": {},
  "source": "// SPDX-License-Identifier: MIT\npragma solidity ^0.8.10;\n\nimport \"@openzeppelin/contracts/access/AccessControlEnumerable.sol\";\n\nimport \"./Token.sol\";\nimport \"./Covens.sol\";\nimport \"./Wizards.sol\";\nimport \"./Scepters.sol\";\nimport \"./RewardPool.sol\";\n\ninterface IClockAuction {\n    function createAuction(\n        uint256 _tokenId,\n        uint256 _startingPrice,\n        uint256 _endingPrice,\n        uint256 _duration,\n        address _seller) external;\n    function getAuction(uint256 _tokenId)\n        external\n        view\n        returns\n    (\n        address seller,\n        uint256 startingPrice,\n        uint256 endingPrice,\n        uint256 duration,\n        uint256 startedAt\n    );\n\n    function getCurrentPrice(uint256 _tokenId)\n        external\n        view\n    returns (uint256);\n}\n\ncontract OraklerInfo { \n    BEP20 token;\n    Scepters scepters;\n    Covens covens;\n    Wizards wizards;\n    RewardPool rewardPool;\n\n    constructor(\n        BEP20 _token,\n        Covens _covens,\n        Wizards _wizards,\n        Scepters _scepters,\n        RewardPool _rewardPool\n    ) {\n        token = _token;\n        scepters = _scepters;\n        covens = _covens;\n        wizards = _wizards;\n        rewardPool = _rewardPool;\n    }\n\n    // Represents an auction on an NFT\n    struct Auction {\n        // Current owner of NFT\n        address seller;\n        // Price at beginning of auction\n        uint128 startingPrice;\n        // Price at end of auction\n        uint128 endingPrice;\n        // Duration (in seconds) of auction\n        uint64 duration;\n        // Time when auction started\n        uint64 startedAt;\n    }\n\n    struct Coven {\n        uint256 id;\n        uint256 creationTime;\n        uint256 totalResearchCapacity;\n        uint256 maxScepters;\n        uint256 latestPotionTime;\n        Wizards.Wizard[] wizards;\n        Scepters.Scepter[] scepters;\n        uint256 powerCrystals;\n    }\n\n    struct CovenAuction {\n        uint256 id;\n        uint256 creationTime;\n        uint256 totalResearchCapacity;\n        uint256 maxScepters;\n        uint256 latestPotionTime;\n        Wizards.Wizard[] wizards;\n        Scepters.Scepter[] scepters;\n        uint256 powerCrystals;\n        address seller;\n        uint256 time;\n        uint256 startingPrice;\n        uint256 endingPrice;\n        uint256 duration;\n        uint256 price;\n    }\n\n    struct ScepterAuction {\n        uint256 id;\n        uint256 creationTime;\n        uint256 durability;\n        uint256 researchCapacity;\n        address seller;\n        uint256 time;\n        uint256 startingPrice;\n        uint256 endingPrice;\n        uint256 duration;\n        uint256 price;\n    }\n\n    struct WizardAuction {\n        uint256 id;\n        uint256 creationTime;\n        uint256 scepters;\n        uint256 durability;\n        address seller;\n        uint256 time;\n        uint256 startingPrice;\n        uint256 endingPrice;\n        uint256 duration;\n        uint256 price;\n    }\n\n    function getAllCovensOf(address owner) public view returns (Coven[] memory) {\n        uint256 balance = covens.balanceOf(owner);\n        Covens.Coven[] memory covenx = new Covens.Coven[](balance);\n        for (uint256 i = 0; i<balance; i++) {\n            covenx[i] = covens.getToken(covens.tokenOfOwnerByIndex(owner, i));\n        }\n        Coven[] memory res = new Coven[](covenx.length);\n        for (uint256 i = 0; i<covenx.length; i++) {\n            Wizards.Wizard[] memory wizardsNew = new Wizards.Wizard[](covenx[i].wizards.length);\n            for (uint256 j = 0; j<covenx[i].wizards.length; j++) {\n                wizardsNew[j] = wizards.getToken(covenx[i].wizards[j]);\n            }\n            Scepters.Scepter[] memory sceptersNew = new Scepters.Scepter[](covenx[i].scepters.length);\n            for (uint256 j = 0; j<covenx[i].scepters.length; j++) {\n                sceptersNew[j] = scepters.getToken(covenx[i].scepters[j]);\n            }\n            res[i] = Coven({\n                id: covenx[i].id,\n                creationTime: covenx[i].creationTime,\n                totalResearchCapacity: covenx[i].totalResearchCapacity,\n                maxScepters: covenx[i].maxScepters,\n                scepters: sceptersNew,\n                wizards: wizardsNew,\n                latestPotionTime: covenx[i].latestPotionTime,\n                powerCrystals: covenx[i].powerCrystals\n            });\n        }\n        return res;\n    }\n\n    function getAllWizardsOf(address owner) public view returns (Wizards.Wizard[] memory) {\n        uint256 balance = wizards.balanceOf(owner);\n        Wizards.Wizard[] memory res = new Wizards.Wizard[](balance);\n        for (uint256 i = 0; i<balance; i++) {\n            res[i] = wizards.getToken(wizards.tokenOfOwnerByIndex(owner, i));\n        }\n        return res;\n    }\n\n    function getAllSceptersOf(address owner) public view returns (Scepters.Scepter[] memory) {\n        uint256 balance = scepters.balanceOf(owner);\n        Scepters.Scepter[] memory res = new Scepters.Scepter[](balance);\n        for (uint256 i = 0; i<balance; i++) {\n            res[i] = scepters.getToken(scepters.tokenOfOwnerByIndex(owner, i));\n        }\n        return res;\n    }\n\n    function getAllCovensOfMarket(address _market) public view returns (CovenAuction[] memory) {\n        Coven[] memory covensx = getAllCovensOf(_market);\n        CovenAuction[] memory res = new CovenAuction[](covensx.length);\n        IClockAuction market = IClockAuction(_market);\n        for (uint256 i = 0; i<covensx.length; i++) {\n            (address seller,\n            uint256 startingPrice,\n            uint256 endingPrice,\n            uint256 duration,\n            uint256 startedAt) = market.getAuction(covensx[i].id);\n            uint256 price = market.getCurrentPrice(covensx[i].id);\n            res[i] = CovenAuction({\n                id: covensx[i].id,\n                creationTime: covensx[i].creationTime,\n                totalResearchCapacity: covensx[i].totalResearchCapacity,\n                maxScepters: covensx[i].maxScepters,\n                scepters: covensx[i].scepters,\n                wizards: covensx[i].wizards,\n                latestPotionTime: covensx[i].latestPotionTime,\n                powerCrystals: covensx[i].powerCrystals,\n                seller: seller,\n                price: price,\n                startingPrice: startingPrice,\n                endingPrice: endingPrice,\n                duration: duration,\n                time: startedAt\n            });\n        }\n        return res;\n    }\n\n    function getAllSceptersOfMarket(address _market) public view returns (ScepterAuction[] memory) {\n        Scepters.Scepter[] memory covensx = getAllSceptersOf(_market);\n        ScepterAuction[] memory res = new ScepterAuction[](covensx.length);\n        IClockAuction market = IClockAuction(_market);\n        for (uint256 i = 0; i<covensx.length; i++) {\n            (address seller,\n            uint256 startingPrice,\n            uint256 endingPrice,\n            uint256 duration,\n            uint256 startedAt) = market.getAuction(covensx[i].id);\n            uint256 price = market.getCurrentPrice(covensx[i].id);\n            res[i] = ScepterAuction({\n                id: covensx[i].id,\n                creationTime: covensx[i].creationTime,\n                durability: covensx[i].durability,\n                researchCapacity: covensx[i].researchCapacity,\n                seller: seller,\n                price: price,\n                startingPrice: startingPrice,\n                endingPrice: endingPrice,\n                duration: duration,\n                time: startedAt\n            });\n        }\n        return res;\n    }\n\n    function getAllWizardsOfMarket(address _market) public view returns (WizardAuction[] memory) {\n        Wizards.Wizard[] memory covensx = getAllWizardsOf(_market);\n        WizardAuction[] memory res = new WizardAuction[](covensx.length);\n        IClockAuction market = IClockAuction(_market);\n        for (uint256 i = 0; i<covensx.length; i++) {\n            (address seller,\n            uint256 startingPrice,\n            uint256 endingPrice,\n            uint256 duration,\n            uint256 startedAt) = market.getAuction(covensx[i].id);\n            uint256 price = market.getCurrentPrice(covensx[i].id);\n            res[i] = WizardAuction({\n                id: covensx[i].id,\n                creationTime: covensx[i].creationTime,\n                durability: covensx[i].durability,\n                scepters: covensx[i].scepters,\n                seller: seller,\n                price: price,\n                startingPrice: startingPrice,\n                endingPrice: endingPrice,\n                duration: duration,\n                time: startedAt\n            });\n        }\n        return res;\n    }\n}",
  "sourcePath": "/Users/alfonsomateosvicente/Documents/Proyectos/Orakler/SmartContracts/contracts/OraklerInfo.sol",
  "compiler": {
    "name": "solc",
    "version": "0.8.10+commit.fc410830.Emscripten.clang"
  },
  "schemaVersion": "3.4.3",
  "updatedAt": "2022-01-05T16:58:10.763Z",
  "devdoc": {
    "kind": "dev",
    "methods": {},
    "version": 1
  },
  "userdoc": {
    "kind": "user",
    "methods": {},
    "version": 1
  }
}