{
  "contractName": "RewardPool",
  "abi": [
    {
      "inputs": [
        {
          "internalType": "contract BEP20",
          "name": "_token",
          "type": "address"
        },
        {
          "internalType": "contract ELIXIR",
          "name": "_elixir",
          "type": "address"
        },
        {
          "internalType": "contract Covens",
          "name": "_covens",
          "type": "address"
        },
        {
          "internalType": "contract Wizards",
          "name": "_wizards",
          "type": "address"
        },
        {
          "internalType": "contract Scepters",
          "name": "_scepters",
          "type": "address"
        }
      ],
      "stateMutability": "nonpayable",
      "type": "constructor"
    },
    {
      "anonymous": false,
      "inputs": [
        {
          "indexed": true,
          "internalType": "bytes32",
          "name": "role",
          "type": "bytes32"
        },
        {
          "indexed": true,
          "internalType": "bytes32",
          "name": "previousAdminRole",
          "type": "bytes32"
        },
        {
          "indexed": true,
          "internalType": "bytes32",
          "name": "newAdminRole",
          "type": "bytes32"
        }
      ],
      "name": "RoleAdminChanged",
      "type": "event"
    },
    {
      "anonymous": false,
      "inputs": [
        {
          "indexed": true,
          "internalType": "bytes32",
          "name": "role",
          "type": "bytes32"
        },
        {
          "indexed": true,
          "internalType": "address",
          "name": "account",
          "type": "address"
        },
        {
          "indexed": true,
          "internalType": "address",
          "name": "sender",
          "type": "address"
        }
      ],
      "name": "RoleGranted",
      "type": "event"
    },
    {
      "anonymous": false,
      "inputs": [
        {
          "indexed": true,
          "internalType": "bytes32",
          "name": "role",
          "type": "bytes32"
        },
        {
          "indexed": true,
          "internalType": "address",
          "name": "account",
          "type": "address"
        },
        {
          "indexed": true,
          "internalType": "address",
          "name": "sender",
          "type": "address"
        }
      ],
      "name": "RoleRevoked",
      "type": "event"
    },
    {
      "inputs": [],
      "name": "DEFAULT_ADMIN_ROLE",
      "outputs": [
        {
          "internalType": "bytes32",
          "name": "",
          "type": "bytes32"
        }
      ],
      "stateMutability": "view",
      "type": "function",
      "constant": true
    },
    {
      "inputs": [],
      "name": "MAIN_GAME",
      "outputs": [
        {
          "internalType": "bytes32",
          "name": "",
          "type": "bytes32"
        }
      ],
      "stateMutability": "view",
      "type": "function",
      "constant": true
    },
    {
      "inputs": [],
      "name": "TRANSFER_ROLE",
      "outputs": [
        {
          "internalType": "bytes32",
          "name": "",
          "type": "bytes32"
        }
      ],
      "stateMutability": "view",
      "type": "function",
      "constant": true
    },
    {
      "inputs": [
        {
          "internalType": "bytes32",
          "name": "role",
          "type": "bytes32"
        }
      ],
      "name": "getRoleAdmin",
      "outputs": [
        {
          "internalType": "bytes32",
          "name": "",
          "type": "bytes32"
        }
      ],
      "stateMutability": "view",
      "type": "function",
      "constant": true
    },
    {
      "inputs": [
        {
          "internalType": "bytes32",
          "name": "role",
          "type": "bytes32"
        },
        {
          "internalType": "uint256",
          "name": "index",
          "type": "uint256"
        }
      ],
      "name": "getRoleMember",
      "outputs": [
        {
          "internalType": "address",
          "name": "",
          "type": "address"
        }
      ],
      "stateMutability": "view",
      "type": "function",
      "constant": true
    },
    {
      "inputs": [
        {
          "internalType": "bytes32",
          "name": "role",
          "type": "bytes32"
        }
      ],
      "name": "getRoleMemberCount",
      "outputs": [
        {
          "internalType": "uint256",
          "name": "",
          "type": "uint256"
        }
      ],
      "stateMutability": "view",
      "type": "function",
      "constant": true
    },
    {
      "inputs": [
        {
          "internalType": "bytes32",
          "name": "role",
          "type": "bytes32"
        },
        {
          "internalType": "address",
          "name": "account",
          "type": "address"
        }
      ],
      "name": "grantRole",
      "outputs": [],
      "stateMutability": "nonpayable",
      "type": "function"
    },
    {
      "inputs": [
        {
          "internalType": "bytes32",
          "name": "role",
          "type": "bytes32"
        },
        {
          "internalType": "address",
          "name": "account",
          "type": "address"
        }
      ],
      "name": "hasRole",
      "outputs": [
        {
          "internalType": "bool",
          "name": "",
          "type": "bool"
        }
      ],
      "stateMutability": "view",
      "type": "function",
      "constant": true
    },
    {
      "inputs": [
        {
          "internalType": "bytes32",
          "name": "role",
          "type": "bytes32"
        },
        {
          "internalType": "address",
          "name": "account",
          "type": "address"
        }
      ],
      "name": "renounceRole",
      "outputs": [],
      "stateMutability": "nonpayable",
      "type": "function"
    },
    {
      "inputs": [
        {
          "internalType": "bytes32",
          "name": "role",
          "type": "bytes32"
        },
        {
          "internalType": "address",
          "name": "account",
          "type": "address"
        }
      ],
      "name": "revokeRole",
      "outputs": [],
      "stateMutability": "nonpayable",
      "type": "function"
    },
    {
      "inputs": [
        {
          "internalType": "bytes4",
          "name": "interfaceId",
          "type": "bytes4"
        }
      ],
      "name": "supportsInterface",
      "outputs": [
        {
          "internalType": "bool",
          "name": "",
          "type": "bool"
        }
      ],
      "stateMutability": "view",
      "type": "function",
      "constant": true
    },
    {
      "inputs": [
        {
          "internalType": "address",
          "name": "recipient",
          "type": "address"
        },
        {
          "internalType": "uint256",
          "name": "amount",
          "type": "uint256"
        }
      ],
      "name": "transferORKL",
      "outputs": [
        {
          "internalType": "bool",
          "name": "success",
          "type": "bool"
        }
      ],
      "stateMutability": "nonpayable",
      "type": "function"
    },
    {
      "inputs": [
        {
          "internalType": "address",
          "name": "recipient",
          "type": "address"
        },
        {
          "internalType": "uint256",
          "name": "amount",
          "type": "uint256"
        }
      ],
      "name": "transferELIXIR",
      "outputs": [
        {
          "internalType": "bool",
          "name": "success",
          "type": "bool"
        }
      ],
      "stateMutability": "nonpayable",
      "type": "function"
    },
    {
      "inputs": [
        {
          "internalType": "address",
          "name": "from",
          "type": "address"
        }
      ],
      "name": "getBalanceLocked",
      "outputs": [
        {
          "internalType": "uint256",
          "name": "",
          "type": "uint256"
        }
      ],
      "stateMutability": "view",
      "type": "function",
      "constant": true
    },
    {
      "inputs": [
        {
          "internalType": "address",
          "name": "from",
          "type": "address"
        },
        {
          "internalType": "uint256",
          "name": "amount",
          "type": "uint256"
        }
      ],
      "name": "setBalanceLocked",
      "outputs": [
        {
          "internalType": "bool",
          "name": "",
          "type": "bool"
        }
      ],
      "stateMutability": "nonpayable",
      "type": "function"
    },
    {
      "inputs": [
        {
          "internalType": "address",
          "name": "from",
          "type": "address"
        },
        {
          "internalType": "uint256",
          "name": "amount",
          "type": "uint256"
        }
      ],
      "name": "setLatestClaim",
      "outputs": [],
      "stateMutability": "nonpayable",
      "type": "function"
    },
    {
      "inputs": [
        {
          "internalType": "address",
          "name": "from",
          "type": "address"
        }
      ],
      "name": "getLatestClaim",
      "outputs": [
        {
          "internalType": "uint256",
          "name": "",
          "type": "uint256"
        }
      ],
      "stateMutability": "view",
      "type": "function",
      "constant": true
    },
    {
      "inputs": [
        {
          "internalType": "address",
          "name": "from",
          "type": "address"
        },
        {
          "internalType": "address",
          "name": "recipient",
          "type": "address"
        },
        {
          "internalType": "uint256",
          "name": "amount",
          "type": "uint256"
        }
      ],
      "name": "transferORKLFrom",
      "outputs": [],
      "stateMutability": "nonpayable",
      "type": "function"
    },
    {
      "inputs": [
        {
          "internalType": "address",
          "name": "from",
          "type": "address"
        },
        {
          "internalType": "address",
          "name": "recipient",
          "type": "address"
        },
        {
          "internalType": "uint256",
          "name": "amount",
          "type": "uint256"
        }
      ],
      "name": "transferELIXIRFrom",
      "outputs": [],
      "stateMutability": "nonpayable",
      "type": "function"
    },
    {
      "inputs": [],
      "name": "burnELIXIR",
      "outputs": [],
      "stateMutability": "nonpayable",
      "type": "function"
    },
    {
      "inputs": [
        {
          "internalType": "address",
          "name": "from",
          "type": "address"
        },
        {
          "internalType": "address",
          "name": "recipient",
          "type": "address"
        },
        {
          "internalType": "uint256",
          "name": "wizardId",
          "type": "uint256"
        }
      ],
      "name": "transferWizardFrom",
      "outputs": [],
      "stateMutability": "nonpayable",
      "type": "function"
    },
    {
      "inputs": [
        {
          "internalType": "address",
          "name": "from",
          "type": "address"
        },
        {
          "internalType": "address",
          "name": "recipient",
          "type": "address"
        },
        {
          "internalType": "uint256",
          "name": "covenId",
          "type": "uint256"
        }
      ],
      "name": "transferCovenFrom",
      "outputs": [],
      "stateMutability": "nonpayable",
      "type": "function"
    },
    {
      "inputs": [
        {
          "internalType": "address",
          "name": "from",
          "type": "address"
        },
        {
          "internalType": "address",
          "name": "recipient",
          "type": "address"
        },
        {
          "internalType": "uint256",
          "name": "scepterId",
          "type": "uint256"
        }
      ],
      "name": "transferScepterFrom",
      "outputs": [],
      "stateMutability": "nonpayable",
      "type": "function"
    },
    {
      "inputs": [],
      "name": "getNFTs",
      "outputs": [
        {
          "internalType": "uint256",
          "name": "",
          "type": "uint256"
        }
      ],
      "stateMutability": "view",
      "type": "function",
      "constant": true
    },
    {
      "inputs": [
        {
          "internalType": "uint256",
          "name": "amount",
          "type": "uint256"
        }
      ],
      "name": "setNFTs",
      "outputs": [],
      "stateMutability": "nonpayable",
      "type": "function"
    },
    {
      "inputs": [
        {
          "internalType": "uint256",
          "name": "wizardId",
          "type": "uint256"
        }
      ],
      "name": "burnWizard",
      "outputs": [],
      "stateMutability": "nonpayable",
      "type": "function"
    },
    {
      "inputs": [
        {
          "internalType": "uint256",
          "name": "scepterId",
          "type": "uint256"
        }
      ],
      "name": "burnScepter",
      "outputs": [],
      "stateMutability": "nonpayable",
      "type": "function"
    },
    {
      "inputs": [
        {
          "internalType": "address",
          "name": "receiver",
          "type": "address"
        },
        {
          "internalType": "uint256",
          "name": "amount",
          "type": "uint256"
        }
      ],
      "name": "mintElixir",
      "outputs": [],
      "stateMutability": "nonpayable",
      "type": "function"
    }
  ],
  "bytecode": "0x60806040523480156200001157600080fd5b5060405162001a5538038062001a55833981016040819052620000349162000308565b60068054600160a060020a0319908116600160a060020a038781169190911790925560058054821688841617905560078054821684841617905560088054821686841617905560098054909116918416919091179055620000b26000620000a36401000000006200012d810204565b64010000000062000131810204565b620000ea7f8502233096d909befbda0999bb8ea2f3a6be3c138b9fbf003752a4c8bce86f6c620000a36401000000006200012d810204565b620001227fc2a4016c36f2a7d89dbcb998a56206c8b86c8fe2bfe84d5f9a34ffb625824117620000a36401000000006200012d810204565b505050505062000388565b3390565b6200014b828264010000000062000c556200017882021704565b600082815260016020526040902062000173908264010000000062000c636200019182021704565b505050565b6200018d8282640100000000620001ba810204565b5050565b6000620001b183600160a060020a03841664010000000062000256810204565b90505b92915050565b620001cf8282640100000000620002ae810204565b6200018d57600082815260208181526040808320600160a060020a03851684529091529020805460ff19166001179055620002126401000000006200012d810204565b600160a060020a031681600160a060020a0316837f2f8788117e7eff1d82e926ec794901d17c78024a50270940304540a733656f0d60405160405180910390a45050565b60006200026d8383640100000000620002d7810204565b620002a557508154600181810184556000848152602080822090930184905584548482528286019093526040902091909155620001b4565b506000620001b4565b600091825260208281526040808420600160a060020a0393909316845291905290205460ff1690565b60009081526001919091016020526040902054151590565b600160a060020a03811681146200030557600080fd5b50565b600080600080600060a086880312156200032157600080fd5b85516200032e81620002ef565b60208701519095506200034181620002ef565b60408701519094506200035481620002ef565b60608701519093506200036781620002ef565b60808701519092506200037a81620002ef565b809150509295509295909350565b6116bd80620003986000396000f3fe608060405234801561001057600080fd5b50600436106101e1576000357c0100000000000000000000000000000000000000000000000000000000900480638f9c197b11610116578063c69c3fd1116100b4578063d547741f1161008e578063d547741f1461041c578063d9d57cb41461042f578063fe250f7714610442578063ff182fd61461045557600080fd5b8063c69c3fd1146103e3578063ca15c873146103f6578063cfe249c71461040957600080fd5b80639848a549116100f05780639848a549146103ad578063a085da83146103b5578063a217fddf146103c8578063b19a6153146103d057600080fd5b80638f9c197b146103465780639010d07c1461036f57806391d148541461039a57600080fd5b80633d3e8a801161018357806368d15c781161015d57806368d15c78146102e25780636e1d9bb3146102f5578063719ed9301461031e5780637ae3a8e41461033357600080fd5b80633d3e8a80146102a957806350f9788c146102bc5780635a173bf7146102cf57600080fd5b8063248a9ca3116101bf578063248a9ca31461024b5780632aba345b1461026e5780632f2ff15d1461028357806336568abe1461029657600080fd5b806301ffc9a7146101e6578063206b60f91461020e578063227212f214610243575b600080fd5b6101f96101f4366004611331565b610468565b60405190151581526020015b60405180910390f35b6102357f8502233096d909befbda0999bb8ea2f3a6be3c138b9fbf003752a4c8bce86f6c81565b604051908152602001610205565b600454610235565b61023561025936600461135b565b60009081526020819052604090206001015490565b61028161027c366004611390565b6104ac565b005b6102816102913660046113ba565b610550565b6102816102a43660046113ba565b610577565b6102816102b73660046113e6565b610599565b6102816102ca36600461135b565b610628565b6102816102dd3660046113e6565b6106c4565b6102816102f03660046113e6565b61071c565b610235610303366004611422565b600160a060020a031660009081526003602052604090205490565b61023560008051602061166883398151915281565b6101f9610341366004611390565b6107bd565b610235610354366004611422565b600160a060020a031660009081526002602052604090205490565b61038261037d36600461143d565b61088d565b604051600160a060020a039091168152602001610205565b6101f96103a83660046113ba565b6108ac565b6102816108d5565b6102816103c33660046113e6565b6109eb565b610235600081565b6102816103de36600461135b565b610a43565b6102816103f13660046113e6565b610a69565b61023561040436600461135b565b610ac1565b610281610417366004611390565b610ad8565b61028161042a3660046113ba565b610b15565b6101f961043d366004611390565b610b1f565b61028161045036600461135b565b610b63565b6101f9610463366004611390565b610bce565b6000600160e060020a031982167f5a05180f0000000000000000000000000000000000000000000000000000000014806104a657506104a682610c78565b92915050565b6104c4600080516020611668833981519152336108ac565b6104cd57600080fd5b6006546040517f40c10f19000000000000000000000000000000000000000000000000000000008152600160a060020a03848116600483015260248201849052909116906340c10f1990604401600060405180830381600087803b15801561053457600080fd5b505af1158015610548573d6000803e3d6000fd5b505050505050565b61055a8282610cdf565b60008281526001602052604090206105729082610c63565b505050565b6105818282610d05565b60008281526001602052604090206105729082610dac565b6105b1600080516020611668833981519152336108ac565b6105ba57600080fd5b60085460405160e060020a6323b872dd028152600160a060020a03909116906323b872dd906105f19086908690869060040161145f565b600060405180830381600087803b15801561060b57600080fd5b505af115801561061f573d6000803e3d6000fd5b50505050505050565b610640600080516020611668833981519152336108ac565b61064957600080fd5b6007546040517f42966c6800000000000000000000000000000000000000000000000000000000815260048101839052600160a060020a03909116906342966c68906024015b600060405180830381600087803b1580156106a957600080fd5b505af11580156106bd573d6000803e3d6000fd5b5050505050565b6106dc600080516020611668833981519152336108ac565b6106e557600080fd5b60095460405160e060020a6323b872dd028152600160a060020a03909116906323b872dd906105f19086908690869060040161145f565b610734600080516020611668833981519152336108ac565b61073d57600080fd5b60065460405160e060020a6323b872dd028152600160a060020a03909116906323b872dd906107749086908690869060040161145f565b6020604051808303816000875af1158015610793573d6000803e3d6000fd5b505050506040513d601f19601f820116820180604052508101906107b79190611483565b50505050565b60006107e97f8502233096d909befbda0999bb8ea2f3a6be3c138b9fbf003752a4c8bce86f6c336108ac565b6107f257600080fd5b6005546040517fa9059cbb000000000000000000000000000000000000000000000000000000008152600160a060020a038581166004830152602482018590529091169063a9059cbb906044015b6020604051808303816000875af115801561085f573d6000803e3d6000fd5b505050506040513d601f19601f820116820180604052508101906108839190611483565b5060019392505050565b60008281526001602052604081206108a59083610dc1565b9392505050565b600091825260208281526040808420600160a060020a0393909316845291905290205460ff1690565b6108ed600080516020611668833981519152336108ac565b6108f657600080fd5b6006546040517f70a08231000000000000000000000000000000000000000000000000000000008152306004820152600160a060020a03909116906342966c689082906370a0823190602401602060405180830381865afa15801561095f573d6000803e3d6000fd5b505050506040513d601f19601f8201168201806040525081019061098391906114a5565b6040518263ffffffff167c01000000000000000000000000000000000000000000000000000000000281526004016109bd91815260200190565b600060405180830381600087803b1580156109d757600080fd5b505af11580156107b7573d6000803e3d6000fd5b610a03600080516020611668833981519152336108ac565b610a0c57600080fd5b60055460405160e060020a6323b872dd028152600160a060020a03909116906323b872dd906107749086908690869060040161145f565b610a5b600080516020611668833981519152336108ac565b610a6457600080fd5b600455565b610a81600080516020611668833981519152336108ac565b610a8a57600080fd5b60075460405160e060020a6323b872dd028152600160a060020a03909116906323b872dd906105f19086908690869060040161145f565b60008181526001602052604081206104a690610dcd565b610af0600080516020611668833981519152336108ac565b610af957600080fd5b600160a060020a03909116600090815260036020526040902055565b6105818282610dd7565b6000610b39600080516020611668833981519152336108ac565b610b4257600080fd5b50600160a060020a0391909116600090815260026020526040902055600190565b610b7b600080516020611668833981519152336108ac565b610b8457600080fd5b6009546040517f42966c6800000000000000000000000000000000000000000000000000000000815260048101839052600160a060020a03909116906342966c689060240161068f565b6000610bfa7f8502233096d909befbda0999bb8ea2f3a6be3c138b9fbf003752a4c8bce86f6c336108ac565b610c0357600080fd5b6006546040517fa9059cbb000000000000000000000000000000000000000000000000000000008152600160a060020a038581166004830152602482018590529091169063a9059cbb90604401610840565b610c5f8282610dfd565b5050565b60006108a583600160a060020a038416610e81565b6000600160e060020a031982167f7965db0b0000000000000000000000000000000000000000000000000000000014806104a657507f01ffc9a700000000000000000000000000000000000000000000000000000000600160e060020a03198316146104a6565b600082815260208190526040902060010154610cfb8133610ed0565b6105728383610dfd565b600160a060020a0381163314610da2576040517f08c379a000000000000000000000000000000000000000000000000000000000815260206004820152602f60248201527f416363657373436f6e74726f6c3a2063616e206f6e6c792072656e6f756e636560448201527f20726f6c657320666f722073656c66000000000000000000000000000000000060648201526084015b60405180910390fd5b610c5f8282610f4e565b60006108a583600160a060020a038416610fb3565b60006108a583836110a6565b60006104a6825490565b600082815260208190526040902060010154610df38133610ed0565b6105728383610f4e565b610e0782826108ac565b610c5f57600082815260208181526040808320600160a060020a03851684529091529020805460ff19166001179055610e3d3390565b600160a060020a031681600160a060020a0316837f2f8788117e7eff1d82e926ec794901d17c78024a50270940304540a733656f0d60405160405180910390a45050565b6000818152600183016020526040812054610ec8575081546001818101845560008481526020808220909301849055845484825282860190935260409020919091556104a6565b5060006104a6565b610eda82826108ac565b610c5f57610ef281600160a060020a031660146110d0565b610efd8360206110d0565b604051602001610f0e9291906114ea565b60408051601f19818403018152908290527f08c379a0000000000000000000000000000000000000000000000000000000008252610d999160040161156b565b610f5882826108ac565b15610c5f57600082815260208181526040808320600160a060020a0385168085529252808320805460ff1916905551339285917ff6391f5c32d9c69d2a47ea670b442974b53935d1edc7fd64eb21e047a839171b9190a45050565b6000818152600183016020526040812054801561109c576000610fd76001836115b7565b8554909150600090610feb906001906115b7565b905081811461105057600086600001828154811061100b5761100b6115ce565b906000526020600020015490508087600001848154811061102e5761102e6115ce565b6000918252602080832090910192909255918252600188019052604090208390555b8554869080611061576110616115e7565b6001900381819060005260206000200160009055905585600101600086815260200190815260200160002060009055600193505050506104a6565b60009150506104a6565b60008260000182815481106110bd576110bd6115ce565b9060005260206000200154905092915050565b606060006110df836002611600565b6110ea90600261161f565b67ffffffffffffffff81111561110257611102611637565b6040519080825280601f01601f19166020018201604052801561112c576020820181803683370190505b5090507f300000000000000000000000000000000000000000000000000000000000000081600081518110611163576111636115ce565b60200101907effffffffffffffffffffffffffffffffffffffffffffffffffffffffffffff1916908160001a9053507f7800000000000000000000000000000000000000000000000000000000000000816001815181106111c6576111c66115ce565b60200101907effffffffffffffffffffffffffffffffffffffffffffffffffffffffffffff1916908160001a9053506000611202846002611600565b61120d90600161161f565b90505b60018111156112c8577f303132333435363738396162636465660000000000000000000000000000000085600f166010811061124e5761124e6115ce565b1a7f010000000000000000000000000000000000000000000000000000000000000002828281518110611283576112836115ce565b60200101907effffffffffffffffffffffffffffffffffffffffffffffffffffffffffffff1916908160001a9053506010909404936112c181611650565b9050611210565b5083156108a5576040517f08c379a000000000000000000000000000000000000000000000000000000000815260206004820181905260248201527f537472696e67733a20686578206c656e67746820696e73756666696369656e746044820152606401610d99565b60006020828403121561134357600080fd5b8135600160e060020a0319811681146108a557600080fd5b60006020828403121561136d57600080fd5b5035919050565b8035600160a060020a038116811461138b57600080fd5b919050565b600080604083850312156113a357600080fd5b6113ac83611374565b946020939093013593505050565b600080604083850312156113cd57600080fd5b823591506113dd60208401611374565b90509250929050565b6000806000606084860312156113fb57600080fd5b61140484611374565b925061141260208501611374565b9150604084013590509250925092565b60006020828403121561143457600080fd5b6108a582611374565b6000806040838503121561145057600080fd5b50508035926020909101359150565b600160a060020a039384168152919092166020820152604081019190915260600190565b60006020828403121561149557600080fd5b815180151581146108a557600080fd5b6000602082840312156114b757600080fd5b5051919050565b60005b838110156114d95781810151838201526020016114c1565b838111156107b75750506000910152565b7f416363657373436f6e74726f6c3a206163636f756e74200000000000000000008152600083516115228160178501602088016114be565b7f206973206d697373696e6720726f6c6520000000000000000000000000000000601791840191820152835161155f8160288401602088016114be565b01602801949350505050565b602081526000825180602084015261158a8160408501602087016114be565b601f01601f19169190910160400192915050565b60e060020a634e487b7102600052601160045260246000fd5b6000828210156115c9576115c961159e565b500390565b60e060020a634e487b7102600052603260045260246000fd5b60e060020a634e487b7102600052603160045260246000fd5b600081600019048311821515161561161a5761161a61159e565b500290565b600082198211156116325761163261159e565b500190565b60e060020a634e487b7102600052604160045260246000fd5b60008161165f5761165f61159e565b50600019019056fec2a4016c36f2a7d89dbcb998a56206c8b86c8fe2bfe84d5f9a34ffb625824117a2646970667358221220a5566e01987b4d926cd6254436ee89437db1fe5e8f0c1bcc869bac759af6126364736f6c634300080a0033",
  "immutableReferences": {},
  "source": "// SPDX-License-Identifier: MIT\npragma solidity ^0.8.10;\n\nimport \"@openzeppelin/contracts/access/AccessControlEnumerable.sol\";\n\nimport \"./Token.sol\";\nimport \"./Covens.sol\";\nimport \"./Wizards.sol\";\nimport \"./Scepters.sol\";\nimport \"./Elixir.sol\";\n\ncontract RewardPool is \n    AccessControlEnumerable \n{\n    mapping(address => uint256) private _balanceLocked;\n    mapping(address => uint256) private _latestClaim;\n    uint256 private nfts;\n\n    bytes32 public constant TRANSFER_ROLE = keccak256(\"TRANSFER_ROLE\");\n    bytes32 public constant MAIN_GAME = keccak256(\"MAIN_GAME\");\n\n    BEP20 token;\n    ELIXIR elixir;\n    Scepters scepters;\n    Covens covens;\n    Wizards wizards;\n\n    constructor(\n        BEP20 _token,\n        ELIXIR _elixir,\n        Covens _covens,\n        Wizards _wizards,\n        Scepters _scepters\n    ) {\n        elixir = _elixir;\n        token = _token;\n        scepters = _scepters;\n        covens = _covens;\n        wizards = _wizards;\n\n        _setupRole(DEFAULT_ADMIN_ROLE, _msgSender());\n        _setupRole(TRANSFER_ROLE, _msgSender());\n        _setupRole(MAIN_GAME, _msgSender());\n    }\n\n    function transferORKL(address recipient, uint256 amount) public returns(bool success) {\n        require(hasRole(TRANSFER_ROLE, _msgSender()));\n        token.transfer(recipient, amount);\n        return true;\n    }\n\n    function transferELIXIR(address recipient, uint256 amount) public returns(bool success) {\n        require(hasRole(TRANSFER_ROLE, _msgSender()));\n        elixir.transfer(recipient, amount);\n        return true;\n    }\n\n    function getBalanceLocked(address from) public view returns(uint256) {\n        return _balanceLocked[from];\n    }\n\n    function setBalanceLocked(address from, uint256 amount) public returns(bool) {\n        require(hasRole(MAIN_GAME, _msgSender()));\n        _balanceLocked[from] = amount;\n        return true;\n    }\n    \n    function setLatestClaim(address from, uint256 amount) public {\n        require(hasRole(MAIN_GAME, _msgSender()));\n        _latestClaim[from] = amount;\n    }\n    \n    function getLatestClaim(address from) public view returns(uint256) {\n        return _latestClaim[from];\n    }\n    \n    function transferORKLFrom(address from, address recipient, uint256 amount) public {\n        require(hasRole(MAIN_GAME, _msgSender()));\n        token.transferFrom(from, recipient, amount);\n    }\n\n    function transferELIXIRFrom(address from, address recipient, uint256 amount) public {\n        require(hasRole(MAIN_GAME, _msgSender()));\n        elixir.transferFrom(from, recipient, amount);\n    }\n\n    function burnELIXIR() public {\n        require(hasRole(MAIN_GAME, _msgSender()));\n        elixir.burn(elixir.balanceOf(address(this)));\n    }\n    \n    function transferWizardFrom(address from, address recipient, uint256 wizardId) public {\n        require(hasRole(MAIN_GAME, _msgSender()));\n        wizards.transferFrom(from, recipient, wizardId);\n    }\n    \n    function transferCovenFrom(address from, address recipient, uint256 covenId) public {\n        require(hasRole(MAIN_GAME, _msgSender()));\n        covens.transferFrom(from, recipient, covenId);\n    }\n    \n    function transferScepterFrom(address from, address recipient, uint256 scepterId) public {\n        require(hasRole(MAIN_GAME, _msgSender()));\n        scepters.transferFrom(from, recipient, scepterId);\n    }\n\n    function getNFTs() public view returns(uint256) {\n        return nfts;\n    }\n\n    function setNFTs(uint256 amount) public {\n        require(hasRole(MAIN_GAME, _msgSender()));\n        nfts = amount;\n    }\n\n    function burnWizard(uint256 wizardId) public {\n        require(hasRole(MAIN_GAME, _msgSender()));\n        wizards.burn(wizardId);\n    }\n\n    function burnScepter(uint256 scepterId) public {\n        require(hasRole(MAIN_GAME, _msgSender()));\n        scepters.burn(scepterId);\n    }\n\n    function mintElixir(address receiver, uint256 amount) public {\n        require(hasRole(MAIN_GAME, _msgSender()));\n        elixir.mint(receiver, amount);\n    }\n}",
  "sourcePath": "/Users/alfonsomateosvicente/Documents/Proyectos/Orakler/SmartContracts/contracts/RewardPool.sol",
  "compiler": {
    "name": "solc",
    "version": "0.8.10+commit.fc410830.Emscripten.clang"
  },
  "schemaVersion": "3.4.3",
  "updatedAt": "2022-01-03T11:22:02.295Z",
  "networkType": "ethereum",
  "devdoc": {
    "kind": "dev",
    "methods": {
      "getRoleAdmin(bytes32)": {
        "details": "Returns the admin role that controls `role`. See {grantRole} and {revokeRole}. To change a role's admin, use {_setRoleAdmin}."
      },
      "getRoleMember(bytes32,uint256)": {
        "details": "Returns one of the accounts that have `role`. `index` must be a value between 0 and {getRoleMemberCount}, non-inclusive. Role bearers are not sorted in any particular way, and their ordering may change at any point. WARNING: When using {getRoleMember} and {getRoleMemberCount}, make sure you perform all queries on the same block. See the following https://forum.openzeppelin.com/t/iterating-over-elements-on-enumerableset-in-openzeppelin-contracts/2296[forum post] for more information."
      },
      "getRoleMemberCount(bytes32)": {
        "details": "Returns the number of accounts that have `role`. Can be used together with {getRoleMember} to enumerate all bearers of a role."
      },
      "grantRole(bytes32,address)": {
        "details": "Overload {grantRole} to track enumerable memberships"
      },
      "hasRole(bytes32,address)": {
        "details": "Returns `true` if `account` has been granted `role`."
      },
      "renounceRole(bytes32,address)": {
        "details": "Overload {renounceRole} to track enumerable memberships"
      },
      "revokeRole(bytes32,address)": {
        "details": "Overload {revokeRole} to track enumerable memberships"
      },
      "supportsInterface(bytes4)": {
        "details": "See {IERC165-supportsInterface}."
      }
    },
    "version": 1
  },
  "userdoc": {
    "kind": "user",
    "methods": {},
    "version": 1
  }
}