{
  "contractName": "Scepters",
  "abi": [
    {
      "inputs": [
        {
          "internalType": "string",
          "name": "name",
          "type": "string"
        },
        {
          "internalType": "string",
          "name": "symbol",
          "type": "string"
        },
        {
          "internalType": "string",
          "name": "baseTokenURI",
          "type": "string"
        }
      ],
      "stateMutability": "nonpayable",
      "type": "constructor"
    },
    {
      "anonymous": false,
      "inputs": [
        {
          "indexed": true,
          "internalType": "address",
          "name": "owner",
          "type": "address"
        },
        {
          "indexed": true,
          "internalType": "address",
          "name": "approved",
          "type": "address"
        },
        {
          "indexed": true,
          "internalType": "uint256",
          "name": "tokenId",
          "type": "uint256"
        }
      ],
      "name": "Approval",
      "type": "event"
    },
    {
      "anonymous": false,
      "inputs": [
        {
          "indexed": true,
          "internalType": "address",
          "name": "owner",
          "type": "address"
        },
        {
          "indexed": true,
          "internalType": "address",
          "name": "operator",
          "type": "address"
        },
        {
          "indexed": false,
          "internalType": "bool",
          "name": "approved",
          "type": "bool"
        }
      ],
      "name": "ApprovalForAll",
      "type": "event"
    },
    {
      "anonymous": false,
      "inputs": [
        {
          "indexed": false,
          "internalType": "address",
          "name": "account",
          "type": "address"
        }
      ],
      "name": "Paused",
      "type": "event"
    },
    {
      "anonymous": false,
      "inputs": [
        {
          "indexed": true,
          "internalType": "bytes32",
          "name": "role",
          "type": "bytes32"
        },
        {
          "indexed": true,
          "internalType": "bytes32",
          "name": "previousAdminRole",
          "type": "bytes32"
        },
        {
          "indexed": true,
          "internalType": "bytes32",
          "name": "newAdminRole",
          "type": "bytes32"
        }
      ],
      "name": "RoleAdminChanged",
      "type": "event"
    },
    {
      "anonymous": false,
      "inputs": [
        {
          "indexed": true,
          "internalType": "bytes32",
          "name": "role",
          "type": "bytes32"
        },
        {
          "indexed": true,
          "internalType": "address",
          "name": "account",
          "type": "address"
        },
        {
          "indexed": true,
          "internalType": "address",
          "name": "sender",
          "type": "address"
        }
      ],
      "name": "RoleGranted",
      "type": "event"
    },
    {
      "anonymous": false,
      "inputs": [
        {
          "indexed": true,
          "internalType": "bytes32",
          "name": "role",
          "type": "bytes32"
        },
        {
          "indexed": true,
          "internalType": "address",
          "name": "account",
          "type": "address"
        },
        {
          "indexed": true,
          "internalType": "address",
          "name": "sender",
          "type": "address"
        }
      ],
      "name": "RoleRevoked",
      "type": "event"
    },
    {
      "anonymous": false,
      "inputs": [
        {
          "indexed": true,
          "internalType": "address",
          "name": "from",
          "type": "address"
        },
        {
          "indexed": true,
          "internalType": "address",
          "name": "to",
          "type": "address"
        },
        {
          "indexed": true,
          "internalType": "uint256",
          "name": "tokenId",
          "type": "uint256"
        }
      ],
      "name": "Transfer",
      "type": "event"
    },
    {
      "anonymous": false,
      "inputs": [
        {
          "indexed": false,
          "internalType": "address",
          "name": "account",
          "type": "address"
        }
      ],
      "name": "Unpaused",
      "type": "event"
    },
    {
      "inputs": [],
      "name": "DEFAULT_ADMIN_ROLE",
      "outputs": [
        {
          "internalType": "bytes32",
          "name": "",
          "type": "bytes32"
        }
      ],
      "stateMutability": "view",
      "type": "function",
      "constant": true
    },
    {
      "inputs": [],
      "name": "MINTER_ROLE",
      "outputs": [
        {
          "internalType": "bytes32",
          "name": "",
          "type": "bytes32"
        }
      ],
      "stateMutability": "view",
      "type": "function",
      "constant": true
    },
    {
      "inputs": [],
      "name": "PAUSER_ROLE",
      "outputs": [
        {
          "internalType": "bytes32",
          "name": "",
          "type": "bytes32"
        }
      ],
      "stateMutability": "view",
      "type": "function",
      "constant": true
    },
    {
      "inputs": [
        {
          "internalType": "address",
          "name": "to",
          "type": "address"
        },
        {
          "internalType": "uint256",
          "name": "tokenId",
          "type": "uint256"
        }
      ],
      "name": "approve",
      "outputs": [],
      "stateMutability": "nonpayable",
      "type": "function"
    },
    {
      "inputs": [
        {
          "internalType": "address",
          "name": "owner",
          "type": "address"
        }
      ],
      "name": "balanceOf",
      "outputs": [
        {
          "internalType": "uint256",
          "name": "",
          "type": "uint256"
        }
      ],
      "stateMutability": "view",
      "type": "function",
      "constant": true
    },
    {
      "inputs": [
        {
          "internalType": "uint256",
          "name": "tokenId",
          "type": "uint256"
        }
      ],
      "name": "burn",
      "outputs": [],
      "stateMutability": "nonpayable",
      "type": "function"
    },
    {
      "inputs": [
        {
          "internalType": "uint256",
          "name": "tokenId",
          "type": "uint256"
        }
      ],
      "name": "getApproved",
      "outputs": [
        {
          "internalType": "address",
          "name": "",
          "type": "address"
        }
      ],
      "stateMutability": "view",
      "type": "function",
      "constant": true
    },
    {
      "inputs": [
        {
          "internalType": "bytes32",
          "name": "role",
          "type": "bytes32"
        }
      ],
      "name": "getRoleAdmin",
      "outputs": [
        {
          "internalType": "bytes32",
          "name": "",
          "type": "bytes32"
        }
      ],
      "stateMutability": "view",
      "type": "function",
      "constant": true
    },
    {
      "inputs": [
        {
          "internalType": "bytes32",
          "name": "role",
          "type": "bytes32"
        },
        {
          "internalType": "uint256",
          "name": "index",
          "type": "uint256"
        }
      ],
      "name": "getRoleMember",
      "outputs": [
        {
          "internalType": "address",
          "name": "",
          "type": "address"
        }
      ],
      "stateMutability": "view",
      "type": "function",
      "constant": true
    },
    {
      "inputs": [
        {
          "internalType": "bytes32",
          "name": "role",
          "type": "bytes32"
        }
      ],
      "name": "getRoleMemberCount",
      "outputs": [
        {
          "internalType": "uint256",
          "name": "",
          "type": "uint256"
        }
      ],
      "stateMutability": "view",
      "type": "function",
      "constant": true
    },
    {
      "inputs": [
        {
          "internalType": "bytes32",
          "name": "role",
          "type": "bytes32"
        },
        {
          "internalType": "address",
          "name": "account",
          "type": "address"
        }
      ],
      "name": "grantRole",
      "outputs": [],
      "stateMutability": "nonpayable",
      "type": "function"
    },
    {
      "inputs": [
        {
          "internalType": "bytes32",
          "name": "role",
          "type": "bytes32"
        },
        {
          "internalType": "address",
          "name": "account",
          "type": "address"
        }
      ],
      "name": "hasRole",
      "outputs": [
        {
          "internalType": "bool",
          "name": "",
          "type": "bool"
        }
      ],
      "stateMutability": "view",
      "type": "function",
      "constant": true
    },
    {
      "inputs": [
        {
          "internalType": "address",
          "name": "owner",
          "type": "address"
        },
        {
          "internalType": "address",
          "name": "operator",
          "type": "address"
        }
      ],
      "name": "isApprovedForAll",
      "outputs": [
        {
          "internalType": "bool",
          "name": "",
          "type": "bool"
        }
      ],
      "stateMutability": "view",
      "type": "function",
      "constant": true
    },
    {
      "inputs": [],
      "name": "name",
      "outputs": [
        {
          "internalType": "string",
          "name": "",
          "type": "string"
        }
      ],
      "stateMutability": "view",
      "type": "function",
      "constant": true
    },
    {
      "inputs": [
        {
          "internalType": "uint256",
          "name": "tokenId",
          "type": "uint256"
        }
      ],
      "name": "ownerOf",
      "outputs": [
        {
          "internalType": "address",
          "name": "",
          "type": "address"
        }
      ],
      "stateMutability": "view",
      "type": "function",
      "constant": true
    },
    {
      "inputs": [],
      "name": "paused",
      "outputs": [
        {
          "internalType": "bool",
          "name": "",
          "type": "bool"
        }
      ],
      "stateMutability": "view",
      "type": "function",
      "constant": true
    },
    {
      "inputs": [
        {
          "internalType": "bytes32",
          "name": "role",
          "type": "bytes32"
        },
        {
          "internalType": "address",
          "name": "account",
          "type": "address"
        }
      ],
      "name": "renounceRole",
      "outputs": [],
      "stateMutability": "nonpayable",
      "type": "function"
    },
    {
      "inputs": [
        {
          "internalType": "bytes32",
          "name": "role",
          "type": "bytes32"
        },
        {
          "internalType": "address",
          "name": "account",
          "type": "address"
        }
      ],
      "name": "revokeRole",
      "outputs": [],
      "stateMutability": "nonpayable",
      "type": "function"
    },
    {
      "inputs": [
        {
          "internalType": "address",
          "name": "from",
          "type": "address"
        },
        {
          "internalType": "address",
          "name": "to",
          "type": "address"
        },
        {
          "internalType": "uint256",
          "name": "tokenId",
          "type": "uint256"
        }
      ],
      "name": "safeTransferFrom",
      "outputs": [],
      "stateMutability": "nonpayable",
      "type": "function"
    },
    {
      "inputs": [
        {
          "internalType": "address",
          "name": "from",
          "type": "address"
        },
        {
          "internalType": "address",
          "name": "to",
          "type": "address"
        },
        {
          "internalType": "uint256",
          "name": "tokenId",
          "type": "uint256"
        },
        {
          "internalType": "bytes",
          "name": "_data",
          "type": "bytes"
        }
      ],
      "name": "safeTransferFrom",
      "outputs": [],
      "stateMutability": "nonpayable",
      "type": "function"
    },
    {
      "inputs": [
        {
          "internalType": "address",
          "name": "operator",
          "type": "address"
        },
        {
          "internalType": "bool",
          "name": "approved",
          "type": "bool"
        }
      ],
      "name": "setApprovalForAll",
      "outputs": [],
      "stateMutability": "nonpayable",
      "type": "function"
    },
    {
      "inputs": [],
      "name": "symbol",
      "outputs": [
        {
          "internalType": "string",
          "name": "",
          "type": "string"
        }
      ],
      "stateMutability": "view",
      "type": "function",
      "constant": true
    },
    {
      "inputs": [
        {
          "internalType": "uint256",
          "name": "index",
          "type": "uint256"
        }
      ],
      "name": "tokenByIndex",
      "outputs": [
        {
          "internalType": "uint256",
          "name": "",
          "type": "uint256"
        }
      ],
      "stateMutability": "view",
      "type": "function",
      "constant": true
    },
    {
      "inputs": [
        {
          "internalType": "address",
          "name": "owner",
          "type": "address"
        },
        {
          "internalType": "uint256",
          "name": "index",
          "type": "uint256"
        }
      ],
      "name": "tokenOfOwnerByIndex",
      "outputs": [
        {
          "internalType": "uint256",
          "name": "",
          "type": "uint256"
        }
      ],
      "stateMutability": "view",
      "type": "function",
      "constant": true
    },
    {
      "inputs": [],
      "name": "totalSupply",
      "outputs": [
        {
          "internalType": "uint256",
          "name": "",
          "type": "uint256"
        }
      ],
      "stateMutability": "view",
      "type": "function",
      "constant": true
    },
    {
      "inputs": [
        {
          "internalType": "address",
          "name": "from",
          "type": "address"
        },
        {
          "internalType": "address",
          "name": "to",
          "type": "address"
        },
        {
          "internalType": "uint256",
          "name": "tokenId",
          "type": "uint256"
        }
      ],
      "name": "transferFrom",
      "outputs": [],
      "stateMutability": "nonpayable",
      "type": "function"
    },
    {
      "inputs": [
        {
          "internalType": "uint256",
          "name": "tokenId",
          "type": "uint256"
        }
      ],
      "name": "tokenURI",
      "outputs": [
        {
          "internalType": "string",
          "name": "",
          "type": "string"
        }
      ],
      "stateMutability": "view",
      "type": "function",
      "constant": true
    },
    {
      "inputs": [
        {
          "internalType": "address",
          "name": "to",
          "type": "address"
        },
        {
          "internalType": "uint256",
          "name": "researchCapacity",
          "type": "uint256"
        },
        {
          "internalType": "uint256",
          "name": "durability",
          "type": "uint256"
        }
      ],
      "name": "mint",
      "outputs": [],
      "stateMutability": "nonpayable",
      "type": "function"
    },
    {
      "inputs": [
        {
          "internalType": "uint256",
          "name": "id",
          "type": "uint256"
        },
        {
          "internalType": "uint256",
          "name": "amount",
          "type": "uint256"
        }
      ],
      "name": "decreaseDurability",
      "outputs": [],
      "stateMutability": "nonpayable",
      "type": "function"
    },
    {
      "inputs": [
        {
          "internalType": "uint256",
          "name": "id",
          "type": "uint256"
        }
      ],
      "name": "getToken",
      "outputs": [
        {
          "components": [
            {
              "internalType": "uint256",
              "name": "id",
              "type": "uint256"
            },
            {
              "internalType": "uint256",
              "name": "creationTime",
              "type": "uint256"
            },
            {
              "internalType": "uint256",
              "name": "durability",
              "type": "uint256"
            },
            {
              "internalType": "uint256",
              "name": "researchCapacity",
              "type": "uint256"
            }
          ],
          "internalType": "struct Scepters.Scepter",
          "name": "scepter",
          "type": "tuple"
        }
      ],
      "stateMutability": "view",
      "type": "function",
      "constant": true
    },
    {
      "inputs": [],
      "name": "pause",
      "outputs": [],
      "stateMutability": "nonpayable",
      "type": "function"
    },
    {
      "inputs": [],
      "name": "unpause",
      "outputs": [],
      "stateMutability": "nonpayable",
      "type": "function"
    },
    {
      "inputs": [
        {
          "internalType": "bytes4",
          "name": "interfaceId",
          "type": "bytes4"
        }
      ],
      "name": "supportsInterface",
      "outputs": [
        {
          "internalType": "bool",
          "name": "",
          "type": "bool"
        }
      ],
      "stateMutability": "view",
      "type": "function",
      "constant": true
    }
  ],
  "bytecode": "0x60806040523480156200001157600080fd5b506040516200540938038062005409833981810160405281019062000037919062000633565b8282816002908051906020019062000051929190620003e6565b5080600390805190602001906200006a929190620003e6565b5050506000600c60006101000a81548160ff02191690831515021790555080600e9080519060200190620000a0929190620003e6565b50620000c56000801b620000b96200015060201b60201c565b6200015860201b60201c565b620001067f9f2df0fed2c77648de5860a4cc508cd0818c85b8b8a1ab4ceeef8d981c8956a6620000fa6200015060201b60201c565b6200015860201b60201c565b620001477f65d7a28e3265b37a6474929f336521b332c1681b933f6cb9f3376673440d862a6200013b6200015060201b60201c565b6200015860201b60201c565b50505062000751565b600033905090565b6200016f8282620001a060201b620014c61760201c565b6200019b8160016000858152602001908152602001600020620001b660201b620014d41790919060201c565b505050565b620001b28282620001ee60201b60201c565b5050565b6000620001e6836000018373ffffffffffffffffffffffffffffffffffffffff1660001b620002df60201b60201c565b905092915050565b6200020082826200035960201b60201c565b620002db57600160008084815260200190815260200160002060000160008373ffffffffffffffffffffffffffffffffffffffff1673ffffffffffffffffffffffffffffffffffffffff16815260200190815260200160002060006101000a81548160ff021916908315150217905550620002806200015060201b60201c565b73ffffffffffffffffffffffffffffffffffffffff168173ffffffffffffffffffffffffffffffffffffffff16837f2f8788117e7eff1d82e926ec794901d17c78024a50270940304540a733656f0d60405160405180910390a45b5050565b6000620002f38383620003c360201b60201c565b6200034e57826000018290806001815401808255809150506001900390600052602060002001600090919091909150558260000180549050836001016000848152602001908152602001600020819055506001905062000353565b600090505b92915050565b600080600084815260200190815260200160002060000160008373ffffffffffffffffffffffffffffffffffffffff1673ffffffffffffffffffffffffffffffffffffffff16815260200190815260200160002060009054906101000a900460ff16905092915050565b600080836001016000848152602001908152602001600020541415905092915050565b828054620003f4906200071b565b90600052602060002090601f01602090048101928262000418576000855562000464565b82601f106200043357805160ff191683800117855562000464565b8280016001018555821562000464579182015b828111156200046357825182559160200191906001019062000446565b5b50905062000473919062000477565b5090565b5b808211156200049257600081600090555060010162000478565b5090565b6000604051905090565b600080fd5b600080fd5b600080fd5b600080fd5b6000601f19601f8301169050919050565b7f4e487b7100000000000000000000000000000000000000000000000000000000600052604160045260246000fd5b620004ff82620004b4565b810181811067ffffffffffffffff82111715620005215762000520620004c5565b5b80604052505050565b60006200053662000496565b9050620005448282620004f4565b919050565b600067ffffffffffffffff821115620005675762000566620004c5565b5b6200057282620004b4565b9050602081019050919050565b60005b838110156200059f57808201518184015260208101905062000582565b83811115620005af576000848401525b50505050565b6000620005cc620005c68462000549565b6200052a565b905082815260208101848484011115620005eb57620005ea620004af565b5b620005f88482856200057f565b509392505050565b600082601f830112620006185762000617620004aa565b5b81516200062a848260208601620005b5565b91505092915050565b6000806000606084860312156200064f576200064e620004a0565b5b600084015167ffffffffffffffff81111562000670576200066f620004a5565b5b6200067e8682870162000600565b935050602084015167ffffffffffffffff811115620006a257620006a1620004a5565b5b620006b08682870162000600565b925050604084015167ffffffffffffffff811115620006d457620006d3620004a5565b5b620006e28682870162000600565b9150509250925092565b7f4e487b7100000000000000000000000000000000000000000000000000000000600052602260045260246000fd5b600060028204905060018216806200073457607f821691505b602082108114156200074b576200074a620006ec565b5b50919050565b614ca880620007616000396000f3fe608060405234801561001057600080fd5b50600436106101fb5760003560e01c80636352211e1161011a578063a22cb465116100ad578063d53913931161007c578063d5391393146105d2578063d547741f146105f0578063e4b50cb81461060c578063e63ab1e91461063c578063e985e9c51461065a576101fb565b8063a22cb4651461053a578063b88d4fde14610556578063c87b56dd14610572578063ca15c873146105a2576101fb565b806390549e54116100e957806390549e54146104b257806391d14854146104ce57806395d89b41146104fe578063a217fddf1461051c576101fb565b80636352211e1461041857806370a08231146104485780638456cb59146104785780639010d07c14610482576101fb565b80632f2ff15d1161019257806342842e0e1161016157806342842e0e1461039257806342966c68146103ae5780634f6ccce7146103ca5780635c975abb146103fa576101fb565b80632f2ff15d146103205780632f745c591461033c57806336568abe1461036c5780633f4ba83a14610388576101fb565b8063156e29f6116101ce578063156e29f61461029a57806318160ddd146102b657806323b872dd146102d4578063248a9ca3146102f0576101fb565b806301ffc9a71461020057806306fdde0314610230578063081812fc1461024e578063095ea7b31461027e575b600080fd5b61021a600480360381019061021591906132b3565b61068a565b60405161022791906132fb565b60405180910390f35b61023861069c565b60405161024591906133af565b60405180910390f35b61026860048036038101906102639190613407565b61072e565b6040516102759190613475565b60405180910390f35b610298600480360381019061029391906134bc565b6107b3565b005b6102b460048036038101906102af91906134fc565b6108cb565b005b6102be6109ce565b6040516102cb919061355e565b60405180910390f35b6102ee60048036038101906102e99190613579565b6109db565b005b61030a60048036038101906103059190613602565b610a3b565b604051610317919061363e565b60405180910390f35b61033a60048036038101906103359190613659565b610a5a565b005b610356600480360381019061035191906134bc565b610a8e565b604051610363919061355e565b60405180910390f35b61038660048036038101906103819190613659565b610b33565b005b610390610b67565b005b6103ac60048036038101906103a79190613579565b610be1565b005b6103c860048036038101906103c39190613407565b610c01565b005b6103e460048036038101906103df9190613407565b610c5d565b6040516103f1919061355e565b60405180910390f35b610402610cce565b60405161040f91906132fb565b60405180910390f35b610432600480360381019061042d9190613407565b610ce5565b60405161043f9190613475565b60405180910390f35b610462600480360381019061045d9190613699565b610d97565b60405161046f919061355e565b60405180910390f35b610480610e4f565b005b61049c600480360381019061049791906136c6565b610ec9565b6040516104a99190613475565b60405180910390f35b6104cc60048036038101906104c79190613706565b610ef8565b005b6104e860048036038101906104e39190613659565b610fa8565b6040516104f591906132fb565b60405180910390f35b610506611012565b60405161051391906133af565b60405180910390f35b6105246110a4565b604051610531919061363e565b60405180910390f35b610554600480360381019061054f9190613772565b6110ab565b005b610570600480360381019061056b91906138e7565b61122c565b005b61058c60048036038101906105879190613407565b61128e565b60405161059991906133af565b60405180910390f35b6105bc60048036038101906105b79190613602565b61133d565b6040516105c9919061355e565b60405180910390f35b6105da611361565b6040516105e7919061363e565b60405180910390f35b61060a60048036038101906106059190613659565b611385565b005b61062660048036038101906106219190613407565b6113b9565b60405161063391906139ce565b60405180910390f35b61064461140e565b604051610651919061363e565b60405180910390f35b610674600480360381019061066f91906139e9565b611432565b60405161068191906132fb565b60405180910390f35b600061069582611504565b9050919050565b6060600280546106ab90613a58565b80601f01602080910402602001604051908101604052809291908181526020018280546106d790613a58565b80156107245780601f106106f957610100808354040283529160200191610724565b820191906000526020600020905b81548152906001019060200180831161070757829003601f168201915b5050505050905090565b60006107398261157e565b610778576040517f08c379a000000000000000000000000000000000000000000000000000000000815260040161076f90613afc565b60405180910390fd5b6006600083815260200190815260200160002060009054906101000a900473ffffffffffffffffffffffffffffffffffffffff169050919050565b60006107be82610ce5565b90508073ffffffffffffffffffffffffffffffffffffffff168373ffffffffffffffffffffffffffffffffffffffff16141561082f576040517f08c379a000000000000000000000000000000000000000000000000000000000815260040161082690613b8e565b60405180910390fd5b8073ffffffffffffffffffffffffffffffffffffffff1661084e6115ea565b73ffffffffffffffffffffffffffffffffffffffff16148061087d575061087c816108776115ea565b611432565b5b6108bc576040517f08c379a00000000000000000000000000000000000000000000000000000000081526004016108b390613c20565b60405180910390fd5b6108c683836115f2565b505050565b6108fc7f9f2df0fed2c77648de5860a4cc508cd0818c85b8b8a1ab4ceeef8d981c8956a66108f76115ea565b610fa8565b61093b576040517f08c379a000000000000000000000000000000000000000000000000000000000815260040161093290613cb2565b60405180910390fd5b61094e83610949600d6116ab565b6116b9565b6040518060800160405280610963600d6116ab565b815260200142815260200182815260200183815250600f6000610986600d6116ab565b8152602001908152602001600020600082015181600001556020820151816001015560408201518160020155606082015181600301559050506109c9600d611887565b505050565b6000600a80549050905090565b6109ec6109e66115ea565b8261189d565b610a2b576040517f08c379a0000000000000000000000000000000000000000000000000000000008152600401610a2290613d44565b60405180910390fd5b610a3683838361197b565b505050565b6000806000838152602001908152602001600020600101549050919050565b610a648282611bd7565b610a8981600160008581526020019081526020016000206114d490919063ffffffff16565b505050565b6000610a9983610d97565b8210610ada576040517f08c379a0000000000000000000000000000000000000000000000000000000008152600401610ad190613dd6565b60405180910390fd5b600860008473ffffffffffffffffffffffffffffffffffffffff1673ffffffffffffffffffffffffffffffffffffffff168152602001908152602001600020600083815260200190815260200160002054905092915050565b610b3d8282611c00565b610b628160016000858152602001908152602001600020611c8390919063ffffffff16565b505050565b610b987f65d7a28e3265b37a6474929f336521b332c1681b933f6cb9f3376673440d862a610b936115ea565b610fa8565b610bd7576040517f08c379a0000000000000000000000000000000000000000000000000000000008152600401610bce90613e68565b60405180910390fd5b610bdf611cb3565b565b610bfc8383836040518060200160405280600081525061122c565b505050565b610c12610c0c6115ea565b8261189d565b610c51576040517f08c379a0000000000000000000000000000000000000000000000000000000008152600401610c4890613efa565b60405180910390fd5b610c5a81611d55565b50565b6000610c676109ce565b8210610ca8576040517f08c379a0000000000000000000000000000000000000000000000000000000008152600401610c9f90613f8c565b60405180910390fd5b600a8281548110610cbc57610cbb613fac565b5b90600052602060002001549050919050565b6000600c60009054906101000a900460ff16905090565b6000806004600084815260200190815260200160002060009054906101000a900473ffffffffffffffffffffffffffffffffffffffff169050600073ffffffffffffffffffffffffffffffffffffffff168173ffffffffffffffffffffffffffffffffffffffff161415610d8e576040517f08c379a0000000000000000000000000000000000000000000000000000000008152600401610d859061404d565b60405180910390fd5b80915050919050565b60008073ffffffffffffffffffffffffffffffffffffffff168273ffffffffffffffffffffffffffffffffffffffff161415610e08576040517f08c379a0000000000000000000000000000000000000000000000000000000008152600401610dff906140df565b60405180910390fd5b600560008373ffffffffffffffffffffffffffffffffffffffff1673ffffffffffffffffffffffffffffffffffffffff168152602001908152602001600020549050919050565b610e807f65d7a28e3265b37a6474929f336521b332c1681b933f6cb9f3376673440d862a610e7b6115ea565b610fa8565b610ebf576040517f08c379a0000000000000000000000000000000000000000000000000000000008152600401610eb690614171565b60405180910390fd5b610ec7611e66565b565b6000610ef08260016000868152602001908152602001600020611f0990919063ffffffff16565b905092915050565b610f297f9f2df0fed2c77648de5860a4cc508cd0818c85b8b8a1ab4ceeef8d981c8956a6610f246115ea565b610fa8565b610f68576040517f08c379a0000000000000000000000000000000000000000000000000000000008152600401610f5f90613cb2565b60405180910390fd5b80600f600084815260200190815260200160002060020154610f8a91906141c0565b600f6000848152602001908152602001600020600201819055505050565b600080600084815260200190815260200160002060000160008373ffffffffffffffffffffffffffffffffffffffff1673ffffffffffffffffffffffffffffffffffffffff16815260200190815260200160002060009054906101000a900460ff16905092915050565b60606003805461102190613a58565b80601f016020809104026020016040519081016040528092919081815260200182805461104d90613a58565b801561109a5780601f1061106f5761010080835404028352916020019161109a565b820191906000526020600020905b81548152906001019060200180831161107d57829003601f168201915b5050505050905090565b6000801b81565b6110b36115ea565b73ffffffffffffffffffffffffffffffffffffffff168273ffffffffffffffffffffffffffffffffffffffff161415611121576040517f08c379a000000000000000000000000000000000000000000000000000000000815260040161111890614240565b60405180910390fd5b806007600061112e6115ea565b73ffffffffffffffffffffffffffffffffffffffff1673ffffffffffffffffffffffffffffffffffffffff16815260200190815260200160002060008473ffffffffffffffffffffffffffffffffffffffff1673ffffffffffffffffffffffffffffffffffffffff16815260200190815260200160002060006101000a81548160ff0219169083151502179055508173ffffffffffffffffffffffffffffffffffffffff166111db6115ea565b73ffffffffffffffffffffffffffffffffffffffff167f17307eab39ab6107e8899845ad3d59bd9653f200f220920489ca2b5937696c318360405161122091906132fb565b60405180910390a35050565b61123d6112376115ea565b8361189d565b61127c576040517f08c379a000000000000000000000000000000000000000000000000000000000815260040161127390613d44565b60405180910390fd5b61128884848484611f23565b50505050565b60606112998261157e565b6112d8576040517f08c379a00000000000000000000000000000000000000000000000000000000081526004016112cf906142d2565b60405180910390fd5b60006112e2611f7f565b905060008151116113025760405180602001604052806000815250611335565b8061131461130f85612011565b6121a1565b60405160200161132592919061432e565b6040516020818303038152906040525b915050919050565b600061135a60016000848152602001908152602001600020612302565b9050919050565b7f9f2df0fed2c77648de5860a4cc508cd0818c85b8b8a1ab4ceeef8d981c8956a681565b61138f8282612317565b6113b48160016000858152602001908152602001600020611c8390919063ffffffff16565b505050565b6113c161321f565b600f60008381526020019081526020016000206040518060800160405290816000820154815260200160018201548152602001600282015481526020016003820154815250509050919050565b7f65d7a28e3265b37a6474929f336521b332c1681b933f6cb9f3376673440d862a81565b6000600760008473ffffffffffffffffffffffffffffffffffffffff1673ffffffffffffffffffffffffffffffffffffffff16815260200190815260200160002060008373ffffffffffffffffffffffffffffffffffffffff1673ffffffffffffffffffffffffffffffffffffffff16815260200190815260200160002060009054906101000a900460ff16905092915050565b6114d08282612340565b5050565b60006114fc836000018373ffffffffffffffffffffffffffffffffffffffff1660001b612420565b905092915050565b60007f780e9d63000000000000000000000000000000000000000000000000000000007bffffffffffffffffffffffffffffffffffffffffffffffffffffffff1916827bffffffffffffffffffffffffffffffffffffffffffffffffffffffff19161480611577575061157682612490565b5b9050919050565b60008073ffffffffffffffffffffffffffffffffffffffff166004600084815260200190815260200160002060009054906101000a900473ffffffffffffffffffffffffffffffffffffffff1673ffffffffffffffffffffffffffffffffffffffff1614159050919050565b600033905090565b816006600083815260200190815260200160002060006101000a81548173ffffffffffffffffffffffffffffffffffffffff021916908373ffffffffffffffffffffffffffffffffffffffff160217905550808273ffffffffffffffffffffffffffffffffffffffff1661166583610ce5565b73ffffffffffffffffffffffffffffffffffffffff167f8c5be1e5ebec7d5bd14f71427d1e84f3dd0314c0f7b2291e5b200ac8c7c3b92560405160405180910390a45050565b600081600001549050919050565b600073ffffffffffffffffffffffffffffffffffffffff168273ffffffffffffffffffffffffffffffffffffffff161415611729576040517f08c379a00000000000000000000000000000000000000000000000000000000081526004016117209061439e565b60405180910390fd5b6117328161157e565b15611772576040517f08c379a00000000000000000000000000000000000000000000000000000000081526004016117699061440a565b60405180910390fd5b61177e60008383612572565b6001600560008473ffffffffffffffffffffffffffffffffffffffff1673ffffffffffffffffffffffffffffffffffffffff16815260200190815260200160002060008282546117ce919061442a565b92505081905550816004600083815260200190815260200160002060006101000a81548173ffffffffffffffffffffffffffffffffffffffff021916908373ffffffffffffffffffffffffffffffffffffffff160217905550808273ffffffffffffffffffffffffffffffffffffffff16600073ffffffffffffffffffffffffffffffffffffffff167fddf252ad1be2c89b69c2b068fc378daa952ba7f163c4a11628f55a4df523b3ef60405160405180910390a45050565b6001816000016000828254019250508190555050565b60006118a88261157e565b6118e7576040517f08c379a00000000000000000000000000000000000000000000000000000000081526004016118de906144f2565b60405180910390fd5b60006118f283610ce5565b90508073ffffffffffffffffffffffffffffffffffffffff168473ffffffffffffffffffffffffffffffffffffffff16148061196157508373ffffffffffffffffffffffffffffffffffffffff166119498461072e565b73ffffffffffffffffffffffffffffffffffffffff16145b8061197257506119718185611432565b5b91505092915050565b8273ffffffffffffffffffffffffffffffffffffffff1661199b82610ce5565b73ffffffffffffffffffffffffffffffffffffffff16146119f1576040517f08c379a00000000000000000000000000000000000000000000000000000000081526004016119e890614584565b60405180910390fd5b600073ffffffffffffffffffffffffffffffffffffffff168273ffffffffffffffffffffffffffffffffffffffff161415611a61576040517f08c379a0000000000000000000000000000000000000000000000000000000008152600401611a5890614616565b60405180910390fd5b611a6c838383612572565b611a776000826115f2565b6001600560008573ffffffffffffffffffffffffffffffffffffffff1673ffffffffffffffffffffffffffffffffffffffff1681526020019081526020016000206000828254611ac791906141c0565b925050819055506001600560008473ffffffffffffffffffffffffffffffffffffffff1673ffffffffffffffffffffffffffffffffffffffff1681526020019081526020016000206000828254611b1e919061442a565b92505081905550816004600083815260200190815260200160002060006101000a81548173ffffffffffffffffffffffffffffffffffffffff021916908373ffffffffffffffffffffffffffffffffffffffff160217905550808273ffffffffffffffffffffffffffffffffffffffff168473ffffffffffffffffffffffffffffffffffffffff167fddf252ad1be2c89b69c2b068fc378daa952ba7f163c4a11628f55a4df523b3ef60405160405180910390a4505050565b611be082610a3b565b611bf181611bec6115ea565b612582565b611bfb8383612340565b505050565b611c086115ea565b73ffffffffffffffffffffffffffffffffffffffff168173ffffffffffffffffffffffffffffffffffffffff1614611c75576040517f08c379a0000000000000000000000000000000000000000000000000000000008152600401611c6c906146a8565b60405180910390fd5b611c7f828261261f565b5050565b6000611cab836000018373ffffffffffffffffffffffffffffffffffffffff1660001b612700565b905092915050565b611cbb610cce565b611cfa576040517f08c379a0000000000000000000000000000000000000000000000000000000008152600401611cf190614714565b60405180910390fd5b6000600c60006101000a81548160ff0219169083151502179055507f5db9ee0a495bf2e6ff9c91a7834c1ba4fdd244a5e8aa4e537bd38aeae4b073aa611d3e6115ea565b604051611d4b9190613475565b60405180910390a1565b6000611d6082610ce5565b9050611d6e81600084612572565b611d796000836115f2565b6001600560008373ffffffffffffffffffffffffffffffffffffffff1673ffffffffffffffffffffffffffffffffffffffff1681526020019081526020016000206000828254611dc991906141c0565b925050819055506004600083815260200190815260200160002060006101000a81549073ffffffffffffffffffffffffffffffffffffffff021916905581600073ffffffffffffffffffffffffffffffffffffffff168273ffffffffffffffffffffffffffffffffffffffff167fddf252ad1be2c89b69c2b068fc378daa952ba7f163c4a11628f55a4df523b3ef60405160405180910390a45050565b611e6e610cce565b15611eae576040517f08c379a0000000000000000000000000000000000000000000000000000000008152600401611ea590614780565b60405180910390fd5b6001600c60006101000a81548160ff0219169083151502179055507f62e78cea01bee320cd4e420270b5ea74000d11b0c9f74754ebdbfc544b05a258611ef26115ea565b604051611eff9190613475565b60405180910390a1565b6000611f188360000183612814565b60001c905092915050565b611f2e84848461197b565b611f3a8484848461283f565b611f79576040517f08c379a0000000000000000000000000000000000000000000000000000000008152600401611f7090614812565b60405180910390fd5b50505050565b6060600e8054611f8e90613a58565b80601f0160208091040260200160405190810160405280929190818152602001828054611fba90613a58565b80156120075780601f10611fdc57610100808354040283529160200191612007565b820191906000526020600020905b815481529060010190602001808311611fea57829003601f168201915b5050505050905090565b600080600f6000848152602001908152602001600020600301549050600a81101561204057600091505061219c565b601481101561205357600191505061219c565b601e81101561206657600291505061219c565b602881101561207957600391505061219c565b603281101561208c57600491505061219c565b603c81101561209f57600591505061219c565b60468110156120b257600691505061219c565b60508110156120c557600791505061219c565b605a8110156120d857600891505061219c565b60648110156120eb57600991505061219c565b606e8110156120fe57600a91505061219c565b607881101561211157600b91505061219c565b608281101561212457600c91505061219c565b608c81101561213757600d91505061219c565b609681101561214a57600e91505061219c565b60a081101561215d57600f91505061219c565b60aa81101561217057601091505061219c565b60b481101561218357601191505061219c565b60be81101561219657601291505061219c565b60139150505b919050565b606060008214156121e9576040518060400160405280600181526020017f300000000000000000000000000000000000000000000000000000000000000081525090506122fd565b600082905060005b6000821461221b57808061220490614832565b915050600a8261221491906148aa565b91506121f1565b60008167ffffffffffffffff811115612237576122366137bc565b5b6040519080825280601f01601f1916602001820160405280156122695781602001600182028036833780820191505090505b5090505b600085146122f65760018261228291906141c0565b9150600a8561229191906148db565b603061229d919061442a565b60f81b8183815181106122b3576122b2613fac565b5b60200101907effffffffffffffffffffffffffffffffffffffffffffffffffffffffffffff1916908160001a905350600a856122ef91906148aa565b945061226d565b8093505050505b919050565b6000612310826000016129c7565b9050919050565b61232082610a3b565b6123318161232c6115ea565b612582565b61233b838361261f565b505050565b61234a8282610fa8565b61241c57600160008084815260200190815260200160002060000160008373ffffffffffffffffffffffffffffffffffffffff1673ffffffffffffffffffffffffffffffffffffffff16815260200190815260200160002060006101000a81548160ff0219169083151502179055506123c16115ea565b73ffffffffffffffffffffffffffffffffffffffff168173ffffffffffffffffffffffffffffffffffffffff16837f2f8788117e7eff1d82e926ec794901d17c78024a50270940304540a733656f0d60405160405180910390a45b5050565b600061242c83836129d8565b61248557826000018290806001815401808255809150506001900390600052602060002001600090919091909150558260000180549050836001016000848152602001908152602001600020819055506001905061248a565b600090505b92915050565b60007f80ac58cd000000000000000000000000000000000000000000000000000000007bffffffffffffffffffffffffffffffffffffffffffffffffffffffff1916827bffffffffffffffffffffffffffffffffffffffffffffffffffffffff1916148061255b57507f5b5e139f000000000000000000000000000000000000000000000000000000007bffffffffffffffffffffffffffffffffffffffffffffffffffffffff1916827bffffffffffffffffffffffffffffffffffffffffffffffffffffffff1916145b8061256b575061256a826129fb565b5b9050919050565b61257d838383612a75565b505050565b61258c8282610fa8565b61261b576125b18173ffffffffffffffffffffffffffffffffffffffff166014612acd565b6125bf8360001c6020612acd565b6040516020016125d09291906149a4565b6040516020818303038152906040526040517f08c379a000000000000000000000000000000000000000000000000000000000815260040161261291906133af565b60405180910390fd5b5050565b6126298282610fa8565b156126fc57600080600084815260200190815260200160002060000160008373ffffffffffffffffffffffffffffffffffffffff1673ffffffffffffffffffffffffffffffffffffffff16815260200190815260200160002060006101000a81548160ff0219169083151502179055506126a16115ea565b73ffffffffffffffffffffffffffffffffffffffff168173ffffffffffffffffffffffffffffffffffffffff16837ff6391f5c32d9c69d2a47ea670b442974b53935d1edc7fd64eb21e047a839171b60405160405180910390a45b5050565b6000808360010160008481526020019081526020016000205490506000811461280857600060018261273291906141c0565b905060006001866000018054905061274a91906141c0565b90508181146127b957600086600001828154811061276b5761276a613fac565b5b906000526020600020015490508087600001848154811061278f5761278e613fac565b5b90600052602060002001819055508387600101600083815260200190815260200160002081905550505b856000018054806127cd576127cc6149de565b5b60019003818190600052602060002001600090559055856001016000868152602001908152602001600020600090556001935050505061280e565b60009150505b92915050565b600082600001828154811061282c5761282b613fac565b5b9060005260206000200154905092915050565b60006128608473ffffffffffffffffffffffffffffffffffffffff16612d09565b156129ba578373ffffffffffffffffffffffffffffffffffffffff1663150b7a026128896115ea565b8786866040518563ffffffff1660e01b81526004016128ab9493929190614a62565b6020604051808303816000875af19250505080156128e757506040513d601f19601f820116820180604052508101906128e49190614ac3565b60015b61296a573d8060008114612917576040519150601f19603f3d011682016040523d82523d6000602084013e61291c565b606091505b50600081511415612962576040517f08c379a000000000000000000000000000000000000000000000000000000000815260040161295990614812565b60405180910390fd5b805181602001fd5b63150b7a0260e01b7bffffffffffffffffffffffffffffffffffffffffffffffffffffffff1916817bffffffffffffffffffffffffffffffffffffffffffffffffffffffff1916149150506129bf565b600190505b949350505050565b600081600001805490509050919050565b600080836001016000848152602001908152602001600020541415905092915050565b60007f5a05180f000000000000000000000000000000000000000000000000000000007bffffffffffffffffffffffffffffffffffffffffffffffffffffffff1916827bffffffffffffffffffffffffffffffffffffffffffffffffffffffff19161480612a6e5750612a6d82612d1c565b5b9050919050565b612a80838383612d96565b612a88610cce565b15612ac8576040517f08c379a0000000000000000000000000000000000000000000000000000000008152600401612abf90614b62565b60405180910390fd5b505050565b606060006002836002612ae09190614b82565b612aea919061442a565b67ffffffffffffffff811115612b0357612b026137bc565b5b6040519080825280601f01601f191660200182016040528015612b355781602001600182028036833780820191505090505b5090507f300000000000000000000000000000000000000000000000000000000000000081600081518110612b6d57612b6c613fac565b5b60200101907effffffffffffffffffffffffffffffffffffffffffffffffffffffffffffff1916908160001a9053507f780000000000000000000000000000000000000000000000000000000000000081600181518110612bd157612bd0613fac565b5b60200101907effffffffffffffffffffffffffffffffffffffffffffffffffffffffffffff1916908160001a90535060006001846002612c119190614b82565b612c1b919061442a565b90505b6001811115612cbb577f3031323334353637383961626364656600000000000000000000000000000000600f861660108110612c5d57612c5c613fac565b5b1a60f81b828281518110612c7457612c73613fac565b5b60200101907effffffffffffffffffffffffffffffffffffffffffffffffffffffffffffff1916908160001a905350600485901c945080612cb490614bdc565b9050612c1e565b5060008414612cff576040517f08c379a0000000000000000000000000000000000000000000000000000000008152600401612cf690614c52565b60405180910390fd5b8091505092915050565b600080823b905060008111915050919050565b60007f7965db0b000000000000000000000000000000000000000000000000000000007bffffffffffffffffffffffffffffffffffffffffffffffffffffffff1916827bffffffffffffffffffffffffffffffffffffffffffffffffffffffff19161480612d8f5750612d8e82612eaa565b5b9050919050565b612da1838383612f14565b600073ffffffffffffffffffffffffffffffffffffffff168373ffffffffffffffffffffffffffffffffffffffff161415612de457612ddf81612f19565b612e23565b8173ffffffffffffffffffffffffffffffffffffffff168373ffffffffffffffffffffffffffffffffffffffff1614612e2257612e218382612f62565b5b5b600073ffffffffffffffffffffffffffffffffffffffff168273ffffffffffffffffffffffffffffffffffffffff161415612e6657612e61816130cf565b612ea5565b8273ffffffffffffffffffffffffffffffffffffffff168273ffffffffffffffffffffffffffffffffffffffff1614612ea457612ea382826131a0565b5b5b505050565b60007f01ffc9a7000000000000000000000000000000000000000000000000000000007bffffffffffffffffffffffffffffffffffffffffffffffffffffffff1916827bffffffffffffffffffffffffffffffffffffffffffffffffffffffff1916149050919050565b505050565b600a80549050600b600083815260200190815260200160002081905550600a81908060018154018082558091505060019003906000526020600020016000909190919091505550565b60006001612f6f84610d97565b612f7991906141c0565b905060006009600084815260200190815260200160002054905081811461305e576000600860008673ffffffffffffffffffffffffffffffffffffffff1673ffffffffffffffffffffffffffffffffffffffff168152602001908152602001600020600084815260200190815260200160002054905080600860008773ffffffffffffffffffffffffffffffffffffffff1673ffffffffffffffffffffffffffffffffffffffff168152602001908152602001600020600084815260200190815260200160002081905550816009600083815260200190815260200160002081905550505b6009600084815260200190815260200160002060009055600860008573ffffffffffffffffffffffffffffffffffffffff1673ffffffffffffffffffffffffffffffffffffffff16815260200190815260200160002060008381526020019081526020016000206000905550505050565b60006001600a805490506130e391906141c0565b90506000600b60008481526020019081526020016000205490506000600a838154811061311357613112613fac565b5b9060005260206000200154905080600a838154811061313557613134613fac565b5b906000526020600020018190555081600b600083815260200190815260200160002081905550600b600085815260200190815260200160002060009055600a805480613184576131836149de565b5b6001900381819060005260206000200160009055905550505050565b60006131ab83610d97565b905081600860008573ffffffffffffffffffffffffffffffffffffffff1673ffffffffffffffffffffffffffffffffffffffff168152602001908152602001600020600083815260200190815260200160002081905550806009600084815260200190815260200160002081905550505050565b6040518060800160405280600081526020016000815260200160008152602001600081525090565b6000604051905090565b600080fd5b600080fd5b60007fffffffff0000000000000000000000000000000000000000000000000000000082169050919050565b6132908161325b565b811461329b57600080fd5b50565b6000813590506132ad81613287565b92915050565b6000602082840312156132c9576132c8613251565b5b60006132d78482850161329e565b91505092915050565b60008115159050919050565b6132f5816132e0565b82525050565b600060208201905061331060008301846132ec565b92915050565b600081519050919050565b600082825260208201905092915050565b60005b83811015613350578082015181840152602081019050613335565b8381111561335f576000848401525b50505050565b6000601f19601f8301169050919050565b600061338182613316565b61338b8185613321565b935061339b818560208601613332565b6133a481613365565b840191505092915050565b600060208201905081810360008301526133c98184613376565b905092915050565b6000819050919050565b6133e4816133d1565b81146133ef57600080fd5b50565b600081359050613401816133db565b92915050565b60006020828403121561341d5761341c613251565b5b600061342b848285016133f2565b91505092915050565b600073ffffffffffffffffffffffffffffffffffffffff82169050919050565b600061345f82613434565b9050919050565b61346f81613454565b82525050565b600060208201905061348a6000830184613466565b92915050565b61349981613454565b81146134a457600080fd5b50565b6000813590506134b681613490565b92915050565b600080604083850312156134d3576134d2613251565b5b60006134e1858286016134a7565b92505060206134f2858286016133f2565b9150509250929050565b60008060006060848603121561351557613514613251565b5b6000613523868287016134a7565b9350506020613534868287016133f2565b9250506040613545868287016133f2565b9150509250925092565b613558816133d1565b82525050565b6000602082019050613573600083018461354f565b92915050565b60008060006060848603121561359257613591613251565b5b60006135a0868287016134a7565b93505060206135b1868287016134a7565b92505060406135c2868287016133f2565b9150509250925092565b6000819050919050565b6135df816135cc565b81146135ea57600080fd5b50565b6000813590506135fc816135d6565b92915050565b60006020828403121561361857613617613251565b5b6000613626848285016135ed565b91505092915050565b613638816135cc565b82525050565b6000602082019050613653600083018461362f565b92915050565b600080604083850312156136705761366f613251565b5b600061367e858286016135ed565b925050602061368f858286016134a7565b9150509250929050565b6000602082840312156136af576136ae613251565b5b60006136bd848285016134a7565b91505092915050565b600080604083850312156136dd576136dc613251565b5b60006136eb858286016135ed565b92505060206136fc858286016133f2565b9150509250929050565b6000806040838503121561371d5761371c613251565b5b600061372b858286016133f2565b925050602061373c858286016133f2565b9150509250929050565b61374f816132e0565b811461375a57600080fd5b50565b60008135905061376c81613746565b92915050565b6000806040838503121561378957613788613251565b5b6000613797858286016134a7565b92505060206137a88582860161375d565b9150509250929050565b600080fd5b600080fd5b7f4e487b7100000000000000000000000000000000000000000000000000000000600052604160045260246000fd5b6137f482613365565b810181811067ffffffffffffffff82111715613813576138126137bc565b5b80604052505050565b6000613826613247565b905061383282826137eb565b919050565b600067ffffffffffffffff821115613852576138516137bc565b5b61385b82613365565b9050602081019050919050565b82818337600083830152505050565b600061388a61388584613837565b61381c565b9050828152602081018484840111156138a6576138a56137b7565b5b6138b1848285613868565b509392505050565b600082601f8301126138ce576138cd6137b2565b5b81356138de848260208601613877565b91505092915050565b6000806000806080858703121561390157613900613251565b5b600061390f878288016134a7565b9450506020613920878288016134a7565b9350506040613931878288016133f2565b925050606085013567ffffffffffffffff81111561395257613951613256565b5b61395e878288016138b9565b91505092959194509250565b613973816133d1565b82525050565b60808201600082015161398f600085018261396a565b5060208201516139a2602085018261396a565b5060408201516139b5604085018261396a565b5060608201516139c8606085018261396a565b50505050565b60006080820190506139e36000830184613979565b92915050565b60008060408385031215613a00576139ff613251565b5b6000613a0e858286016134a7565b9250506020613a1f858286016134a7565b9150509250929050565b7f4e487b7100000000000000000000000000000000000000000000000000000000600052602260045260246000fd5b60006002820490506001821680613a7057607f821691505b60208210811415613a8457613a83613a29565b5b50919050565b7f4552433732313a20617070726f76656420717565727920666f72206e6f6e657860008201527f697374656e7420746f6b656e0000000000000000000000000000000000000000602082015250565b6000613ae6602c83613321565b9150613af182613a8a565b604082019050919050565b60006020820190508181036000830152613b1581613ad9565b9050919050565b7f4552433732313a20617070726f76616c20746f2063757272656e74206f776e6560008201527f7200000000000000000000000000000000000000000000000000000000000000602082015250565b6000613b78602183613321565b9150613b8382613b1c565b604082019050919050565b60006020820190508181036000830152613ba781613b6b565b9050919050565b7f4552433732313a20617070726f76652063616c6c6572206973206e6f74206f7760008201527f6e6572206e6f7220617070726f76656420666f7220616c6c0000000000000000602082015250565b6000613c0a603883613321565b9150613c1582613bae565b604082019050919050565b60006020820190508181036000830152613c3981613bfd565b9050919050565b7f4552433732315072657365744d696e7465725061757365724175746f49643a2060008201527f6d7573742068617665206d696e74657220726f6c6520746f206d696e74000000602082015250565b6000613c9c603d83613321565b9150613ca782613c40565b604082019050919050565b60006020820190508181036000830152613ccb81613c8f565b9050919050565b7f4552433732313a207472616e736665722063616c6c6572206973206e6f74206f60008201527f776e6572206e6f7220617070726f766564000000000000000000000000000000602082015250565b6000613d2e603183613321565b9150613d3982613cd2565b604082019050919050565b60006020820190508181036000830152613d5d81613d21565b9050919050565b7f455243373231456e756d657261626c653a206f776e657220696e646578206f7560008201527f74206f6620626f756e6473000000000000000000000000000000000000000000602082015250565b6000613dc0602b83613321565b9150613dcb82613d64565b604082019050919050565b60006020820190508181036000830152613def81613db3565b9050919050565b7f4552433732315072657365744d696e7465725061757365724175746f49643a2060008201527f6d75737420686176652070617573657220726f6c6520746f20756e7061757365602082015250565b6000613e52604083613321565b9150613e5d82613df6565b604082019050919050565b60006020820190508181036000830152613e8181613e45565b9050919050565b7f4552433732314275726e61626c653a2063616c6c6572206973206e6f74206f7760008201527f6e6572206e6f7220617070726f76656400000000000000000000000000000000602082015250565b6000613ee4603083613321565b9150613eef82613e88565b604082019050919050565b60006020820190508181036000830152613f1381613ed7565b9050919050565b7f455243373231456e756d657261626c653a20676c6f62616c20696e646578206f60008201527f7574206f6620626f756e64730000000000000000000000000000000000000000602082015250565b6000613f76602c83613321565b9150613f8182613f1a565b604082019050919050565b60006020820190508181036000830152613fa581613f69565b9050919050565b7f4e487b7100000000000000000000000000000000000000000000000000000000600052603260045260246000fd5b7f4552433732313a206f776e657220717565727920666f72206e6f6e657869737460008201527f656e7420746f6b656e0000000000000000000000000000000000000000000000602082015250565b6000614037602983613321565b915061404282613fdb565b604082019050919050565b600060208201905081810360008301526140668161402a565b9050919050565b7f4552433732313a2062616c616e636520717565727920666f7220746865207a6560008201527f726f206164647265737300000000000000000000000000000000000000000000602082015250565b60006140c9602a83613321565b91506140d48261406d565b604082019050919050565b600060208201905081810360008301526140f8816140bc565b9050919050565b7f4552433732315072657365744d696e7465725061757365724175746f49643a2060008201527f6d75737420686176652070617573657220726f6c6520746f2070617573650000602082015250565b600061415b603e83613321565b9150614166826140ff565b604082019050919050565b6000602082019050818103600083015261418a8161414e565b9050919050565b7f4e487b7100000000000000000000000000000000000000000000000000000000600052601160045260246000fd5b60006141cb826133d1565b91506141d6836133d1565b9250828210156141e9576141e8614191565b5b828203905092915050565b7f4552433732313a20617070726f766520746f2063616c6c657200000000000000600082015250565b600061422a601983613321565b9150614235826141f4565b602082019050919050565b600060208201905081810360008301526142598161421d565b9050919050565b7f4552433732314d657461646174613a2055524920717565727920666f72206e6f60008201527f6e6578697374656e7420746f6b656e0000000000000000000000000000000000602082015250565b60006142bc602f83613321565b91506142c782614260565b604082019050919050565b600060208201905081810360008301526142eb816142af565b9050919050565b600081905092915050565b600061430882613316565b61431281856142f2565b9350614322818560208601613332565b80840191505092915050565b600061433a82856142fd565b915061434682846142fd565b91508190509392505050565b7f4552433732313a206d696e7420746f20746865207a65726f2061646472657373600082015250565b6000614388602083613321565b915061439382614352565b602082019050919050565b600060208201905081810360008301526143b78161437b565b9050919050565b7f4552433732313a20746f6b656e20616c7265616479206d696e74656400000000600082015250565b60006143f4601c83613321565b91506143ff826143be565b602082019050919050565b60006020820190508181036000830152614423816143e7565b9050919050565b6000614435826133d1565b9150614440836133d1565b9250827fffffffffffffffffffffffffffffffffffffffffffffffffffffffffffffffff0382111561447557614474614191565b5b828201905092915050565b7f4552433732313a206f70657261746f7220717565727920666f72206e6f6e657860008201527f697374656e7420746f6b656e0000000000000000000000000000000000000000602082015250565b60006144dc602c83613321565b91506144e782614480565b604082019050919050565b6000602082019050818103600083015261450b816144cf565b9050919050565b7f4552433732313a207472616e73666572206f6620746f6b656e2074686174206960008201527f73206e6f74206f776e0000000000000000000000000000000000000000000000602082015250565b600061456e602983613321565b915061457982614512565b604082019050919050565b6000602082019050818103600083015261459d81614561565b9050919050565b7f4552433732313a207472616e7366657220746f20746865207a65726f2061646460008201527f7265737300000000000000000000000000000000000000000000000000000000602082015250565b6000614600602483613321565b915061460b826145a4565b604082019050919050565b6000602082019050818103600083015261462f816145f3565b9050919050565b7f416363657373436f6e74726f6c3a2063616e206f6e6c792072656e6f756e636560008201527f20726f6c657320666f722073656c660000000000000000000000000000000000602082015250565b6000614692602f83613321565b915061469d82614636565b604082019050919050565b600060208201905081810360008301526146c181614685565b9050919050565b7f5061757361626c653a206e6f7420706175736564000000000000000000000000600082015250565b60006146fe601483613321565b9150614709826146c8565b602082019050919050565b6000602082019050818103600083015261472d816146f1565b9050919050565b7f5061757361626c653a2070617573656400000000000000000000000000000000600082015250565b600061476a601083613321565b915061477582614734565b602082019050919050565b600060208201905081810360008301526147998161475d565b9050919050565b7f4552433732313a207472616e7366657220746f206e6f6e20455243373231526560008201527f63656976657220696d706c656d656e7465720000000000000000000000000000602082015250565b60006147fc603283613321565b9150614807826147a0565b604082019050919050565b6000602082019050818103600083015261482b816147ef565b9050919050565b600061483d826133d1565b91507fffffffffffffffffffffffffffffffffffffffffffffffffffffffffffffffff8214156148705761486f614191565b5b600182019050919050565b7f4e487b7100000000000000000000000000000000000000000000000000000000600052601260045260246000fd5b60006148b5826133d1565b91506148c0836133d1565b9250826148d0576148cf61487b565b5b828204905092915050565b60006148e6826133d1565b91506148f1836133d1565b9250826149015761490061487b565b5b828206905092915050565b7f416363657373436f6e74726f6c3a206163636f756e7420000000000000000000600082015250565b60006149426017836142f2565b915061494d8261490c565b601782019050919050565b7f206973206d697373696e6720726f6c6520000000000000000000000000000000600082015250565b600061498e6011836142f2565b915061499982614958565b601182019050919050565b60006149af82614935565b91506149bb82856142fd565b91506149c682614981565b91506149d282846142fd565b91508190509392505050565b7f4e487b7100000000000000000000000000000000000000000000000000000000600052603160045260246000fd5b600081519050919050565b600082825260208201905092915050565b6000614a3482614a0d565b614a3e8185614a18565b9350614a4e818560208601613332565b614a5781613365565b840191505092915050565b6000608082019050614a776000830187613466565b614a846020830186613466565b614a91604083018561354f565b8181036060830152614aa38184614a29565b905095945050505050565b600081519050614abd81613287565b92915050565b600060208284031215614ad957614ad8613251565b5b6000614ae784828501614aae565b91505092915050565b7f4552433732315061757361626c653a20746f6b656e207472616e73666572207760008201527f68696c6520706175736564000000000000000000000000000000000000000000602082015250565b6000614b4c602b83613321565b9150614b5782614af0565b604082019050919050565b60006020820190508181036000830152614b7b81614b3f565b9050919050565b6000614b8d826133d1565b9150614b98836133d1565b9250817fffffffffffffffffffffffffffffffffffffffffffffffffffffffffffffffff0483118215151615614bd157614bd0614191565b5b828202905092915050565b6000614be7826133d1565b91506000821415614bfb57614bfa614191565b5b600182039050919050565b7f537472696e67733a20686578206c656e67746820696e73756666696369656e74600082015250565b6000614c3c602083613321565b9150614c4782614c06565b602082019050919050565b60006020820190508181036000830152614c6b81614c2f565b905091905056fea2646970667358221220541a7090ffebafe4ff2c44cd78660d2aa473fa5490aa1cc01cbc8de888538eb564736f6c634300080a0033",
  "immutableReferences": {},
  "source": "// SPDX-License-Identifier: MIT\npragma solidity ^0.8.0;\n\nimport \"@openzeppelin/contracts/utils/Strings.sol\";\nimport \"@openzeppelin/contracts/utils/Counters.sol\";\nimport \"@openzeppelin/contracts/access/AccessControlEnumerable.sol\";\nimport \"@openzeppelin/contracts/token/ERC721/extensions/IERC721Metadata.sol\";\nimport \"@openzeppelin/contracts/token/ERC721/extensions/ERC721Enumerable.sol\";\nimport \"@openzeppelin/contracts/token/ERC721/extensions/ERC721Burnable.sol\";\nimport \"@openzeppelin/contracts/token/ERC721/extensions/ERC721Pausable.sol\";\n\n/**\n * @dev {ERC721} token, including:\n *\n *  - ability for holders to burn (destroy) their tokens\n *  - a minter role that allows for token minting (creation)\n *  - a pauser role that allows to stop all token transfers\n *  - token ID and URI autogeneration\n *\n * This contract uses {AccessControl} to lock permissioned functions using the\n * different roles - head to its documentation for details.\n *\n * The account that deploys the contract will be granted the minter and pauser\n * roles, as well as the default admin role, which will let it grant both minter\n * and pauser roles to other accounts.\n */\ncontract Scepters is\n    Context,\n    AccessControlEnumerable,\n    ERC721Enumerable,\n    ERC721Burnable,\n    ERC721Pausable\n{\n    using Strings for uint256;\n    using Counters for Counters.Counter;\n\n    bytes32 public constant MINTER_ROLE = keccak256(\"MINTER_ROLE\");\n    bytes32 public constant PAUSER_ROLE = keccak256(\"PAUSER_ROLE\");\n\n    Counters.Counter private _tokenIdTracker;\n\n    string private _baseTokenURI;\n\n    struct Scepter {\n        uint256 id;\n        uint256 creationTime;\n        uint256 durability;\n        uint256 researchCapacity;\n    }\n\n    mapping(uint256 => Scepter) scepters;\n\n    /**\n     * @dev Grants `DEFAULT_ADMIN_ROLE`, `MINTER_ROLE` and `PAUSER_ROLE` to the\n     * account that deploys the contract.\n     *\n     * Token URIs will be autogenerated based on `baseURI` and their token IDs.\n     * See {ERC721-tokenURI}.\n     */\n    constructor(\n        string memory name,\n        string memory symbol,\n        string memory baseTokenURI\n    ) ERC721(name, symbol) {\n        _baseTokenURI = baseTokenURI;\n\n        _setupRole(DEFAULT_ADMIN_ROLE, _msgSender());\n\n        _setupRole(MINTER_ROLE, _msgSender());\n        _setupRole(PAUSER_ROLE, _msgSender());\n    }\n\n    function getType(uint256 tokenId) internal view returns (uint256) {\n        uint256 totalPower = scepters[tokenId].researchCapacity;\n        if (totalPower < 10) {\n            return 0;\n        } else if (totalPower < 20) {\n            return 1;\n        } else if (totalPower < 30) {\n            return 2;\n        } else if (totalPower < 40) {\n            return 3;\n        } else if (totalPower < 50) {\n            return 4;\n        } else if (totalPower < 60) {\n            return 5;\n        } else if (totalPower < 70) {\n            return 6;\n        } else if (totalPower < 80) {\n            return 7;\n        } else if (totalPower < 90) {\n            return 8;\n        } else if (totalPower < 100) {\n            return 9;\n        } else if (totalPower < 110) {\n            return 10;\n        } else if (totalPower < 120) {\n            return 11;\n        } else if (totalPower < 130) {\n            return 12;\n        } else if (totalPower < 140) {\n            return 13;\n        } else if (totalPower < 150) {\n            return 14;\n        } else if (totalPower < 160) {\n            return 15;\n        } else if (totalPower < 170) {\n            return 16;\n        } else if (totalPower < 180) {\n            return 17;\n        } else if (totalPower < 190) {\n            return 18;\n        } else {\n            return 19;\n        }\n    }\n\n    function _baseURI() internal view virtual override returns (string memory) {\n        return _baseTokenURI;\n    }\n\n\n    function tokenURI(uint256 tokenId) public view virtual override returns (string memory) {\n        require(_exists(tokenId), \"ERC721Metadata: URI query for nonexistent token\");\n\n        string memory baseURI = _baseURI();\n        return bytes(baseURI).length > 0 ? string(abi.encodePacked(baseURI, getType(tokenId).toString())) : \"\";\n    }\n\n    /**\n     * @dev Creates a new token for `to`. Its token ID will be automatically\n     * assigned (and available on the emitted {IERC721-Transfer} event), and the token\n     * URI autogenerated based on the base URI passed at construction.\n     *\n     * See {ERC721-_mint}.\n     *\n     * Requirements:\n     *\n     * - the caller must have the `MINTER_ROLE`.\n     */\n    function mint(address to, uint256 researchCapacity, uint256 durability) public virtual {\n        require(hasRole(MINTER_ROLE, _msgSender()), \"ERC721PresetMinterPauserAutoId: must have minter role to mint\");\n\n        // We cannot just use balanceOf to create the new tokenId because tokens\n        // can be burned (destroyed), so we need a separate counter.\n        _mint(to, _tokenIdTracker.current());\n        scepters[_tokenIdTracker.current()] = Scepter({\n            id: _tokenIdTracker.current(),\n            researchCapacity: researchCapacity,\n            durability: durability,\n            creationTime: block.timestamp\n        });\n        _tokenIdTracker.increment();\n    }\n\n    function decreaseDurability(uint256 id, uint256 amount) public {\n        require(hasRole(MINTER_ROLE, _msgSender()), \"ERC721PresetMinterPauserAutoId: must have minter role to mint\");\n        scepters[id].durability = scepters[id].durability - amount;\n    }\n\n    function getToken(uint256 id) public view virtual returns (Scepter memory scepter) {\n        return scepters[id];\n    }\n\n    /**\n     * @dev Pauses all token transfers.\n     *\n     * See {ERC721Pausable} and {Pausable-_pause}.\n     *\n     * Requirements:\n     *\n     * - the caller must have the `PAUSER_ROLE`.\n     */\n    function pause() public virtual {\n        require(hasRole(PAUSER_ROLE, _msgSender()), \"ERC721PresetMinterPauserAutoId: must have pauser role to pause\");\n        _pause();\n    }\n\n    /**\n     * @dev Unpauses all token transfers.\n     *\n     * See {ERC721Pausable} and {Pausable-_unpause}.\n     *\n     * Requirements:\n     *\n     * - the caller must have the `PAUSER_ROLE`.\n     */\n    function unpause() public virtual {\n        require(hasRole(PAUSER_ROLE, _msgSender()), \"ERC721PresetMinterPauserAutoId: must have pauser role to unpause\");\n        _unpause();\n    }\n\n    function _beforeTokenTransfer(\n        address from,\n        address to,\n        uint256 tokenId\n    ) internal virtual override(ERC721, ERC721Enumerable, ERC721Pausable) {\n        super._beforeTokenTransfer(from, to, tokenId);\n    }\n\n    /**\n     * @dev See {IERC165-supportsInterface}.\n     */\n    function supportsInterface(bytes4 interfaceId)\n        public\n        view\n        virtual\n        override(AccessControlEnumerable, ERC721, ERC721Enumerable)\n        returns (bool)\n    {\n        return super.supportsInterface(interfaceId);\n    }\n}\n",
  "sourcePath": "/Users/alfonsomateosvicente/Documents/Proyectos/Orakler/SmartContracts/contracts/Scepters.sol",
  "compiler": {
    "name": "solc",
    "version": "0.8.10+commit.fc410830.Emscripten.clang"
  },
  "schemaVersion": "3.4.3",
  "updatedAt": "2021-12-27T16:55:45.228Z",
  "networkType": "ethereum",
  "devdoc": {
    "details": "{ERC721} token, including:  - ability for holders to burn (destroy) their tokens  - a minter role that allows for token minting (creation)  - a pauser role that allows to stop all token transfers  - token ID and URI autogeneration This contract uses {AccessControl} to lock permissioned functions using the different roles - head to its documentation for details. The account that deploys the contract will be granted the minter and pauser roles, as well as the default admin role, which will let it grant both minter and pauser roles to other accounts.",
    "kind": "dev",
    "methods": {
      "approve(address,uint256)": {
        "details": "See {IERC721-approve}."
      },
      "balanceOf(address)": {
        "details": "See {IERC721-balanceOf}."
      },
      "burn(uint256)": {
        "details": "Burns `tokenId`. See {ERC721-_burn}. Requirements: - The caller must own `tokenId` or be an approved operator."
      },
      "constructor": {
        "details": "Grants `DEFAULT_ADMIN_ROLE`, `MINTER_ROLE` and `PAUSER_ROLE` to the account that deploys the contract. Token URIs will be autogenerated based on `baseURI` and their token IDs. See {ERC721-tokenURI}."
      },
      "getApproved(uint256)": {
        "details": "See {IERC721-getApproved}."
      },
      "getRoleAdmin(bytes32)": {
        "details": "Returns the admin role that controls `role`. See {grantRole} and {revokeRole}. To change a role's admin, use {_setRoleAdmin}."
      },
      "getRoleMember(bytes32,uint256)": {
        "details": "Returns one of the accounts that have `role`. `index` must be a value between 0 and {getRoleMemberCount}, non-inclusive. Role bearers are not sorted in any particular way, and their ordering may change at any point. WARNING: When using {getRoleMember} and {getRoleMemberCount}, make sure you perform all queries on the same block. See the following https://forum.openzeppelin.com/t/iterating-over-elements-on-enumerableset-in-openzeppelin-contracts/2296[forum post] for more information."
      },
      "getRoleMemberCount(bytes32)": {
        "details": "Returns the number of accounts that have `role`. Can be used together with {getRoleMember} to enumerate all bearers of a role."
      },
      "grantRole(bytes32,address)": {
        "details": "Overload {grantRole} to track enumerable memberships"
      },
      "hasRole(bytes32,address)": {
        "details": "Returns `true` if `account` has been granted `role`."
      },
      "isApprovedForAll(address,address)": {
        "details": "See {IERC721-isApprovedForAll}."
      },
      "mint(address,uint256,uint256)": {
        "details": "Creates a new token for `to`. Its token ID will be automatically assigned (and available on the emitted {IERC721-Transfer} event), and the token URI autogenerated based on the base URI passed at construction. See {ERC721-_mint}. Requirements: - the caller must have the `MINTER_ROLE`."
      },
      "name()": {
        "details": "See {IERC721Metadata-name}."
      },
      "ownerOf(uint256)": {
        "details": "See {IERC721-ownerOf}."
      },
      "pause()": {
        "details": "Pauses all token transfers. See {ERC721Pausable} and {Pausable-_pause}. Requirements: - the caller must have the `PAUSER_ROLE`."
      },
      "paused()": {
        "details": "Returns true if the contract is paused, and false otherwise."
      },
      "renounceRole(bytes32,address)": {
        "details": "Overload {renounceRole} to track enumerable memberships"
      },
      "revokeRole(bytes32,address)": {
        "details": "Overload {revokeRole} to track enumerable memberships"
      },
      "safeTransferFrom(address,address,uint256)": {
        "details": "See {IERC721-safeTransferFrom}."
      },
      "safeTransferFrom(address,address,uint256,bytes)": {
        "details": "See {IERC721-safeTransferFrom}."
      },
      "setApprovalForAll(address,bool)": {
        "details": "See {IERC721-setApprovalForAll}."
      },
      "supportsInterface(bytes4)": {
        "details": "See {IERC165-supportsInterface}."
      },
      "symbol()": {
        "details": "See {IERC721Metadata-symbol}."
      },
      "tokenByIndex(uint256)": {
        "details": "See {IERC721Enumerable-tokenByIndex}."
      },
      "tokenOfOwnerByIndex(address,uint256)": {
        "details": "See {IERC721Enumerable-tokenOfOwnerByIndex}."
      },
      "tokenURI(uint256)": {
        "details": "See {IERC721Metadata-tokenURI}."
      },
      "totalSupply()": {
        "details": "See {IERC721Enumerable-totalSupply}."
      },
      "transferFrom(address,address,uint256)": {
        "details": "See {IERC721-transferFrom}."
      },
      "unpause()": {
        "details": "Unpauses all token transfers. See {ERC721Pausable} and {Pausable-_unpause}. Requirements: - the caller must have the `PAUSER_ROLE`."
      }
    },
    "version": 1
  },
  "userdoc": {
    "kind": "user",
    "methods": {},
    "version": 1
  }
}