{
  "contractName": "Wizards",
  "abi": [
    {
      "inputs": [
        {
          "internalType": "string",
          "name": "name",
          "type": "string"
        },
        {
          "internalType": "string",
          "name": "symbol",
          "type": "string"
        },
        {
          "internalType": "string",
          "name": "baseTokenURI",
          "type": "string"
        }
      ],
      "stateMutability": "nonpayable",
      "type": "constructor"
    },
    {
      "anonymous": false,
      "inputs": [
        {
          "indexed": true,
          "internalType": "address",
          "name": "owner",
          "type": "address"
        },
        {
          "indexed": true,
          "internalType": "address",
          "name": "approved",
          "type": "address"
        },
        {
          "indexed": true,
          "internalType": "uint256",
          "name": "tokenId",
          "type": "uint256"
        }
      ],
      "name": "Approval",
      "type": "event"
    },
    {
      "anonymous": false,
      "inputs": [
        {
          "indexed": true,
          "internalType": "address",
          "name": "owner",
          "type": "address"
        },
        {
          "indexed": true,
          "internalType": "address",
          "name": "operator",
          "type": "address"
        },
        {
          "indexed": false,
          "internalType": "bool",
          "name": "approved",
          "type": "bool"
        }
      ],
      "name": "ApprovalForAll",
      "type": "event"
    },
    {
      "anonymous": false,
      "inputs": [
        {
          "indexed": false,
          "internalType": "address",
          "name": "account",
          "type": "address"
        }
      ],
      "name": "Paused",
      "type": "event"
    },
    {
      "anonymous": false,
      "inputs": [
        {
          "indexed": true,
          "internalType": "bytes32",
          "name": "role",
          "type": "bytes32"
        },
        {
          "indexed": true,
          "internalType": "bytes32",
          "name": "previousAdminRole",
          "type": "bytes32"
        },
        {
          "indexed": true,
          "internalType": "bytes32",
          "name": "newAdminRole",
          "type": "bytes32"
        }
      ],
      "name": "RoleAdminChanged",
      "type": "event"
    },
    {
      "anonymous": false,
      "inputs": [
        {
          "indexed": true,
          "internalType": "bytes32",
          "name": "role",
          "type": "bytes32"
        },
        {
          "indexed": true,
          "internalType": "address",
          "name": "account",
          "type": "address"
        },
        {
          "indexed": true,
          "internalType": "address",
          "name": "sender",
          "type": "address"
        }
      ],
      "name": "RoleGranted",
      "type": "event"
    },
    {
      "anonymous": false,
      "inputs": [
        {
          "indexed": true,
          "internalType": "bytes32",
          "name": "role",
          "type": "bytes32"
        },
        {
          "indexed": true,
          "internalType": "address",
          "name": "account",
          "type": "address"
        },
        {
          "indexed": true,
          "internalType": "address",
          "name": "sender",
          "type": "address"
        }
      ],
      "name": "RoleRevoked",
      "type": "event"
    },
    {
      "anonymous": false,
      "inputs": [
        {
          "indexed": true,
          "internalType": "address",
          "name": "from",
          "type": "address"
        },
        {
          "indexed": true,
          "internalType": "address",
          "name": "to",
          "type": "address"
        },
        {
          "indexed": true,
          "internalType": "uint256",
          "name": "tokenId",
          "type": "uint256"
        }
      ],
      "name": "Transfer",
      "type": "event"
    },
    {
      "anonymous": false,
      "inputs": [
        {
          "indexed": false,
          "internalType": "address",
          "name": "account",
          "type": "address"
        }
      ],
      "name": "Unpaused",
      "type": "event"
    },
    {
      "inputs": [],
      "name": "DEFAULT_ADMIN_ROLE",
      "outputs": [
        {
          "internalType": "bytes32",
          "name": "",
          "type": "bytes32"
        }
      ],
      "stateMutability": "view",
      "type": "function",
      "constant": true
    },
    {
      "inputs": [],
      "name": "MINTER_ROLE",
      "outputs": [
        {
          "internalType": "bytes32",
          "name": "",
          "type": "bytes32"
        }
      ],
      "stateMutability": "view",
      "type": "function",
      "constant": true
    },
    {
      "inputs": [],
      "name": "PAUSER_ROLE",
      "outputs": [
        {
          "internalType": "bytes32",
          "name": "",
          "type": "bytes32"
        }
      ],
      "stateMutability": "view",
      "type": "function",
      "constant": true
    },
    {
      "inputs": [
        {
          "internalType": "address",
          "name": "to",
          "type": "address"
        },
        {
          "internalType": "uint256",
          "name": "tokenId",
          "type": "uint256"
        }
      ],
      "name": "approve",
      "outputs": [],
      "stateMutability": "nonpayable",
      "type": "function"
    },
    {
      "inputs": [
        {
          "internalType": "address",
          "name": "owner",
          "type": "address"
        }
      ],
      "name": "balanceOf",
      "outputs": [
        {
          "internalType": "uint256",
          "name": "",
          "type": "uint256"
        }
      ],
      "stateMutability": "view",
      "type": "function",
      "constant": true
    },
    {
      "inputs": [
        {
          "internalType": "uint256",
          "name": "tokenId",
          "type": "uint256"
        }
      ],
      "name": "burn",
      "outputs": [],
      "stateMutability": "nonpayable",
      "type": "function"
    },
    {
      "inputs": [
        {
          "internalType": "uint256",
          "name": "tokenId",
          "type": "uint256"
        }
      ],
      "name": "getApproved",
      "outputs": [
        {
          "internalType": "address",
          "name": "",
          "type": "address"
        }
      ],
      "stateMutability": "view",
      "type": "function",
      "constant": true
    },
    {
      "inputs": [
        {
          "internalType": "bytes32",
          "name": "role",
          "type": "bytes32"
        }
      ],
      "name": "getRoleAdmin",
      "outputs": [
        {
          "internalType": "bytes32",
          "name": "",
          "type": "bytes32"
        }
      ],
      "stateMutability": "view",
      "type": "function",
      "constant": true
    },
    {
      "inputs": [
        {
          "internalType": "bytes32",
          "name": "role",
          "type": "bytes32"
        },
        {
          "internalType": "uint256",
          "name": "index",
          "type": "uint256"
        }
      ],
      "name": "getRoleMember",
      "outputs": [
        {
          "internalType": "address",
          "name": "",
          "type": "address"
        }
      ],
      "stateMutability": "view",
      "type": "function",
      "constant": true
    },
    {
      "inputs": [
        {
          "internalType": "bytes32",
          "name": "role",
          "type": "bytes32"
        }
      ],
      "name": "getRoleMemberCount",
      "outputs": [
        {
          "internalType": "uint256",
          "name": "",
          "type": "uint256"
        }
      ],
      "stateMutability": "view",
      "type": "function",
      "constant": true
    },
    {
      "inputs": [
        {
          "internalType": "bytes32",
          "name": "role",
          "type": "bytes32"
        },
        {
          "internalType": "address",
          "name": "account",
          "type": "address"
        }
      ],
      "name": "grantRole",
      "outputs": [],
      "stateMutability": "nonpayable",
      "type": "function"
    },
    {
      "inputs": [
        {
          "internalType": "bytes32",
          "name": "role",
          "type": "bytes32"
        },
        {
          "internalType": "address",
          "name": "account",
          "type": "address"
        }
      ],
      "name": "hasRole",
      "outputs": [
        {
          "internalType": "bool",
          "name": "",
          "type": "bool"
        }
      ],
      "stateMutability": "view",
      "type": "function",
      "constant": true
    },
    {
      "inputs": [
        {
          "internalType": "address",
          "name": "owner",
          "type": "address"
        },
        {
          "internalType": "address",
          "name": "operator",
          "type": "address"
        }
      ],
      "name": "isApprovedForAll",
      "outputs": [
        {
          "internalType": "bool",
          "name": "",
          "type": "bool"
        }
      ],
      "stateMutability": "view",
      "type": "function",
      "constant": true
    },
    {
      "inputs": [],
      "name": "name",
      "outputs": [
        {
          "internalType": "string",
          "name": "",
          "type": "string"
        }
      ],
      "stateMutability": "view",
      "type": "function",
      "constant": true
    },
    {
      "inputs": [
        {
          "internalType": "uint256",
          "name": "tokenId",
          "type": "uint256"
        }
      ],
      "name": "ownerOf",
      "outputs": [
        {
          "internalType": "address",
          "name": "",
          "type": "address"
        }
      ],
      "stateMutability": "view",
      "type": "function",
      "constant": true
    },
    {
      "inputs": [],
      "name": "paused",
      "outputs": [
        {
          "internalType": "bool",
          "name": "",
          "type": "bool"
        }
      ],
      "stateMutability": "view",
      "type": "function",
      "constant": true
    },
    {
      "inputs": [
        {
          "internalType": "bytes32",
          "name": "role",
          "type": "bytes32"
        },
        {
          "internalType": "address",
          "name": "account",
          "type": "address"
        }
      ],
      "name": "renounceRole",
      "outputs": [],
      "stateMutability": "nonpayable",
      "type": "function"
    },
    {
      "inputs": [
        {
          "internalType": "bytes32",
          "name": "role",
          "type": "bytes32"
        },
        {
          "internalType": "address",
          "name": "account",
          "type": "address"
        }
      ],
      "name": "revokeRole",
      "outputs": [],
      "stateMutability": "nonpayable",
      "type": "function"
    },
    {
      "inputs": [
        {
          "internalType": "address",
          "name": "from",
          "type": "address"
        },
        {
          "internalType": "address",
          "name": "to",
          "type": "address"
        },
        {
          "internalType": "uint256",
          "name": "tokenId",
          "type": "uint256"
        }
      ],
      "name": "safeTransferFrom",
      "outputs": [],
      "stateMutability": "nonpayable",
      "type": "function"
    },
    {
      "inputs": [
        {
          "internalType": "address",
          "name": "from",
          "type": "address"
        },
        {
          "internalType": "address",
          "name": "to",
          "type": "address"
        },
        {
          "internalType": "uint256",
          "name": "tokenId",
          "type": "uint256"
        },
        {
          "internalType": "bytes",
          "name": "_data",
          "type": "bytes"
        }
      ],
      "name": "safeTransferFrom",
      "outputs": [],
      "stateMutability": "nonpayable",
      "type": "function"
    },
    {
      "inputs": [
        {
          "internalType": "address",
          "name": "operator",
          "type": "address"
        },
        {
          "internalType": "bool",
          "name": "approved",
          "type": "bool"
        }
      ],
      "name": "setApprovalForAll",
      "outputs": [],
      "stateMutability": "nonpayable",
      "type": "function"
    },
    {
      "inputs": [],
      "name": "symbol",
      "outputs": [
        {
          "internalType": "string",
          "name": "",
          "type": "string"
        }
      ],
      "stateMutability": "view",
      "type": "function",
      "constant": true
    },
    {
      "inputs": [
        {
          "internalType": "uint256",
          "name": "index",
          "type": "uint256"
        }
      ],
      "name": "tokenByIndex",
      "outputs": [
        {
          "internalType": "uint256",
          "name": "",
          "type": "uint256"
        }
      ],
      "stateMutability": "view",
      "type": "function",
      "constant": true
    },
    {
      "inputs": [
        {
          "internalType": "address",
          "name": "owner",
          "type": "address"
        },
        {
          "internalType": "uint256",
          "name": "index",
          "type": "uint256"
        }
      ],
      "name": "tokenOfOwnerByIndex",
      "outputs": [
        {
          "internalType": "uint256",
          "name": "",
          "type": "uint256"
        }
      ],
      "stateMutability": "view",
      "type": "function",
      "constant": true
    },
    {
      "inputs": [],
      "name": "totalSupply",
      "outputs": [
        {
          "internalType": "uint256",
          "name": "",
          "type": "uint256"
        }
      ],
      "stateMutability": "view",
      "type": "function",
      "constant": true
    },
    {
      "inputs": [
        {
          "internalType": "address",
          "name": "from",
          "type": "address"
        },
        {
          "internalType": "address",
          "name": "to",
          "type": "address"
        },
        {
          "internalType": "uint256",
          "name": "tokenId",
          "type": "uint256"
        }
      ],
      "name": "transferFrom",
      "outputs": [],
      "stateMutability": "nonpayable",
      "type": "function"
    },
    {
      "inputs": [
        {
          "internalType": "uint256",
          "name": "tokenId",
          "type": "uint256"
        }
      ],
      "name": "tokenURI",
      "outputs": [
        {
          "internalType": "string",
          "name": "",
          "type": "string"
        }
      ],
      "stateMutability": "view",
      "type": "function",
      "constant": true
    },
    {
      "inputs": [
        {
          "internalType": "address",
          "name": "to",
          "type": "address"
        },
        {
          "internalType": "uint256",
          "name": "scepters",
          "type": "uint256"
        },
        {
          "internalType": "uint256",
          "name": "durability",
          "type": "uint256"
        }
      ],
      "name": "mint",
      "outputs": [
        {
          "components": [
            {
              "internalType": "uint256",
              "name": "id",
              "type": "uint256"
            },
            {
              "internalType": "uint256",
              "name": "creationTime",
              "type": "uint256"
            },
            {
              "internalType": "uint256",
              "name": "scepters",
              "type": "uint256"
            },
            {
              "internalType": "uint256",
              "name": "durability",
              "type": "uint256"
            }
          ],
          "internalType": "struct Wizards.Wizard",
          "name": "wizard",
          "type": "tuple"
        }
      ],
      "stateMutability": "nonpayable",
      "type": "function"
    },
    {
      "inputs": [
        {
          "internalType": "uint256",
          "name": "id",
          "type": "uint256"
        },
        {
          "internalType": "uint256",
          "name": "amount",
          "type": "uint256"
        }
      ],
      "name": "decreaseDurability",
      "outputs": [],
      "stateMutability": "nonpayable",
      "type": "function"
    },
    {
      "inputs": [
        {
          "internalType": "uint256",
          "name": "id",
          "type": "uint256"
        }
      ],
      "name": "getToken",
      "outputs": [
        {
          "components": [
            {
              "internalType": "uint256",
              "name": "id",
              "type": "uint256"
            },
            {
              "internalType": "uint256",
              "name": "creationTime",
              "type": "uint256"
            },
            {
              "internalType": "uint256",
              "name": "scepters",
              "type": "uint256"
            },
            {
              "internalType": "uint256",
              "name": "durability",
              "type": "uint256"
            }
          ],
          "internalType": "struct Wizards.Wizard",
          "name": "wizard",
          "type": "tuple"
        }
      ],
      "stateMutability": "view",
      "type": "function",
      "constant": true
    },
    {
      "inputs": [],
      "name": "pause",
      "outputs": [],
      "stateMutability": "nonpayable",
      "type": "function"
    },
    {
      "inputs": [],
      "name": "unpause",
      "outputs": [],
      "stateMutability": "nonpayable",
      "type": "function"
    },
    {
      "inputs": [
        {
          "internalType": "bytes4",
          "name": "interfaceId",
          "type": "bytes4"
        }
      ],
      "name": "supportsInterface",
      "outputs": [
        {
          "internalType": "bool",
          "name": "",
          "type": "bool"
        }
      ],
      "stateMutability": "view",
      "type": "function",
      "constant": true
    }
  ],
  "bytecode": "0x60806040523480156200001157600080fd5b50604051620052ba380380620052ba833981810160405281019062000037919062000633565b8282816002908051906020019062000051929190620003e6565b5080600390805190602001906200006a929190620003e6565b5050506000600c60006101000a81548160ff02191690831515021790555080600e9080519060200190620000a0929190620003e6565b50620000c56000801b620000b96200015060201b60201c565b6200015860201b60201c565b620001067f9f2df0fed2c77648de5860a4cc508cd0818c85b8b8a1ab4ceeef8d981c8956a6620000fa6200015060201b60201c565b6200015860201b60201c565b620001477f65d7a28e3265b37a6474929f336521b332c1681b933f6cb9f3376673440d862a6200013b6200015060201b60201c565b6200015860201b60201c565b50505062000751565b600033905090565b6200016f8282620001a060201b620015071760201c565b6200019b8160016000858152602001908152602001600020620001b660201b620015151790919060201c565b505050565b620001b28282620001ee60201b60201c565b5050565b6000620001e6836000018373ffffffffffffffffffffffffffffffffffffffff1660001b620002df60201b60201c565b905092915050565b6200020082826200035960201b60201c565b620002db57600160008084815260200190815260200160002060000160008373ffffffffffffffffffffffffffffffffffffffff1673ffffffffffffffffffffffffffffffffffffffff16815260200190815260200160002060006101000a81548160ff021916908315150217905550620002806200015060201b60201c565b73ffffffffffffffffffffffffffffffffffffffff168173ffffffffffffffffffffffffffffffffffffffff16837f2f8788117e7eff1d82e926ec794901d17c78024a50270940304540a733656f0d60405160405180910390a45b5050565b6000620002f38383620003c360201b60201c565b6200034e57826000018290806001815401808255809150506001900390600052602060002001600090919091909150558260000180549050836001016000848152602001908152602001600020819055506001905062000353565b600090505b92915050565b600080600084815260200190815260200160002060000160008373ffffffffffffffffffffffffffffffffffffffff1673ffffffffffffffffffffffffffffffffffffffff16815260200190815260200160002060009054906101000a900460ff16905092915050565b600080836001016000848152602001908152602001600020541415905092915050565b828054620003f4906200071b565b90600052602060002090601f01602090048101928262000418576000855562000464565b82601f106200043357805160ff191683800117855562000464565b8280016001018555821562000464579182015b828111156200046357825182559160200191906001019062000446565b5b50905062000473919062000477565b5090565b5b808211156200049257600081600090555060010162000478565b5090565b6000604051905090565b600080fd5b600080fd5b600080fd5b600080fd5b6000601f19601f8301169050919050565b7f4e487b7100000000000000000000000000000000000000000000000000000000600052604160045260246000fd5b620004ff82620004b4565b810181811067ffffffffffffffff82111715620005215762000520620004c5565b5b80604052505050565b60006200053662000496565b9050620005448282620004f4565b919050565b600067ffffffffffffffff821115620005675762000566620004c5565b5b6200057282620004b4565b9050602081019050919050565b60005b838110156200059f57808201518184015260208101905062000582565b83811115620005af576000848401525b50505050565b6000620005cc620005c68462000549565b6200052a565b905082815260208101848484011115620005eb57620005ea620004af565b5b620005f88482856200057f565b509392505050565b600082601f830112620006185762000617620004aa565b5b81516200062a848260208601620005b5565b91505092915050565b6000806000606084860312156200064f576200064e620004a0565b5b600084015167ffffffffffffffff81111562000670576200066f620004a5565b5b6200067e8682870162000600565b935050602084015167ffffffffffffffff811115620006a257620006a1620004a5565b5b620006b08682870162000600565b925050604084015167ffffffffffffffff811115620006d457620006d3620004a5565b5b620006e28682870162000600565b9150509250925092565b7f4e487b7100000000000000000000000000000000000000000000000000000000600052602260045260246000fd5b600060028204905060018216806200073457607f821691505b602082108114156200074b576200074a620006ec565b5b50919050565b614b5980620007616000396000f3fe608060405234801561001057600080fd5b50600436106101fb5760003560e01c80636352211e1161011a578063a22cb465116100ad578063d53913931161007c578063d5391393146105e6578063d547741f14610604578063e4b50cb814610620578063e63ab1e914610650578063e985e9c51461066e576101fb565b8063a22cb4651461054e578063b88d4fde1461056a578063c87b56dd14610586578063ca15c873146105b6576101fb565b806390549e54116100e957806390549e54146104c657806391d14854146104e257806395d89b4114610512578063a217fddf14610530576101fb565b80636352211e1461042c57806370a082311461045c5780638456cb591461048c5780639010d07c14610496576101fb565b80632f2ff15d1161019257806342842e0e1161016157806342842e0e146103a657806342966c68146103c25780634f6ccce7146103de5780635c975abb1461040e576101fb565b80632f2ff15d146103345780632f745c591461035057806336568abe146103805780633f4ba83a1461039c576101fb565b8063156e29f6116101ce578063156e29f61461029a57806318160ddd146102ca57806323b872dd146102e8578063248a9ca314610304576101fb565b806301ffc9a71461020057806306fdde0314610230578063081812fc1461024e578063095ea7b31461027e575b600080fd5b61021a60048036038101906102159190613164565b61069e565b60405161022791906131ac565b60405180910390f35b6102386106b0565b6040516102459190613260565b60405180910390f35b610268600480360381019061026391906132b8565b610742565b6040516102759190613326565b60405180910390f35b6102986004803603810190610293919061336d565b6107c7565b005b6102b460048036038101906102af91906133ad565b6108df565b6040516102c19190613464565b60405180910390f35b6102d26109f5565b6040516102df919061348e565b60405180910390f35b61030260048036038101906102fd91906134a9565b610a02565b005b61031e60048036038101906103199190613532565b610a62565b60405161032b919061356e565b60405180910390f35b61034e60048036038101906103499190613589565b610a81565b005b61036a6004803603810190610365919061336d565b610ab5565b604051610377919061348e565b60405180910390f35b61039a60048036038101906103959190613589565b610b5a565b005b6103a4610b8e565b005b6103c060048036038101906103bb91906134a9565b610c08565b005b6103dc60048036038101906103d791906132b8565b610c28565b005b6103f860048036038101906103f391906132b8565b610c84565b604051610405919061348e565b60405180910390f35b610416610cf5565b60405161042391906131ac565b60405180910390f35b610446600480360381019061044191906132b8565b610d0c565b6040516104539190613326565b60405180910390f35b610476600480360381019061047191906135c9565b610dbe565b604051610483919061348e565b60405180910390f35b610494610e76565b005b6104b060048036038101906104ab91906135f6565b610ef0565b6040516104bd9190613326565b60405180910390f35b6104e060048036038101906104db9190613636565b610f1f565b005b6104fc60048036038101906104f79190613589565b610fcf565b60405161050991906131ac565b60405180910390f35b61051a611039565b6040516105279190613260565b60405180910390f35b6105386110cb565b604051610545919061356e565b60405180910390f35b610568600480360381019061056391906136a2565b6110d2565b005b610584600480360381019061057f9190613817565b611253565b005b6105a0600480360381019061059b91906132b8565b6112b5565b6040516105ad9190613260565b60405180910390f35b6105d060048036038101906105cb9190613532565b61137e565b6040516105dd919061348e565b60405180910390f35b6105ee6113a2565b6040516105fb919061356e565b60405180910390f35b61061e60048036038101906106199190613589565b6113c6565b005b61063a600480360381019061063591906132b8565b6113fa565b6040516106479190613464565b60405180910390f35b61065861144f565b604051610665919061356e565b60405180910390f35b6106886004803603810190610683919061389a565b611473565b60405161069591906131ac565b60405180910390f35b60006106a982611545565b9050919050565b6060600280546106bf90613909565b80601f01602080910402602001604051908101604052809291908181526020018280546106eb90613909565b80156107385780601f1061070d57610100808354040283529160200191610738565b820191906000526020600020905b81548152906001019060200180831161071b57829003601f168201915b5050505050905090565b600061074d826115bf565b61078c576040517f08c379a0000000000000000000000000000000000000000000000000000000008152600401610783906139ad565b60405180910390fd5b6006600083815260200190815260200160002060009054906101000a900473ffffffffffffffffffffffffffffffffffffffff169050919050565b60006107d282610d0c565b90508073ffffffffffffffffffffffffffffffffffffffff168373ffffffffffffffffffffffffffffffffffffffff161415610843576040517f08c379a000000000000000000000000000000000000000000000000000000000815260040161083a90613a3f565b60405180910390fd5b8073ffffffffffffffffffffffffffffffffffffffff1661086261162b565b73ffffffffffffffffffffffffffffffffffffffff16148061089157506108908161088b61162b565b611473565b5b6108d0576040517f08c379a00000000000000000000000000000000000000000000000000000000081526004016108c790613ad1565b60405180910390fd5b6108da8383611633565b505050565b6108e76130d0565b6109187f9f2df0fed2c77648de5860a4cc508cd0818c85b8b8a1ab4ceeef8d981c8956a661091361162b565b610fcf565b610957576040517f08c379a000000000000000000000000000000000000000000000000000000000815260040161094e90613b63565b60405180910390fd5b61096a84610965600d6116ec565b6116fa565b60006040518060800160405280610981600d6116ec565b815260200142815260200185815260200184815250905080600f60006109a7600d6116ec565b8152602001908152602001600020600082015181600001556020820151816001015560408201518160020155606082015181600301559050506109ea600d6118c8565b809150509392505050565b6000600a80549050905090565b610a13610a0d61162b565b826118de565b610a52576040517f08c379a0000000000000000000000000000000000000000000000000000000008152600401610a4990613bf5565b60405180910390fd5b610a5d8383836119bc565b505050565b6000806000838152602001908152602001600020600101549050919050565b610a8b8282611c18565b610ab0816001600085815260200190815260200160002061151590919063ffffffff16565b505050565b6000610ac083610dbe565b8210610b01576040517f08c379a0000000000000000000000000000000000000000000000000000000008152600401610af890613c87565b60405180910390fd5b600860008473ffffffffffffffffffffffffffffffffffffffff1673ffffffffffffffffffffffffffffffffffffffff168152602001908152602001600020600083815260200190815260200160002054905092915050565b610b648282611c41565b610b898160016000858152602001908152602001600020611cc490919063ffffffff16565b505050565b610bbf7f65d7a28e3265b37a6474929f336521b332c1681b933f6cb9f3376673440d862a610bba61162b565b610fcf565b610bfe576040517f08c379a0000000000000000000000000000000000000000000000000000000008152600401610bf590613d19565b60405180910390fd5b610c06611cf4565b565b610c2383838360405180602001604052806000815250611253565b505050565b610c39610c3361162b565b826118de565b610c78576040517f08c379a0000000000000000000000000000000000000000000000000000000008152600401610c6f90613dab565b60405180910390fd5b610c8181611d96565b50565b6000610c8e6109f5565b8210610ccf576040517f08c379a0000000000000000000000000000000000000000000000000000000008152600401610cc690613e3d565b60405180910390fd5b600a8281548110610ce357610ce2613e5d565b5b90600052602060002001549050919050565b6000600c60009054906101000a900460ff16905090565b6000806004600084815260200190815260200160002060009054906101000a900473ffffffffffffffffffffffffffffffffffffffff169050600073ffffffffffffffffffffffffffffffffffffffff168173ffffffffffffffffffffffffffffffffffffffff161415610db5576040517f08c379a0000000000000000000000000000000000000000000000000000000008152600401610dac90613efe565b60405180910390fd5b80915050919050565b60008073ffffffffffffffffffffffffffffffffffffffff168273ffffffffffffffffffffffffffffffffffffffff161415610e2f576040517f08c379a0000000000000000000000000000000000000000000000000000000008152600401610e2690613f90565b60405180910390fd5b600560008373ffffffffffffffffffffffffffffffffffffffff1673ffffffffffffffffffffffffffffffffffffffff168152602001908152602001600020549050919050565b610ea77f65d7a28e3265b37a6474929f336521b332c1681b933f6cb9f3376673440d862a610ea261162b565b610fcf565b610ee6576040517f08c379a0000000000000000000000000000000000000000000000000000000008152600401610edd90614022565b60405180910390fd5b610eee611ea7565b565b6000610f178260016000868152602001908152602001600020611f4a90919063ffffffff16565b905092915050565b610f507f9f2df0fed2c77648de5860a4cc508cd0818c85b8b8a1ab4ceeef8d981c8956a6610f4b61162b565b610fcf565b610f8f576040517f08c379a0000000000000000000000000000000000000000000000000000000008152600401610f8690613b63565b60405180910390fd5b80600f600084815260200190815260200160002060030154610fb19190614071565b600f6000848152602001908152602001600020600301819055505050565b600080600084815260200190815260200160002060000160008373ffffffffffffffffffffffffffffffffffffffff1673ffffffffffffffffffffffffffffffffffffffff16815260200190815260200160002060009054906101000a900460ff16905092915050565b60606003805461104890613909565b80601f016020809104026020016040519081016040528092919081815260200182805461107490613909565b80156110c15780601f10611096576101008083540402835291602001916110c1565b820191906000526020600020905b8154815290600101906020018083116110a457829003601f168201915b5050505050905090565b6000801b81565b6110da61162b565b73ffffffffffffffffffffffffffffffffffffffff168273ffffffffffffffffffffffffffffffffffffffff161415611148576040517f08c379a000000000000000000000000000000000000000000000000000000000815260040161113f906140f1565b60405180910390fd5b806007600061115561162b565b73ffffffffffffffffffffffffffffffffffffffff1673ffffffffffffffffffffffffffffffffffffffff16815260200190815260200160002060008473ffffffffffffffffffffffffffffffffffffffff1673ffffffffffffffffffffffffffffffffffffffff16815260200190815260200160002060006101000a81548160ff0219169083151502179055508173ffffffffffffffffffffffffffffffffffffffff1661120261162b565b73ffffffffffffffffffffffffffffffffffffffff167f17307eab39ab6107e8899845ad3d59bd9653f200f220920489ca2b5937696c318360405161124791906131ac565b60405180910390a35050565b61126461125e61162b565b836118de565b6112a3576040517f08c379a000000000000000000000000000000000000000000000000000000000815260040161129a90613bf5565b60405180910390fd5b6112af84848484611f64565b50505050565b60606112c0826115bf565b6112ff576040517f08c379a00000000000000000000000000000000000000000000000000000000081526004016112f690614183565b60405180910390fd5b6000611309611fc0565b905060008151116113295760405180602001604052806000815250611376565b806113556001600f6000878152602001908152602001600020600201546113509190614071565b612052565b6040516020016113669291906141df565b6040516020818303038152906040525b915050919050565b600061139b600160008481526020019081526020016000206121b3565b9050919050565b7f9f2df0fed2c77648de5860a4cc508cd0818c85b8b8a1ab4ceeef8d981c8956a681565b6113d082826121c8565b6113f58160016000858152602001908152602001600020611cc490919063ffffffff16565b505050565b6114026130d0565b600f60008381526020019081526020016000206040518060800160405290816000820154815260200160018201548152602001600282015481526020016003820154815250509050919050565b7f65d7a28e3265b37a6474929f336521b332c1681b933f6cb9f3376673440d862a81565b6000600760008473ffffffffffffffffffffffffffffffffffffffff1673ffffffffffffffffffffffffffffffffffffffff16815260200190815260200160002060008373ffffffffffffffffffffffffffffffffffffffff1673ffffffffffffffffffffffffffffffffffffffff16815260200190815260200160002060009054906101000a900460ff16905092915050565b61151182826121f1565b5050565b600061153d836000018373ffffffffffffffffffffffffffffffffffffffff1660001b6122d1565b905092915050565b60007f780e9d63000000000000000000000000000000000000000000000000000000007bffffffffffffffffffffffffffffffffffffffffffffffffffffffff1916827bffffffffffffffffffffffffffffffffffffffffffffffffffffffff191614806115b857506115b782612341565b5b9050919050565b60008073ffffffffffffffffffffffffffffffffffffffff166004600084815260200190815260200160002060009054906101000a900473ffffffffffffffffffffffffffffffffffffffff1673ffffffffffffffffffffffffffffffffffffffff1614159050919050565b600033905090565b816006600083815260200190815260200160002060006101000a81548173ffffffffffffffffffffffffffffffffffffffff021916908373ffffffffffffffffffffffffffffffffffffffff160217905550808273ffffffffffffffffffffffffffffffffffffffff166116a683610d0c565b73ffffffffffffffffffffffffffffffffffffffff167f8c5be1e5ebec7d5bd14f71427d1e84f3dd0314c0f7b2291e5b200ac8c7c3b92560405160405180910390a45050565b600081600001549050919050565b600073ffffffffffffffffffffffffffffffffffffffff168273ffffffffffffffffffffffffffffffffffffffff16141561176a576040517f08c379a00000000000000000000000000000000000000000000000000000000081526004016117619061424f565b60405180910390fd5b611773816115bf565b156117b3576040517f08c379a00000000000000000000000000000000000000000000000000000000081526004016117aa906142bb565b60405180910390fd5b6117bf60008383612423565b6001600560008473ffffffffffffffffffffffffffffffffffffffff1673ffffffffffffffffffffffffffffffffffffffff168152602001908152602001600020600082825461180f91906142db565b92505081905550816004600083815260200190815260200160002060006101000a81548173ffffffffffffffffffffffffffffffffffffffff021916908373ffffffffffffffffffffffffffffffffffffffff160217905550808273ffffffffffffffffffffffffffffffffffffffff16600073ffffffffffffffffffffffffffffffffffffffff167fddf252ad1be2c89b69c2b068fc378daa952ba7f163c4a11628f55a4df523b3ef60405160405180910390a45050565b6001816000016000828254019250508190555050565b60006118e9826115bf565b611928576040517f08c379a000000000000000000000000000000000000000000000000000000000815260040161191f906143a3565b60405180910390fd5b600061193383610d0c565b90508073ffffffffffffffffffffffffffffffffffffffff168473ffffffffffffffffffffffffffffffffffffffff1614806119a257508373ffffffffffffffffffffffffffffffffffffffff1661198a84610742565b73ffffffffffffffffffffffffffffffffffffffff16145b806119b357506119b28185611473565b5b91505092915050565b8273ffffffffffffffffffffffffffffffffffffffff166119dc82610d0c565b73ffffffffffffffffffffffffffffffffffffffff1614611a32576040517f08c379a0000000000000000000000000000000000000000000000000000000008152600401611a2990614435565b60405180910390fd5b600073ffffffffffffffffffffffffffffffffffffffff168273ffffffffffffffffffffffffffffffffffffffff161415611aa2576040517f08c379a0000000000000000000000000000000000000000000000000000000008152600401611a99906144c7565b60405180910390fd5b611aad838383612423565b611ab8600082611633565b6001600560008573ffffffffffffffffffffffffffffffffffffffff1673ffffffffffffffffffffffffffffffffffffffff1681526020019081526020016000206000828254611b089190614071565b925050819055506001600560008473ffffffffffffffffffffffffffffffffffffffff1673ffffffffffffffffffffffffffffffffffffffff1681526020019081526020016000206000828254611b5f91906142db565b92505081905550816004600083815260200190815260200160002060006101000a81548173ffffffffffffffffffffffffffffffffffffffff021916908373ffffffffffffffffffffffffffffffffffffffff160217905550808273ffffffffffffffffffffffffffffffffffffffff168473ffffffffffffffffffffffffffffffffffffffff167fddf252ad1be2c89b69c2b068fc378daa952ba7f163c4a11628f55a4df523b3ef60405160405180910390a4505050565b611c2182610a62565b611c3281611c2d61162b565b612433565b611c3c83836121f1565b505050565b611c4961162b565b73ffffffffffffffffffffffffffffffffffffffff168173ffffffffffffffffffffffffffffffffffffffff1614611cb6576040517f08c379a0000000000000000000000000000000000000000000000000000000008152600401611cad90614559565b60405180910390fd5b611cc082826124d0565b5050565b6000611cec836000018373ffffffffffffffffffffffffffffffffffffffff1660001b6125b1565b905092915050565b611cfc610cf5565b611d3b576040517f08c379a0000000000000000000000000000000000000000000000000000000008152600401611d32906145c5565b60405180910390fd5b6000600c60006101000a81548160ff0219169083151502179055507f5db9ee0a495bf2e6ff9c91a7834c1ba4fdd244a5e8aa4e537bd38aeae4b073aa611d7f61162b565b604051611d8c9190613326565b60405180910390a1565b6000611da182610d0c565b9050611daf81600084612423565b611dba600083611633565b6001600560008373ffffffffffffffffffffffffffffffffffffffff1673ffffffffffffffffffffffffffffffffffffffff1681526020019081526020016000206000828254611e0a9190614071565b925050819055506004600083815260200190815260200160002060006101000a81549073ffffffffffffffffffffffffffffffffffffffff021916905581600073ffffffffffffffffffffffffffffffffffffffff168273ffffffffffffffffffffffffffffffffffffffff167fddf252ad1be2c89b69c2b068fc378daa952ba7f163c4a11628f55a4df523b3ef60405160405180910390a45050565b611eaf610cf5565b15611eef576040517f08c379a0000000000000000000000000000000000000000000000000000000008152600401611ee690614631565b60405180910390fd5b6001600c60006101000a81548160ff0219169083151502179055507f62e78cea01bee320cd4e420270b5ea74000d11b0c9f74754ebdbfc544b05a258611f3361162b565b604051611f409190613326565b60405180910390a1565b6000611f5983600001836126c5565b60001c905092915050565b611f6f8484846119bc565b611f7b848484846126f0565b611fba576040517f08c379a0000000000000000000000000000000000000000000000000000000008152600401611fb1906146c3565b60405180910390fd5b50505050565b6060600e8054611fcf90613909565b80601f0160208091040260200160405190810160405280929190818152602001828054611ffb90613909565b80156120485780601f1061201d57610100808354040283529160200191612048565b820191906000526020600020905b81548152906001019060200180831161202b57829003601f168201915b5050505050905090565b6060600082141561209a576040518060400160405280600181526020017f300000000000000000000000000000000000000000000000000000000000000081525090506121ae565b600082905060005b600082146120cc5780806120b5906146e3565b915050600a826120c5919061475b565b91506120a2565b60008167ffffffffffffffff8111156120e8576120e76136ec565b5b6040519080825280601f01601f19166020018201604052801561211a5781602001600182028036833780820191505090505b5090505b600085146121a7576001826121339190614071565b9150600a85612142919061478c565b603061214e91906142db565b60f81b81838151811061216457612163613e5d565b5b60200101907effffffffffffffffffffffffffffffffffffffffffffffffffffffffffffff1916908160001a905350600a856121a0919061475b565b945061211e565b8093505050505b919050565b60006121c182600001612878565b9050919050565b6121d182610a62565b6121e2816121dd61162b565b612433565b6121ec83836124d0565b505050565b6121fb8282610fcf565b6122cd57600160008084815260200190815260200160002060000160008373ffffffffffffffffffffffffffffffffffffffff1673ffffffffffffffffffffffffffffffffffffffff16815260200190815260200160002060006101000a81548160ff02191690831515021790555061227261162b565b73ffffffffffffffffffffffffffffffffffffffff168173ffffffffffffffffffffffffffffffffffffffff16837f2f8788117e7eff1d82e926ec794901d17c78024a50270940304540a733656f0d60405160405180910390a45b5050565b60006122dd8383612889565b61233657826000018290806001815401808255809150506001900390600052602060002001600090919091909150558260000180549050836001016000848152602001908152602001600020819055506001905061233b565b600090505b92915050565b60007f80ac58cd000000000000000000000000000000000000000000000000000000007bffffffffffffffffffffffffffffffffffffffffffffffffffffffff1916827bffffffffffffffffffffffffffffffffffffffffffffffffffffffff1916148061240c57507f5b5e139f000000000000000000000000000000000000000000000000000000007bffffffffffffffffffffffffffffffffffffffffffffffffffffffff1916827bffffffffffffffffffffffffffffffffffffffffffffffffffffffff1916145b8061241c575061241b826128ac565b5b9050919050565b61242e838383612926565b505050565b61243d8282610fcf565b6124cc576124628173ffffffffffffffffffffffffffffffffffffffff16601461297e565b6124708360001c602061297e565b604051602001612481929190614855565b6040516020818303038152906040526040517f08c379a00000000000000000000000000000000000000000000000000000000081526004016124c39190613260565b60405180910390fd5b5050565b6124da8282610fcf565b156125ad57600080600084815260200190815260200160002060000160008373ffffffffffffffffffffffffffffffffffffffff1673ffffffffffffffffffffffffffffffffffffffff16815260200190815260200160002060006101000a81548160ff02191690831515021790555061255261162b565b73ffffffffffffffffffffffffffffffffffffffff168173ffffffffffffffffffffffffffffffffffffffff16837ff6391f5c32d9c69d2a47ea670b442974b53935d1edc7fd64eb21e047a839171b60405160405180910390a45b5050565b600080836001016000848152602001908152602001600020549050600081146126b95760006001826125e39190614071565b90506000600186600001805490506125fb9190614071565b905081811461266a57600086600001828154811061261c5761261b613e5d565b5b90600052602060002001549050808760000184815481106126405761263f613e5d565b5b90600052602060002001819055508387600101600083815260200190815260200160002081905550505b8560000180548061267e5761267d61488f565b5b6001900381819060005260206000200160009055905585600101600086815260200190815260200160002060009055600193505050506126bf565b60009150505b92915050565b60008260000182815481106126dd576126dc613e5d565b5b9060005260206000200154905092915050565b60006127118473ffffffffffffffffffffffffffffffffffffffff16612bba565b1561286b578373ffffffffffffffffffffffffffffffffffffffff1663150b7a0261273a61162b565b8786866040518563ffffffff1660e01b815260040161275c9493929190614913565b6020604051808303816000875af192505050801561279857506040513d601f19601f820116820180604052508101906127959190614974565b60015b61281b573d80600081146127c8576040519150601f19603f3d011682016040523d82523d6000602084013e6127cd565b606091505b50600081511415612813576040517f08c379a000000000000000000000000000000000000000000000000000000000815260040161280a906146c3565b60405180910390fd5b805181602001fd5b63150b7a0260e01b7bffffffffffffffffffffffffffffffffffffffffffffffffffffffff1916817bffffffffffffffffffffffffffffffffffffffffffffffffffffffff191614915050612870565b600190505b949350505050565b600081600001805490509050919050565b600080836001016000848152602001908152602001600020541415905092915050565b60007f5a05180f000000000000000000000000000000000000000000000000000000007bffffffffffffffffffffffffffffffffffffffffffffffffffffffff1916827bffffffffffffffffffffffffffffffffffffffffffffffffffffffff1916148061291f575061291e82612bcd565b5b9050919050565b612931838383612c47565b612939610cf5565b15612979576040517f08c379a000000000000000000000000000000000000000000000000000000000815260040161297090614a13565b60405180910390fd5b505050565b6060600060028360026129919190614a33565b61299b91906142db565b67ffffffffffffffff8111156129b4576129b36136ec565b5b6040519080825280601f01601f1916602001820160405280156129e65781602001600182028036833780820191505090505b5090507f300000000000000000000000000000000000000000000000000000000000000081600081518110612a1e57612a1d613e5d565b5b60200101907effffffffffffffffffffffffffffffffffffffffffffffffffffffffffffff1916908160001a9053507f780000000000000000000000000000000000000000000000000000000000000081600181518110612a8257612a81613e5d565b5b60200101907effffffffffffffffffffffffffffffffffffffffffffffffffffffffffffff1916908160001a90535060006001846002612ac29190614a33565b612acc91906142db565b90505b6001811115612b6c577f3031323334353637383961626364656600000000000000000000000000000000600f861660108110612b0e57612b0d613e5d565b5b1a60f81b828281518110612b2557612b24613e5d565b5b60200101907effffffffffffffffffffffffffffffffffffffffffffffffffffffffffffff1916908160001a905350600485901c945080612b6590614a8d565b9050612acf565b5060008414612bb0576040517f08c379a0000000000000000000000000000000000000000000000000000000008152600401612ba790614b03565b60405180910390fd5b8091505092915050565b600080823b905060008111915050919050565b60007f7965db0b000000000000000000000000000000000000000000000000000000007bffffffffffffffffffffffffffffffffffffffffffffffffffffffff1916827bffffffffffffffffffffffffffffffffffffffffffffffffffffffff19161480612c405750612c3f82612d5b565b5b9050919050565b612c52838383612dc5565b600073ffffffffffffffffffffffffffffffffffffffff168373ffffffffffffffffffffffffffffffffffffffff161415612c9557612c9081612dca565b612cd4565b8173ffffffffffffffffffffffffffffffffffffffff168373ffffffffffffffffffffffffffffffffffffffff1614612cd357612cd28382612e13565b5b5b600073ffffffffffffffffffffffffffffffffffffffff168273ffffffffffffffffffffffffffffffffffffffff161415612d1757612d1281612f80565b612d56565b8273ffffffffffffffffffffffffffffffffffffffff168273ffffffffffffffffffffffffffffffffffffffff1614612d5557612d548282613051565b5b5b505050565b60007f01ffc9a7000000000000000000000000000000000000000000000000000000007bffffffffffffffffffffffffffffffffffffffffffffffffffffffff1916827bffffffffffffffffffffffffffffffffffffffffffffffffffffffff1916149050919050565b505050565b600a80549050600b600083815260200190815260200160002081905550600a81908060018154018082558091505060019003906000526020600020016000909190919091505550565b60006001612e2084610dbe565b612e2a9190614071565b9050600060096000848152602001908152602001600020549050818114612f0f576000600860008673ffffffffffffffffffffffffffffffffffffffff1673ffffffffffffffffffffffffffffffffffffffff168152602001908152602001600020600084815260200190815260200160002054905080600860008773ffffffffffffffffffffffffffffffffffffffff1673ffffffffffffffffffffffffffffffffffffffff168152602001908152602001600020600084815260200190815260200160002081905550816009600083815260200190815260200160002081905550505b6009600084815260200190815260200160002060009055600860008573ffffffffffffffffffffffffffffffffffffffff1673ffffffffffffffffffffffffffffffffffffffff16815260200190815260200160002060008381526020019081526020016000206000905550505050565b60006001600a80549050612f949190614071565b90506000600b60008481526020019081526020016000205490506000600a8381548110612fc457612fc3613e5d565b5b9060005260206000200154905080600a8381548110612fe657612fe5613e5d565b5b906000526020600020018190555081600b600083815260200190815260200160002081905550600b600085815260200190815260200160002060009055600a8054806130355761303461488f565b5b6001900381819060005260206000200160009055905550505050565b600061305c83610dbe565b905081600860008573ffffffffffffffffffffffffffffffffffffffff1673ffffffffffffffffffffffffffffffffffffffff168152602001908152602001600020600083815260200190815260200160002081905550806009600084815260200190815260200160002081905550505050565b6040518060800160405280600081526020016000815260200160008152602001600081525090565b6000604051905090565b600080fd5b600080fd5b60007fffffffff0000000000000000000000000000000000000000000000000000000082169050919050565b6131418161310c565b811461314c57600080fd5b50565b60008135905061315e81613138565b92915050565b60006020828403121561317a57613179613102565b5b60006131888482850161314f565b91505092915050565b60008115159050919050565b6131a681613191565b82525050565b60006020820190506131c1600083018461319d565b92915050565b600081519050919050565b600082825260208201905092915050565b60005b838110156132015780820151818401526020810190506131e6565b83811115613210576000848401525b50505050565b6000601f19601f8301169050919050565b6000613232826131c7565b61323c81856131d2565b935061324c8185602086016131e3565b61325581613216565b840191505092915050565b6000602082019050818103600083015261327a8184613227565b905092915050565b6000819050919050565b61329581613282565b81146132a057600080fd5b50565b6000813590506132b28161328c565b92915050565b6000602082840312156132ce576132cd613102565b5b60006132dc848285016132a3565b91505092915050565b600073ffffffffffffffffffffffffffffffffffffffff82169050919050565b6000613310826132e5565b9050919050565b61332081613305565b82525050565b600060208201905061333b6000830184613317565b92915050565b61334a81613305565b811461335557600080fd5b50565b60008135905061336781613341565b92915050565b6000806040838503121561338457613383613102565b5b600061339285828601613358565b92505060206133a3858286016132a3565b9150509250929050565b6000806000606084860312156133c6576133c5613102565b5b60006133d486828701613358565b93505060206133e5868287016132a3565b92505060406133f6868287016132a3565b9150509250925092565b61340981613282565b82525050565b6080820160008201516134256000850182613400565b5060208201516134386020850182613400565b50604082015161344b6040850182613400565b50606082015161345e6060850182613400565b50505050565b6000608082019050613479600083018461340f565b92915050565b61348881613282565b82525050565b60006020820190506134a3600083018461347f565b92915050565b6000806000606084860312156134c2576134c1613102565b5b60006134d086828701613358565b93505060206134e186828701613358565b92505060406134f2868287016132a3565b9150509250925092565b6000819050919050565b61350f816134fc565b811461351a57600080fd5b50565b60008135905061352c81613506565b92915050565b60006020828403121561354857613547613102565b5b60006135568482850161351d565b91505092915050565b613568816134fc565b82525050565b6000602082019050613583600083018461355f565b92915050565b600080604083850312156135a05761359f613102565b5b60006135ae8582860161351d565b92505060206135bf85828601613358565b9150509250929050565b6000602082840312156135df576135de613102565b5b60006135ed84828501613358565b91505092915050565b6000806040838503121561360d5761360c613102565b5b600061361b8582860161351d565b925050602061362c858286016132a3565b9150509250929050565b6000806040838503121561364d5761364c613102565b5b600061365b858286016132a3565b925050602061366c858286016132a3565b9150509250929050565b61367f81613191565b811461368a57600080fd5b50565b60008135905061369c81613676565b92915050565b600080604083850312156136b9576136b8613102565b5b60006136c785828601613358565b92505060206136d88582860161368d565b9150509250929050565b600080fd5b600080fd5b7f4e487b7100000000000000000000000000000000000000000000000000000000600052604160045260246000fd5b61372482613216565b810181811067ffffffffffffffff82111715613743576137426136ec565b5b80604052505050565b60006137566130f8565b9050613762828261371b565b919050565b600067ffffffffffffffff821115613782576137816136ec565b5b61378b82613216565b9050602081019050919050565b82818337600083830152505050565b60006137ba6137b584613767565b61374c565b9050828152602081018484840111156137d6576137d56136e7565b5b6137e1848285613798565b509392505050565b600082601f8301126137fe576137fd6136e2565b5b813561380e8482602086016137a7565b91505092915050565b6000806000806080858703121561383157613830613102565b5b600061383f87828801613358565b945050602061385087828801613358565b9350506040613861878288016132a3565b925050606085013567ffffffffffffffff81111561388257613881613107565b5b61388e878288016137e9565b91505092959194509250565b600080604083850312156138b1576138b0613102565b5b60006138bf85828601613358565b92505060206138d085828601613358565b9150509250929050565b7f4e487b7100000000000000000000000000000000000000000000000000000000600052602260045260246000fd5b6000600282049050600182168061392157607f821691505b60208210811415613935576139346138da565b5b50919050565b7f4552433732313a20617070726f76656420717565727920666f72206e6f6e657860008201527f697374656e7420746f6b656e0000000000000000000000000000000000000000602082015250565b6000613997602c836131d2565b91506139a28261393b565b604082019050919050565b600060208201905081810360008301526139c68161398a565b9050919050565b7f4552433732313a20617070726f76616c20746f2063757272656e74206f776e6560008201527f7200000000000000000000000000000000000000000000000000000000000000602082015250565b6000613a296021836131d2565b9150613a34826139cd565b604082019050919050565b60006020820190508181036000830152613a5881613a1c565b9050919050565b7f4552433732313a20617070726f76652063616c6c6572206973206e6f74206f7760008201527f6e6572206e6f7220617070726f76656420666f7220616c6c0000000000000000602082015250565b6000613abb6038836131d2565b9150613ac682613a5f565b604082019050919050565b60006020820190508181036000830152613aea81613aae565b9050919050565b7f4552433732315072657365744d696e7465725061757365724175746f49643a2060008201527f6d7573742068617665206d696e74657220726f6c6520746f206d696e74000000602082015250565b6000613b4d603d836131d2565b9150613b5882613af1565b604082019050919050565b60006020820190508181036000830152613b7c81613b40565b9050919050565b7f4552433732313a207472616e736665722063616c6c6572206973206e6f74206f60008201527f776e6572206e6f7220617070726f766564000000000000000000000000000000602082015250565b6000613bdf6031836131d2565b9150613bea82613b83565b604082019050919050565b60006020820190508181036000830152613c0e81613bd2565b9050919050565b7f455243373231456e756d657261626c653a206f776e657220696e646578206f7560008201527f74206f6620626f756e6473000000000000000000000000000000000000000000602082015250565b6000613c71602b836131d2565b9150613c7c82613c15565b604082019050919050565b60006020820190508181036000830152613ca081613c64565b9050919050565b7f4552433732315072657365744d696e7465725061757365724175746f49643a2060008201527f6d75737420686176652070617573657220726f6c6520746f20756e7061757365602082015250565b6000613d036040836131d2565b9150613d0e82613ca7565b604082019050919050565b60006020820190508181036000830152613d3281613cf6565b9050919050565b7f4552433732314275726e61626c653a2063616c6c6572206973206e6f74206f7760008201527f6e6572206e6f7220617070726f76656400000000000000000000000000000000602082015250565b6000613d956030836131d2565b9150613da082613d39565b604082019050919050565b60006020820190508181036000830152613dc481613d88565b9050919050565b7f455243373231456e756d657261626c653a20676c6f62616c20696e646578206f60008201527f7574206f6620626f756e64730000000000000000000000000000000000000000602082015250565b6000613e27602c836131d2565b9150613e3282613dcb565b604082019050919050565b60006020820190508181036000830152613e5681613e1a565b9050919050565b7f4e487b7100000000000000000000000000000000000000000000000000000000600052603260045260246000fd5b7f4552433732313a206f776e657220717565727920666f72206e6f6e657869737460008201527f656e7420746f6b656e0000000000000000000000000000000000000000000000602082015250565b6000613ee86029836131d2565b9150613ef382613e8c565b604082019050919050565b60006020820190508181036000830152613f1781613edb565b9050919050565b7f4552433732313a2062616c616e636520717565727920666f7220746865207a6560008201527f726f206164647265737300000000000000000000000000000000000000000000602082015250565b6000613f7a602a836131d2565b9150613f8582613f1e565b604082019050919050565b60006020820190508181036000830152613fa981613f6d565b9050919050565b7f4552433732315072657365744d696e7465725061757365724175746f49643a2060008201527f6d75737420686176652070617573657220726f6c6520746f2070617573650000602082015250565b600061400c603e836131d2565b915061401782613fb0565b604082019050919050565b6000602082019050818103600083015261403b81613fff565b9050919050565b7f4e487b7100000000000000000000000000000000000000000000000000000000600052601160045260246000fd5b600061407c82613282565b915061408783613282565b92508282101561409a57614099614042565b5b828203905092915050565b7f4552433732313a20617070726f766520746f2063616c6c657200000000000000600082015250565b60006140db6019836131d2565b91506140e6826140a5565b602082019050919050565b6000602082019050818103600083015261410a816140ce565b9050919050565b7f4552433732314d657461646174613a2055524920717565727920666f72206e6f60008201527f6e6578697374656e7420746f6b656e0000000000000000000000000000000000602082015250565b600061416d602f836131d2565b915061417882614111565b604082019050919050565b6000602082019050818103600083015261419c81614160565b9050919050565b600081905092915050565b60006141b9826131c7565b6141c381856141a3565b93506141d38185602086016131e3565b80840191505092915050565b60006141eb82856141ae565b91506141f782846141ae565b91508190509392505050565b7f4552433732313a206d696e7420746f20746865207a65726f2061646472657373600082015250565b60006142396020836131d2565b915061424482614203565b602082019050919050565b600060208201905081810360008301526142688161422c565b9050919050565b7f4552433732313a20746f6b656e20616c7265616479206d696e74656400000000600082015250565b60006142a5601c836131d2565b91506142b08261426f565b602082019050919050565b600060208201905081810360008301526142d481614298565b9050919050565b60006142e682613282565b91506142f183613282565b9250827fffffffffffffffffffffffffffffffffffffffffffffffffffffffffffffffff0382111561432657614325614042565b5b828201905092915050565b7f4552433732313a206f70657261746f7220717565727920666f72206e6f6e657860008201527f697374656e7420746f6b656e0000000000000000000000000000000000000000602082015250565b600061438d602c836131d2565b915061439882614331565b604082019050919050565b600060208201905081810360008301526143bc81614380565b9050919050565b7f4552433732313a207472616e73666572206f6620746f6b656e2074686174206960008201527f73206e6f74206f776e0000000000000000000000000000000000000000000000602082015250565b600061441f6029836131d2565b915061442a826143c3565b604082019050919050565b6000602082019050818103600083015261444e81614412565b9050919050565b7f4552433732313a207472616e7366657220746f20746865207a65726f2061646460008201527f7265737300000000000000000000000000000000000000000000000000000000602082015250565b60006144b16024836131d2565b91506144bc82614455565b604082019050919050565b600060208201905081810360008301526144e0816144a4565b9050919050565b7f416363657373436f6e74726f6c3a2063616e206f6e6c792072656e6f756e636560008201527f20726f6c657320666f722073656c660000000000000000000000000000000000602082015250565b6000614543602f836131d2565b915061454e826144e7565b604082019050919050565b6000602082019050818103600083015261457281614536565b9050919050565b7f5061757361626c653a206e6f7420706175736564000000000000000000000000600082015250565b60006145af6014836131d2565b91506145ba82614579565b602082019050919050565b600060208201905081810360008301526145de816145a2565b9050919050565b7f5061757361626c653a2070617573656400000000000000000000000000000000600082015250565b600061461b6010836131d2565b9150614626826145e5565b602082019050919050565b6000602082019050818103600083015261464a8161460e565b9050919050565b7f4552433732313a207472616e7366657220746f206e6f6e20455243373231526560008201527f63656976657220696d706c656d656e7465720000000000000000000000000000602082015250565b60006146ad6032836131d2565b91506146b882614651565b604082019050919050565b600060208201905081810360008301526146dc816146a0565b9050919050565b60006146ee82613282565b91507fffffffffffffffffffffffffffffffffffffffffffffffffffffffffffffffff82141561472157614720614042565b5b600182019050919050565b7f4e487b7100000000000000000000000000000000000000000000000000000000600052601260045260246000fd5b600061476682613282565b915061477183613282565b9250826147815761478061472c565b5b828204905092915050565b600061479782613282565b91506147a283613282565b9250826147b2576147b161472c565b5b828206905092915050565b7f416363657373436f6e74726f6c3a206163636f756e7420000000000000000000600082015250565b60006147f36017836141a3565b91506147fe826147bd565b601782019050919050565b7f206973206d697373696e6720726f6c6520000000000000000000000000000000600082015250565b600061483f6011836141a3565b915061484a82614809565b601182019050919050565b6000614860826147e6565b915061486c82856141ae565b915061487782614832565b915061488382846141ae565b91508190509392505050565b7f4e487b7100000000000000000000000000000000000000000000000000000000600052603160045260246000fd5b600081519050919050565b600082825260208201905092915050565b60006148e5826148be565b6148ef81856148c9565b93506148ff8185602086016131e3565b61490881613216565b840191505092915050565b60006080820190506149286000830187613317565b6149356020830186613317565b614942604083018561347f565b818103606083015261495481846148da565b905095945050505050565b60008151905061496e81613138565b92915050565b60006020828403121561498a57614989613102565b5b60006149988482850161495f565b91505092915050565b7f4552433732315061757361626c653a20746f6b656e207472616e73666572207760008201527f68696c6520706175736564000000000000000000000000000000000000000000602082015250565b60006149fd602b836131d2565b9150614a08826149a1565b604082019050919050565b60006020820190508181036000830152614a2c816149f0565b9050919050565b6000614a3e82613282565b9150614a4983613282565b9250817fffffffffffffffffffffffffffffffffffffffffffffffffffffffffffffffff0483118215151615614a8257614a81614042565b5b828202905092915050565b6000614a9882613282565b91506000821415614aac57614aab614042565b5b600182039050919050565b7f537472696e67733a20686578206c656e67746820696e73756666696369656e74600082015250565b6000614aed6020836131d2565b9150614af882614ab7565b602082019050919050565b60006020820190508181036000830152614b1c81614ae0565b905091905056fea2646970667358221220c9811d763db6aed1cbc2fff391d6d91fa2e08c61bad3431e1c6b95e3d548db7864736f6c634300080a0033",
  "immutableReferences": {},
  "source": "// SPDX-License-Identifier: MIT\npragma solidity ^0.8.0;\n\nimport \"@openzeppelin/contracts/utils/Strings.sol\";\nimport \"@openzeppelin/contracts/utils/Counters.sol\";\nimport \"@openzeppelin/contracts/access/AccessControlEnumerable.sol\";\nimport \"@openzeppelin/contracts/token/ERC721/extensions/IERC721Metadata.sol\";\nimport \"@openzeppelin/contracts/token/ERC721/extensions/ERC721Enumerable.sol\";\nimport \"@openzeppelin/contracts/token/ERC721/extensions/ERC721Burnable.sol\";\nimport \"@openzeppelin/contracts/token/ERC721/extensions/ERC721Pausable.sol\";\n\n/**\n * @dev {ERC721} token, including:\n *\n *  - ability for holders to burn (destroy) their tokens\n *  - a minter role that allows for token minting (creation)\n *  - a pauser role that allows to stop all token transfers\n *  - token ID and URI autogeneration\n *\n * This contract uses {AccessControl} to lock permissioned functions using the\n * different roles - head to its documentation for details.\n *\n * The account that deploys the contract will be granted the minter and pauser\n * roles, as well as the default admin role, which will let it grant both minter\n * and pauser roles to other accounts.\n */\ncontract Wizards is\n    Context,\n    AccessControlEnumerable,\n    ERC721Enumerable,\n    ERC721Burnable,\n    ERC721Pausable\n{\n    using Strings for uint256;\n    using Counters for Counters.Counter;\n\n    bytes32 public constant MINTER_ROLE = keccak256(\"MINTER_ROLE\");\n    bytes32 public constant PAUSER_ROLE = keccak256(\"PAUSER_ROLE\");\n\n    Counters.Counter private _tokenIdTracker;\n\n    string private _baseTokenURI;\n\n    struct Wizard {\n        uint256 id;\n        uint256 creationTime;\n        uint256 scepters;\n        uint256 durability;\n    }\n\n    mapping(uint256 => Wizard) wizards;\n\n    /**\n     * @dev Grants `DEFAULT_ADMIN_ROLE`, `MINTER_ROLE` and `PAUSER_ROLE` to the\n     * account that deploys the contract.\n     *\n     * Token URIs will be autogenerated based on `baseURI` and their token IDs.\n     * See {ERC721-tokenURI}.\n     */\n    constructor(\n        string memory name,\n        string memory symbol,\n        string memory baseTokenURI\n    ) ERC721(name, symbol) {\n        _baseTokenURI = baseTokenURI;\n\n        _setupRole(DEFAULT_ADMIN_ROLE, _msgSender());\n\n        _setupRole(MINTER_ROLE, _msgSender());\n        _setupRole(PAUSER_ROLE, _msgSender());\n    }\n\n    function _baseURI() internal view virtual override returns (string memory) {\n        return _baseTokenURI;\n    }\n\n\n    function tokenURI(uint256 tokenId) public view virtual override returns (string memory) {\n        require(_exists(tokenId), \"ERC721Metadata: URI query for nonexistent token\");\n\n        string memory baseURI = _baseURI();\n        return bytes(baseURI).length > 0 ? string(abi.encodePacked(baseURI, (wizards[tokenId].scepters-1).toString())) : \"\";\n    }\n\n    /**\n     * @dev Creates a new token for `to`. Its token ID will be automatically\n     * assigned (and available on the emitted {IERC721-Transfer} event), and the token\n     * URI autogenerated based on the base URI passed at construction.\n     *\n     * See {ERC721-_mint}.\n     *\n     * Requirements:\n     *\n     * - the caller must have the `MINTER_ROLE`.\n     */\n    function mint(address to, uint256 scepters, uint256 durability) public virtual returns (Wizard memory wizard) {\n        require(hasRole(MINTER_ROLE, _msgSender()), \"ERC721PresetMinterPauserAutoId: must have minter role to mint\");\n\n        // We cannot just use balanceOf to create the new tokenId because tokens\n        // can be burned (destroyed), so we need a separate counter.\n        _mint(to, _tokenIdTracker.current());\n        Wizard memory res = Wizard({\n            id: _tokenIdTracker.current(),\n            scepters: scepters,\n            durability: durability,\n            creationTime: block.timestamp\n        });\n        wizards[_tokenIdTracker.current()] = res;\n        _tokenIdTracker.increment();\n        return res;\n    }\n\n    function decreaseDurability(uint256 id, uint256 amount) public {\n        require(hasRole(MINTER_ROLE, _msgSender()), \"ERC721PresetMinterPauserAutoId: must have minter role to mint\");\n        wizards[id].durability = wizards[id].durability - amount;\n    }\n\n    function getToken(uint256 id) public view virtual returns (Wizard memory wizard) {\n        return wizards[id];\n    }\n\n    /**\n     * @dev Pauses all token transfers.\n     *\n     * See {ERC721Pausable} and {Pausable-_pause}.\n     *\n     * Requirements:\n     *\n     * - the caller must have the `PAUSER_ROLE`.\n     */\n    function pause() public virtual {\n        require(hasRole(PAUSER_ROLE, _msgSender()), \"ERC721PresetMinterPauserAutoId: must have pauser role to pause\");\n        _pause();\n    }\n\n    /**\n     * @dev Unpauses all token transfers.\n     *\n     * See {ERC721Pausable} and {Pausable-_unpause}.\n     *\n     * Requirements:\n     *\n     * - the caller must have the `PAUSER_ROLE`.\n     */\n    function unpause() public virtual {\n        require(hasRole(PAUSER_ROLE, _msgSender()), \"ERC721PresetMinterPauserAutoId: must have pauser role to unpause\");\n        _unpause();\n    }\n\n    function _beforeTokenTransfer(\n        address from,\n        address to,\n        uint256 tokenId\n    ) internal virtual override(ERC721, ERC721Enumerable, ERC721Pausable) {\n        super._beforeTokenTransfer(from, to, tokenId);\n    }\n\n    /**\n     * @dev See {IERC165-supportsInterface}.\n     */\n    function supportsInterface(bytes4 interfaceId)\n        public\n        view\n        virtual\n        override(AccessControlEnumerable, ERC721, ERC721Enumerable)\n        returns (bool)\n    {\n        return super.supportsInterface(interfaceId);\n    }\n}\n",
  "sourcePath": "/Users/alfonsomateosvicente/Documents/Proyectos/Orakler/SmartContracts/contracts/Wizards.sol",
  "compiler": {
    "name": "solc",
    "version": "0.8.10+commit.fc410830.Emscripten.clang"
  },
  "schemaVersion": "3.4.3",
  "updatedAt": "2021-12-27T16:55:45.209Z",
  "networkType": "ethereum",
  "devdoc": {
    "details": "{ERC721} token, including:  - ability for holders to burn (destroy) their tokens  - a minter role that allows for token minting (creation)  - a pauser role that allows to stop all token transfers  - token ID and URI autogeneration This contract uses {AccessControl} to lock permissioned functions using the different roles - head to its documentation for details. The account that deploys the contract will be granted the minter and pauser roles, as well as the default admin role, which will let it grant both minter and pauser roles to other accounts.",
    "kind": "dev",
    "methods": {
      "approve(address,uint256)": {
        "details": "See {IERC721-approve}."
      },
      "balanceOf(address)": {
        "details": "See {IERC721-balanceOf}."
      },
      "burn(uint256)": {
        "details": "Burns `tokenId`. See {ERC721-_burn}. Requirements: - The caller must own `tokenId` or be an approved operator."
      },
      "constructor": {
        "details": "Grants `DEFAULT_ADMIN_ROLE`, `MINTER_ROLE` and `PAUSER_ROLE` to the account that deploys the contract. Token URIs will be autogenerated based on `baseURI` and their token IDs. See {ERC721-tokenURI}."
      },
      "getApproved(uint256)": {
        "details": "See {IERC721-getApproved}."
      },
      "getRoleAdmin(bytes32)": {
        "details": "Returns the admin role that controls `role`. See {grantRole} and {revokeRole}. To change a role's admin, use {_setRoleAdmin}."
      },
      "getRoleMember(bytes32,uint256)": {
        "details": "Returns one of the accounts that have `role`. `index` must be a value between 0 and {getRoleMemberCount}, non-inclusive. Role bearers are not sorted in any particular way, and their ordering may change at any point. WARNING: When using {getRoleMember} and {getRoleMemberCount}, make sure you perform all queries on the same block. See the following https://forum.openzeppelin.com/t/iterating-over-elements-on-enumerableset-in-openzeppelin-contracts/2296[forum post] for more information."
      },
      "getRoleMemberCount(bytes32)": {
        "details": "Returns the number of accounts that have `role`. Can be used together with {getRoleMember} to enumerate all bearers of a role."
      },
      "grantRole(bytes32,address)": {
        "details": "Overload {grantRole} to track enumerable memberships"
      },
      "hasRole(bytes32,address)": {
        "details": "Returns `true` if `account` has been granted `role`."
      },
      "isApprovedForAll(address,address)": {
        "details": "See {IERC721-isApprovedForAll}."
      },
      "mint(address,uint256,uint256)": {
        "details": "Creates a new token for `to`. Its token ID will be automatically assigned (and available on the emitted {IERC721-Transfer} event), and the token URI autogenerated based on the base URI passed at construction. See {ERC721-_mint}. Requirements: - the caller must have the `MINTER_ROLE`."
      },
      "name()": {
        "details": "See {IERC721Metadata-name}."
      },
      "ownerOf(uint256)": {
        "details": "See {IERC721-ownerOf}."
      },
      "pause()": {
        "details": "Pauses all token transfers. See {ERC721Pausable} and {Pausable-_pause}. Requirements: - the caller must have the `PAUSER_ROLE`."
      },
      "paused()": {
        "details": "Returns true if the contract is paused, and false otherwise."
      },
      "renounceRole(bytes32,address)": {
        "details": "Overload {renounceRole} to track enumerable memberships"
      },
      "revokeRole(bytes32,address)": {
        "details": "Overload {revokeRole} to track enumerable memberships"
      },
      "safeTransferFrom(address,address,uint256)": {
        "details": "See {IERC721-safeTransferFrom}."
      },
      "safeTransferFrom(address,address,uint256,bytes)": {
        "details": "See {IERC721-safeTransferFrom}."
      },
      "setApprovalForAll(address,bool)": {
        "details": "See {IERC721-setApprovalForAll}."
      },
      "supportsInterface(bytes4)": {
        "details": "See {IERC165-supportsInterface}."
      },
      "symbol()": {
        "details": "See {IERC721Metadata-symbol}."
      },
      "tokenByIndex(uint256)": {
        "details": "See {IERC721Enumerable-tokenByIndex}."
      },
      "tokenOfOwnerByIndex(address,uint256)": {
        "details": "See {IERC721Enumerable-tokenOfOwnerByIndex}."
      },
      "tokenURI(uint256)": {
        "details": "See {IERC721Metadata-tokenURI}."
      },
      "totalSupply()": {
        "details": "See {IERC721Enumerable-totalSupply}."
      },
      "transferFrom(address,address,uint256)": {
        "details": "See {IERC721-transferFrom}."
      },
      "unpause()": {
        "details": "Unpauses all token transfers. See {ERC721Pausable} and {Pausable-_unpause}. Requirements: - the caller must have the `PAUSER_ROLE`."
      }
    },
    "version": 1
  },
  "userdoc": {
    "kind": "user",
    "methods": {},
    "version": 1
  }
}